:020000041008E2
:4000000000780408EB0208100D0000005103081051030810510308105103081000000000000000000000000000000000A14708104D0308100000000041480810A54808106C
:400040004D0308104D0308104D0308104D0308104D0308104D0308104D0308104D0308104D0308104D0308104D0308104D0308104D0308104D0308104D0308104D03081000
:400080004D0308104D0308104D0308104D0308104D0308104D0308104D0308104D0308104D0308104D0308104D0308104D0308104D0308104D0308104D0308104D030810C0
:4000C0004D0308104D0308104D0308104D0308104D0308104D0308104D0308104D0308104D0308104D0308104D0308104D0308104D0308104D0308104D0308104D03081080
:400100004D0308104D0308104D0308104D0308104D0308104D0308104D0308104D0308104D0308104D0308104D0308104D0308104D0308104D0308104D0308104D0308103F
:400140004D0308104D0308104D0308104D0308104D0308104D0308104D0308104D0308104D0308104D0308104D0308104D0308104D0308104D0308104D0308104D030810FF
:400180004D0308104D0308104D0308104D0308104D0308104D0308104D0308104D0308104D0308104D0308104D0308104D0308104D0308104D0308104D0308104D030810BF
:4001C0004D0308104D0308104D0308104D0308104D0308104D0308104D0308104D0308104D0308104D0308104D0308104D0308104D0308104D0308104D0308104D0308107F
:400200004D0308104D0308104D0308104D0308104D0308104D0308104D0308104D0308104D0308104D0308104D0308104D0308104D0308104D0308104D0308104D0308103E
:400240004D0308104D0308104D0308104D0308104D0308104D0308104D0308104D0308104D0308104D0308104D0308104D0308104D0308104D0308104D0308104D030810FE
:400280004D0308104D0308104D03081010B5054C237833B9044B13B10448AFF300800123237010BD844902080000000084840810084B10B51BB108490848AFF30080084876
:4002C000036803B910BD074B002BFBD0BDE81040184700BF00000000884902088484081054430208000000007047FFF7FDFF72B6104C114DAC4209DA21686268A368043B1A
:40030000A2BFC858D050FAE70C34F3E70B490C4A00209142BCBF41F8040BFAE709480A490860BFF34F8F00F02FFA00F009FA00F01DF9FEE788840810A08408108449020816
:40034000280E03080040020808ED00E0FEE7FEE700B504207146084202D0EFF3098001E0EFF30880043002F083FEFEE7F0B585B0064617461C460F4D284600F8011B1A4642
:40038000394604F0CBFF8DF8006001950134029400238DF80C30084A6946084802F00EF904464FF0FF31064B186803F05BFA204605B0F0BDA04902084C0D030800006440F7
:4003C000480D0308F0B587B0054617461E468DF807108DF808000DF107030393012304938DF81430124A02A9124802F0E7F8124CE0604FF0FF31114B186803F033FAE368E4
:400400008BB98DF80850039704968DF81430084A02A9084802F01AF8E0604FF0FF31074B186803F01FFA044BD86807B0F0BD00BF4C0D030800006440A0490208480D0308B3
:4004400000B583B010F4002F07D00E4805F05CFC70210D4802F0FCFD11E010F4C02F0ED001A90A4B186803F0F3F8019B3BB14FF08052074B1A60BFF34F8FBFF36F8F03B09F
:400480005DF804FBC87C0810F47C0810480D030804ED00E008B500F0BFFD144A144B5A6414486823437400238374134BC362134B0363134B4363103000F0EEFCC0B298B90F
:4004C0000C4805234375032383750223C375112202750D22427700228277C37715230377103000F01FFDC0B240B208BD410408104C0D0308A0490208C50308106D03081023
:40050000BD3F081000B585B003220021012002F03FFF114B186010B9104805F083FBFFF7B9FF28B10E4805F07DFB002003F0D2FD0C4B002201A9012000F016FD01230DF129
:40054000030200216820FFF73DFF9DF80310064805F068FBECE700BF480D0308007D0810387D0810B04902087C7D081000B583B062B604F0D7FA074805F0C6FB0023019364
:400580000622009280220449044803F0A1FB03F0D1FBFEE79C7D0810B47D08100505081008B5012001F026F908BD00BF704700BF5C4AD2F8803303F00F0303F1D00152F858
:4005C000212002F00702032A04D0042A05D092B9554914E0554A116811E003F1C002514951F8222002F01F02112A06D0132A04D04FF4FA4103E04E4901E04FF400418BBB22
:40060000484BD3F8902502F00100D3F88825C2F30172D3F8883513F0405F07D0414BD3F88835C3F30173012B02D102E0012300E0002303B108B9032A46D13A48D0F8802525
:40064000C2F31103D0F88425C2F30C02D0F88005C0F300600130B1FBF2F202FB03F2B2FBF0F131E0012B2FD12E4BD3F8402602F00100D3F80026C2F30172D3F8003613F0E5
:40068000405F07D0274BD3F80036C3F30173012B02D102E0012300E0002303B108B9032A12D12048D0F8002602F07F02D0F80036C3F30423D0F80006C0F3044002FB01F241
:4006C000B2FBF3F2B2FBF0F1164BD3F88033C3F3011321FA03F215494A601648D0F89030C3F3072301330069000E0130B2FBF0F08860B2FBF3F3CB600B6103F5742202F256
:400700003F220D48A0FB0202C2F387420A7503F2E7330A4AA2FB03239B098B61DB03CB61704700BF0000264000127A008C42020800366E010000214083DE1B43D34D621010
:4007400008B50D4802F0F8FCFFF730FFFFF730FF00221146042000F015FE084800F0A8FE074B1B6893F8513013B1064800F010FF00F052FD08BD00BF60810810D8490208D8
:40078000980D0308C07D081008B502F0CEFC074AD2F8883043F47003C2F88830BFF34F8FBFF36F8F02F0C5FC08BD00BF00ED00E040B1C2694AB1026A52B1436A5BB94FF002
:4007C000FF3070474FF0FF3070474FF0FF3070474FF0FF3070470020704700BF0222C271082343711021017103218171C2734373142303730023837343688360C368036151
:40080000704700BF4B790F2B0BD84A7A93420BD0027802F0F00203F00F0313430370002070476FF00300704700207047CB79022B08D8CA7A934208D0037803F08F03037045
:40084000002070476FF0030070470020704700BF8B790C2B0BD88A7A93420BD0027802F0F00203F00F0313430370002070476FF003007047002070474B7B0D2B0BD84A7C86
:4008800093420BD0027802F0F00203F00F0313430370002070476FF00300704700207047CB7B022B09D8027802F0CF021B0103F0300313430370002070476FF00300704709
:4008C0008B7B042B0BD88A7C93420BD0027802F0F80203F0070313430370002070476FF0030070470020704738B593B11C46DD6995B19B78012B01D140F0800013460A46AE
:4009000001466078A8470546636A0120984745B105E04FF0FF3504E04FF0FF3501E06FF00105284638BD00BF38B504460D460B46022201464020FFF7D7FF034680B9294621
:400940002046FFF75FFF034650B929462046FFF76DFF034620B92946601CFFF779FF0346184638BD38B504460D460B46022201464220FFF7B9FF034680B929462046FFF77A
:400980007BFF034650B929462046FFF789FF034620B92946601CFFF793FF0346184638BD00B583B002A9002301F8013D034601220220FFF799FF9DF80730C3F34303012BEA
:4009C00006D0022B07D0032B08D0072B0BD108E06FF0050007E06FF0060004E06FF0070001E06FF0080003B05DF804FB30B585B005460C460023019302938DF80C301346BB
:400A0000821D01A91220FFF76FFF48BB02469DF805301B021BB29DF804100B4323809DF807301B021BB29DF806100B4363809DF809301B021BB29DF808100B43A380032DA6
:400A40000BD19DF80A009DF80B309DF80C10090441EA03230343A36004E00023A36001E06FF00102104605B030BD00BF10B584B00C4613460021009101910291CDF80B1074
:400A800010BB062269460C20FFF72EFF0146002846D19DF801301B021BB29DF80020134323809DF803301B021BB29DF80220134363809DF805301B021BB29DF804201343FC
:400AC000A3800023A36030E002460C3269460C20FFF70AFF014630BB9DF801301B021BB29DF80020134323809DF803301B021BB29DF80220134363809DF805301B021BB257
:400B00009DF804201343A3809DF80C009DF80D309DF80E20120442EA03230343A36004E06FF0010101E06FF00101084604B010BD70B584B006460D461446002200920192AD
:400B40000292CDF80B2000F10C0269460C20FFF7CBFE002843D102469DF801301B021BB29DF800100B4323809DF803301B021BB29DF802100B4363809DF805301B021BB250
:400B80009DF804100B43A3809DF807301B021BB29DF806100B432B809DF809301B021BB29DF808100B436B809DF80B301B021BB29DF80A100B43AB80032E0CD19DF80C0092
:400BC0009DF80D309DF80E10090441EA03230343AB60A36005E00023AB60A36001E06FF00102104604B070BD2DE9F843002B31D00546894690461E461C6A74B39B78012B71
:400C000001D100F07F05337A112B02D0337C152B19D143464A4629467078A0470746736A0120984714E0376A012309EB040229467078B84707460135EDB2736A0120984751
:400C40000134E4B201E000242746A3B24345EAD347B105E04FF0FF3704E04FF0FF3701E06FF001073846BDE8F88300BF10B582B0044602A8002320F8043D2146FFF754FE37
:400C80000346C8B92346012201A94020FFF7ACFF034688B963796372E379E372636A01209847234601220DF105014120FFF79CFF034608B9A279A272184602B010BD00BF23
:400CC00010B582B0044602A8002320F8043D2146FFF748FE0346C8B92346012201A94220FFF782FF034688B9637B6374E37BE374636A01209847234601220DF1050143205D
:400D0000FFF772FF034608B9A27BA274184602B010BD00BF30B583B004460D4600238DF807300B46012201464020FFF7DDFD034628BB2A79122A14D1237863F07F03237001
:400D40002B46012221464020FFF74EFF0346B0B92B4602220DF107015820FFF745FF03460DE0227812F0800F09D002F07F0222702B46012221464020FFF736FF034618466A
:400D800003B030BD30B583B000238DF807300279A2F11003DBB2022B1AD8037A9A421AD0044601460DF10700FFF7B4FF054698B923460122211D7E20FFF716FF0546237A56
:400DC000102B02D1636A052098472379237203E06FF0030500E00025284603B030BD00BF38B5027BA2F11403DBB2012B01D9172A1DD1037C9A421DD004460346012200F102
:400E00000C017E20FFF7F0FE0546237C142B03D1636A5120984707E0172B05D1237B152B02D1636A0A209847237B237403E06FF0030500E00025284638BD00BF30B583B0C5
:400E4000B6238DF80730F0B10446436AF3B1034601220DF107017E20FFF7C6FE0546636A0F20984755B9A378012B07D1234601220DF107017F20FFF737FD054645B920467A
:400E8000FFF7ACFC04E04FF0FF3501E04FF0FF35284603B030BD00BF10B582B00446FFF787FC034648B9A278012A06D123460DF107017F20FFF718FD0346C3B92346012292
:400EC0000DF106010020FFF70FFD58B99DF80630D12B0AD12370FF23E3702046FFF7AEFF034604E06FF0020301E06FF00203184602B010BD60B1426A6AB110B50446FFF777
:400F000041FF034658B92046FFF76AFF034606E04FF0FF3301E04FF0FF3318467047184610BD00BFB0B1426ABAB110B50446FFF79DFE0346A8B92046FFF7C2FE034680B901
:400F40002046FFF7D7FF034658B92046FFF728FD034606E04FF0FF3301E04FF0FF3318467047184610BD00BF38B500F0030510F0040F01D1002000E00320B3B11446022D99
:400F800008D0032D0CD0012D12D1A1B11A46FFF72DFD38BD92B11A462146FFF767FD38BD7AB189B1FFF7C4FD38BD4FF0FF3038BD6FF0040038BD4FF0FF3038BD4FF0FF307F
:400FC00038BD4FF0FF3038BD4FF0FF3038BD00BF10B504462146034800F04CFC0028F9D010BD00BF00006640054BD3F80833C3F30803002BF8D0024BD3F84003704700BF80
:401000000000664008B50249024801F033FC08BD4C0D03080000644010B5144B1B788BB9134C144A1449204601F01AF8134A1449204601F023F91349134801F0CDFF012289
:401040000A4B1A70104BB3F90030002B08DB590903F01F03012202FA03F30C4A42F82130034A136843F00043136010BD584B0208000064404C0D03080C7E081084D7170098
:40108000A086010005100810047E081000E100E01F4B98422DD00CD840282ED003D8E8B1102828D02FE0802829D0B0F5807F28D029E0184B984228D006D8B0F1204F0DD0FD
:4010C000154B984212D01EE0144B98420AD00133984209D0023B984215D101E0002070470F4870470F4870470F4870474FF4A0007047074870470D4870470D4870470D48F0
:401100007047034870470C4870474FF4A400704706005200010000F0090000A0040000F0010052000200520003005200010050000200500005005200FF00520038B5124BD6
:401140001B6893F83130012B04D840F2C3110F4801F07EFF0C4B1D682A6AB5F8B03013442C46D5F8B420D358002B0BDB084B1868FFF78EFF6B6801229A6063689B68002B4B
:40118000FBD138BD034838BD980D0308207E08105C4B0208020050001A4B186128B102230370FF23437000234380174B1B6893F850202AB300B583B0B3F93830ADF800302D
:4011C000002301931149684601F006FFBDF90030002B08DB590903F01F03012202FA03F30B4A42F82130084B1B6893F8513023B102220849012000F077FA03B05DF804FB26
:40120000704700BF5C4B0208980D0308C543020800E100E07D44020808B50248FFF7BCFF08BD00BF704B020838B50B4B1B68D3F8B4301B58002B0DDA0D4604460B0C1B046B
:4012400023B140F2D521054801F002FFA9B26160002038BD024838BD980D0308607E081001008A0038B50368002B01DA002300E0094B73B90D460446C2600B0C1B0423B1E8
:4012800040F2BB21054801F0E3FEA9B2A160002038BD014838BD00BF01008A00607E081038B504460D4619B99921084801F0D0FE074B1B68D3F8B4301B59002B03DAE368A2
:4012C0002B60002038BD034838BD00BFA07E0810980D030801008A00254B1B6893F8313083423AD900293AD00B6813F01F0F38D170B50D4604461E4B1B6893F831309842D3
:4013000004D340F2C3111B4801F0A2FE184B1B68186AB3F8B03004FB0304174E34602A68D2080021686804F004F800212046FFF77BFF346825B940F293310E4801F088FE69
:401340002A4600212046FFF78DFF60B900210A4B1868FFF769FF40B970BD084870470748704706487047064870BD054870BD00BF980D0308607E0810744B020803018A009E
:4013800001018A0010B504461346B2B9A9B9124B1B6893F83130984204D340F2C3110F4801F056FE0C4B1B681A6AB3F8B03004FB03240B4B1C60002010BD43B149B1084A3F
:4013C00051609360111D2046FFF786FF10BD054810BD044810BD00BF980D0308607E0810744B020803018A002DE9F0411B4B1B68DC68236883422CD90D464609A0EB461032
:40140000012303FA00F819B901F08FFE074600E00027124B18680368002B01DA002300E00F4B83B9626852F8263018EA030F05D023EA080342F82630002400E0094C002193
:40144000FFF7F2FE00E0084C25B9384601F071FE00E0064C2046BDE8F08100BF744B020801008A00020188000301880004018A000B4B1B68DB681A6882420CD94109A0EB13
:401480004110012202FA00F05B6853F82130184203D004487047044870470448704700BF744B02080101880004018A0000018800024B1B680BB9014B18607047804B020829
:4014C0002DE9F8430446884691461D46089F2C4B1B681BB9B5212B4801F0BAFD284B1B682C2000FB04F01C18EEB21E50C5F3072363602D0CA560244B1B6893F831309E42CF
:4015000004D340F2C311214801F0A2FD1E4B1B68196AB3F8B02006FB02162661666893F832309E4204D340F2DF11184801F090FD154B1B681D6A803605EB46156561A6689A
:40154000330C1B0423B14FF4FF71104801F080FD330C1B0423B140F2FF110C4801F078FDB3B243EA0646AE60C4F81C90C4F820800023A36117B1B7F90030A381BDE8F883CF
:40158000804B0208E07E0810980D0308607E0810F0B58FB0044618B95221274801F058FDA369072B03D95621234801F051FDE36A1BB95821204801F04BFD236B1BB95921C1
:4015C0001D4801F045FD07AD04F114060FCE0FC537682F6002AD26460FCE0FC533682B60164B1B68B3F93620079B1344ADF83030089B0D93A26AE16A0CAD00953B460A98D0
:40160000FFF75EFF00210091069B0A460598FFF757FF216B284601F0DFFCBDF93030002B08DB590903F01F03012202FA03F3044A42F821300FB0F0BDE07E0810980D0308EA
:4016400000E100E0F8B506460F461D4614461AB9FD211F4801F0FCFC1E4B1B681BB9FE211B4801F0F5FC1B4B1B682C2101FB063001FB07314B68012202FA03F31B04466808
:4016800002FA06F60269EAB18F69EFB91268002A01DA002200E0104AC2B92288134323600369DC6001238B614D620469330C1B0423B140F2BB21094801F0CAFCB2B2A26031
:4016C0000020F8BD0648F8BD0648F8BD0548F8BDE07E0810804B020801008A00607E081004028A0007028A00F8B505460F4616460E4B1B6823B94FF4AF710D4801F0A8FC70
:401700000A4B1B682C2404FB0534236A23B94FF4B171074801F09CFCE369B34204D9236A43F826700020F8BD0248F8BD804B0208E07E08100A028A0070B582B00023019364
:40174000044620B940F2D111284801F081FC236923B94FF4E971254801F07AFC636923B940F2D311214801F073FC236A23B94FF4EA711E4801F06CFC6369DD682A0C20D0F7
:4017800012041A601B682069194B1B68D3F8B430C358002B15DA01A9FFF782FD60B9019803681E0CDBB2E269934206D2226A52F8233013B1984700E0002631462069FFF70F
:4017C00033FDADB275B16369ADB21D601B68636A1BB198470023636202E0A36A03B198470023A36163691B6802B070BDE07E0810980D030810B50446074B1B6823B940F2BA
:40180000B111064801F024FC034B1B682C2000FB0430FFF791FF10BD804B0208E07E081010B4D0F8003303F00F03072B06D900230DE0D0F84043CC54013300E00023934241
:40184000F7D306E0D0F8404321F8134001339342F8D35DF8044B704710B51446D0F80833C3F308039A4200D31C462246FFF7D8FF204610BD036813F4006F01D0802200E042
:401880004022D0F80832C3F30803934203D0C0F84012012070470020704700BF10B4D0F8003203F00F03072B06D900230DE0CC5CC0F84042013300E000239342F7D306E0E1
:4018C00031F81340C0F8404201339342F8D35DF8044B704710B51446036813F4006F01D0802200E04022D0F80832C3F30803D31AA34200D81C462246FFF7D0FF204610BD1F
:4019000002E0C0F84012013A002AFAD1704700BF10B51446036813F4006F01D0802200E04022D0F80832C3F30803D31AA34200D81C462246FFF7E4FF204610BD10B54A68A6
:4019400041F201039A4231D1D0F80833C3F30803B3B10B6A43F040030B620B7873B1D0F8043343F48033C0F80433D0F8043323F48033C0F80433D0F8043301E0D0F8403380
:401980000B6A43F020030B620B6A23F010030B62036E23F4204303660023C0F8C83F0123C0F8C03FD0F8C03F202221E0D0F80832C3F30802D0F80832C3F3C03313440A6B93
:4019C000D21A4A630A6A12F0080F05D1CA6A1A44CA628A6AD31A8B620B6A43F004030B620B6A23F001030B620023C0F8883F1022D0F84C4F40F201131C420DD0036823F014
:401A00000043036000238366C366036843F000430360036842F040024FF080534B604B6C0BB11046984710BDD0F80C3F13F0020F1DD00222C0F8002FD0F8002FD0F8002F69
:401A400012F0040F02D04FF4001001E04FF480108A6802438A604A68B2F5B81F07D00A7B12B14FF4C01201E04FF4B0124A6013F4807F03D08A6842F400028A6013F0010F63
:401A800003D08A6842F480028A6040F21112134202D04FF4C0134B60704700BF0023C0F8C83FC0F8883F836E23B140F21713C0F8083F704740F21313C0F8083F1823836659
:401AC0004FF4B8134B60704738B5D0F80C4F036E23F4807303660023C0F8C83FC0F8883FC0F8083F40F21713C0F8003FD0F8003F8B6823F480338B604B7B13B18B69CB6176
:401B00000BE08D69D0F80822C2F30802D0F80832C3F3C0331344EB1ACB6140F201131C421BD0036E9B0F032B05D114F4827F14BF0123002300E001235BB1036823F000433E
:401B4000036000238366C366036843F00043036003684FF080534B601BE00B7893B1D0F8043343F48033C0F80433D0F8043323F48033C0F80433D0F804330123C0F8C03F35
:401B8000D0F8C03F0B7B0BB10B4B01E04FF080534B604A6C72B14B7B13B14FF4802001E04FF400308B6813F0F87301D04FF400231843904738BD00BF0000101070B5054680
:401BC0000C4691F8243013F0FF0F0ED1CB6A63B94B6C0BB108209847E36AB3FA83F35B0984F824300123C5F8883F94F8243013F0FF0F16D063783BB12B6813F4006F01D037
:401C0000802202E0402200E00122FF212846FFF77FFE236B18442063236A43F00803236270BDE26A012A11D963780BB1013A00E00122A16A2846FFF74DFE236B0344236385
:401C4000E36A1B1AE362A36A1844A062D5F80832C3F30803802B23D0E36A012B20D101F064FAA36A1B78C5F840324026C5F8806FD5F8803F01F05DFA236B013323630023F3
:401C8000E362A36A0133A362C5F8886F63783BB1236A43F002032362636C0BB10420984770BD00BF38B54B68B3F5A81F03D14FF4C0134B6038BD4B68B3F5A01F4DD10C4637
:401CC00005464A69012A11D94B780BB1013A00E0012221692846FFF7FDFDA3690344A36163691B1A6361236903442361D5F80832C3F30803802B14D06369012B11D101F097
:401D000014FA23691B78C5F840324023C5F8803FD5F8803F01F00DFAA3690133A361002363616369CBB9237B33B14023C5F8883F4FF4A813636005E00023C5F8883F4FF470
:401D4000B0136360637843B1A36843F40033A360636C13B14FF48030984738BD70B504460D468A6C82B3036813F4803F06D0D0F84C3F13F0400F03D0022002E0002000E0CC
:401D80000020236E13F4006F06D1D4F84C3F13F0800300D001231843C0B190470123C4F8C03FD4F8C03F024648B91023C4F8403FD4F8403F40F2D113C4F8483F07E040F293
:401DC000C113C4F8483F02E0002200E00022D4F8043243F48033C4F80432D4F8043223F48033C4F80432D4F804320AB9012300E00223E366002A59D1666E06F010066B6CE8
:401E000023B10EB1012000E0022098477EB141F202036B602B6A43F001032B626B6B2B63002385F824300123C4F8883F70BD41F201036B602B6A43F010032B620123C4F80C
:401E4000C83F2B78BBB1EB6BBBB1236E43F400532366ED6B802D05D9A5F18003802B0ED8813D0DE0013D236E43F4004323660023C4F8C83F04E0002502E0002500E03F25A2
:401E8000236813F4006F01D0802300E040239D4204D34FF42071064801F0DAF8D4F8043323F0FF03EDB21D43C4F8045370BD00BF207F081038B54B68B3F5881F03D0B3F598
:401EC000901F1AD038BD0B69D0F840231A708B6901338B614B69013B4B612BB10B6901330B610423836638BD0B7B13B14FF4C01301E04FF4B0134B6038BD0C4605464A694F
:401F00000969FFF7A9FCA3690344A36163691B1A6361226910442061012B24D82B6E23F480732B666369012B16D12B6813F4006F01D0802300E0402323B94FF4207118480D
:401F400001F086F8D5F8043323F0FF03C5F804334FF48813636038BD0023C5F8C83F4FF4B013636038BD402B01D89C1E00E03F242B6813F4006F01D0802300E040239C42CB
:401F800004D34FF42071064801F062F8D5F8043323F0FF02E3B21343C5F8043338BD00BF207F081038B5CB6B002B50D00B78002B3FD00C460546D0F80423D2B20132896B19
:401FC000FFF74AFC236C03442364E36B1B1AE363A26B1044A063802B06D9A3F18002802A0FD8A3F181040DE02B6E43F400432B66E36B0BB15C1E00E000240023C5F8C83FD1
:4020000000E03F242B6813F4006F01D0802300E040239C4204D34FF42071104801F018F8D5F8043323F0FF02E3B21343C5F8043338BD0123C3668A6B0B6CD0F84003D054E7
:402040000B6C01330B64CB6B013BCB6338BD0223C3660023C0F8C83F38BD00BF207F0810F8B50B78012B03D00C7A1CB9002702E0002700E00127002800F0A780002900F0FC
:40208000A680002A00F0A58016460C460546013BDBB2022B03D94F214F4800F0D9FF637803B163791BB150214B4800F0D1FF94F90330002B03DA5121474800F0C9FF237909
:4020C00013F0010F03D05221434800F0C1FF2369102B03D95321404800F0BAFFE368102B03D954213C4800F0B3FF637913B14FF4803100E00021E27912B14FF4807300E03E
:4021000000230B4343F400632B60A37913B94FF4006300E000232269013A02F00F021A43E368013B1B01DBB21343227843EA82732B6617B140F2073301E040F20713C5F861
:4021400000330FB1254B00E0254B2B6763780BB17F2300E00023C5F80433E3785B00DBB2227943EA0243C5F810331E4BC5F80032A3780BB1402300E00123C5F804320023EE
:40218000C5F8C83EC5F8883EC5F8C83FC5F8883FC5F8083F2378022B02D040F2D11300E00023C5F8483F63783370A37873704FF0805373600020B060B06130623064F0637B
:4021C0003063F0627064B064F8BD0748F8BD0648F8BD0548F8BD00BF647F081003002A0013102A00070101000120AA0038B505460C4621B940F2C321194800F029FF2B6EC0
:402200009B0F012B17D1174B2344174A93421ED9A4F5BD13A3F5D66302F5611202F56162934216D9A4F57104A4F533440F4B9C4211D80F4838BD84B1286EC0F303102B6E13
:4022400003F00F0318440230B4FBF0F038BD094838BD094838BD002038BD002038BD00BF647F081020AD88FF405B730040555C0440420F00801A0600A08601002DE9F843D7
:4022800007468846914622B940F21221624800F0DFFE08F1FF34614B9C4204D940F213215D4800F0D5FE3B6E9B0F012B0DD149463846FFF79BFF0546D7F8003323F4007343
:4022C000C7F80033564B3B67A2E0544B9C421FD8544B984509D8A9F5BD13A3F5D663524A934218D90021012328E0504B984507D84F4B4B444F4A934213D9002101231DE04C
:402300004D4B4B444D4A934212D90021012315E00021012312E0002141F288352E460B460CE000214FF461754FF4C8660B4605E001214FF4BE754FF41B760023002B66D11A
:402340003F4BB3FBF9F3B6FBF3F404FB03F2964200D90134102C00D910240F2C8CBF00220122B5FBF3F606FB03F39D4200D90136102E00D91026A519B9FBF5F50FE022B1C9
:402380000F2C09D80134002206E00F2E04D801360F2C8CBF00220122A519B9FBF5F5454502D9A3191F2BEAD941B1D7F8003343F40073C7F80033234B3B6707E0D7F8003396
:4023C00023F40073C7F80033154B3B67E31F092B04D940F283511C4800F03AFE3B6E23F0F003013C2401E4B223433B66731F0B2B04D94FF4B461144800F02AFE3B6E23F0DF
:402400000F03013E06F00F061E433E6600E000252846BDE8F88300BF647F08103F420F0013102A00A0860100502D1900801A060020AD88FFA0432100807E25FFC02BAF00A0
:4024400000CA9A3B03002A00A47F081070B5044615460E4621B940F2D341554800F0F8FD73680BB1B36823B940F2D441504800F0EFFD96F90030002B04DA40F2D5414C48A8
:4024800000F0E6FD0023C4F8483F6B6813F0805F00F0888033785B00DBB243F001034FF48032AA6072682A61B2686A610022AA61EA61327B2A7301226A7340F21712C4F84A
:4024C000002FD4F8002FD4F8042242F48032C4F80422D4F8042222F48032C4F80422D4F804226A68B2F1805F04D1C4F840320223A36609E0626E12F0200F01D0092200E01D
:402500000122A266C4F840322B7843B32B7B33BB6B69012B23D9236E43F4807323666E69802E01D8023E00E03F26236813F4006F01D0802300E040239E4204D34FF42071AF
:402540001C4800F085FDD4F8043323F0FF03F6B21E43C4F804634FF490136B6015E0236813F4006F01D0802300E0402323B94FF42071104800F06CFDD4F8043323F0FF036A
:40258000C4F804334FF488136B6000F0CEFD0123C4F8C83F40F21313C4F8083F00F0C9FD002000E0044840F2D113C4F8483F70BD647F0810207F08100220AA00F8B5044685
:4025C00015460E4621B940F2B7514B4800F040FDB36833B1736823B94FF4B761464800F037FD96F90030002B04DA40F2B951424800F02EFD0023C4F8483F6B6813F0805FD1
:4026000073D037787F00FFB24FF48033AB6073682B61B3686B610023AB61EB61327B2A736B7340F21713C4F8003FD4F8003FD4F8043243F48033C4F80432D4F8043223F42D
:402640008033C4F80432D4F804326B68B3F1805F09D1C4F840724023C4F8803FD4F8803F0223A36617E0636E13F0200F01D0092300E00123A3666B695BB900F056FDC4F893
:4026800040724023C4F8803FD4F8803F00F051FD01E0C4F840724FF4A0136B606B780BB1402500E00125236813F4006F01D0802300E040239D4204D34FF43A710F4800F004
:4026C000C7FCD4F8043223F0FF032B43C4F8043200F02BFD0123C4F8883F40F21313C4F8083F00F026FD002000E0054840F2D113C4F8483FF8BD00BF647F0810207F0810A7
:402700000220AA0070B504460E46D0F88C3E13F0010F07D04FF480534B600123C0F8803ED0F8803ED4F84C5F40F201131D420FD0336A15F4807F02D04FF4807200E0802284
:40274000134333620023C4F8C83F45F010050EE015F0100F0BD0D4F80833C3F3080333B1F36B23B10123C4F8C43FC4F8C83FD4F8CC3F13F0010F08D031462046FFF712FC2A
:402780000123C4F8C03FD4F8C03F15F0100F0AD031462046FFF7D2F81023C4F8403FD4F8403FD4F84C5F15F0C00F0DD031462046FFF7D4FA0123C4F8803ED4F8803EC02347
:4027C000C4F8403FD4F8403FD4F88C3F13F0410F08D031462046FFF7F1F90123C4F8803FD4F8803F70BD00BF70B506460D46D0F8004E14F0020F0AD0836E2BB1002383661C
:402800008B6843F080738B604FF4C0136B6014F0010F05D029463046FFF706F924F0040414F0080F08D029463046FFF743FB0123C6F8C03FD6F8C03F14F0040F08D02946BC
:402840003046FFF72FFA0123C6F8803FD6F8803F6B68B3F5C01F03D129463046FFF734F96B68B3F5B01F03D129463046FFF716F970BD00BF08B54B6813F4801F02D0FFF78D
:40288000B3FF08BDFFF73EFF08BD00BF2DE9F84305460C46036813F4006F02D04FF0800801E04FF04008D5F8007207F00F07A26A012A19D9D4F82490E262561EB9F1000FB4
:4028C00000D026B940F27351254800F0C1FB324649462846FEF7FEFFA36A1B1AA362072F00D9400048446062D5F80832C3F30803984533D0A36A012B30D10023A362072F8F
:4029000002D8636A1E7801E0636A1E8800F00DFCC5F840624FF40073C5F8803FD5F8803F00F007FCD5F8883F23F4007222F0010242F4007623F4EE6323F0030323B140F298
:402940002A41084800F084FBC5F8886F236843F002032360236B0BB101209847BDE8F883E47F0810207F08102DE9F04105460C46036813F4006F01D0802600E04026760897
:40298000A769D4F81C8017B1B8F1000F04D14FF49961314800F05CFB424639462846FEF75BFF236A03442362E3691B1AE36173BBA368FBB1E3689E4201D8013E00E05E1EE7
:4029C0002B6813F4006F01D0802300E040239E4204D34FF42071214800F03AFBD5F8043323F0FF03F6B21E43C5F804630123C5F8C83F02E00023C5F8C83F636823F0010325
:402A00006360236B33B304209847BDE8F081A169D5F8002302F00F02072A00D940000844A0619E4216D95C1E2B6813F4006F01D0802300E040239C4204D34FF420710748D1
:402A400000F006FBD5F8043323F0FF02E3B21343C5F80433BDE8F081E47F0810207F0810002800F0A48170B50546002900F0A18116460C460B78022B03D93F21A24800F0CA
:402A8000E7FA637B023BDBB2062B03D940219E4800F0DEFAA37B3BB1022B05D0032B03D04121994800F0D4FA94F82130012B03D94221954800F0CCFA94F82830012B03D99C
:402AC0004321914800F0C4FA2378012B06D86368083B082B94BF0023012307E0A37F2BB16368013B062B94BF002301231BB14521854800F0ADFAA368053B042B03D9462161
:402B0000814800F0A5FA6369FF2B03D947217E4800F09EFAA369FF2B03D948217A4800F097FAA37C6BB1237833B9A368092B05D1A37B2BB1012304E0012302E0012300E014
:402B400000231BB14A21704800F082FA636B23F4366323F00D031BB14C216B4800F078FAE36B23F4EE6323F003031BB14D21664800F06EFA2378022B01D1A37F13B162688F
:402B8000013A00E00022237F13B14FF4803100E00021A368082B02D84FF4006300E000230B4302F00F02134343F000732B60226B2B6813F4006F01D0802300E040239A42BB
:402BC00003D36221504800F043FAA26B2B6813F4006F01D0802300E040239A4203D36321494800F035FA626A2B6813F4006F01D0802300E040239A4203D36421424800F0C7
:402C000027FA23781B0603F040732B64637F0BB1402200E00022A37C13B14FF4806300E000231343227C12B14FF4807200E000221343627C12B14FF4007200E000221A437B
:402C4000E36A013B1B0403F470231343627B013A02F007021343A27B120102F030021343AB64237B13B14FF4807200E00022E37B23B92378022B03D1012302E0012300E031
:402C8000002313B14FF4007300E000231A43A368013B03F00F031343C5F80033227DA3691B0403F47F031343C5F81033E26AD5F8003303F00F0303339A4201D3102A03D99F
:402CC0007A21114800F0C4F9E37F23B12378012B03D0002302E0002300E0012313B14FF4807200E00022637B013B03F007031A43A37B1B0103F0300313436B64237B2BB1C9
:402D00004FF4807203E000BF248008100022A368013B03F00F0313432278012A02D14FF4803200E000221343C5F8003294F83030C5F8043394F8203013B14FF0007200E057
:402D4000002294F82130012B02D14FF0807300E00023134394F82820012A02D14FF4803200E00022134394F8242013432B6594F83830C5F80432636B23F4926323F002031C
:402D80001B051B0DC5F8C83FE36B23F08C035B055B0DC5F8883F76B1002070603060B060F0603062F0623063044B736370BD04487047034870BD002070BD00BFEFCDAB000D
:402DC0000160AA000B694A69934202D34869181A7047CA694869101A184470472DE9F04107460D46036813F4006F02D04FF0800801E04FF040084FEA5808D7F80863C6F3E7
:402E000008062C6926E00134EB689C4200D100246B699C420FD12B6B0BB1082098476B699C4208D10023C7F8C83F0CB1013C13E0EC68013C10E0D7F84023D7F8003303F09A
:402E40000F03072B02D8AB681A5502E0AB6823F81420013E002ED6D12C61EC6829463846FFF7B0FF201A804519D908B1441E00E000243B6813F4006F01D0802300E0402307
:402E80009C4204D34FF42071064800F0E1F8D7F8040320F0FF03E0B21843C7F80403BDE8F08100BF207F081038B504460D46D0F8003E13F0080F35D0D0F8CC3F13F4487307
:402EC0000AD04A681A434A60C0F8C03FD0F8C03F0B6B0BB110209847D4F8CC3F13F4006F09D06B6843F400636B604FF40063C4F8C03FD4F8C03FD4F8CC3F13F0010F11D02B
:402F0000EB6923B129462046FFF72EFD05E0AB681BB129462046FFF761FF0123C4F8C03FD4F8C03FD4F8003E13F0040F2ED0D4F88C3F13F4A0630AD02A681A432A60C4F80C
:402F4000803FD4F8803F2B6B0BB120209847D4F88C3F13F0010F08D029462046FFF796FC0123C4F8803FD4F8803FD4F88C3F13F4007F0BD00022C4F8882F2B6823F0010356
:402F80002B60EA622B6B0BB10220984738BD00BF38B50D4B9A680D4B9A420FD10D46044621B940F237110A4800F052F804F11003064A52F8230042F8235038BD1030054B64
:402FC00053F8200038BD00BF00ED00E000400208648008100000081048B338B504460D464368072B03D93221134800F031F8B4F900306268002B08DB5201D2B203F160435F
:4030000003F5614383F8002305E003F00F035201D2B20A49CA540A4B9A680A4B9A4208D12946B4F90000FFF7B3FF002038BD06487047002038BD00BF6480081014ED00E034
:4030400000ED00E0004002080100560001BEFEE738B50D46044C18220146204602F064FEA5610020FFF7F2FFF0480208FEE700BF08B50268254BDA6142681A6282685A62E2
:40308000C2689A620269DA6242691A6382695A63C2699A631E4A916AD963D16A1964516A5964516B9964926BDA64F1EE103A13F0900F27D0026A154B1A65426A5A65826A24
:4030C0009A65C26ADA65026B1A66426B5A66826B9A66C26BDA66026C1A67426C5A67826C9A67C26CDA67026DC3F88020426DC3F88420826DC3F88820C26DC3F88C20026EC6
:40310000C3F89020FFF7B2FF08BD00BFF048020800ED00E0000000000230800803D001300238FCD100BF00BF7047EFF3108072B6704780F310887047014B1860704700BFA3
:40314000980D030800F1080343604FF0FF328260C360036100230360704700BF00230361704700BF43684B609A688A609A68516099600861036801330360704730B40D68C5
:40318000B5F1FF3F01D1026907E000F1080200E01A4653681C68A542FAD253684B6099608A605160086103680133036030BC704703694268816891608268416851605A68DC
:4031C000904201D182685A60002202611A68013A1A601868704700BF10B5044601F0F2FAA26BE36B9A4201D1012400E0002401F00BFB204610BD00BF10B5044601F0E2FAF2
:40320000A36B0BB9012400E0002401F0FDFA204610BD00BF70B504461646856B026CFAB166B9806802F07AF8A268236C1344A3606268934214D32368A36011E0C06802F068
:403240006DF8236C5B42E2681A44E26021688A4202D262681344E360022E01D105B1013D0135A563002070BD026C72B110B50346C4681444C4604068844201D31868D86084
:403280000846D96802F04AF810BD704738B5054601F098FA95F8454064B20AE06B6A53B105F1240000F0AAFF08B101F035F8013C64B2002CF2DCFF2385F8453001F0A4FAA7
:4032C00001F080FA95F8444064B20AE02B6953B105F1100000F092FF08B101F01DF8013C64B2002CF2DCFF2385F8443001F08CFA38BD00BF38B540B94FF03F0383F3118873
:40330000BFF36F8FBFF34F8FFEE704460D4601F059FA2168E26B236C03FB021060600020A063A160013A02FB0313E360FF2384F8443084F845307DB92369ABB104F1100077
:4033400000F05CFF80B14FF08052094B1A60BFF34F8FBFF36F8F07E004F11000FFF7F2FE04F12400FFF7EEFE01F04EFA012038BD04ED00E010B5029B0C4609B91B6000E0F4
:403380001A60D8631C6401211846FFF7B3FF10BD40B94FF03F0383F31188BFF36F8FBFF34F8FFEE7F0B583B0034611B101FB00F000E000201D4617460C46483001F044FBAC
:4033C000064638B100903B4600F1480221462846FFF7D0FF304603B0F0BD00BFF0B585B0019240B94FF03F0383F31188BFF36F8FBFF34F8FFEE7044619B9026C1AB9012282
:4034000002E0012200E0002242B94FF03F0383F31188BFF36F8FBFF34F8FFEE7022B03D1E26B012A02D102E0012200E0002242B94FF03F0383F31188BFF36F8FBFF34F8FB7
:40344000FEE71D460E4600F06FFF18B9019B1BB9012302E0012300E0002343B94FF03F0383F31188BFF36F8FBFF34F8FFEE7002701F0A8F9A26BE36B9A4201D3022D21D14E
:403480002A4631462046FFF7C5FE636A6BB104F1240000F0B3FE88B14FF08052324B1A60BFF34F8FBFF36F8F08E038B14FF080522D4B1A60BFF34F8FBFF36F8F01F0A4F940
:4034C00001204EE0019B1BB901F09EF9002048E01FB902A800F0D6FE012701F095F900F067FC01F06FF994F844305BB2B3F1FF3F02D1002384F8443094F845305BB2B3F11D
:40350000FF3F02D1002384F8453001F07DF901A902A800F0C1FEF0B92046FFF75DFEA0B1019904F1100000F031FE2046FFF7AEFE00F0CCFC00289BD14FF080520A4B1A6059
:40354000BFF34F8FBFF36F8F92E72046FFF79EFE00F0BCFC8CE72046FFF798FE00F0B6FC002005B0F0BD00BF04ED00E02DE9F84340B94FF03F0383F31188BFF36F8FBFF39D
:403580004F8FFEE7044619B9006C18B9012002E0012000E0002040B94FF03F0383F31188BFF36F8FBFF34F8FFEE7022B03D1E06B012802D102E0012000E0002040B94FF09A
:4035C0003F0383F31188BFF36F8FBFF34F8FFEE71F469046894601F0F9F9EFF311864FF03F0383F31188BFF36F8FBFF34F8FA26BE36B9A4201D3022F1ED194F845506DB2B4
:403600003A4649462046FFF705FEB5F1FF3F0DD1636A9BB104F1240000F0F0FD80B1B8F1000F0FD00120C8F800000CE06B1C5BB284F84530012006E0002004E0012002E023
:40364000012000E0012086F31188BDE8F88300BF40B94FF03F0383F31188BFF36F8FBFF34F8FFEE770B50446036C43B14FF03F0383F31188BFF36F8FBFF34F8FFEE7036897
:403680001BB943681BB9012302E0012300E0002343B94FF03F0383F31188BFF36F8FBFF34F8FFEE70E4601F091F9EFF311854FF03F0383F31188BFF36F8FBFF34F8FA26BB5
:4036C000E36B9A4218D294F845305BB20132A263B3F1FF3F0AD1636A83B104F1240000F08DFD68B176B1012030600CE001335BB284F84530012006E0002004E0012002E002
:40370000012000E0012085F3118870BDF0B585B0019240B94FF03F0383F31188BFF36F8FBFF34F8FFEE7044619B9036C1BB9012302E0012300E0002343B94FF03F0383F38F
:403740001188BFF36F8FBFF34F8FFEE70E4600F0EBFD18B9019B1BB9012302E0012300E0002343B94FF03F0383F31188BFF36F8FBFF34F8FFEE7002701F024F8A56BC5B186
:4037800031462046FFF770FD013DA563236963B104F1100000F032FD38B14FF08052304B1A60BFF34F8FBFF36F8F01F02DF8012053E0019B1BB901F027F800204DE01FB981
:4037C00002A800F05FFD012701F01EF800F0F0FA00F0F8FF94F844305BB2B3F1FF3F02D1002384F8443094F845305BB2B3F1FF3F02D1002384F8453001F006F801A902A8F4
:4038000000F04AFDF0B92046FFF7F6FCA0B1019904F1240000F0BAFC2046FFF737FD00F055FB0028A8D14FF080520D4B1A60BFF34F8FBFF36F8F9FE72046FFF727FD00F026
:4038400045FB99E72046FFF721FD00F03FFB2046FFF7D2FC00288FD0002005B0F0BD00BF04ED00E030B585B0019140B94FF03F0383F31188BFF36F8FBFF34F8FFEE704467D
:40388000036C43B14FF03F0383F31188BFF36F8FBFF34F8FFEE700F047FD18B9019B1BB9012302E0012300E0002343B94FF03F0383F31188BFF36F8FBFF34F8FFEE7002578
:4038C00000F080FFA36BA3B1013BA363236963B104F1100000F092FC38B14FF08052304B1A60BFF34F8FBFF36F8F00F08DFF012053E0019B1BB900F087FF00204DE01DB98A
:4039000002A800F0BFFC012500F07EFF00F050FA00F058FF94F844305BB2B3F1FF3F02D1002384F8443094F845305BB2B3F1FF3F02D1002384F8453000F066FF01A902A8C9
:4039400000F0AAFCF0B92046FFF756FCA0B1019904F1240000F01AFC2046FFF797FC00F0B5FA0028ACD14FF080520D4B1A60BFF34F8FBFF36F8FA3E72046FFF787FC00F0A1
:40398000A5FA9DE72046FFF781FC00F09FFA2046FFF732FC002893D0002005B030BD00BF04ED00E000230BE0074A52F8332032B9054A42F8331002EBC30358607047013312
:4039C000092BF1D9704700BF9C0D030870B504460D46164600F0F6FE94F844305BB2B3F1FF3F02D1002384F8443094F845305BB2B3F1FF3F02D1002384F8453000F004FFFE
:403A0000A36B2BB93246294604F1240000F0D8FB2046FFF73BFC70BD094B9B6A1B680BB9012300E0002323B14FF0FF32044BDA627047034B9A6AD268D2685268DA62704751
:403A4000C04B020810B50446006B01F02DF8204601F02AF810BD00BF2DE9F0478246894615469846089F099E0A9C9200A521206B01F05FFC236B05F18042013A03EB820566
:403A800025F00705002308E019F80310E21882F8341019F8032012B101330F2BF4D9002384F84330062F00D90627E762201DFFF755FB04F11800FFF751FB2461C7F107031D
:403AC000A3616462002306E003F1100204EB8202002151600133042BF6D90023A36584F85C3042465146284600F040FE206006B13460BDE8F08700BF70B5002407E004EBC3
:403B00008402930010481844FFF71CFB0134062CF5D90E4C04F1BC063046FFF713FB04F1D0052846FFF70EFB04F11400FFF70AFB04F1E400FFF706FB2046FFF703FBA6627E
:403B4000C4F8F85070BD00BFF04B0208C04B020838B5044600F036FE264BD3F8FC200132C3F8FC20D3F800314BB9224BC3F80041D3F8FC30012B10D1FFF7BEFF0DE01D4BC9
:403B8000D3F804314BB91B4BD3F80031DA6AE36A9A4202D8174BC3F80041164AD2F808310133C2F80831E36AD2F80C21934202D9104AC2F80C310F4D05F1300003EB830335
:403BC0009A00211D1044FFF7CDFA00F01DFED5F804316BB1D5F80031DA6AE36A9A4207D24FF08052044B1A60BFF34F8FBFF36F8F38BD00BFC04B020804ED00E038B517E0D7
:403C000000F0E0FD0D4CD4F8F030DD68281DFFF7CFFAD4F8FC30013BC4F8FC30D4F81031013BC4F8103100F0EFFD2846FFF70AFF024BD3F81031002BE2D138BDC04B02083D
:403C400008B5FFF7DBFF064B1B6B012BF9D94FF08052044B1A60BFF34F8FBFF36F8FF0E7C04B020804ED00E070B504460E46174BD3F81451D3F800010430FFF799FAB4F188
:403C8000FF3F07D136B11148D0F800110431FFF769FA70BD2C440D4BD3F800315C60A54208D90A4BD3F8F800D3F800110431FFF765FA70BD054DA86AD5F800110431FFF7BA
:403CC0005DFAEB6A9C4200D2EC6270BDC04B02082DE9F04385B006460F4615469846900000F0B2FE60B18146602000F0ADFE044610B1C0F8309004E0484600F0D5FE00E0C5
:403D000000248CB10023039302940D9B01930C9B009343462A4639463046FFF79DFE2046FFF716FF012001E04FF0FF3005B0BDE8F08300BF00B583B0194B019300230093DB
:403D4000802218491848FFF7C3FF012801D100F051FB012814D14FF03F0383F31188BFF36F8FBFF34F8F114B4FF0FF32DA620122C3F804210022C3F8142100F0C5FD0BE059
:403D8000B0F1FF3F08D14FF03F0383F31188BFF36F8FBFF34F8FFEE703B05DF804FB00BFDC4C020818820810413C0810C04B0208034AD2F818310133C2F81831704700BF35
:403DC000C04B0208014BD3F814017047C04B02082DE9F0413C4BD3F81831002B65D13A4BD3F814410134C3F81441CCB99B6A1B6843B14FF03F0383F31188BFF36F8FBFF396
:403E00004F8FFEE7304B9A6AD3F8F8109962C3F8F820D3F820210132C3F82021FFF7FCFD294BDB6A9C4203D2002645E0012600E00026254B9B6A1B680BB9012300E00023AE
:403E400023B14FF0FF32204BDA6235E01E4B9B6ADB68DD686B689C4202D21B4AD3622BE005F104084046FFF7A3F9AB6A1BB105F11800FFF79DF9EB6A134AD2F80C2193420F
:403E800002D9114AC2F80C310F4F07F1300003EB83039A0041461044FFF764F9EA6AD7F80031DB6A9A42C1D2C3E7074AD2F824310133C2F824310026034BD3F8283103B162
:403EC00001263046BDE8F081C04B0208394BD3F8183143B94FF03F0383F31188BFF36F8FBFF34F8FFEE770B500F06CFC314BD3F81821013AC3F81821D3F81831002B52D123
:403F00002C4BD3F8FC303BBB00244FE0294D2B6ADC6804F11800FFF74BF9261D3046FFF747F9E36AD5F80C21934201D9C5F80C31204D05F1300003EB83039A0031461044E9
:403F4000FFF710F9E26AD5F80031DB6A9A4204D30122C5F8282100E00024164B5B69002BD4D10CB1FFF758FD124BD3F8244164B1FFF72EFF18B101220E4BC3F82821013C8B
:403F8000F6D100220B4BC3F824210A4BD3F828315BB14FF08052084B1A60BFF34F8FBFF36F8F012402E0002400E0002400F02CFC204670BDC04B020804ED00E010B5B0B139
:403FC0000446104BD3F8183143B14FF03F0383F31188BFF36F8FBFF34F8FFEE7FFF7E8FE00212046FFF740FEFFF770FF00E0002038B94FF08052044B1A60BFF34F8FBFF356
:404000006F8F10BDC04B020804ED00E0304BD3F8183123B101222E4BC3F82821704710B52B4B0022C3F82821D3F800311B6B1A68B2F1A53F0BD15A68B2F1A53F07D19A682A
:40404000B2F1A53F03D1DB68B3F1A53F07D0204BD3F80001D3F80011343100F0E3FC1C4BD3F80C310AE043B94FF03F0383F31188BFF36F8FBFF34F8FFEE7013B03EB830144
:404080008A0013490A44126B002AECD008469900CC18A2000244546B64685463303019448A0008320244944206D1606803EB83018A0007490A445063054903EB83008200AA
:4040C0000A44526BD268C1F80021C1F80C3110BDC04B020838B5044600F074FB14B9294BD3F80041251D2846FFF762F8A36A1BB104F11800FFF75CF829462248FFF732F8BD
:4041000094F85C30DBB2012B02D1002384F85C3000F07AFB1B4BD3F804312BB100F052FBFFF77AFC00F070FB164BD3F800319C4226D1144BD3F80431ABB1124BD3F81831A7
:4041400043B14FF03F0383F31188BFF36F8FBFF34F8FFEE74FF080520B4B1A60BFF34F8FBFF36F8F38BD074B1A68D3F8FC309A4204D10022034BC3F8002138BDFFF746FF88
:4041800038BD00BFC04B020804ED00E040B94FF03F0383F31188BFF36F8FBFF34F8FFEE710B50C46054BD3F800111831FEF7E6FF01212046FFF758FD10BD00BFC04B0208DD
:4041C00038B540B94FF03F0383F31188BFF36F8FBFF34F8FFEE70C461546074AD2F800111831FEF7BFFF0DB14FF0FF3429462046FFF73AFD38BD00BFC04B020838B5C3683C
:40420000DC6844B94FF03F0383F31188BFF36F8FBFF34F8FFEE704F118052846FEF7C8FF154BD3F81831ABB9251D2846FEF7C0FFE36A114AD2F80C21934202D90E4AC2F8AF
:404240000C3103EB83039A0029460C481044FEF789FF03E029460A48FEF784FFE26A064BD3F80031DB6A9A4204D90120024BC3F8280138BD002038BDC04B0208F04B0208F6
:40428000D44B0208034BD3F820210260D3F8143143607047C04B0208F8B540B94FF03F0383F31188BFF36F8FBFF34F8FFEE7054641B94FF03F0383F31188BFF36F8FBFF308
:4042C0004F8FFEE70C4600F07DFA124BD3F814016968421A2368B3F1FF3F14D02F680D4ED6F82061B74201D088420ED29A4206D29B1A23602846FFF7C5FF002406E0002391
:404300002360012402E0002400E0012400F07CFA2046F8BDC04B02080122024BC3F82821704700BFC04B0208064BD3F804312BB1044BD3F818311BB9022070470120704720
:4043400000207047C04B0208064B1A681368B3FA83F35B09036013B9D368186870470020704700BFEC4C020808B54160006191420AD8D21A83699A4211D2011D0A4B5868C5
:40438000FEF7FCFE002008BD9A4201D2994208D2011D054B1868FEF7F1FE002008BD012008BD012008BD00BFEC4C020870B500F009FA0E4B9B68B3B90C4C04F10C0630468C
:4043C000FEF7C0FE04F120052846FEF7BBFE2660656000220C210A20FEF7DAFFA06010B10349FFF7DFFA00F00FFA70BDEC4C02082082081000B583B0FFF7D8FF0D4B9B6834
:4044000053B10D4B019303230093002380220B490B48FFF75DFC00E0002040B94FF03F0383F31188BFF36F8FBFF34F8FFEE703B05DF804FBEC4C0208204D020828820810E8
:40444000D946081040B94FF03F0383F31188BFF36F8FBFF34F8FFEE730B585B015460446124A9068F0B11A46019102950394052913DCFFF759FF022807D10023089A01A9A7
:404480000A488068FEF7AAFF0DE000231A4601A906488068FEF7A2FF05E0002301A9FFF765F800E0002005B030BD00BFEC4C020870B582B029E0DB681E68DC68251D284679
:4044C000FEF776FE636A20469847E369012B1CD1A36933449E4207D2636024612946104B1868FEF74BFE10E0002100910B4632462046FFF7A7FF40B94FF03F0383F31188DA
:40450000BFF36F8FBFF34F8FFEE7054B1B681A68002AD0D1024A51681160536002B070BDEC4C020838B50546FFF74CFC0446074B9B6B984204D2FFF7BBFF01232B6001E0E4
:4045400000232B60014B9C63204638BDEC4C020870B582B005460E46134B1B68DB68DC68201DFEF725FEE369012B18D1A1692B46324629442046FFF7F7FE80B100210091FD
:404580000B462A462046FFF75DFF40B94FF03F0383F31188BFF36F8FBFF34F8FFEE7636A2046984702B070BDEC4C020870B582B006460C46FFF7FCFB01A8FFF7B3FF019BD2
:4045C0001BBB054644B9B04206D3FFF77FFC29463046FFF7BDFF1AE02CB10E4B5B681C68B4FA84F464092246711B0A4B9868FFF7EDF9FFF76BFC50B94FF08052064B1A6059
:40460000BFF34F8FBFF36F8F01E0FFF75FFC02B070BD00BFEC4C020804ED00E030B587B04DE0039B002B4ADB059C636913B1201DFEF7BEFD02A8FFF775FF039B092B3ED806
:40464000DFE803F00505053D273A05053D270499A5690B46024629442046FFF785FE70B3636A20469847E369012B28D1A269002100910B46049802442046FFF7E3FEF0B959
:404680004FF03F0383F31188BFF36F8FBFF34F8FFEE70499A16141B94FF03F0383F31188BFF36F8FBFF34F8FFEE70346024601442046FFF759FE02E0204600F0F5F9002226
:4046C00003A9044B9868FFF721F80028A9D107B030BD00BFEC4C020800B583B001A8FFF733FE0199FFF762FFFFF798FFF6E700BF82B0002301930D4B1B68B3F1FF3F08D019
:404700004FF03F0383F31188BFF36F8FBFF34F8FFEE74FF03F0383F31188BFF36F8FBFF34F8F019B002BFCD002B07047AC42020808480068006880F308884FF0000080F32B
:40474000148862B661B6BFF34F8FBFF36F8F00DF00BF000008ED00E0DFF80C00016841F4700101607047000088ED00E04FF0807340F8043C21F0010140F8081C054B40F8BB
:404780000C3C40F8202C6FF0020340F8243C4438704700BFF14608100000000000000000074B19680868B0E8F04F80F30988BFF36F8F4FF0000080F311887047AFF30080FE
:4047C000C04C02084FF03F0383F31188BFF36F8FBFF34F8F0A4A136801331360012B0DD1084B1B6813F0FF0F08D04FF03F0383F31188BFF36F8FBFF34F8FFEE7704700BF69
:40480000AC42020804ED00E0094B1B6843B94FF03F0383F31188BFF36F8FBFF34F8FFEE7013B034A13600BB983F31188704700BFAC420208000000000000000000000000EA
:40484000EFF30980BFF36F8F154B1A681EF0100F08BF20ED108A20E9F04F10602DE909004FF03F0080F31188BFF34F8FBFF36F8FFFF7CCFB4FF0000080F3118809BC1968B1
:404880000868B0E8F04F1EF0100F08BFB0EC108A80F30988BFF36F8F704700BFAFF30080C04C020808B54FF03F0383F31188BFF36F8FBFF34F8FFFF78BFA18B14FF0805243
:4048C000024B1A60002383F3118808BD04ED00E0084A0023136008490B60084B1B680849A1FB03139B09013B06490B6007231360704700BF10E000E018E000E09842020873
:40490000D34D621014E000E010B582B02A4B1A78D2B20192FF221A701B78DBB28DF803309DF80330254A03F03F0313700723536009E0224A5368013B53609DF803305B008B
:40494000DBB28DF803309DF8033013F0800FF0D11A4B5B68042B08D04FF03F0383F31188BFF36F8FBFF34F8FFEE71B0203F4E063124A5360019BDBB20F4A1370104B1A68AB
:4049800042F47F021A601A6842F07F421A60FFF79FFF00240B4B1C60FFF7DEFE0A4A136843F040431360FFF7C3FEFFF72FFBFFF79FFE204602B010BD00E400E0284D0208F1
:4049C00020ED00E0AC42020834EF00E0EFF305830F2B0FD9104A9B5CDBB2104A1278934208D24FF03F0383F31188BFF36F8FBFF34F8FFEE70A4B1B6803F4E063074A526800
:404A0000934208D94FF03F0383F31188BFF36F8FBFF34F8FFEE77047F0E300E0284D02080CED00E008B54FF03F0383F31188BFF36F8FBFF34F8F4FF441710248FEF708FB85
:404A4000FEE700BF3082081038B5044610F0070F02D020F007040834FFF7AAF9104B1B682BB90F4A02F10C0323F0070313600D4BD3F85C351C444BF6F772944208D8A342B3
:404A800008D2074A15681D44064BC3F85C4502E0002500E00025FFF719FA284638BD00BF304D0208D807030840B14FF03F0383F31188BFF36F8FBFF34F8FFEE7704700BF7C
:404AC00070B539B900240AE015F8010BFCF780FA013402E016460D460024B442F4DB204670BD00BF70B561B900240FE0FCF77CFAC0B2287001340A2808D00D2806D00135C5
:404B000002E016460D460024B442EFDB204670BD08B502490248FEF7C7F908BDEC0D03080000664008B5114B1B785BB9104A11491148FDF795FF11491148FEF74DFA012290
:404B40000A4B1A700E4BB3F90030002B08DB590903F01F03012202FA03F30A4A42F82130054A136843F00043136008BD380D0308EC0D03088082081000006640114B0810A8
:404B8000FC7D081000E100E081F0004102E000BF83F0004330B54FEA41044FEA430594EA050F08BF90EA020F1FBF54EA000C55EA020C7FEA645C7FEA655C00F0E2804FEA7F
:404BC0005454D4EB5555B8BF6D420CDD2C4480EA020281EA030382EA000083EA010180EA020281EA0303362D88BF30BD11F0004F4FEA01314FF4801C4CEA113102D040428F
:404C000061EB410113F0004F4FEA03334CEA133302D0524263EB430394EA050F00F0A780A4F10104D5F1200E0DDB02FA0EFC22FA05F2801841F1000103FA0EF2801843FADA
:404C400005F359410EE0A5F120050EF1200E012A03FA0EFC28BF4CF0020C43FA05F3C01851EBE37101F0004507D54FF0000EDCF1000C7EEB00006EEB0101B1F5801F1BD39D
:404C8000B1F5001F0CD349085FEA30004FEA3C0C04F101044FEA445212F5800F80F09A80BCF1004F08BF5FEA500C50F1000041EB045141EA050130BD5FEA4C0C404141EB86
:404CC000010111F4801FA4F10104E9D191F0000F04BF01460020B1FA81F308BF2033A3F10B03B3F120020CDA0C3208DD02F1140CC2F10C0201FA0CF021FA02F10CE002F19E
:404D00001402D8BFC2F1200C01FA02F120FA0CFCDCBF41EA0C019040E41AA2BF01EB0451294330BD6FEA04041F3C1CDA0C340EDC04F11404C4F1200220FA04F001FA02F37D
:404D400040EA030021FA04F345EA030130BDC4F10C04C4F1200220FA02F001FA04F340EA0300294630BD21FA04F0294630BD94F0000F83F4801306BF81F480110134013D6B
:404D80004EE77FEA645C18BF7FEA655C29D094EA050F08BF90EA020F05D054EA000C04BF1946104630BD91EA030F1EBF0021002030BD5FEA545C05D14000494128BF41F0EA
:404DC000004130BD14F580043CBF01F5801130BD01F0004545F0FE4141F470014FF0000030BD7FEA645C1ABF194610467FEA655C1CBF0B46024650EA013406BF52EA033510
:404E000091EA030F41F4002130BD00BF90F0000F04BF0021704730B54FF4806404F132044FF000054FF0000150E700BF90F0000F04BF0021704730B54FF4806404F13204A7
:404E400010F0004548BF40424FF000013EE700BF42004FEAE2014FEA31014FEA02701FBF12F07F4393F07F4F81F06051704792F0000F14BF93F07F4F704730B54FF4607498
:404E800001F0004521F0004120E700BF50EA010208BF704730B54FF000050AE050EA010208BF704730B511F0004502D5404261EB41014FF4806404F132045FEA915C3FF44E
:404EC000DCAE4FF003025FEADC0C18BF03325FEADC0C18BF033202EBDC02C2F1200300FA03FC20FA02F001FA03FE40EA0E0021FA02F11444C1E600BF70B54FF0FF0C4CF415
:404F0000E06C1CEA11541DBF1CEA135594EA0C0F95EA0C0F00F0DEF82C4481EA030621EA4C5123EA4C5350EA013518BF52EA033541F4801143F4801338D0A0FB02CE4FF042
:404F40000005E1FB02E506F00042E0FB03E54FF00006E1FB03569CF0000F18BF4EF0010EA4F1FF04B6F5007F64F5407404D25FEA4E0E6D4146EB060642EAC62141EA55511C
:404F80004FEAC52040EA5E504FEACE2EB4F1FD0C88BFBCF5E06F1ED8BEF1004F08BF5FEA500E50F1000041EB045170BD06F0004646EA010140EA020081EA0301B4EB5C0478
:404FC000C2BFD4EB0C0541EA045170BD41F480114FF0000E013C00F3AB8014F1360FDEBF002001F0004170BDC4F10004203C35DA0C341BDC04F11404C4F1200500FA05F3AB
:4050000020FA04F001FA05F240EA020001F0004221F0004110EBD37021FA04F642EB06015EEA430E08BF20EAD37070BDC4F10C04C4F1200500FA04F320FA05F001FA04F2CE
:4050400040EA020001F0004110EBD37041F100015EEA430E08BF20EAD37070BDC4F1200500FA05F24EEA020E20FA04F301FA05F243EA020321FA04F001F0004121FA04F2ED
:4050800020EA020000EBD3705EEA430E08BF20EAD37070BD94F0000F0FD101F00046400041EB010111F4801F08BF013CF7D041EA060195F0000F18BF704703F00046520076
:4050C00043EB030313F4801F08BF013DF7D043EA0603704794EA0C0F0CEA135518BF95EA0C0F0CD050EA410618BF52EA4306D1D181EA030101F000414FF0000070BD50EA13
:40510000410606BF1046194652EA430619D094EA0C0F02D150EA013613D195EA0C0F05D152EA03361CBF104619460AD181EA030101F0004141F0FE4141F470014FF0000039
:4051400070BD41F0FE4141F4780170BD70B54FF0FF0C4CF4E06C1CEA11541DBF1CEA135594EA0C0F95EA0C0F00F0A7F8A4EB050481EA030E52EA03354FEA013100F088805A
:405180004FEA03334FF0805545EA131343EA12634FEA022245EA111545EA10654FEA00260EF000419D4208BF964244F1FD0404F5407402D25B084FEA3202B61A65EB030554
:4051C0005B084FEA32024FF480104FF4002CB6EB020E75EB030E22BFB61A754640EA0C005B084FEA3202B6EB020E75EB030E22BFB61A754640EA5C005B084FEA3202B6EB84
:40520000020E75EB030E22BFB61A754640EA9C005B084FEA3202B6EB020E75EB030E22BFB61A754640EADC0055EA060E18D04FEA051545EA16754FEA06164FEAC30343EA8E
:4052400052734FEAC2025FEA1C1CC0D111F4801F0BD141EA00014FF000004FF0004CB6E711F4801F04BF01430020B4F1FD0C88BFBCF5E06F3FF6AFAEB5EB030C04BFB6EBE2
:40528000020C5FEA500C50F1000041EB045170BD0EF0004E4EEA113114EB5C04C2BFD4EB0C0541EA045170BD41F480114FF0000E013C90E645EA060E8DE60CEA135594EAD1
:4052C0000C0F08BF95EA0C0F3FF43BAF94EA0C0F0AD150EA01347FF434AF95EA0C0F7FF425AF104619462CE795EA0C0F06D152EA03353FF4FDAE1046194622E750EA410631
:4053000018BF52EA43067FF4C5AE50EA41047FF40DAF52EA43057FF4EBAE12E710B5431E0A44914204D011F8014B03F8014FF8E710BD02440346934202D003F8011BFAE75F
:4053400070472DE9F04788B0002B149F1299109EDDF84CA01D4627F02007BBBF03F100431D4600232D231446B8BF1446462F0B7003D0452F03D1013601E0032300E0022358
:4053800007AA049206AA03928DE8480422462B4600F032FE472F804602D1119BDB0728D5462F08EB060911D198F80030302B0AD1002200232046294602F0DCFB18B9C6F153
:4053C0000106CAF80060DAF800309944002200232046294602F0CEFB08B9302202E0CDF81C9006E0079B994503D9591C07911A70F8E7079B159AC8EB03034046136008B0F7
:40540000BDE8F08773B503460029B8BF494203F8022BB4BF2D222B220929427019DD0DF1070216460A2591FBF5F405FB14113031092C02F8011D2146F5DC3031541E02F8C4
:40544000011CB4421A460AD214F8012B03F8012BF7E730241A46214402F8024B5970101A02B070BD2DE9F04F91B00C46DDF8688016461F46054601F0D7FC03680893184695
:4054800000F04AFC00230E93D8F800300990073323F0070303F1080294F818A0D4F800B0C8F80020D3E90023C4E91223D4E9128929F000430B93CDF828804FF0FF32A74B82
:4054C000DDE90A0102F088FBA0B94FF0FF32A34BDDE90A0102F062FB60B9002200234046494602F051FB10B12D2384F843309C4B9C4A0AE042464B464046494602F06CFBA0
:40550000002800F09281984B984ABAF1470F8CBF90469846032323612BF0040323604FF000093DE0BAF1670F00F08A81BAF1470F00F08681236000210DF13302019363687D
:4055400005900292009342464B460691CDF810A0CDF80CE02846FFF7F4FE0AF0DF03472B804600F08481BAF1650F0D9900F28D810139524604F150000D91FFF743FF0E9AE0
:405580008318012A8146236100F37C812268D10700F178819DF8333013B12D2384F84330009733460FAA2146284600F09FF9013002D14FF0FF3096E123685A0501D4236949
:4055C00065E0BAF1650F40F2D58000220023D4E9120102F0CFFA78B30123654A31462846B8470130E5D00E9B0D9A9A420BDB2368D80708D423689B0740F111814FF0000899
:4056000004F1190906E1099B089A31462846B8470130CED04FF0000804F11A090E9B013B9845E7DA01234A4631462846B8470130BFD008F10108F1E70D9B002B29DC012363
:405640004B4A31462846B8470130B2D00D9B23B90E9B13B92368D907CCD5099B089A31462846B8470130A4D04FF0000904F11A0A0D9B5B42994509DA012352463146284622
:40568000B847013095D009F10109F1E70E9B4246A7E00E9AA36D9A42A8BF1A46002A914606DC4FF0000A29EAE97904F11A0B11E01346314642462846B8470130F1D178E7A3
:4056C00001235A4631462846B84701303FF471AF0AF1010AA36DC9EB03029245F0DB08EB03090D9A0E9B9A420FDB2368DA070CD40E9B0D9A9844C9EB08089B1A9845A8BFC3
:405700009846B8F1000F08DC0FE0099B089A31462846B8470130EBD14BE743464A4631462846B84701303FF444AF4FF0000928EAE87804F11A0A09E0012352463146284606
:40574000B84701303FF435AF09F101090D9A0E9B9B1AC8EB03039945EEDB4BE7FFFFEF7FC8820810CC820810D0820810D4820810D88208100E9A012A01DCDB0738D5012306
:40578000424631462846B84701303FF412AF099B089A31462846B84701303FF40AAF00220023D4E9120102F0E5F920B14FF0000804F11A0A0EE00E9B08F10102013B19E033
:4057C0000123524631462846B84701303FF4F1AE08F101080E9B013B9845F1DB4B4604F1500231462846B84701307FF403AFE0E60123424631462846B8470130EED1D8E660
:4058000001234A4631462846B84701303FF4D1AE08F10108E3680F9A9B1A9845F0DBE0680F9B9842B8BF18465DE06268531C0EA84BF480630DF1340E7FF474AE062201E0CD
:4058400012B90122626075E6002106910DF133018DE80C00236005904246CDF810A0CDF80CE002914B462846FFF76BFD80460D9BD81C02DB626893421DDDAAF1020A5FFA24
:405880008AFA70E60133236184E6BAF1660F14D10029636807DD216113B92268D2071DD501330B4419E013B92268D00701D5023313E0012311E04FF0670A0D9B0E9A9342DB
:4058C00005DB22682361D10708D5013305E0002BD4BFC3F102030123134423610D9BA3654FF0000956E611B0BDE8F08F2DE9F04791461F460A698B68DDF820809342B8BFAD
:405900001346C9F8003091F8432006460C4612B10133C9F800302368990642BFD9F800300233C9F80030256815F0060510D104F1190A07E00123524639463046C0470130F3
:405940001AD00135E368D9F800209B1A9D42F1DB94F843302268003318BF012392060FD5E1185A1C302081F84300224494F8451082F84310023303E04FF0FF30BDE8F08707
:4059800004F1430239463046C0470130F4D02268D9F80050E36802F00602042A08BF5D1B2269A3680CBF25EAE57500259342C4BF9B1AED184FF000091A344D4509D0012339
:4059C000224639463046C0470130D5D009F10109F3E70020BDE8F0872DE9F04317460A7E85B06E2A984606460C460C9B01F1430E00F0AE8011D8632A22D009D8002A00F071
:405A0000BB80582A40F0CA8081F84520834955E0642A1ED0692A1CD0C0E0732A00F0B08009D86F2A2ED0702A40F0B8800A6842F020020A603EE0752A24D0782A3AD0ADE064
:405A40001A6801F14205111D1960136884F84230A8E021681A6811F0800F02D0111D196008E011F0400F02F10401196002D0B2F9003000E01368002B3CDA2D225B4284F865
:405A8000432037E021681A6811F0800F02D0111D196007E011F0400F02F10401196001D0138800E01368227E5C496F2A14BF0A2208221BE078225A4984F8452022681868BF
:405AC00012F0800F00F104051D6003D1550601D5038800E00368D00744BF42F0200222601BB9226822F0200222601022002084F8430001E049490A226568A560002D08DB6D
:405B0000206820F0040020602BB9002D7DD175460CE0002B79D07546B3FBF2F002FB1033CB5C05F8013D03460028F5D1082A0BD12368DA0708D5236962689A42DEBF302332
:405B400005F8013C05F1FF35C5EB0E0323612EE008681A68496910F0800F03D0101D1860136808E010F0400F02F104001860136801D0198000E0196000232361754616E00C
:405B80001A68111D1960156862680021284601F0B7F908B1401B6060636804E004F1420584F8422001232361002384F84330CDF800803B4603AA21463046FFF797FE0130E2
:405BC00002D14FF0FF3026E023692A4639463046C0470130F5D023689B0710D5002504F1190907E001234A4639463046C0470130E7D00135E368039A9B1A9D42F2DBE068DC
:405C0000039B9842B8BF184605E00B7884F8423004F142058AE705B0BDE8F083DA820810EB8208100FB40A4B13B51C6824B1A36913B9204601F06EF805AB049AA168019395
:405C4000204601F067FD02B0BDE8104004B070471043020870B50E46054618B183690BB901F058F8AB69AC6813B9284601F052F8224B9C4201D16C6808E0214B9C4201D1EA
:405C8000AC6803E01F4B9C4208BFEC68A3891B0701D523693BB92146284600F0ADF810B14FF0FF3070BD013EA36816F8011F013BA36091B1002B04DAA269934206DB0A292A
:405CC00004D023685A1C22601970EDE72246284600F03EF80130E7D1E2E7002B08DA22460A21284600F034F80130D9D00A2070BD23680A205A1C2260187070BD0C830810DE
:405D00002C8308104C830810024B01461868FFF7A1BF00BF10430208034613F8012B002AFBD1181A0138704710B5034642B111F8014B03F8014B013A002CF7D11A4400E08D
:405D400010BD934202D003F8014BFAE710BD0000F8B50F461446064618B183690BB900F0D9FF224B9C4201D1746808E0204B9C4201D1B46803E01F4B9C4208BFF468A3695F
:405D8000A360A3891A0709D523693BB123682069181A63699842FDB20FDB08E02146304600F02AF80028F1D04FF0FF30F8BD2146304600F045FF0028F6D1A368013BA3608B
:405DC00023685A1C22601F706269431C934204D0A389DB0707D50A2D05D12146304600F02FFF0028E0D12846F8BD00BF0C8308102C8308104C830810324B70B51D68064649
:405E00000C4625B1AB6913B9284600F083FF2E4B9C4201D16C6808E02C4B9C4201D1AC6803E02B4B9C4208BFEC68B4F90C309AB215071DD4D00602D4092232603AE05107EB
:405E400012D5616B41B104F14403994202D0304601F08AFB00236363A38923F02403A3810023636023692360A38943F00803A38123694BB9A38903F42073B3F5007F03D072
:405E80002146304600F0F8FFA28912F0010305D00023A36063695B42A36103E0920758BF6369A36023695BB9B4F90C3003F0800080B230B143F04003A3814FF0FF3070BDDF
:405EC000002070BD104302080C8308102C8308104C8308102DE9F74F03690C699C42804600F38380013C01F114074FEA840E00F1140657F8245006EB0E030193013556F8CF
:405F00002430B3FBF5F507EB0E09002D39D04FF0000A3846B446D34650F8042B93B205FB03A34FEA134A9BB2C3EB0B03120CBCF800B005FB02A213FA8BF34FEA124A1FFAFC
:405F400082FBDCF80020CBEB124202EB23429BB243EA024381454FEA224B4CF8043BDBD256F80E306BB9019B043B9E421A4602D3C8F8104005E01268043B002AF8D1013C7B
:405F8000F3E7404601F019FA00282CDB013530464FF0000E57F8041BD0F800C08AB2C2EB0E03090C13FA8CF3C1EB1C4202EB23429BB243EA0243B9454FEA224E40F8043B8B
:405FC000E8D256F8242006EB840362B9043B9E421A4602D3C8F8104005E01268043B002AF8D1013CF3E7284600E0002003B0BDE8F08F0000000000002DE9F04F456A97B026
:406000008246239CCDE9022345B9102000F070FFCAF82400456085600560C560DAF82430196859B15A684A60012393408B60504600F0EBFFDAF8243000221A60039BA04ABE
:40604000002BBFBF01232360039B23F00043B8BF0393DDF80C80A4BF0023236028F000431B0D1B0593421DD1229A42F20F731360029B43B9934A944BC8F31300002814BFFC
:406080001846104600E09048249B002B00F04A85C37813B100F1080300E0C31C249A136000F040BDDDE90245002200232046294601F060FD074658B1229A01231360249B16
:4060C000002B00F0228581481860013800F02ABD14AB019315AB009322462B46504601F0E7F9C8F30A56059056B1C5F3130343F07F51204641F44011A6F2FF3611971DE0C1
:40610000159B149E1E4406F23243202B0ADD029A06F21240C3F1400322FA00F008FA03F3184304E0C3F12000029B03FA00F0FEF76DFE0123A1F1F871013E11930022644B4B
:40614000FEF726FD58A3D3E90023FEF7D5FE58A3D3E90023FEF71EFD044630460D46FEF765FE55A3D3E90023FEF7C6FE02460B4620462946FEF70EFD04460D4601F042FD45
:406180000022834600232046294601F0FDFC58B15846FEF74BFE02460B462046294601F0E9FC08B90BF1FF3BBBF1160F0DD8494901EBCB01DDE90223D1E9000101F002FD5C
:4061C00030B10BF1FF3B002300E00123109300E01090149B9E1B731E089343BFC3F10009002308934FF00009BBF1000F07DB089BCDF834B05B4408930023099306E0CBF161
:40620000000309930023CBEB09090D93209B092B27D8052BC4BF043B2093209BA3F10203CCBF00250125032B20D8DFE803F0060E0204012302E0012308E000230C93219BED
:40624000002B1CDD069398461EE000230C93219B5B4403F1010806934346012BB8BF012312E00125002320930C9501E001230C934FF0FF33069398460022122303E0012309
:40628000069398461A462192DAF8244000226260042101F114029A421ED86268013262604900F6E7AFF3008061436F63A787D23FB3C8608B288AC63FFB799F501344D33F96
:4062C0000000F07FFC82081005830810D98208100000F83FA88308106168504600F060FEDAF8243020601B680793B8F10E0F00F25D81002D00F05A819DED027BBBF1000F4C
:406300008DED0E7B31DDA04A0BF00F0302EBC30393ED007B4FEA2B14E2068DED0A7B0CD59A4BDDE90E01D3E90823FEF70FFF04F00F04CDE90201032600E00226934D6CB1D5
:40634000E30708D5DDE90A01D5E90023FEF7D4FDCDE90A01013664100835F0E7DDE90A23DDE90201FEF7F2FE20E0CBF1000404B3854B864D04F00F0203EBC203D3E900230C
:40638000DDE90E01FEF7B8FDCDE9020124110023022654B1E70705D5D5E90023FEF7ACFD0136012364100835F3E71BB1CDE9020100E00226109BEBB1DDE902450022744B31
:4063C0002046294601F0E0FBA0B1B8F1000F11D0069B002B40F3E6800BF1FF330A9300226C4B20462946FEF787FD0136CDE90201069F02E0CDF828B047463046FEF716FD9C
:40640000DDE90223FEF778FD0022634BFEF7C2FB0446A1F15075CFB90022604BDDE90201FEF7B6FB22462B46CDE9020101F0CAFB002840F04182224605F10043DDE9020153
:4064400001F0A2FB002840F02E82ABE00C9A4E4B791E002A4AD003EBC103D3E9002300204F49FEF773FE22462B46FEF791FB079C05460E46DDE9020101F0C4FB1290FEF786
:40648000D5FC02460B46DDE90201FEF781FB129B303304F8013B2A463346CDE9020101F073FB002840F02183DDE9022300203849FEF76EFB2A46334601F066FB002840F076
:4064C000D280079BE31ABB426CDA0022314B28463146FEF711FD002205460E462D4BDDE90201FEF709FDCDE90201C3E703EBC10122462B46D1E90001FEF7FEFC079BCDE9F7
:406500001201DC191D46DDE9020101F07BFB0646FEF78CFC303602460B46DDE90201FEF737FB05F8016BAC42CDE902014FF0000223D11B4BDDE91201FEF72CFB02460B46CF
:40654000DDE9020101F03EFB002840F08C80DDE9122300201249FEF71BFB02460B46DDE9020101F011FBE8B114F8013C302B04F1FF3240F0BA821446F6E7064BFEF7BCFCE0
:40658000CDE90201BFE700BFA8830810808308100000F03F0000244000001C40000014400000E03FDDE90E34CDE90234159B002B7CDBBBF10E0F79DC8F4B03EBCB03D3E967
:4065C0000067219B002B14DAB8F1000F11DC40F06C810022894B30463946FEF78DFCDDE9022301F0E5FA45464646002840F05F8166E1079C32463B46DDE90201FEF7A6FDE6
:4066000001F000FB0546FEF711FC32463B46FEF773FC0B460246DDE90201FEF7B9FA05F1300E04F801EB079BC3EB040EF045CDE902012ED102460B46FEF7ACFA8046894686
:4066400002460B463046394601F09EFA78B942464B463046394601F08DFA002800F04782E90704D443E2DDF828B000E01C4614F8012C392A04F1FF3307D1079A9A42F5D1B1
:40668000079930220BF1010B0A701A7801321A702DE200225A4BFEF72FFC00220023CDE9020101F067FA0028A4D020E20C9A002A2DD0209A012A0ADC119A12B103F23343C2
:4066C00002E0149BC3F13603099D4C4615E0099B08F1FF35AB42BFBF099B0995EA1A0D9BB7BF9B185D1B0D930025B8F1000FB9BFC8EB090400234C464346089A01211A440F
:4067000050469944089200F01FFD064602E0099D0C9E4C465CB1089B002B08DDA342089AA8BF2346C3EB0909E41AD31A0893099B002B1DDD0C9BABB185B131462A46504654
:4067400000F09CFD059A01460646504600F005FD05990746504600F058FC0597099B5A1B06D000E0099A0599504600F087FD05900121504600F0E8FC0D9B05465BB31A46D9
:406780000146504600F07AFD209B012B054618DC029B83B9039BC3F3130373B9039B23F000473F0D3F054FB1089B013309F101090893012702E0002700E0029F0D9B73B184
:4067C00000E000272B6905EB8303186900F06FFCC0F1200004E0209B012BD9DD0D9F0120089B184410F01F000ED0C0F12003042B08DDC0F11C0008E0A8830810000014405D
:406800000000244006D018461C30089B0344814404440893B9F1000F05DD4A460599504600F07AFD0590089B002B05DD29461A46504600F071FD0546109BEBB12946059876
:4068400000F0BBFD002817DA00230A220599504600F0F2FB0C9B05900BF1FF3B002B00F05881002331460A22504600F0E5FB069B002B064637DC33E0B8F1000F2ADC209BAE
:40688000022B27DDCDF81880069B83B929460522504600F0D1FB01460546059800F08DFD00280DDC03E03D4600E000252E46219B079C6FEA030B0AE0DDF828B03D463E4688
:4068C000079B079A5C1C312313700BF1010BB0460026F7E00C9BCDF8188023B9079CB1E0209B022BD0DC002C05DD31462246504600F012FD06469FB17168504600F050FB9B
:40690000326902320446920006F10C010C30FEF705FD01222146504600F0FEFC804600E0B046029BDDF81C9003F00103089329460598FFF7CFFA3146044600F130070598CE
:4069400000F03BFD424602902946504600F051FDC36802463BB901460990059800F02DFD099A034600E0012311465046099300F04CFB099B4BB9209A3AB9089A2AB9392FA2
:4069800028D0029B002B1ADC1BE0029A002A04DB1AD1209AC2B9089AB2B9002B11DD01220599504600F0B8FC2946059000F005FD002802DC05D1FA0703D5392F0AD004F15E
:4069C000310709F101040CE0002B09F101040BDD392F05D1392389F8003009F1010954E0013789F800706DE0079B069A04F8017CE31A9342A1463AD000230A220599504668
:406A000000F01AFB464505904FF000034FF00A023146504604D100F00FFB0646804686E700F00AFB4146064600230A22504600F003FB80467BE700230A220599504600F013
:406A4000FBFA059029460598FFF744FA00F1300704F8017B079B069AE31A9342EBDB079B012AACBF9B180133B0469946002601220599504600F050FC2946059000F09DFC98
:406A8000002802DC15D1FB0713D54C4614F8013C392B04F1FF3209D1079B934204D10BF1010B3123079A02E01446EFE70133137008E04C4614F8013C302B04F1FF3201D199
:406AC0001446F7E72946504600F09FFAB8F1000F0DD02EB1464503D03146504600F095FA4146504600F091FA01E0DDF828B00599504600F08AFA0023229A23700BF1010332
:406B00001360249B1BB11C6001E008480AE0079808E0069B002B3FF7E1AE209B022B7FF7DDAEB1E617B0BDE8F08F00BFD88208108A892DE9F041054610070C4659D44B681E
:406B4000002B02DC0B6C002B17DDE66AAEB102F48052002392B22F682B600AB1606D15E0216A01232846B047411C0FD12B686BB11D2B01D0162B03D12F600020BDE8F08106
:406B8000A38943F04003A381BDE8F081A3895A0705D56368C01A636B0BB1236CC01A00230246E66A216A2846B047431CA38906D129681D293AD8214ACA40D60736D5002285
:406BC0006260D9042269226004D5421C01D12B6803B96065616B2F600029CED004F14403994202D0284600F0BFFC00206063BDE8F0810F69002FC0D093070E6808BF4B69ED
:406C00000F6018BF0023C7EB06088B6002E00744C0EB0808B8F1000FAFDD43463A46216AA66A2846B0470028F1DCA38943F04003A3814FF0FF30BDE8F08100BF01004020AC
:406C400038B50B6905460C46DBB118B183690BB900F060F80C4B9C4201D16C6808E00B4B9C4201D1AC6803E0094B9C4208BFEC68B4F90C302BB121462846BDE83840FFF70F
:406C800057BF002038BD00BF0C8308102C8308104C830810014900F0A9B800BF416C0810002310B5044603604360836081814366C281036143618361194608225C30FEF777
:406CC00038FB054B6362054BA362054BE362054B2462236310BD00BF6D7908108F790810C7790810EB79081070B568234D1E5D430E4605F1740100F085FC044640B1002141
:406D000080E842000C30A06005F16802FEF711FB204670BD836910B5044633BB8364C3640365124B124A1B688262984204BF0123836100F01FF86060204600F01BF8A06025
:406D4000204600F017F80022E06004216068FFF7A7FF01220921A068FFF7A2FF02221221E068FFF79DFF0123A36110BDC4820810956C0810F8B51C4B1E68B369074613B96B
:406D80003046FFF7C7FF4836B4687368013B04D4B4F90C507DB16834F8E733680BB13668F2E704213846FFF79FFF30600028F6D10C233B60F8BD4FF6FF73E3810123A38100
:406DC00065662560A560656025616561A5610822294604F15C00FEF7ACFA6563A563A564E5642046F8BD00BFC48208102DE9F8438046894600F14804002694B1A5686768DE
:406E0000013F0CD4AB89012B07D9B5F90E30013303D029464046C84706436835F0E72468EBE73046BDE8F883004870471443020870B50E46B1F90E10002990B014461D4683
:406E400006DA00232B60B3891A060ED540230EE001AA00F0F1FD0028F3DB029A02F47042A2F500535A425A412A604FF480630020236010B070BD00008B8973B59E070546A4
:406E80000C4610D401AB6A46FFF7D2FF00990646284600F0B7FB68B9B4F90C309A0522D443F00203A38104F14703236023610123636118E00D4BAB62A389206043F080039C
:406EC000A381009B6361019B20614BB1B4F90E10284600F0C3FD18B1A38943F00103A381A0893043A08102B070BD00BF956C0810024B0146186800F085BB00BF10430208E9
:406F000001F0FF01102A2BDB10F0070F08D010F8013B013A8B422DD010F0070F42B3F6D1F0B441EA012141EA014122F007047FF000070023F0E80256083C85EA010586EAAA
:406F4000010685FA47F5A3FA87F586FA47F6A5FA87F68EB9EED1F0BC01F0FF0102F0070232B110F8013B013A83EA010313B1F8D10020704701387047002D06BF35460338F0
:406F8000073815F0010F07D1013015F4807F02BF013015F4C03F0130F0BC0138704700BF70B5456A04460E463DB91020FFF7A0FF6062456085600560C560656AEB6843B1CD
:406FC000636ADB6853F8260078B1026843F8262017E021220421204600F0B8FA636AE860DB68002BECD1002070BD012101FA06F56A1D9200204600F0A9FA0028F3D046604D
:40700000856000230361C36070BD70B5446A06460D463CB91020FFF76BFF7062446084600460C4603DB1736A6A68DB6853F82210296043F8225070BD2DE9F0410D691F46D9
:4070400006460C4601F1140E0023DEF8000081B202FB01710F0C000C02FB007089B2013301EB00419D424FEA10474EF8041BECDCD7B1A3689D4212DB616830460131FFF731
:407080008FFF2269023204F10C01804692000C30FEF744F921463046FFF7B7FF444604EB850301355F6125612046BDE8F081030C1B0413B90004102300E0002310F07F4F37
:4070C00004BF0002083310F0704F04BF0001043310F0404F04BF80000233002803DB420003D5581C70471846704720207047036813F007020BD0D90722D49A074BBF5B0842
:407100009B08036003604CBF01200220704799B209B91B0C102213F0FF0F04BF1B0A0832190704BF1B090432990704BF9B080232D90702D45B0805D0013203601046704740
:40714000002070472020704710B50C460121FFF727FF01224461026110BD2DE9F74F14460A6923699A42B8BF0B468846BCBFA0461C46D8F81070D4F81090D8F80830D8F876
:40718000041007EB09069E42C8BF0131FFF708FF00F1140505EB860C2B460022634502D243F8042BFAE704F1140208F1140102EB890301EB87070093009B0192934257D96C
:4071C000B2F800B0BBF1000F23D08946AE464FF0000859F8044BBEF800A0A3B20BFB03A34FEA144ADEF8004043444FEA14480BFB0A8404EB1344F2469BB243EA04434F4556
:407200004FEA14484AF8043B01D9D646E1E7CEF80480019BB3F802A00432BAF1000F21D02B682C4689464FF00008B9F800E0B4F802B00AFB0EBEF044A3469BB243EA0843A9
