:020000041008E2
:4000000000780408130508100D0000007905081079050810790508107905081000000000000000000000000000000000615B08107505081000000000015C0810655C0810F3
:400040007505081075050810750508107505081075050810750508107505081075050810750508107505081075050810750508107505081075050810750508107505081060
:400080007505081075050810750508107505081075050810750508107505081075050810750508107505081075050810750508107505081075050810750508107505081020
:4000C00075050810750508107505081075050810750508107505081075050810750508107505081075050810750508107505081075050810750508107505081075050810E0
:40010000750508107505081075050810750508107505081075050810750508107505081075050810750508107505081075050810750508107505081075050810750508109F
:40014000750508107505081075050810750508107505081075050810750508107505081075050810750508107505081075050810750508107505081075050810750508105F
:40018000750508107505081075050810750508107505081075050810750508107505081075050810750508107505081075050810750508107505081075050810750508101F
:4001C00075050810750508107505081075050810750508107505081075050810750508107505081075050810750508107505081075050810750508107505081075050810DF
:40020000750508107505081075050810750508107505081075050810750508107505081075050810750508107505081075050810750508107505081075050810750508109E
:40024000750508107505081075050810750508107505081075050810750508107505081075050810750508107505081075050810750508107505081075050810750508105E
:4002800075050810750508107505081010B5054C237833B9044B13B10448AFF300800123237010BD8449020800000000D4980810084B10B51BB108490848AFF30080084894
:4002C000036803B910BD074B002BFBD0BDE81040184700BF0000000088490208D4980810544302080000000008B501F037FF134A134B5A6413486823437000238370124B46
:40030000C361124B0362124B436201F097FDC0B288B90C480C23437183710223C371112202710D22427300228273C3731523037301F0CAFDC0B240B208BD00BF4920081073
:400340008C76020820760208CD1F0810751F08107D53081030B585B002228DF8042000218DF805109DF8063043F0010303F0FD0343F00C0361F304138DF80630BDF806304F
:40038000042161F34813ADF806309DF8083043F00F0362F305138DF8083005238DF809300C4901A801F0B2FD05460B4C0B49204603F0B4FEB4F90030002B08DB590903F08D
:4003C0001F03012202FA03F3054A42F82130284605B030BD2076020850920810E503081000E100E008B5C82003F0D2FE124806F01FFE124B5A6901225A615B69104BB3F9E3
:400400000030002B09DB5A0903F01F03012101FA03F360320B4941F822300B4B186804F017FE38B14FF08052084B1A60BFF34F8FBFF36F8F08BD00BFF88F08108006324080
:400440005092081000E100E04876020804ED00E000B583B003220021012004F0FFF8184B186048B9174B009300220192134669461548006804F018F9FFF736FF60B1134AFD
:400480000092019000231A4669460F48006804F00BF9002004F0FEFFFFF75CFF60B10C4A0092019000231A4669460748006804F0FBF8002004F0EEFF002004F0EBFFFBE793
:4004C00050760208109008104C760208489008108C90081000B583B04FF0FF326946094B186804F079FA0128F6D1019A22B10099054806F02BFDEFE70099044806F026FD0C
:40050000EAE700BF4C760208DC900810989108107047FFF7FDFF72B6104C114DAC4209DA21686268A368043BA2BFC858D050FAE70C34F3E70B490C4A00209142BCBF41F8B4
:40054000040BFAE709480A490860BFF34F8F00F079F900F053F900F01DF8FEE7D8980810F098081084490208307702080040020808ED00E0FEE7FEE700B5042071460842F4
:4005800002D0EFF3098001E0EFF30880043003F029FEFEE700B583B001F0A4FD144806F0D5FC144806F044FD134B019313230093002380221149124804F018FD00220821C8
:4005C000102004F04BF80F4B1860002301930122009280220C490D4804F008FD04F08AFD0B4806F025FD3B210A4803F0EBFDFEE7E8900810F49008104876020828910810F8
:40060000510408104C76020834910810D5040810409108106891081008B5002003F0A8FE08BD00BF08B5044806F090FC7021034803F0C8FD08BD00BF7491081068910810EE
:4006400008B5044806F0F4FC8821034803F0BAFD08BD00BFA09108106891081008B5012002F06AF908BD00BF704700BF5C4AD2F8803303F00F0303F1D00152F8212002F078
:400680000702032A04D0042A05D092B9554914E0554A116811E003F1C002514951F8222002F01F02112A06D0132A04D04FF4FA4103E04E4901E04FF400418BBB484BD3F836
:4006C000902502F00100D3F88825C2F30172D3F8883513F0405F07D0414BD3F88835C3F30173012B02D102E0012300E0002303B108B9032A46D13A48D0F88025C2F31103FA
:40070000D0F88425C2F30C02D0F88005C0F300600130B1FBF2F202FB03F2B2FBF0F131E0012B2FD12E4BD3F8402602F00100D3F80026C2F30172D3F8003613F0405F07D077
:40074000274BD3F80036C3F30173012B02D102E0012300E0002303B108B9032A12D12048D0F8002602F07F02D0F80036C3F30423D0F80006C0F3044002FB01F2B2FBF3F264
:40078000B2FBF0F1164BD3F88033C3F3011321FA03F215494A601648D0F89030C3F3072301330069000E0130B2FBF0F08860B2FBF3F3CB600B6103F5742202F23F220D4871
:4007C000A0FB0202C2F387420A7503F2E7330A4AA2FB03239B098B61DB03CB61704700BF0000264000127A008C42020800366E010000214083DE1B43D34D621008B50D48F4
:4008000003F000FEFFF730FFFFF730FF00221146042001F059FE084801F0ECFE074B1B6893F8513013B1064801F054FF01F096FD08BD00BF3C960810A0490208D8760208F9
:40084000D091081008B503F028FD074AD2F8883043F47003C2F88830BFF34F8FBFF36F8F03F01FFD08BD00BF00ED00E040B1C2694AB1026A52B1436A5BB94FF0FF3070472F
:400880004FF0FF3070474FF0FF3070474FF0FF3070470020704700BF0222C271082343711021017103218171C2734373142303730023837343688360C3680361704700BF00
:4008C0004B790F2B0BD84A7A93420BD0027802F0F00203F00F0313430370002070476FF00300704700207047CB79022B08D8CA7A934208D0037803F08F0303700020704724
:400900006FF0030070470020704700BF8B790C2B0BD88A7A93420BD0027802F0F00203F00F0313430370002070476FF003007047002070474B7B0D2B0BD84A7C93420BD0EC
:40094000027802F0F00203F00F0313430370002070476FF00300704700207047CB7B022B09D8027802F0CF021B0103F0300313430370002070476FF0030070478B7B042BC3
:400980000BD88A7C93420BD0027802F0F80203F0070313430370002070476FF0030070470020704738B593B11C46DD6995B19B78012B01D140F0800013460A460146607803
:4009C000A8470546636A0120984745B105E04FF0FF3504E04FF0FF3501E06FF00105284638BD00BF38B504460D460B46022201464020FFF7D7FF034680B929462046FFF724
:400A00005FFF034650B929462046FFF76DFF034620B92946601CFFF779FF0346184638BD38B504460D460B46022201464220FFF7B9FF034680B929462046FFF77BFF034652
:400A400050B929462046FFF789FF034620B92946601CFFF793FF0346184638BD00B583B002A9002301F8013D034601220220FFF799FF9DF80730C3F34303012B06D0022BE9
:400A800007D0032B08D0072B0BD108E06FF0050007E06FF0060004E06FF0070001E06FF0080003B05DF804FB2DE9F843002B31D00546894690461E461C6A74B39B78012B5D
:400AC00001D100F07F05337A112B02D0337C152B19D143464A4629467078A0470746736A0120984714E0376A012309EB040229467078B84707460135EDB2736A0120984793
:400B00000134E4B201E000242746A3B24345EAD347B105E04FF0FF3704E04FF0FF3701E06FF001073846BDE8F88300BF10B582B0044602A8002320F8043D2146FFF752FF79
:400B40000346C8B92346012201A94020FFF7ACFF034688B963796372E379E372636A01209847234601220DF105014120FFF79CFF034608B9A279A272184602B010BD00BF64
:400B800010B582B0044602A8002320F8043D2146FFF746FF0346C8B92346012201A94220FFF782FF034688B9637B6374E37BE374636A01209847234601220DF1050143209F
:400BC000FFF772FF034608B9A27BA274184602B010BD00BF30B583B004460D4600238DF807300B46012201464020FFF7DBFE034628BB2A79122A14D1237863F07F03237044
:400C00002B46012221464020FFF74EFF0346B0B92B4602220DF107015820FFF745FF03460DE0227812F0800F09D002F07F0222702B46012221464020FFF736FF03461846AB
:400C400003B030BD30B583B000238DF807300279A2F11003DBB2022B1AD8037A9A421AD0044601460DF10700FFF7B4FF054698B923460122211D7E20FFF716FF0546237A97
:400C8000102B02D1636A052098472379237203E06FF0030500E00025284603B030BD00BF38B5027BA2F11403DBB2012B01D9172A1DD1037C9A421DD004460346012200F143
:400CC0000C017E20FFF7F0FE0546237C142B03D1636A5120984707E0172B05D1237B152B02D1636A0A209847237B237403E06FF0030500E00025284638BD00BF30B583B007
:400D000005460C4602A9002301F8013D234601225020FFF747FE034660BB2B7813F0010F18D09DF8072002F0FE032978C1F340021A4302F0FD02C1F3800342EA430202F0AA
:400D4000FB02C1F3C00342EA83038DF807300023E37007E09DF8073023F007038DF80730FF23E370234601220DF107015020FFF79BFE0346184603B030BD00BF30B583B06B
:400D800005460C4602A9002301F8013D234601225320FFF707FE0346002844D12B78012B1CD19DF8072002F0F702A97801F0010342EAC30202F0FB02C1F3400342EA83030F
:400DC00003F0FD02C1F3800342EA430303F0FE03C1F3C0010B438DF807301CE09DF8072002F07F02A97801F0010342EAC31202F0BF02C1F3400342EA831202F0DF02C1F3B1
:400E0000800342EA431202F0EF02C1F3C00342EA03138DF80730234601220DF107015320FFF742FE0346184603B030BD30B583B004460D4602A9002301F8013D2B46012286
:400E40005420FFF7AFFD034650BB2378012B0BD19DF8073003F0EF02A378C3F3001342EA03138DF807300AE09DF8073003F0DF02A378C3F3001342EA43138DF807309DF892
:400E8000073003F0F0026388C3F34313134302A901F8013D2B4601225420FFF705FE0346184603B030BD00BF38B504460D46FFF765FF034620B929462046FFF7B7FF034610
:400EC000184638BD10B582B0044602A9002301F8013D034601226220FFF764FD034678B99DF8072012F0020F0AD002F0FD0202A901F8012D234601226220FFF7D5FD03460F
:400F0000184602B010BD00BF70B582B005460C4600238DF804308DF805308DF806300B46032201A95520FFF73DFD024698BB9DF804006B781949CE5CF3435BB218409DF838
:400F400006100B402D78032D1BD8DFE805F002070D138DF804008DF8063014E030438DF804008DF806300EE033438DF806308DF8040008E030438DF8040033438DF80630B7
:400F800001E06FF0030232B92346032201A95520FFF78AFD0246104602B070BD0492081030B583B005460C4602A9002301F8013D234601225920FFF7F5FC034688B99DF8E7
:400FC000073003F07F022B78C3F3801342EAC31302A901F8013D234601225920FFF764FD0346184603B030BD30B583B005460C4600238DF80730ADF804300B4601220DF1F4
:4010000007015F20FFF7CEFC034688B99DF8073003F0FC038DF807308DF804306B788DF805302346022201A95F20FFF73DFD0346184603B030BD00BF70B505460E46144605
:401040001146FFF731FF0346A8B92046FFF73AFF034680B921462846FFF756FF034650B921463046FFF79CFF034620B921463046FFF7BAFF0346184670BD00BF70B50546A1
:401080000C460846FFF7F2FB70B985B12E1D21463046FFF733FE034658B9224631462846FFF7CAFF034604E04FF0FF3301E04FF0FF33184670BD00BF30B583B005460C46AA
:4010C00002A9002301F8013D234601225020FFF769FC0346F0B92B7813F0200F0AD09DF8073003F0F80343F007038DF807300123E37007E09DF8073023F007038DF807303D
:40110000FF23E370234601220DF107015020FFF7CBFC0346184603B030BD00BF30B583B005460C4602A9002301F8013D234601225920FFF737FC034688B99DF8073003F044
:401140007F022B78C3F3001342EAC31302A901F8013D234601225920FFF7A6FC0346184603B030BD30B583B005460C46437802A901F8013D234601226020FFF795FC03468C
:4011800030BB234601220DF107016220FFF70AFC0346E8B99DF8072002F0F302297801F0030342EA830202F0CF02C1F3810342EA031303F0FD02C1F3401342EA430302A90B
:4011C00001F8013D234601226220FFF76DFC0346184603B030BD00BF70B505460E4614461146FFF761FE034680B921462846FFF78BFE034650B921463046FFF78FFF0346A9
:4012000020B921463046FFF7ADFF0346184670BD70B505460C460846FFF728FB70B985B12E1D21463046FFF747FF034658B9224631462846FFF7D0FF034604E04FF0FF338C
:4012400001E04FF0FF33184670BD00BF30B583B004460D4602A9002301F8013D2B4601225220FFF79FFB034658BB237813F0010F07D09DF8073003F0FE0343F001038DF825
:401280000730237813F0020F07D09DF8073003F0FD0343F002038DF80730237813F0040F07D09DF8073003F0FB0343F004038DF807302B4601220DF107015220FFF7F4FB92
:4012C0000346184603B030BD30B583B005460C4602A9002301F8013D234601225920FFF761FB034688B99DF8073003F07F026B78C3F3800342EAC31302A901F8013D234663
:4013000001225920FFF7D0FB0346184603B030BD30B583B005460C4600238DF80730ADF804300B4601220DF107015F20FFF73AFB034688BB9DF8073003F003022B88C3F3BF
:40134000C50342EA830302A901F8013D234601225F20FFF7A9FB0346F0B9234601220DF107016220FFF71EFB0346A8B99DF8073003F0FE026B78C3F3400313438DF8073000
:401380008DF80530AB7802A901F8043D234602226120FFF789FB0346184603B030BD00BF70B505460E4614461146FFF77DFD034680B921462846FFF7A7FD034650B921464E
:4013C0003046FFF781FF034620B921463046FFF79FFF0346184670BD70B505460C460846FFF744FA70B985B12E1D21463046FFF72DFF034658B9224631462846FFF7D0FF41
:40140000034604E04FF0FF3301E04FF0FF33184670BD00BF70B582B005460E46144602A9002301F8013D134601225020FFF7BAFA034608BB6B78042B0BD19DF8073003F0CE
:40144000DF027378C3F3C00342EA43138DF807300AE09DF8073003F0EF027378C3F3C00342EA03138DF80730234601220DF107015020FFF719FB0346184602B070BD00BF9C
:4014800030B583B005460C4602A9002301F8013D234601225820FFF785FA034688B99DF8073003F0F7026B78C3F3800342EAC30302A901F8013D234601225820FFF7F4FADF
:4014C0000346184603B030BD70B582B006460D46144602A9002321F8043D134602226320FFF760FA034650BB9DF804307278032A06D12A88C2F3C21203F0F8031343DBB2C6
:401500002A78C2F3401103F0BF0343EA8113C2F3801103F07F0343EAC1138DF804309DF80530C2F3040203F0E0031A438DF805202346022201A96320FFF7B6FA03461846AF
:4015400002B070BD70B505460E4614461146FFF7ABFC034688B921462846FFF7D5FC034658B921463046FFF78BFF034628B9224631462846FFF7A8FF0346184670BD00BFF6
:4015800070B504460D460846FFF770F9A8B9BCB1261D2A4631462046FFF73CFF034688B929462046FFF780FC034658B92A4631462046FFF7C7FF034604E04FF0FF3301E07A
:4015C0004FF0FF33184670BD30B583B005460C4602A9002301F8013D234601225220FFF7E1F9034688B99DF8073003F0F7022B7803F0010342EAC30302A901F8013D23464E
:4016000001225220FFF750FA0346184603B030BD30B583B00D460023ADF80430037813F0C00306D115238DF8043003238DF8053032E00446402B03D12D238DF804302BE08F
:40164000802B06D11D238DF8043007238DF8053022E0C02B20D10B46022201A97A20FFF7A1F9C8B99DF8043003F0E7032278C2F3410143EAC10303F0F803C2F3C20213437E
:401680008DF804309DF8053003F0F8026378C3F3020313438DF805302B46022201A97A20FFF702FA03B030BD70B505460C460846FFF7DCF8C8B9DDB12E1D21463046FFF7A2
:4016C00083FF0346B0B921462846FFF7EDFB034680B921462846FFF717FC034650B921463046FFF795FF034604E04FF0FF3301E04FF0FF33184670BD30B583B005460C46BA
:4017000002A9002301F8013D234601225020FFF749F9034688B99DF8073003F0BF02AB7803F0010342EA831302A901F8013D234601225020FFF7B8F90346184603B030BDBE
:4017400030B583B005460C4600238DF804308DF805300B46022201A96520FFF723F9034678BB9DF8042002F0FC032978C1F301021A4302F0F30201F00C031A4302F00F0246
:4017800001F0F00313438DF804309DF8052002F0C0036978C1F305021A4302F0BF02C1F3801342EA831202F07F0201F0800313438DF805302346022201A96520FFF774F9FD
:4017C0000346184603B030BD70B505460C460846FFF74CF8C8B9DDB12E1D21463046FFF78BFF0346B0B921462846FFF75DFB034680B921462846FFF787FB034650B9214644
:401800003046FFF79DFF034604E04FF0FF3301E04FF0FF33184670BD30B583B005460C4602A9002301F8013D234601225020FFF7B9F8034688B99DF8073003F07F026B781B
:40184000C3F3C00342EAC31302A901F8013D234601225020FFF728F90346184603B030BD30B583B005460C4600238DF804308DF805300B46022201A96720FFF793F80346F6
:4018800008BB9DF8043003F0C0022B78C3F3050313438DF804309DF8053003F0CF026B78C3F3410342EA031303F0F8032A88C2F3821213438DF805302346022201A9672013
:4018C000FFF7F2F80346184603B030BD70B505460C460846FEF7CAFFC8B9DDB12E1D21463046FFF799FF0346B0B921462846FFF7DBFA034680B921462846FFF705FB034646
:4019000050B921463046FFF7ABFF034604E04FF0FF3301E04FF0FF33184670BD30B583B005460C4602A9002301F8013D234601225120FFF737F8034688B99DF8073003F081
:40194000F702AB78C3F3001342EAC30302A901F8013D234601225120FFF7A6F80346184603B030BD30B583B005460C4602A9002301F8013D234601225820FFF713F80346CE
:4019800088B99DF8073003F07F02AB78C3F3C00342EAC31302A901F8013D234601225820FFF782F80346184603B030BD30B583B005460C4600238DF804308DF8053002A975
:4019C00001F8023D234601225C20FEF7EBFF0346E0B99DF8062002F0FC03A978C1F301021A4302F0FB02C1F3800342EA83038DF806306B788DF805302B7802A901F8043D4D
:401A0000234603225A20FFF74FF80346184603B030BD00BF70B505460C460846FEF726FFF8B90DB32E1D21463046FFF777FF0346E0B921462846FFF737FA0346B0B9214635
:401A40002846FFF761FA034680B921463046FFF789FF034650B921463046FFF7A7FF034604E04FF0FF3301E04FF0FF33184670BD30B583B005460C4602A9002301F8013DCA
:401A8000234601225120FEF78DFF0346E0B99DF8072002F0FE032978C1F300021A4302F0FD02C1F3400342EA430202F0FB02C1F3800342EA830302A901F8013D23460122C4
:401AC0005120FEF7F1FF0346184603B030BD00BF30B583B005460C4602A9002301F8013D234601225820FEF75DFF034688B99DF8073003F07F022B78C3F3401342EAC31303
:401B000002A901F8013D234601225820FEF7CCFF0346184603B030BD30B583B005460C4600238DF804308DF805308DF806300B46012201A95C20FEF735FF0346B8B99DF8A0
:401B4000043003F03F022B78C3F3C10342EA83138DF80430AB788DF805306B788DF806302346032201A95C20FEF79EFF0346184603B030BD70B505460C460846FEF776FEE4
:401B8000F8B90DB32E1D21463046FFF771FF0346E0B921462846FFF787F90346B0B921462846FFF7B1F9034680B921463046FFF78FFF034650B921463046FFF7ADFF0346D5
:401BC00004E04FF0FF3301E04FF0FF33184670BD10B582B0044602A9002301F8013D034601225120FEF7DEFE034670B99DF8073003F0EF0343F0100302A901F8013D23460B
:401C000001225120FEF750FF0346184602B010BD30B583B005460C4602A9002301F8013D234601225620FEF7BDFE024670BB6B781849C85C9DF8073023EA00035BB2010174
:401C4000C9B223EA0103DBB22D78032D13D8DFE805F00205090D8DF807300EE00B438DF807300AE003438DF8073006E003430B438DF8073001E06FF003023AB92346012218
:401C80000DF107015620FEF70FFF0246104603B030BD00BF0492081038B505460C460846FEF7E4FD88B99DB12046FFF791FF034680B921462846FFF7F7F8034650B92146DC
:401CC0002846FFF7A5FF034604E04FF0FF3301E04FF0FF33184638BD30B583B005460C4602A9002301F8013D234601225120FEF759FE034688B92B7A03F001029DF80730A5
:401D000023F0200343EA421302A901F8013D234601225120FEF7C8FE0346184603B030BD38B599B14A6AA2B10C460546FFF7D4FF034680B921462846FFF7B6F8034650B919
:401D400021462846FFF764FF034604E04FF0FF3301E04FF0FF33184638BD00BF30B583B005460C4602A9002301F8013D234601225120FEF717FE034688B92B7AC3F340024B
:401D80009DF8073023F0400343EA821302A901F8013D234601225120FEF786FE0346184603B030BD38B599B14A6AA2B10C460546FFF7D4FF034680B921462846FFF774F843
:401DC000034650B921462846FFF722FF034604E04FF0FF3301E04FF0FF33184638BD00BF30B583B0B6238DF80730F0B10446436AF3B1034601220DF107017E20FEF754FE63
:401E00000546636A0F20984755B9A378012B07D1234601220DF107017F20FEF7C3FD054645B92046FEF738FD04E04FF0FF3501E04FF0FF35284603B030BD00BF10B582B021
:401E40000446FEF713FD034648B9A278012A06D123460DF107017F20FEF7A4FD0346C3B9234601220DF106010020FEF79BFD58B99DF80630D12B0AD12370FF23E3702046E5
:401E8000FFF7AEFF034604E06FF0020301E06FF00203184602B010BD60B1426A6AB110B50446FEF7CFFE034658B92046FEF7F8FE034606E04FF0FF3301E04FF0FF33184628
:401EC0007047184610BD00BFB0B1426ABAB110B50446FEF72BFE0346A8B92046FEF750FE034680B92046FFF7D7FF034658B92046FEF7B4FD034606E04FF0FF3301E04FF06F
:401F0000FF3318467047184610BD00BF08B543780C2B2CD8DFE803F0070A13101016191F1C0D22252800FFF7A9F808BDFFF770F908BDFFF751FA08BDFFF722FB08BDFFF785
:401F4000B3FB08BDFFF740FC08BDFFF7BFFC08BDFFF760FD08BDFFF70DFE08BDFFF79CFE08BDFFF7DDFE08BDFFF71CFF08BD002008BD00BFF0B585B0064617461C460F4DFD
:401F8000284600F8011B1A46394604F05BFB8DF8006001950134029400238DF80C30084A6946084801F0ACFB04464FF0FF31064B186802F0BDFD204605B0F0BD204B0208F0
:401FC0008C7602080000644050760208F0B587B0054617461E468DF807108DF808000DF107030393012304938DF81430124A02A9124801F085FB124CE0604FF0FF31114BF3
:40200000186802F095FDE3688BB98DF80850039704968DF81430084A02A9084801F0B8FAE0604FF0FF31074B186802F081FD044BD86807B0F0BD00BF8C76020800006440F0
:40204000204B02085076020800B583B010F4002F07D00E4804F0ECFFA9210D4802F0B2F811E010F4C02F0ED001A90A4B186802F055FC019B3BB14FF08052074B1A60BFF39E
:402080004F8FBFF36F8F03B05DF804FB14920810409208105076020804ED00E010B504462146034800F088FC0028F9D010BD00BF00006640054BD3F80833C3F30803002BA8
:4020C000F8D0024BD3F84003704700BF0000664008B50249024801F089FF08BD547602080000664008B5114B1B785BB9104A1149114801F057FD1149114802F00FF80122B6
:402100000A4B1A700E4BB3F90030002B08DB590903F01F03012202FA03F30A4A42F82130054A136843F00043136008BD304B0208547602086892081000006640D120081080
:402140005892081000E100E008B50249024801F033FC08BD8C7602080000644010B5144B1B788BB9134C144A1449204601F01AF8134A1449204601F023F91349134801F062
:40218000CDFF01220A4B1A70104BB3F90030002B08DB590903F01F03012202FA03F30C4A42F82130034A136843F00043136010BD314B0208000064408C760208A892081099
:4021C00000127A00801A0600492108106092081000E100E01F4B98422DD00CD840282ED003D8E8B1102828D02FE0802829D0B0F5807F28D029E0184B984228D006D8B0F12E
:40220000204F0DD0154B984212D01EE0144B98420AD00133984209D0023B984215D101E0002070470F4870470F4870470F4870474FF4A0007047074870470D4870470D485E
:4022400070470D487047034870470C4870474FF4A400704706005200010000F0090000A0040000F0010052000200520003005200010050000200500005005200FF005200C3
:4022800038B5124B1B6893F83130012B04D840F2C3110F4801F096FF0C4B1D682A6AB5F8B03013442C46D5F8B420D358002B0BDB084B1868FFF78EFF6B6801229A606368C6
:4022C0009B68002BFBD138BD034838BDD8760208BC920810344B0208020050001A4B186128B102230370FF23437000234380174B1B6893F850202AB300B583B0B3F9383053
:40230000ADF80030002301931149684601F006FFBDF90030002B08DB590903F01F03012202FA03F30B4A42F82130084B1B6893F8513023B102220849012000F077FA03B053
:402340005DF804FB704700BF344B0208D8760208C543020800E100E07D44020808B50248FFF7BCFF08BD00BF484B020838B50B4B1B68D3F8B4301B58002B0DDA0D460446A4
:402380000B0C1B0423B140F2D521054801F01AFFA9B26160002038BD024838BDD8760208FC92081001008A0038B50368002B01DA002300E0094B73B90D460446C2600B0CE4
:4023C0001B0423B140F2BB21054801F0FBFEA9B2A160002038BD014838BD00BF01008A00FC92081038B504460D4619B99921084801F0E8FE074B1B68D3F8B4301B59002BA6
:4024000003DAE3682B60002038BD034838BD00BF3C930810D876020801008A00254B1B6893F8313083423AD900293AD00B6813F01F0F38D170B50D4604461E4B1B6893F83B
:402440003130984204D340F2C3111B4801F0BAFE184B1B68186AB3F8B03004FB0304174E34602A68D2080021686804F0F6F800212046FFF77BFF346825B940F293310E484A
:4024800001F0A0FE2A4600212046FFF78DFF60B900210A4B1868FFF769FF40B970BD084870470748704706487047064870BD054870BD00BFD8760208FC9208104C4B02081C
:4024C00003018A0001018A0010B504461346B2B9A9B9124B1B6893F83130984204D340F2C3110F4801F06EFE0C4B1B681A6AB3F8B03004FB03240B4B1C60002010BD43B194
:4025000049B1084A51609360111D2046FFF786FF10BD054810BD044810BD00BFD8760208FC9208104C4B020803018A002DE9F0411B4B1B68DC68236883422CD90D46460945
:40254000A0EB4610012303FA00F819B901F0A5FE074600E00027124B18680368002B01DA002300E00F4B83B9626852F8263018EA030F05D023EA080342F82630002400E0C1
:40258000094C0021FFF7F2FE00E0084C25B9384601F087FE00E0064C2046BDE8F08100BF4C4B020801008A00020188000301880004018A000B4B1B68DB681A6882420CD933
:4025C0004109A0EB4110012202FA00F05B6853F82130184203D004487047044870470448704700BF4C4B02080101880004018A0000018800024B1B680BB9014B1860704700
:40260000584B02082DE9F8430446884691461D46089F2C4B1B681BB9B5212B4801F0D2FD284B1B682C2000FB04F01C18EEB21E50C5F3072363602D0CA560244B1B6893F8F9
:4026400031309E4204D340F2C311214801F0BAFD1E4B1B68196AB3F8B02006FB02162661666893F832309E4204D340F2DF11184801F0A8FD154B1B681D6A803605EB4615AC
:402680006561A668330C1B0423B14FF4FF71104801F098FD330C1B0423B140F2FF110C4801F090FDB3B243EA0646AE60C4F81C90C4F820800023A36117B1B7F90030A3819A
:4026C000BDE8F883584B02087C930810D8760208FC920810F0B58FB0044618B95221274801F070FDA369072B03D95621234801F069FDE36A1BB95821204801F063FD236B75
:402700001BB959211D4801F05DFD07AD04F114060FCE0FC537682F6002AD26460FCE0FC533682B60164B1B68B3F93620079B1344ADF83030089B0D93A26AE16A0CAD00953B
:402740003B460A98FFF75EFF00210091069B0A460598FFF757FF216B284601F0DFFCBDF93030002B08DB590903F01F03012202FA03F3044A42F821300FB0F0BD7C93081075
:40278000D876020800E100E0F8B506460F461D4614461AB9FD211F4801F014FD1E4B1B681BB9FE211B4801F00DFD1B4B1B682C2101FB063001FB07314B68012202FA03F3FA
:4027C0001B04466802FA06F60269EAB18F69EFB91268002A01DA002200E0104AC2B92288134323600369DC6001238B614D620469330C1B0423B140F2BB21094801F0E2FC61
:40280000B2B2A2600020F8BD0648F8BD0648F8BD0548F8BD7C930810584B020801008A00FC92081004028A0007028A00F8B505460F4616460E4B1B6823B94FF4AF710D4814
:4028400001F0C0FC0A4B1B682C2404FB0534236A23B94FF4B171074801F0B4FCE369B34204D9236A43F826700020F8BD0248F8BD584B02087C9308100A028A0070B582B07C
:4028800000230193044620B940F2D111284801F099FC236923B94FF4E971254801F092FC636923B940F2D311214801F08BFC236A23B94FF4EA711E4801F084FC6369DD68B5
:4028C0002A0C20D012041A601B682069194B1B68D3F8B430C358002B15DA01A9FFF782FD60B9019803681E0CDBB2E269934206D2226A52F8233013B1984700E00026314617
:402900002069FFF733FDADB275B16369ADB21D601B68636A1BB198470023636202E0A36A03B198470023A36163691B6802B070BD7C930810D876020810B50446074B1B689E
:4029400023B940F2B111064801F03CFC034B1B682C2000FB0430FFF791FF10BD584B02087C93081010B4D0F8003303F00F03072B06D900230DE0D0F84043CC54013300E039
:4029800000239342F7D306E0D0F8404321F8134001339342F8D35DF8044B704710B51446D0F80833C3F308039A4200D31C462246FFF7D8FF204610BD036813F4006F01D07B
:4029C000802200E04022D0F80832C3F30803934203D0C0F84012012070470020704700BF10B4D0F8003203F00F03072B06D900230DE0CC5CC0F84042013300E000239342BE
:402A0000F7D306E031F81340C0F8404201339342F8D35DF8044B704710B51446036813F4006F01D0802200E04022D0F80832C3F30803D31AA34200D81C462246FFF7D0FF50
:402A4000204610BD02E0C0F84012013A002AFAD1704700BF10B51446036813F4006F01D0802200E04022D0F80832C3F30803D31AA34200D81C462246FFF7E4FF204610BD99
:402A800010B54A6841F201039A4231D1D0F80833C3F30803B3B10B6A43F040030B620B7873B1D0F8043343F48033C0F80433D0F8043323F48033C0F80433D0F8043301E0F3
:402AC000D0F840330B6A43F020030B620B6A23F010030B62036E23F4204303660023C0F8C83F0123C0F8C03FD0F8C03F202221E0D0F80832C3F30802D0F80832C3F3C033D3
:402B000013440A6BD21A4A630A6A12F0080F05D1CA6A1A44CA628A6AD31A8B620B6A43F004030B620B6A23F001030B620023C0F8883F1022D0F84C4F40F201131C420DD074
:402B4000036823F00043036000238366C366036843F000430360036842F040024FF080534B604B6C0BB11046984710BDD0F80C3F13F0020F1DD00222C0F8002FD0F8002F91
:402B8000D0F8002F12F0040F02D04FF4001001E04FF480108A6802438A604A68B2F5B81F07D00A7B12B14FF4C01201E04FF4B0124A6013F4807F03D08A6842F400028A602E
:402BC00013F0010F03D08A6842F480028A6040F21112134202D04FF4C0134B60704700BF0023C0F8C83FC0F8883F836E23B140F21713C0F8083F704740F21313C0F8083F19
:402C0000182383664FF4B8134B60704738B5D0F80C4F036E23F4807303660023C0F8C83FC0F8883FC0F8083F40F21713C0F8003FD0F8003F8B6823F480338B604B7B13B120
:402C40008B69CB610BE08D69D0F80822C2F30802D0F80832C3F3C0331344EB1ACB6140F201131C421BD0036E9B0F032B05D114F4827F14BF0123002300E001235BB1036823
:402C800023F00043036000238366C366036843F00043036003684FF080534B601BE00B7893B1D0F8043343F48033C0F80433D0F8043323F48033C0F80433D0F80433012345
:402CC000C0F8C03FD0F8C03F0B7B0BB10B4B01E04FF080534B604A6C72B14B7B13B14FF4802001E04FF400308B6813F0F87301D04FF400231843904738BD00BF00001010E8
:402D000070B505460C4691F8243013F0FF0F0ED1CB6A63B94B6C0BB108209847E36AB3FA83F35B0984F824300123C5F8883F94F8243013F0FF0F16D063783BB12B6813F4B5
:402D4000006F01D0802202E0402200E00122FF212846FFF77FFE236B18442063236A43F00803236270BDE26A012A11D963780BB1013A00E00122A16A2846FFF74DFE236BC1
:402D800003442363E36A1B1AE362A36A1844A062D5F80832C3F30803802B23D0E36A012B20D101F07AFAA36A1B78C5F840324026C5F8806FD5F8803F01F073FA236B013352
:402DC00023630023E362A36A0133A362C5F8886F63783BB1236A43F002032362636C0BB10420984770BD00BF38B54B68B3F5A81F03D14FF4C0134B6038BD4B68B3F5A01FAD
:402E00004DD10C4605464A69012A11D94B780BB1013A00E0012221692846FFF7FDFDA3690344A36163691B1A6361236903442361D5F80832C3F30803802B14D06369012BA8
:402E400011D101F02AFA23691B78C5F840324023C5F8803FD5F8803F01F023FAA3690133A361002363616369CBB9237B33B14023C5F8883F4FF4A813636005E00023C5F82A
:402E8000883F4FF4B0136360637843B1A36843F40033A360636C13B14FF48030984738BD70B504460D468A6C82B3036813F4803F06D0D0F84C3F13F0400F03D0022002E071
:402EC000002000E00020236E13F4006F06D1D4F84C3F13F0800300D001231843C0B190470123C4F8C03FD4F8C03F024648B91023C4F8403FD4F8403F40F2D113C4F8483F5B
:402F000007E040F2C113C4F8483F02E0002200E00022D4F8043243F48033C4F80432D4F8043223F48033C4F80432D4F804320AB9012300E00223E366002A59D1666E06F06A
:402F400010066B6C23B10EB1012000E0022098477EB141F202036B602B6A43F001032B626B6B2B63002385F824300123C4F8883F70BD41F201036B602B6A43F010032B62AE
:402F80000123C4F8C83F2B78BBB1EB6BBBB1236E43F400532366ED6B802D05D9A5F18003802B0ED8813D0DE0013D236E43F4004323660023C4F8C83F04E0002502E00025B5
:402FC00000E03F25236813F4006F01D0802300E040239D4204D34FF42071064801F0F2F8D4F8043323F0FF03EDB21D43C4F8045370BD00BFBC93081038B54B68B3F5881FB6
:4030000003D0B3F5901F1AD038BD0B69D0F840231A708B6901338B614B69013B4B612BB10B6901330B610423836638BD0B7B13B14FF4C01301E04FF4B0134B6038BD0C4680
:4030400005464A690969FFF7A9FCA3690344A36163691B1A6361226910442061012B24D82B6E23F480732B666369012B16D12B6813F4006F01D0802300E0402323B94FF4AF
:403080002071184801F09EF8D5F8043323F0FF03C5F804334FF48813636038BD0023C5F8C83F4FF4B013636038BD402B01D89C1E00E03F242B6813F4006F01D0802300E0B2
:4030C00040239C4204D34FF42071064801F07AF8D5F8043323F0FF02E3B21343C5F8043338BD00BFBC93081038B5CB6B002B50D00B78002B3FD00C460546D0F80423D2B2E6
:403100000132896BFFF74AFC236C03442364E36B1B1AE363A26B1044A063802B06D9A3F18002802A0FD8A3F181040DE02B6E43F400432B66E36B0BB15C1E00E0002400231C
:40314000C5F8C83F00E03F242B6813F4006F01D0802300E040239C4204D34FF42071104801F030F8D5F8043323F0FF02E3B21343C5F8043338BD0123C3668A6B0B6CD0F821
:403180004003D0540B6C01330B64CB6B013BCB6338BD0223C3660023C0F8C83F38BD00BFBC930810F8B50B78012B03D00C7A1CB9002702E0002700E00127002800F0A780AD
:4031C000002900F0A680002A00F0A58016460C460546013BDBB2022B03D94F214F4800F0F1FF637803B163791BB150214B4800F0E9FF94F90330002B03DA5121474800F0D3
:40320000E1FF237913F0010F03D05221434800F0D9FF2369102B03D95321404800F0D2FFE368102B03D954213C4800F0CBFF637913B14FF4803100E00021E27912B14FF4FB
:40324000807300E000230B4343F400632B60A37913B94FF4006300E000232269013A02F00F021A43E368013B1B01DBB21343227843EA82732B6617B140F2073301E040F214
:403280000713C5F800330FB1254B00E0254B2B6763780BB17F2300E00023C5F80433E3785B00DBB2227943EA0243C5F810331E4BC5F80032A3780BB1402300E00123C5F81F
:4032C00004320023C5F8C83EC5F8883EC5F8C83FC5F8883FC5F8083F2378022B02D040F2D11300E00023C5F8483F63783370A37873704FF0805373600020B060B0613062B8
:403300003064F0633063F0627064B064F8BD0748F8BD0648F8BD0548F8BD00BF0094081003002A0013102A00070101000120AA0038B505460C4621B940F2C321194800F097
:4033400041FF2B6E9B0F012B17D1174B2344174A93421ED9A4F5BD13A3F5D66302F5611202F56162934216D9A4F57104A4F533440F4B9C4211D80F4838BD84B1286EC0F395
:4033800003102B6E03F00F0318440230B4FBF0F038BD094838BD094838BD002038BD002038BD00BF0094081020AD88FF405B730040555C0440420F00801A0600A08601007A
:4033C0002DE9F84307468846914622B940F21221624800F0F7FE08F1FF34614B9C4204D940F213215D4800F0EDFE3B6E9B0F012B0DD149463846FFF79BFF0546D7F80033FB
:4034000023F40073C7F80033564B3B67A2E0544B9C421FD8544B984509D8A9F5BD13A3F5D663524A934218D90021012328E0504B984507D84F4B4B444F4A934213D9002191
:4034400001231DE04D4B4B444D4A934212D90021012315E00021012312E0002141F288352E460B460CE000214FF461754FF4C8660B4605E001214FF4BE754FF41B7600230A
:40348000002B66D13F4BB3FBF9F3B6FBF3F404FB03F2964200D90134102C00D910240F2C8CBF00220122B5FBF3F606FB03F39D4200D90136102E00D91026A519B9FBF5F5D8
:4034C0000FE022B10F2C09D80134002206E00F2E04D801360F2C8CBF00220122A519B9FBF5F5454502D9A3191F2BEAD941B1D7F8003343F40073C7F80033234B3B6707E085
:40350000D7F8003323F40073C7F80033154B3B67E31F092B04D940F283511C4800F052FE3B6E23F0F003013C2401E4B223433B66731F0B2B04D94FF4B461144800F042FE17
:403540003B6E23F00F03013E06F00F061E433E6600E000252846BDE8F88300BF009408103F420F0013102A00A0860100502D1900801A060020AD88FFA0432100807E25FF7C
:40358000C02BAF0000CA9A3B03002A004094081070B5044615460E4621B940F2D341554800F010FE73680BB1B36823B940F2D441504800F007FE96F90030002B04DA40F284
:4035C000D5414C4800F0FEFD0023C4F8483F6B6813F0805F00F0888033785B00DBB243F001034FF48032AA6072682A61B2686A610022AA61EA61327B2A7301226A7340F21C
:403600001712C4F8002FD4F8002FD4F8042242F48032C4F80422D4F8042222F48032C4F80422D4F804226A68B2F1805F04D1C4F840320223A36609E0626E12F0200F01D0F1
:40364000092200E00122A266C4F840322B7843B32B7B33BB6B69012B23D9236E43F4807323666E69802E01D8023E00E03F26236813F4006F01D0802300E040239E4204D327
:403680004FF420711C4800F09DFDD4F8043323F0FF03F6B21E43C4F804634FF490136B6015E0236813F4006F01D0802300E0402323B94FF42071104800F084FDD4F804332A
:4036C00023F0FF03C4F804334FF488136B6000F0E4FD0123C4F8C83F40F21313C4F8083F00F0DFFD002000E0044840F2D113C4F8483F70BD00940810BC9308100220AA0089
:40370000F8B5044615460E4621B940F2B7514B4800F058FDB36833B1736823B94FF4B761464800F04FFD96F90030002B04DA40F2B951424800F046FD0023C4F8483F6B6822
:4037400013F0805F73D037787F00FFB24FF48033AB6073682B61B3686B610023AB61EB61327B2A736B7340F21713C4F8003FD4F8003FD4F8043243F48033C4F80432D4F847
:40378000043223F48033C4F80432D4F804326B68B3F1805F09D1C4F840724023C4F8803FD4F8803F0223A36617E0636E13F0200F01D0092300E00123A3666B695BB900F004
:4037C0006CFDC4F840724023C4F8803FD4F8803F00F067FD01E0C4F840724FF4A0136B606B780BB1402500E00125236813F4006F01D0802300E040239D4204D34FF43A71BF
:403800000F4800F0DFFCD4F8043223F0FF032B43C4F8043200F041FD0123C4F8883F40F21313C4F8083F00F03CFD002000E0054840F2D113C4F8483FF8BD00BF00940810D0
:40384000BC9308100220AA0070B504460E46D0F88C3E13F0010F07D04FF480534B600123C0F8803ED0F8803ED4F84C5F40F201131D420FD0336A15F4807F02D04FF480724E
:4038800000E08022134333620023C4F8C83F45F010050EE015F0100F0BD0D4F80833C3F3080333B1F36B23B10123C4F8C43FC4F8C83FD4F8CC3F13F0010F08D0314620465B
:4038C000FFF712FC0123C4F8C03FD4F8C03F15F0100F0AD031462046FFF7D2F81023C4F8403FD4F8403FD4F84C5F15F0C00F0DD031462046FFF7D4FA0123C4F8803ED4F893
:40390000803EC023C4F8403FD4F8403FD4F88C3F13F0410F08D031462046FFF7F1F90123C4F8803FD4F8803F70BD00BF70B506460D46D0F8004E14F0020F0AD0836E2BB135
:40394000002383668B6843F080738B604FF4C0136B6014F0010F05D029463046FFF706F924F0040414F0080F08D029463046FFF743FB0123C6F8C03FD6F8C03F14F0040FA6
:4039800008D029463046FFF72FFA0123C6F8803FD6F8803F6B68B3F5C01F03D129463046FFF734F96B68B3F5B01F03D129463046FFF716F970BD00BF08B54B6813F4801FBD
:4039C00002D0FFF7B3FF08BDFFF73EFF08BD00BF2DE9F84305460C46036813F4006F02D04FF0800801E04FF04008D5F8007207F00F07A26A012A19D9D4F82490E262561E54
:403A0000B9F1000F00D026B940F27351254800F0D9FB324649462846FEF7FEFFA36A1B1AA362072F00D9400048446062D5F80832C3F30803984533D0A36A012B30D10023A7
:403A4000A362072F02D8636A1E7801E0636A1E8800F023FCC5F840624FF40073C5F8803FD5F8803F00F01DFCD5F8883F23F4007222F0010242F4007623F4EE6323F00303E6
:403A800023B140F22A41084800F09CFBC5F8886F236843F002032360236B0BB101209847BDE8F88380940810BC9308102DE9F04105460C46036813F4006F01D0802600E0AB
:403AC00040267608A769D4F81C8017B1B8F1000F04D14FF49961314800F074FB424639462846FEF75BFF236A03442362E3691B1AE36173BBA368FBB1E3689E4201D8013EF6
:403B000000E05E1E2B6813F4006F01D0802300E040239E4204D34FF42071214800F052FBD5F8043323F0FF03F6B21E43C5F804630123C5F8C83F02E00023C5F8C83F636876
:403B400023F001036360236B33B304209847BDE8F081A169D5F8002302F00F02072A00D940000844A0619E4216D95C1E2B6813F4006F01D0802300E040239C4204D34FF449
:403B80002071074800F01EFBD5F8043323F0FF02E3B21343C5F80433BDE8F08180940810BC930810002800F0A48170B50546002900F0A18116460C460B78022B03D93F21FA
:403BC000A24800F0FFFA637B023BDBB2062B03D940219E4800F0F6FAA37B3BB1022B05D0032B03D04121994800F0ECFA94F82130012B03D94221954800F0E4FA94F8283019
:403C0000012B03D94321914800F0DCFA2378012B06D86368083B082B94BF0023012307E0A37F2BB16368013B062B94BF002301231BB14521854800F0C5FAA368053B042B1A
:403C400003D94621814800F0BDFA6369FF2B03D947217E4800F0B6FAA369FF2B03D948217A4800F0AFFAA37C6BB1237833B9A368092B05D1A37B2BB1012304E0012302E03C
:403C8000012300E000231BB14A21704800F09AFA636B23F4366323F00D031BB14C216B4800F090FAE36B23F4EE6323F003031BB14D21664800F086FA2378022B01D1A37F80
:403CC00013B16268013A00E00022237F13B14FF4803100E00021A368082B02D84FF4006300E000230B4302F00F02134343F000732B60226B2B6813F4006F01D0802300E01B
:403D000040239A4203D36221504800F05BFAA26B2B6813F4006F01D0802300E040239A4203D36321494800F04DFA626A2B6813F4006F01D0802300E040239A4203D3642180
:403D4000424800F03FFA23781B0603F040732B64637F0BB1402200E00022A37C13B14FF4806300E000231343227C12B14FF4807200E000221343627C12B14FF4007200E017
:403D800000221A43E36A013B1B0403F470231343627B013A02F007021343A27B120102F030021343AB64237B13B14FF4807200E00022E37B23B92378022B03D1012302E065
:403DC000012300E0002313B14FF4007300E000231A43A368013B03F00F031343C5F80033227DA3691B0403F47F031343C5F81033E26AD5F8003303F00F0303339A4201D360
:403E0000102A03D97A21114800F0DCF9E37F23B12378012B03D0002302E0002300E0012313B14FF4807200E00022637B013B03F007031A43A37B1B0103F0300313436B64C3
:403E4000237B2BB14FF4807203E000BFC09408100022A368013B03F00F0313432278012A02D14FF4803200E000221343C5F8003294F83030C5F8043394F8203013B14FF02E
:403E8000007200E0002294F82130012B02D14FF0807300E00023134394F82820012A02D14FF4803200E00022134394F8242013432B6594F83830C5F80432636B23F4926391
:403EC00023F002031B051B0DC5F8C83FE36B23F08C035B055B0DC5F8883F76B1002070603060B060F0603062F0623063044B736370BD04487047034870BD002070BD00BF0B
:403F0000EFCDAB000160AA000B694A69934202D34869181A7047CA694869101A184470472DE9F04107460D46036813F4006F02D04FF0800801E04FF040084FEA5808D7F852
:403F40000863C6F308062C6926E00134EB689C4200D100246B699C420FD12B6B0BB1082098476B699C4208D10023C7F8C83F0CB1013C13E0EC68013C10E0D7F84023D7F84B
:403F8000003303F00F03072B02D8AB681A5502E0AB6823F81420013E002ED6D12C61EC6829463846FFF7B0FF201A804519D908B1441E00E000243B6813F4006F01D08023D3
:403FC00000E040239C4204D34FF42071064800F0F9F8D7F8040320F0FF03E0B21843C7F80403BDE8F08100BFBC93081038B504460D46D0F8003E13F0080F35D0D0F8CC3F6D
:4040000013F448730AD04A681A434A60C0F8C03FD0F8C03F0B6B0BB110209847D4F8CC3F13F4006F09D06B6843F400636B604FF40063C4F8C03FD4F8C03FD4F8CC3F13F008
:40404000010F11D0EB6923B129462046FFF72EFD05E0AB681BB129462046FFF761FF0123C4F8C03FD4F8C03FD4F8003E13F0040F2ED0D4F88C3F13F4A0630AD02A681A4310
:404080002A60C4F8803FD4F8803F2B6B0BB120209847D4F88C3F13F0010F08D029462046FFF796FC0123C4F8803FD4F8803FD4F88C3F13F4007F0BD00022C4F8882F2B68D6
:4040C00023F001032B60EA622B6B0BB10220984738BD00BF38B50D4B9A680D4B9A420FD10D46044621B940F237110A4800F06AF804F11003064A52F8230042F8235038BD74
:404100001030054B53F8200038BD00BF00ED00E000400208009508100000081048B338B504460D464368072B03D93221134800F049F8B4F900306268002B08DB5201D2B24B
:4041400003F1604303F5614383F8002305E003F00F035201D2B20A49CA540A4B9A680A4B9A4208D12946B4F90000FFF7B3FF002038BD06487047002038BD00BF009508107C
:4041800014ED00E000ED00E0004002080100560010B5044605E0084B186800F075F8A4F50044B4F5004FF6D8044B186800FB04F000F06AF810BD00BFA8420208A442020869
:4041C00001BEFEE738B50D46044C18220146204602F03EFFA5610020FFF7F2FFF0480208FEE700BF08B50268254BDA6142681A6282685A62C2689A620269DA6242691A63EF
:4042000082695A63C2699A631E4A916AD963D16A1964516A5964516B9964926BDA64F1EE103A13F0900F27D0026A154B1A65426A5A65826A9A65C26ADA65026B1A66426B83
:404240005A66826B9A66C26BDA66026C1A67426C5A67826C9A67C26CDA67026DC3F88020426DC3F88420826DC3F88820C26DC3F88C20026EC3F89020FFF7B2FF08BD00BFA2
:40428000F048020800ED00E00230800803D001300238FCD100BF00BF7047EFF3108072B6704780F31088704730B583B004460D46022808D9042806D0032804D040F6B21128
:4042C0002848FFF77FFF6B1EDBB2012B08D9042D06D0082D04D040F6B3112248FFF772FF214800EB84004468042D12D0012D1AD111E0A3681D420AD1E3681A6800925B68D4
:4043000001932368294668469847174B9C61646902E0002000E0002014B3144B9842E8D1012DE6D11CE0022D01D104E01C466369002BFBD103E00C4B9C6904B124690020EF
:404340000CE0A3681D4208D1E3681A6800925B68019323682946684698472469002CF0D103B030BD449508105C4B0208FF00420070B50546012804D94FF4E0711D48FFF76F
:4043800021FF1D4B5B682BB101210020FFF78CFF044600E000242CBBFFF77FFF0646164B5B681BB104210020FFF77EFF134A136923F004031361012D01D030BF07E020BF5B
:4043C0000D4B1B7803B120BF01220B4B1A703046FFF767FF084B5B684BB108210020FFF763FF04E002210020FFF75EFF044C204670BD00BF449508105C4B020800ED00E02C
:40440000FF004200014B1860704700BFD876020800F1080343604FF0FF328260C360036100230360704700BF00230361704700BF43684B609A688A609A68516099600861E1
:40444000036801330360704730B40D68B5F1FF3F01D1026907E000F1080200E01A4653681C68A542FAD253684B6099608A605160086103680133036030BC704703694268D7
:40448000816891608268416851605A68904201D182685A60002202611A68013A1A601868704700BF10B5044601F06CFBA26BE36B9A4201D1012400E0002401F085FB2046B2
:4044C00010BD00BF10B5044601F05CFBA36B0BB9012400E0002401F077FB204610BD00BF70B504461646856B026CFAB166B9806802F0A8F8A268236C1344A360626893428A
:4045000014D32368A36011E0C06802F09BF8236C5B42E2681A44E26021688A4202D262681344E360022E01D105B1013D0135A563002070BD026C72B110B50346C468144421
:40454000C4604068844201D31868D8600846D96802F078F810BD704738B5054601F012FB95F8454064B20AE06B6A53B105F1240001F024F808B101F0AFF8013C64B2002C90
:40458000F2DCFF2385F8453001F01EFB01F0FAFA95F8444064B20AE02B6953B105F1100001F00CF808B101F097F8013C64B2002CF2DCFF2385F8443001F006FB38BD00BF47
:4045C00038B540B94FF0BF0383F31188BFF36F8FBFF34F8FFEE704460D4601F0D3FA2168E26B236C03FB021060600020A063A160013A02FB0313E360FF2384F8443084F8CD
:4046000045307DB92369ABB104F1100000F0D6FF80B14FF08052094B1A60BFF34F8FBFF36F8F07E004F11000FFF7F2FE04F12400FFF7EEFE01F0C8FA012038BD04ED00E066
:4046400010B5029B0C4609B91B6000E01A60D8631C6401211846FFF7B3FF10BD40B94FF0BF0383F31188BFF36F8FBFF34F8FFEE7F0B583B0034611B101FB00F000E0002042
:404680001D4617460C46483001F0ACFB064638B100903B4600F1480221462846FFF7D0FF304603B0F0BD00BFF0B585B0019240B94FF0BF0383F31188BFF36F8FBFF34F8F72
:4046C000FEE7044619B9026C1AB9012202E0012200E0002242B94FF0BF0383F31188BFF36F8FBFF34F8FFEE7022B03D1E26B012A02D102E0012200E0002242B94FF0BF03CF
:4047000083F31188BFF36F8FBFF34F8FFEE71D460E4600F0E9FF18B9019B1BB9012302E0012300E0002343B94FF0BF0383F31188BFF36F8FBFF34F8FFEE7002701F022FAE3
:40474000A26BE36B9A4201D3022D21D12A4631462046FFF7C5FE636A6BB104F1240000F02DFF88B14FF08052324B1A60BFF34F8FBFF36F8F08E038B14FF080522D4B1A6094
:40478000BFF34F8FBFF36F8F01F01EFA01204EE0019B1BB901F018FA002048E01FB902A800F050FF012701F00FFA00F0E1FC01F0E9F994F844305BB2B3F1FF3F02D100233E
:4047C00084F8443094F845305BB2B3F1FF3F02D1002384F8453001F0F7F901A902A800F03BFFF0B92046FFF75DFEA0B1019904F1100000F0ABFE2046FFF7AEFE00F046FD6F
:4048000000289BD14FF080520A4B1A60BFF34F8FBFF36F8F92E72046FFF79EFE00F036FD8CE72046FFF798FE00F030FD002005B0F0BD00BF04ED00E02DE9F84340B94FF013
:40484000BF0383F31188BFF36F8FBFF34F8FFEE7044619B9006C18B9012002E0012000E0002040B94FF0BF0383F31188BFF36F8FBFF34F8FFEE7022B03D1E06B012802D14F
:4048800002E0012000E0002040B94FF0BF0383F31188BFF36F8FBFF34F8FFEE71F469046894601F073FAEFF311864FF0BF0383F31188BFF36F8FBFF34F8FA26BE36B9A425F
:4048C00001D3022F1ED194F845506DB23A4649462046FFF705FEB5F1FF3F0DD1636A9BB104F1240000F06AFE80B1B8F1000F0FD00120C8F800000CE06B1C5BB284F84530B0
:40490000012006E0002004E0012002E0012000E0012086F31188BDE8F88300BF40B94FF0BF0383F31188BFF36F8FBFF34F8FFEE770B50446036C43B14FF0BF0383F3118846
:40494000BFF36F8FBFF34F8FFEE703681BB943681BB9012302E0012300E0002343B94FF0BF0383F31188BFF36F8FBFF34F8FFEE70E4601F00BFAEFF311854FF0BF0383F3BD
:404980001188BFF36F8FBFF34F8FA26BE36B9A4218D294F845305BB20132A263B3F1FF3F0AD1636A83B104F1240000F007FE68B176B1012030600CE001335BB284F84530DC
:4049C000012006E0002004E0012002E0012000E0012085F3118870BDF0B585B0019240B94FF0BF0383F31188BFF36F8FBFF34F8FFEE7044619B9036C1BB9012302E0012325
:404A000000E0002343B94FF0BF0383F31188BFF36F8FBFF34F8FFEE70E4600F065FE18B9019B1BB9012302E0012300E0002343B94FF0BF0383F31188BFF36F8FBFF34F8FE1
:404A4000FEE7002701F09EF8A56BC5B131462046FFF770FD013DA563236963B104F1100000F0ACFD38B14FF08052304B1A60BFF34F8FBFF36F8F01F0A7F8012053E0019BAA
:404A80001BB901F0A1F800204DE01FB902A800F0D9FD012701F098F800F06AFB01F072F894F844305BB2B3F1FF3F02D1002384F8443094F845305BB2B3F1FF3F02D10023EF
:404AC00084F8453001F080F801A902A800F0C4FDF0B92046FFF7F6FCA0B1019904F1240000F034FD2046FFF737FD00F0CFFB0028A8D14FF080520D4B1A60BFF34F8FBFF32B
:404B00006F8F9FE72046FFF727FD00F0BFFB99E72046FFF721FD00F0B9FB2046FFF7D2FC00288FD0002005B0F0BD00BF04ED00E030B585B0019140B94FF0BF0383F31188B1
:404B4000BFF36F8FBFF34F8FFEE70446036C43B14FF0BF0383F31188BFF36F8FBFF34F8FFEE700F0C1FD18B9019B1BB9012302E0012300E0002343B94FF0BF0383F3118806
:404B8000BFF36F8FBFF34F8FFEE7002500F0FAFFA36BA3B1013BA363236963B104F1100000F00CFD38B14FF08052304B1A60BFF34F8FBFF36F8F01F007F8012053E0019B71
:404BC0001BB901F001F800204DE01DB902A800F039FD012500F0F8FF00F0CAFA00F0D2FF94F844305BB2B3F1FF3F02D1002384F8443094F845305BB2B3F1FF3F02D10023C7
:404C000084F8453000F0E0FF01A902A800F024FDF0B92046FFF756FCA0B1019904F1240000F094FC2046FFF797FC00F02FFB0028ACD14FF080520D4B1A60BFF34F8FBFF3A1
:404C40006F8FA3E72046FFF787FC00F01FFB9DE72046FFF781FC00F019FB2046FFF732FC002893D0002005B030BD00BF04ED00E000230BE0074A52F8332032B9054A42F88B
:404C8000331002EBC303586070470133092BF1D9704700BFDC76020870B504460D46164600F070FF94F844305BB2B3F1FF3F02D1002384F8443094F845305BB2B3F1FF3F49
:404CC00002D1002384F8453000F07EFFA36B2BB93246294604F1240000F052FC2046FFF73BFC70BD024640B94FF0BF0383F31188BFF36F8FBFF34F8FFEE741690A4B994220
:404D000001D1012300E0002343B1926A07498A4206D002B100232BB900207047002070470020704701207047984B0208AC4B0208094B9B6A1B680BB9012300E0002323B1F8
:404D40004FF0FF32044BDA627047034B9A6AD268D2685268DA627047984B020810B50446006B01F071F8204601F06EF810BD00BF2DE9F0478246894615469846089F099E99
:404D80000A9C9200A521206B01F067FC236B05F18042013A03EB820525F00705002308E019F80310E21882F8341019F8032012B101330F2BF4D9002384F84330132F00D9B9
:404DC0001327E762201DFFF72FFB04F11800FFF72BFB2461C7F11403A3616462002306E003F1100204EB8202002151600133042BF6D90023A36584F85C3042465146284646
:404E000000F094FE206006B13460BDE8F08700BF70B5002407E004EB8402930010481844FFF7F6FA0134132CF5D90E4C04F5E0763046FFF7EDFA04F5EA752846FFF7E8FA9C
:404E400004F11400FFF7E4FA04F5F470FFF7E0FA2046FFF7DDFAA662C4F8FC5170BD00BFC84B0208984B020838B5044600F08AFE264BD3F800220132C3F80022D3F80432D0
:404E80004BB9224BC3F80442D3F80032012B10D1FFF7BEFF0DE01D4BD3F808324BB91B4BD3F80432DA6AE36A9A4202D8174BC3F80442164AD2F80C320133C2F80C32E36A73
:404EC000D2F81022934202D9104AC2F810320F4D05F1300003EB83039A00211D1044FFF7A7FA00F071FED5F808326BB1D5F80432DA6AE36A9A4207D24FF08052044B1A6052
:404F0000BFF34F8FBFF36F8F38BD00BF984B020804ED00E038B517E000F034FE0D4CD4F8F431DD68281DFFF7A9FAD4F80032013BC4F80032D4F81432013BC4F8143200F0E4
:404F400043FE2846FFF70AFF024BD3F81432002BE2D138BD984B020870B504460E46174BD3F81852D3F804020430FFF787FAB4F1FF3F07D136B11148D0F804120431FFF78B
:404F800057FA70BD2C440D4BD3F804325C60A54208D90A4BD3F8FC01D3F804120431FFF753FA70BD054DA86AD5F804120431FFF74BFAEB6A9C4200D2EC6270BD984B02085F
:404FC00008B5FFF7A7FF074B1B6B012B07D94FF08052054B1A60BFF34F8FBFF36F8FFBF71BFBEEE7984B020804ED00E02DE9F04385B006460F4615469846900000F0F2FEF6
:4050000060B18146602000F0EDFE044610B1C0F8309004E0484600F017FF00E000248CB10023039302940D9B01930C9B009343462A4639463046FFF79BFE2046FFF714FF50
:40504000012001E04FF0FF3005B0BDE8F08300BFF8B540B94FF0BF0383F31188BFF36F8FBFF34F8FFEE7044600F090FEEFF311874FF0BF0383F31188BFF36F8FBFF34F8FC7
:405080002046FFF72FFE50B3174BD3F81C32FBB9E26A154BD3F80432DB6A9A4201D2002500E00125261D3046FFF7E8F9E36A0E4AD2F81022934202D90B4AC2F8103203EB49
:4050C00083039A00314609481044FFF7B1F907E004F118010648FFF7ABF9002500E0002587F311882846F8BD984B0208C84B0208AC4B020800B583B0194B019300230093F6
:40510000802218491848FFF771FF012801D100F051FB012814D14FF0BF0383F31188BFF36F8FBFF34F8F114B4FF0FF32DA620122C3F808220022C3F8182200F0C5FD0BE04D
:40514000B0F1FF3F08D14FF0BF0383F31188BFF36F8FBFF34F8FFEE703B05DF804FB00BFB84D0208F4960810C14F0810984B0208034AD2F81C320133C2F81C32704700BF9F
:40518000984B0208014BD3F818027047984B02082DE9F0413C4BD3F81C32002B65D13A4BD3F818420134C3F81842CCB99B6A1B6843B14FF0BF0383F31188BFF36F8FBFF37E
:4051C0004F8FFEE7304B9A6AD3F8FC119962C3F8FC21D3F824220132C3F82422FFF7A8FD294BDB6A9C4203D2002645E0012600E00026254B9B6A1B680BB9012300E000231B
:4052000023B14FF0FF32204BDA6235E01E4B9B6ADB68DD686B689C4202D21B4AD3622BE005F104084046FFF729F9AB6A1BB105F11800FFF723F9EB6A134AD2F8102293422A
:4052400002D9114AC2F810320F4F07F1300003EB83039A0041461044FFF7EAF8EA6AD7F80432DB6A9A42C1D2C3E7074AD2F828320133C2F828320026034BD3F82C3203B1F0
:4052800001263046BDE8F081984B0208394BD3F81C3243B94FF0BF0383F31188BFF36F8FBFF34F8FFEE770B500F06CFC314BD3F81C22013AC3F81C22D3F81C32002B52D1E3
:4052C0002C4BD3F800323BBB00244FE0294D2B6ADC6804F11800FFF7D1F8261D3046FFF7CDF8E36AD5F81022934201D9C5F81032204D05F1300003EB83039A0031461044FC
:40530000FFF796F8E26AD5F80432DB6A9A4204D30122C5F82C2200E00024164B5B69002BD4D10CB1FFF704FD124BD3F8284264B1FFF72EFF18B101220E4BC3F82C22013C72
:40534000F6D100220B4BC3F828220A4BD3F82C325BB14FF08052084B1A60BFF34F8FBFF36F8F012402E0002400E0002400F02CFC204670BD984B020804ED00E010B5B0B183
:405380000446104BD3F81C3243B14FF0BF0383F31188BFF36F8FBFF34F8FFEE7FFF7E8FE00212046FFF7D8FDFFF770FF00E0002038B94FF08052044B1A60BFF34F8FBFF366
:4053C0006F8F10BD984B020804ED00E0304BD3F81C3223B101222E4BC3F82C22704710B52B4B0022C3F82C22D3F804321B6B1A68B2F1A53F0BD15A68B2F1A53F07D19A686B
:40540000B2F1A53F03D1DB68B3F1A53F07D0204BD3F80402D3F804123431FBF703F91C4BD3F810320AE043B94FF0BF0383F31188BFF36F8FBFF34F8FFEE7013B03EB8301C2
:405440008A0013490A44126B002AECD008469900CC18A2000244546B64685463303019448A0008320244944206D1606803EB83018A0007490A445063054903EB83008200D6
:405480000A44526BD268C1F80422C1F8103210BD984B020838B5044600F074FB14B9294BD3F80442251D2846FEF7E8FFA36A1BB104F11800FEF7E2FF29462248FEF7B8FF5E
:4054C00094F85C30DBB2012B02D1002384F85C3000F07AFB1B4BD3F808322BB100F052FBFFF726FC00F070FB164BD3F804329C4226D1144BD3F80832ABB1124BD3F81C3214
:4055000043B14FF0BF0383F31188BFF36F8FBFF34F8FFEE74FF080520B4B1A60BFF34F8FBFF36F8F38BD074B1A68D3F800329A4204D10022034BC3F8042238BDFFF746FF29
:4055400038BD00BF984B020804ED00E040B94FF0BF0383F31188BFF36F8FBFF34F8FFEE710B50C46054BD3F804121831FEF76CFF01212046FFF7F0FC10BD00BF984B0208B7
:4055800038B540B94FF0BF0383F31188BFF36F8FBFF34F8FFEE70C461546074AD2F804121831FEF745FF0DB14FF0FF3429462046FFF7D2FC38BD00BF984B020838B5C368EE
:4055C000DC6844B94FF0BF0383F31188BFF36F8FBFF34F8FFEE704F118052846FEF74EFF154BD3F81C32ABB9251D2846FEF746FFE36A114AD2F81022934202D90E4AC2F846
:40560000103203EB83039A0029460C481044FEF70FFF03E029460A48FEF70AFFE26A064BD3F80432DB6A9A4204D90120024BC3F82C0238BD002038BD984B0208C84B020857
:40564000AC4B0208034BD3F824220260D3F8183243607047984B0208F8B540B94FF0BF0383F31188BFF36F8FBFF34F8FFEE7054641B94FF0BF0383F31188BFF36F8FBFF37A
:405680004F8FFEE70C4600F07DFA124BD3F818026968421A2368B3F1FF3F14D02F680D4ED6F82462B74201D088420ED29A4206D29B1A23602846FFF7C5FF002406E00023B3
:4056C0002360012402E0002400E0012400F07CFA2046F8BD984B02080122024BC3F82C22704700BF984B0208064BD3F808322BB1044BD3F81C321BB902207047012070478E
:4057000000207047984B0208064B1A681368B3FA83F35B09036013B9D368186870470020704700BFC84D020808B54160006191420AD8D21A83699A4211D2011D0A4B58683C
:40574000FEF782FE002008BD9A4201D2994208D2011D054B1868FEF777FE002008BD012008BD012008BD00BFC84D020870B500F009FA0E4B9B68B3B90C4C04F10C063046CF
:40578000FEF746FE04F120052846FEF741FE2660656000220C210A20FEF760FFA06010B10349FFF765FA00F00FFA70BDC84D0208FC96081000B583B0FFF7D8FF0D4B9B687B
:4057C00053B10D4B019303230093002380220B490B48FFF70BFC00E0002040B94FF0BF0383F31188BFF36F8FBFF34F8FFEE703B05DF804FBC84D0208FC4D0208049708103D
:40580000995A081040B94FF0BF0383F31188BFF36F8FBFF34F8FFEE730B585B015460446124A9068F0B11A46019102950394052913DCFFF759FF022807D10023089A01A97F
:405840000A488068FEF730FF0DE000231A4601A906488068FEF728FF05E0002301A9FEF7EBFF00E0002005B030BD00BFC84D020870B582B029E0DB681E68DC68251D284630
:40588000FEF7FCFD636A20469847E369012B1CD1A36933449E4207D2636024612946104B1868FEF7D1FD10E0002100910B4632462046FFF7A7FF40B94FF0BF0383F311887C
:4058C000BFF36F8FBFF34F8FFEE7054B1B681A68002AD0D1024A51681160536002B070BDC84D020838B50546FFF74CFC0446074B9B6B984204D2FFF7BBFF01232B6001E034
:4059000000232B60014B9C63204638BDC84D020870B582B005460E46134B1B68DB68DC68201DFEF7ABFDE369012B18D1A1692B46324629442046FFF7F7FE80B100210091C7
:405940000B462A462046FFF75DFF40B94FF0BF0383F31188BFF36F8FBFF34F8FFEE7636A2046984702B070BDC84D020870B582B006460C46FFF7FCFB01A8FFF7B3FF019BA1
:405980001BBB054644B9B04206D3FFF77FFC29463046FFF7BDFF1AE02CB10E4B5B681C68B4FA84F464092246711B0A4B9868FFF773F9FFF76BFC50B94FF08052064B1A60FF
:4059C000BFF34F8FBFF36F8F01E0FFF75FFC02B070BD00BFC84D020804ED00E030B587B04DE0039B002B4ADB059C636913B1201DFEF744FD02A8FFF775FF039B092B3ED8D0
:405A0000DFE803F00505053D273A05053D270499A5690B46024629442046FFF785FE70B3636A20469847E369012B28D1A269002100910B46049802442046FFF7E3FEF0B985
:405A40004FF0BF0383F31188BFF36F8FBFF34F8FFEE70499A16141B94FF0BF0383F31188BFF36F8FBFF34F8FFEE70346024601442046FFF759FE02E0204600F0E5F9002262
:405A800003A9044B9868FEF7A7FF0028A9D107B030BD00BFC84D020800B583B001A8FFF733FE0199FFF762FFFFF798FFF6E700BF82B0002301930D4B1B68B3F1FF3F08D0DC
:405AC0004FF0BF0383F31188BFF36F8FBFF34F8FFEE74FF0BF0383F31188BFF36F8FBFF34F8F019B002BFCD002B07047AC42020808480068006880F308884FF0000080F358
:405B0000148862B661B6BFF34F8FBFF36F8F00DF00BF000008ED00E0DFF80C00016841F4700101607047000088ED00E04FF0807340F8043C21F0010140F8081C054B40F8E7
:405B40000C3C40F8202C6FF0020340F8243C4438704700BFB15A08100000000000000000074B19680868B0E8F04F80F30988BFF36F8F4FF0000080F311887047AFF3008056
:405B80009C4D02084FF0BF0383F31188BFF36F8FBFF34F8F0A4A136801331360012B0DD1084B1B6813F0FF0F08D04FF0BF0383F31188BFF36F8FBFF34F8FFEE7704700BFB8
:405BC000AC42020804ED00E0094B1B6843B94FF0BF0383F31188BFF36F8FBFF34F8FFEE7013B034A13600BB983F31188704700BFAC42020800000000000000000000000097
:405C0000EFF30980BFF36F8F154B1A681EF0100F08BF20ED108A20E9F04F10602DE909004FF0BF0080F31188BFF34F8FBFF36F8FFFF7CCFB4FF0000080F3118809BC19685D
:405C40000868B0E8F04F1EF0100F08BFB0EC108A80F30988BFF36F8F704700BFAFF300809C4D020808B54FF0BF0383F31188BFF36F8FBFF34F8FFFF78BFA18B14FF0805212
:405C8000024B1A60002383F3118808BD04ED00E0084A0023136008490B60084B1B680849A1FB03139B09013B06490B6007231360704700BF10E000E018E000E09C4202089B
:405CC000D34D621014E000E010B582B02A4B1A78D2B20192FF221A701B78DBB28DF803309DF80330254A03F0BF0313700723536009E0224A5368013B53609DF803305B0038
:405D0000DBB28DF803309DF8033013F0800FF0D11A4B5B68042B08D04FF0BF0383F31188BFF36F8FBFF34F8FFEE71B0203F4E063124A5360019BDBB20F4A1370104B1A6857
:405D400042F47F021A601A6842F07F421A60FFF79FFF00240B4B1C60FFF7DEFE0A4A136843F040431360FFF7C3FEFFF72FFBFFF79FFE204602B010BD00E400E0044E020840
:405D800020ED00E0AC42020834EF00E0EFF305830F2B0FD9104A9B5CDBB2104A1278934208D24FF0BF0383F31188BFF36F8FBFF34F8FFEE70A4B1B6803F4E063074A5268AC
:405DC000934208D94FF0BF0383F31188BFF36F8FBFF34F8FFEE77047F0E300E0044E02080CED00E038B5044610F0070F02D020F007040834FFF7BCF9114B1B682BB9104ADB
:405E000002F10C0323F0070313600E4BD3F814361C4442F2F772944208D8A34208D2084A15681D44074BC3F8144602E0002500E00025FFF72BFA0DB9FAF702FC284638BD1A
:405E40000C4E0208FC6F020840B14FF0BF0383F31188BFF36F8FBFF34F8FFEE7704700BF70B539B900240AE015F8010BFCF716F9013402E016460D460024B442F4DB204658
:405E800070BD00BF70B561B900240FE0FCF712F9C0B2287001340A2808D00D2806D0013502E016460D460024B442EFDB204670BD81F0004102E000BF83F0004330B54FEAED
:405EC00041044FEA430594EA050F08BF90EA020F1FBF54EA000C55EA020C7FEA645C7FEA655C00F0E2804FEA5454D4EB5555B8BF6D420CDD2C4480EA020281EA030382EACA
:405F0000000083EA010180EA020281EA0303362D88BF30BD11F0004F4FEA01314FF4801C4CEA113102D0404261EB410113F0004F4FEA03334CEA133302D0524263EB430351
:405F400094EA050F00F0A780A4F10104D5F1200E0DDB02FA0EFC22FA05F2801841F1000103FA0EF2801843FA05F359410EE0A5F120050EF1200E012A03FA0EFC28BF4CF08F
:405F8000020C43FA05F3C01851EBE37101F0004507D54FF0000EDCF1000C7EEB00006EEB0101B1F5801F1BD3B1F5001F0CD349085FEA30004FEA3C0C04F101044FEA44524F
:405FC00012F5800F80F09A80BCF1004F08BF5FEA500C50F1000041EB045141EA050130BD5FEA4C0C404141EB010111F4801FA4F10104E9D191F0000F04BF01460020B1FA8C
:4060000081F308BF2033A3F10B03B3F120020CDA0C3208DD02F1140CC2F10C0201FA0CF021FA02F10CE002F11402D8BFC2F1200C01FA02F120FA0CFCDCBF41EA0C0190406A
:40604000E41AA2BF01EB0451294330BD6FEA04041F3C1CDA0C340EDC04F11404C4F1200220FA04F001FA02F340EA030021FA04F345EA030130BDC4F10C04C4F1200220FA54
:4060800002F001FA04F340EA0300294630BD21FA04F0294630BD94F0000F83F4801306BF81F480110134013D4EE77FEA645C18BF7FEA655C29D094EA050F08BF90EA020FF1
:4060C00005D054EA000C04BF1946104630BD91EA030F1EBF0021002030BD5FEA545C05D14000494128BF41F0004130BD14F580043CBF01F5801130BD01F0004545F0FE41FF
:4061000041F470014FF0000030BD7FEA645C1ABF194610467FEA655C1CBF0B46024650EA013406BF52EA033591EA030F41F4002130BD00BF90F0000F04BF0021704730B5F2
:406140004FF4806404F132044FF000054FF0000150E700BF90F0000F04BF0021704730B54FF4806404F1320410F0004548BF40424FF000013EE700BF42004FEAE2014FEA69
:4061800031014FEA02701FBF12F07F4393F07F4F81F06051704792F0000F14BF93F07F4F704730B54FF4607401F0004521F0004120E700BF50EA010208BF704730B54FF0A1
:4061C00000050AE050EA010208BF704730B511F0004502D5404261EB41014FF4806404F132045FEA915C3FF4DCAE4FF003025FEADC0C18BF03325FEADC0C18BF033202EBF3
:40620000DC02C2F1200300FA03FC20FA02F001FA03FE40EA0E0021FA02F11444C1E600BF70B54FF0FF0C4CF4E06C1CEA11541DBF1CEA135594EA0C0F95EA0C0F00F0DEF8FC
:406240002C4481EA030621EA4C5123EA4C5350EA013518BF52EA033541F4801143F4801338D0A0FB02CE4FF00005E1FB02E506F00042E0FB03E54FF00006E1FB03569CF020
:40628000000F18BF4EF0010EA4F1FF04B6F5007F64F5407404D25FEA4E0E6D4146EB060642EAC62141EA55514FEAC52040EA5E504FEACE2EB4F1FD0C88BFBCF5E06F1ED87C
:4062C000BEF1004F08BF5FEA500E50F1000041EB045170BD06F0004646EA010140EA020081EA0301B4EB5C04C2BFD4EB0C0541EA045170BD41F480114FF0000E013C00F3FA
:40630000AB8014F1360FDEBF002001F0004170BDC4F10004203C35DA0C341BDC04F11404C4F1200500FA05F320FA04F001FA05F240EA020001F0004221F0004110EBD370A9
:4063400021FA04F642EB06015EEA430E08BF20EAD37070BDC4F10C04C4F1200500FA04F320FA05F001FA04F240EA020001F0004110EBD37041F100015EEA430E08BF20EA31
:40638000D37070BDC4F1200500FA05F24EEA020E20FA04F301FA05F243EA020321FA04F001F0004121FA04F220EA020000EBD3705EEA430E08BF20EAD37070BD94F0000F2C
:4063C0000FD101F00046400041EB010111F4801F08BF013CF7D041EA060195F0000F18BF704703F00046520043EB030313F4801F08BF013DF7D043EA0603704794EA0C0F9E
:406400000CEA135518BF95EA0C0F0CD050EA410618BF52EA4306D1D181EA030101F000414FF0000070BD50EA410606BF1046194652EA430619D094EA0C0F02D150EA0136DF
:4064400013D195EA0C0F05D152EA03361CBF104619460AD181EA030101F0004141F0FE4141F470014FF0000070BD41F0FE4141F4780170BD70B54FF0FF0C4CF4E06C1CEA79
:4064800011541DBF1CEA135594EA0C0F95EA0C0F00F0A7F8A4EB050481EA030E52EA03354FEA013100F088804FEA03334FF0805545EA131343EA12634FEA022245EA111554
:4064C00045EA10654FEA00260EF000419D4208BF964244F1FD0404F5407402D25B084FEA3202B61A65EB03055B084FEA32024FF480104FF4002CB6EB020E75EB030E22BF18
:40650000B61A754640EA0C005B084FEA3202B6EB020E75EB030E22BFB61A754640EA5C005B084FEA3202B6EB020E75EB030E22BFB61A754640EA9C005B084FEA3202B6EB21
:40654000020E75EB030E22BFB61A754640EADC0055EA060E18D04FEA051545EA16754FEA06164FEAC30343EA52734FEAC2025FEA1C1CC0D111F4801F0BD141EA00014FF0A0
:4065800000004FF0004CB6E711F4801F04BF01430020B4F1FD0C88BFBCF5E06F3FF6AFAEB5EB030C04BFB6EB020C5FEA500C50F1000041EB045170BD0EF0004E4EEA1131E6
:4065C00014EB5C04C2BFD4EB0C0541EA045170BD41F480114FF0000E013C90E645EA060E8DE60CEA135594EA0C0F08BF95EA0C0F3FF43BAF94EA0C0F0AD150EA01347FF4F7
:4066000034AF95EA0C0F7FF425AF104619462CE795EA0C0F06D152EA03353FF4FDAE1046194622E750EA410618BF52EA43067FF4C5AE50EA41047FF40DAF52EA43057FF4E5
:40664000EBAE12E710B5431E0A44914204D011F8014B03F8014FF8E710BD02440346934202D003F8011BFAE770472DE9F04788B0002B149F1299109EDDF84CA01D4627F045
:406680002007BBBF03F100431D4600232D231446B8BF1446462F0B7003D0452F03D1013601E0032300E0022307AA049206AA03928DE8480422462B4600F032FE472F804631
:4066C00002D1119BDB0728D5462F08EB060911D198F80030302B0AD1002200232046294602F0E0FB18B9C6F10106CAF80060DAF800309944002200232046294602F0D2FB9D
:4067000008B9302202E0CDF81C9006E0079B994503D9591C07911A70F8E7079B159AC8EB03034046136008B0BDE8F08773B503460029B8BF494203F8022BB4BF2D222B2291
:406740000929427019DD0DF1070216460A2591FBF5F405FB14113031092C02F8011D2146F5DC3031541E02F8011CB4421A460AD214F8012B03F8012BF7E730241A462144BB
:4067800002F8024B5970101A02B070BD2DE9F04F91B00C46DDF8688016461F46054601F0D7FC03680893184600F04AFC00230E93D8F800300990073323F0070303F10802FF
:4067C00094F818A0D4F800B0C8F80020D3E90023C4E91223D4E9128929F000430B93CDF828804FF0FF32A74BDDE90A0102F08CFBA0B94FF0FF32A34BDDE90A0102F066FBF2
:4068000060B9002200234046494602F055FB10B12D2384F843309C4B9C4A0AE042464B464046494602F070FB002800F09281984B984ABAF1470F8CBF9046984603232361C7
:406840002BF0040323604FF000093DE0BAF1670F00F08A81BAF1470F00F08681236000210DF133020193636805900292009342464B460691CDF810A0CDF80CE02846FFF7CE
:40688000F4FE0AF0DF03472B804600F08481BAF1650F0D9900F28D810139524604F150000D91FFF743FF0E9A8318012A8146236100F37C812268D10700F178819DF833303E
:4068C00013B12D2384F84330009733460FAA2146284600F09FF9013002D14FF0FF3096E123685A0501D4236965E0BAF1650F40F2D58000220023D4E9120102F0D3FA78B351
:406900000123654A31462846B8470130E5D00E9B0D9A9A420BDB2368D80708D423689B0740F111814FF0000804F1190906E1099B089A31462846B8470130CED04FF00008ED
:4069400004F11A090E9B013B9845E7DA01234A4631462846B8470130BFD008F10108F1E70D9B002B29DC01234B4A31462846B8470130B2D00D9B23B90E9B13B92368D907BE
:40698000CCD5099B089A31462846B8470130A4D04FF0000904F11A0A0D9B5B42994509DA0123524631462846B847013095D009F10109F1E70E9B4246A7E00E9AA36D9A42A2
:4069C000A8BF1A46002A914606DC4FF0000A29EAE97904F11A0B11E01346314642462846B8470130F1D178E701235A4631462846B84701303FF471AF0AF1010AA36DC9EB17
:406A000003029245F0DB08EB03090D9A0E9B9A420FDB2368DA070CD40E9B0D9A9844C9EB08089B1A9845A8BF9846B8F1000F08DC0FE0099B089A31462846B8470130EBD1E5
:406A40004BE743464A4631462846B84701303FF444AF4FF0000928EAE87804F11A0A09E00123524631462846B84701303FF435AF09F101090D9A0E9B9B1AC8EB030399454C
:406A8000EEDB4BE7FFFFEF7F14970810189708101C97081020970810249708100E9A012A01DCDB0738D50123424631462846B84701303FF412AF099B089A31462846B847FA
:406AC00001303FF40AAF00220023D4E9120102F0E9F920B14FF0000804F11A0A0EE00E9B08F10102013B19E00123524631462846B84701303FF4F1AE08F101080E9B013B0D
:406B00009845F1DB4B4604F1500231462846B84701307FF403AFE0E60123424631462846B8470130EED1D8E601234A4631462846B84701303FF4D1AE08F10108E3680F9A25
:406B40009B1A9845F0DBE0680F9B9842B8BF18465DE06268531C0EA84BF480630DF1340E7FF474AE062201E012B90122626075E6002106910DF133018DE80C00236005905D
:406B80004246CDF810A0CDF80CE002914B462846FFF76BFD80460D9BD81C02DB626893421DDDAAF1020A5FFA8AFA70E60133236184E6BAF1660F14D10029636807DD216104
:406BC00013B92268D2071DD501330B4419E013B92268D00701D5023313E0012311E04FF0670A0D9B0E9A934205DB22682361D10708D5013305E0002BD4BFC3F1020301238C
:406C0000134423610D9BA3654FF0000956E611B0BDE8F08F2DE9F04791461F460A698B68DDF820809342B8BF1346C9F8003091F8432006460C4612B10133C9F80030236869
:406C4000990642BFD9F800300233C9F80030256815F0060510D104F1190A07E00123524639463046C04701301AD00135E368D9F800209B1A9D42F1DB94F84330226800336F
:406C800018BF012392060FD5E1185A1C302081F84300224494F8451082F84310023303E04FF0FF30BDE8F08704F1430239463046C0470130F4D02268D9F80050E36802F019
:406CC0000602042A08BF5D1B2269A3680CBF25EAE57500259342C4BF9B1AED184FF000091A344D4509D00123224639463046C0470130D5D009F10109F3E70020BDE8F087A5
:406D00002DE9F04317460A7E85B06E2A984606460C460C9B01F1430E00F0AE8011D8632A22D009D8002A00F0BB80582A40F0CA8081F84520834955E0642A1ED0692A1CD060
:406D4000C0E0732A00F0B08009D86F2A2ED0702A40F0B8800A6842F020020A603EE0752A24D0782A3AD0ADE01A6801F14205111D1960136884F84230A8E021681A6811F0C3
:406D8000800F02D0111D196008E011F0400F02F10401196002D0B2F9003000E01368002B3CDA2D225B4284F8432037E021681A6811F0800F02D0111D196007E011F0400FAC
:406DC00002F10401196001D0138800E01368227E5C496F2A14BF0A2208221BE078225A4984F845202268186812F0800F00F104051D6003D1550601D5038800E00368D00777
:406E000044BF42F0200222601BB9226822F0200222601022002084F8430001E049490A226568A560002D08DB206820F0040020602BB9002D7DD175460CE0002B79D0754682
:406E4000B3FBF2F002FB1033CB5C05F8013D03460028F5D1082A0BD12368DA0708D5236962689A42DEBF302305F8013C05F1FF35C5EB0E0323612EE008681A68496910F0D5
:406E8000800F03D0101D1860136808E010F0400F02F104001860136801D0198000E0196000232361754616E01A68111D1960156862680021284601F0BBF908B1401B60609C
:406EC000636804E004F1420584F8422001232361002384F84330CDF800803B4603AA21463046FFF797FE013002D14FF0FF3026E023692A4639463046C0470130F5D0236843
:406F00009B0710D5002504F1190907E001234A4639463046C0470130E7D00135E368039A9B1A9D42F2DBE068039B9842B8BF184605E00B7884F8423004F142058AE705B043
:406F4000BDE8F08326970810379708100FB40A4B13B51C6824B1A36913B9204601F06EF805AB049AA1680193204601F06BFD02B0BDE8104004B070471043020870B50E46DE
:406F8000054618B183690BB901F058F8AB69AC6813B9284601F052F8224B9C4201D16C6808E0214B9C4201D1AC6803E01F4B9C4208BFEC68A3891B0701D523693BB92146D5
:406FC000284600F0ADF810B14FF0FF3070BD013EA36816F8011F013BA36091B1002B04DAA269934206DB0A2904D023685A1C22601970EDE72246284600F03EF80130E7D1A3
:40700000E2E7002B08DA22460A21284600F034F80130D9D00A2070BD23680A205A1C2260187070BD589708107897081098970810024B01461868FFF7A1BF00BF10430208CF
:40704000034613F8012B002AFBD1181A0138704710B5034642B111F8014B03F8014B013A002CF7D11A4400E010BD934202D003F8014BFAE710BD0000F8B50F46144606465D
:4070800018B183690BB900F0D9FF224B9C4201D1746808E0204B9C4201D1B46803E01F4B9C4208BFF468A369A360A3891A0709D523693BB123682069181A63699842FDB2DC
:4070C0000FDB08E02146304600F02AF80028F1D04FF0FF30F8BD2146304600F045FF0028F6D1A368013BA36023685A1C22601F706269431C934204D0A389DB0707D50A2D73
:4071000005D12146304600F02FFF0028E0D12846F8BD00BF589708107897081098970810324B70B51D6806460C4625B1AB6913B9284600F083FF2E4B9C4201D16C6808E00E
:407140002C4B9C4201D1AC6803E02B4B9C4208BFEC68B4F90C309AB215071DD4D00602D4092232603AE0510712D5616B41B104F14403994202D0304601F08EFB00236363FE
:40718000A38923F02403A3810023636023692360A38943F00803A38123694BB9A38903F42073B3F5007F03D02146304600F0F8FFA28912F0010305D00023A36063695B4229
:4071C000A36103E0920758BF6369A36023695BB9B4F90C3003F0800080B230B143F04003A3814FF0FF3070BD002070BD104302085897081078970810989708102DE9F74F6A
:4072000003690C699C42804600F38380013C01F114074FEA840E00F1140657F8245006EB0E030193013556F82430B3FBF5F507EB0E09002D39D04FF0000A3846B446D346D1
