:020000041008E2
:4000000000780408EB0208100D0000005103081051030810510308105103081000000000000000000000000000000000014608104D03081000000000A14608100547081050
:400040004D0308104D0308104D0308104D0308104D0308104D0308104D0308104D0308104D0308104D0308104D0308104D0308104D0308104D0308104D0308104D03081000
:400080004D0308104D0308104D0308104D0308104D0308104D0308104D0308104D0308104D0308104D0308104D0308104D0308104D0308104D0308104D0308104D030810C0
:4000C0004D0308104D0308104D0308104D0308104D0308104D0308104D0308104D0308104D0308104D0308104D0308104D0308104D0308104D0308104D0308104D03081080
:400100004D0308104D0308104D0308104D0308104D0308104D0308104D0308104D0308104D0308104D0308104D0308104D0308104D0308104D0308104D0308104D0308103F
:400140004D0308104D0308104D0308104D0308104D0308104D0308104D0308104D0308104D0308104D0308104D0308104D0308104D0308104D0308104D0308104D030810FF
:400180004D0308104D0308104D0308104D0308104D0308104D0308104D0308104D0308104D0308104D0308104D0308104D0308104D0308104D0308104D0308104D030810BF
:4001C0004D0308104D0308104D0308104D0308104D0308104D0308104D0308104D0308104D0308104D0308104D0308104D0308104D0308104D0308104D0308104D0308107F
:400200004D0308104D0308104D0308104D0308104D0308104D0308104D0308104D0308104D0308104D0308104D0308104D0308104D0308104D0308104D0308104D0308103E
:400240004D0308104D0308104D0308104D0308104D0308104D0308104D0308104D0308104D0308104D0308104D0308104D0308104D0308104D0308104D0308104D030810FE
:400280004D0308104D0308104D03081010B5054C237833B9044B13B10448AFF300800123237010BD4C4902080000000004590810084B10B51BB108490848AFF30080084859
:4002C000036803B910BD074B002BFBD0BDE81040184700BF0000000050490208045908101C430208000000007047FFF7FDFF72B6104C114DAC4209DA21686268A368043B35
:40030000A2BFC858D050FAE70C34F3E70B490C4A00209142BCBF41F8040BFAE709480A490860BFF34F8F00F0DFF900F0B9F900F0CBF8FEE708590810205908104C49020899
:40034000DC7502080040020808ED00E0FEE7FEE700B504207146084202D0EFF3098001E0EFF30880043002F00DFFFEE710B5642003F0AEFD104C114BE361114B2362114BA0
:40038000636268236370204600F036FD0C2262710323A3710023E3711121217162730422A273E37315232373204600F06BFD636A3220984710BD00BF684902084504081083
:4003C000E9030810D13E081000B585B000F0D4FDFFF7CCFF034B002201A9012000F074FDF8E700BF684902082DE9F04182B0884616461D46114C124F009700231A4601464C
:40040000204602F05DF83B4600224146204602F0C5F9002406E00A4B0022315D074802F0BDF90134AC42F6DB054A0021034802F029F9002002B0BDE8F08100BF00006440BB
:40044000007502082DE9F04383B08046894616461D461B4C1B4F009700231A460146204602F02EF83B4600224946204602F096F90097002301224146204602F099F80024F3
:4004800008E0104B00930023321919460C4802F02BF901346B1E9C42F3DB1A46084C094D0095002332440121204602F01DF92A460021204602F0E6F8002003B0BDE8F0834B
:4004C000000064400075020800B583B062B604F059FA084804F0F6FA00230193012200924FF4C8720449054803F07CFB03F0ACFBFEE700BF8053081098530810C903081061
:4005000008B5012001F026F908BD00BF704700BF5C4AD2F8803303F00F0303F1D00152F8212002F00702032A04D0042A05D092B9554914E0554A116811E003F1C002514926
:4005400051F8222002F01F02112A06D0132A04D04FF4FA4103E04E4901E04FF400418BBB484BD3F8902502F00100D3F88825C2F30172D3F8883513F0405F07D0414BD3F81A
:400580008835C3F30173012B02D102E0012300E0002303B108B9032A46D13A48D0F88025C2F31103D0F88425C2F30C02D0F88005C0F300600130B1FBF2F202FB03F2B2FBE7
:4005C000F0F131E0012B2FD12E4BD3F8402602F00100D3F80026C2F30172D3F8003613F0405F07D0274BD3F80036C3F30173012B02D102E0012300E0002303B108B9032A66
:4006000012D12048D0F8002602F07F02D0F80036C3F30423D0F80006C0F3044002FB01F2B2FBF3F2B2FBF0F1164BD3F88033C3F3011321FA03F215494A601648D0F89030B7
:40064000C3F3072301330069000E0130B2FBF0F08860B2FBF3F3CB600B6103F5742202F23F220D48A0FB0202C2F387420A7503F2E7330A4AA2FB03239B098B61DB03CB618B
:40068000704700BF0000264000127A008C42020800366E010000214083DE1B43D34D621008B50D4802F0D0FDFFF730FFFFF730FF00221146042000F015FE084800F0A8FE02
:4006C000074B1B6893F8513013B1064800F010FF00F052FD08BD00BF3C570810904902084C750208A453081008B502F0A6FD074AD2F8883043F47003C2F88830BFF34F8F0C
:40070000BFF36F8F02F09DFD08BD00BF00ED00E040B1C2694AB1026A52B1436A5BB94FF0FF3070474FF0FF3070474FF0FF3070474FF0FF3070470020704700BF0222C27164
:40074000082343711021017103218171C2734373142303730023837343688360C3680361704700BF4B790F2B0BD84A7A93420BD0027802F0F00203F00F03134303700020FC
:4007800070476FF00300704700207047CB79022B08D8CA7A934208D0037803F08F030370002070476FF0030070470020704700BF8B790C2B0BD88A7A93420BD0027802F019
:4007C000F00203F00F0313430370002070476FF003007047002070474B7B0D2B0BD84A7C93420BD0027802F0F00203F00F0313430370002070476FF0030070470020704728
:40080000CB7B022B09D8027802F0CF021B0103F0300313430370002070476FF0030070478B7B042B0BD88A7C93420BD0027802F0F80203F0070313430370002070476FF0FC
:40084000030070470020704738B593B11C46DD6995B19B78012B01D140F0800013460A4601466078A8470546636A0120984745B105E04FF0FF3504E04FF0FF3501E06FF053
:400880000105284638BD00BF38B504460D460B46022201464020FFF7D7FF034680B929462046FFF75FFF034650B929462046FFF76DFF034620B92946601CFFF779FF0346A6
:4008C000184638BD38B504460D460B46022201464220FFF7B9FF034680B929462046FFF77BFF034650B929462046FFF789FF034620B92946601CFFF793FF0346184638BDB2
:4009000000B583B002A9002301F8013D034601220220FFF799FF9DF80730C3F34303012B06D0022B07D0032B08D0072B0BD108E06FF0050007E06FF0060004E06FF00700EA
:4009400001E06FF0080003B05DF804FB30B585B005460C460023019302938DF80C301346821D01A91220FFF76FFF48BB02469DF805301B021BB29DF804100B4323809DF8FE
:4009800007301B021BB29DF806100B4363809DF809301B021BB29DF808100B43A380032D0BD19DF80A009DF80B309DF80C10090441EA03230343A36004E00023A36001E0A6
:4009C0006FF00102104605B030BD00BF10B584B00C4613460021009101910291CDF80B1010BB062269460C20FFF72EFF0146002846D19DF801301B021BB29DF80020134351
:400A000023809DF803301B021BB29DF80220134363809DF805301B021BB29DF804201343A3800023A36030E002460C3269460C20FFF70AFF014630BB9DF801301B021BB213
:400A40009DF80020134323809DF803301B021BB29DF80220134363809DF805301B021BB29DF804201343A3809DF80C009DF80D309DF80E20120442EA03230343A36004E075
:400A80006FF0010101E06FF00101084604B010BD70B584B006460D4614460022009201920292CDF80B2000F10C0269460C20FFF7CBFE002843D102469DF801301B021BB2DA
:400AC0009DF800100B4323809DF803301B021BB29DF802100B4363809DF805301B021BB29DF804100B43A3809DF807301B021BB29DF806100B432B809DF809301B021BB2F6
:400B00009DF808100B436B809DF80B301B021BB29DF80A100B43AB80032E0CD19DF80C009DF80D309DF80E10090441EA03230343AB60A36005E00023AB60A36001E06FF0B1
:400B40000102104604B070BD2DE9F843002B31D00546894690461E461C6A74B39B78012B01D100F07F05337A112B02D0337C152B19D143464A4629467078A0470746736A23
:400B80000120984714E0376A012309EB040229467078B84707460135EDB2736A012098470134E4B201E000242746A3B24345EAD347B105E04FF0FF3704E04FF0FF3701E0CA
:400BC0006FF001073846BDE8F88300BF10B582B0044602A8002320F8043D2146FFF754FE0346C8B92346012201A94020FFF7ACFF034688B963796372E379E372636A012040
:400C00009847234601220DF105014120FFF79CFF034608B9A279A272184602B010BD00BF10B582B0044602A8002320F8043D2146FFF748FE0346C8B92346012201A9422012
:400C4000FFF782FF034688B9637B6374E37BE374636A01209847234601220DF105014320FFF772FF034608B9A27BA274184602B010BD00BF30B583B004460D4600238DF8AC
:400C800007300B46012201464020FFF7DDFD034628BB2A79122A14D1237863F07F0323702B46012221464020FFF74EFF0346B0B92B4602220DF107015820FFF745FF034639
:400CC0000DE0227812F0800F09D002F07F0222702B46012221464020FFF736FF0346184603B030BD30B583B000238DF807300279A2F11003DBB2022B1AD8037A9A421AD02A
:400D0000044601460DF10700FFF7B4FF054698B923460122211D7E20FFF716FF0546237A102B02D1636A052098472379237203E06FF0030500E00025284603B030BD00BF51
:400D400038B5027BA2F11403DBB2012B01D9172A1DD1037C9A421DD004460346012200F10C017E20FFF7F0FE0546237C142B03D1636A5120984707E0172B05D1237B152B28
:400D800002D1636A0A209847237B237403E06FF0030500E00025284638BD00BF30B583B0B6238DF80730F0B10446436AF3B1034601220DF107017E20FFF7C6FE0546636A19
:400DC0000F20984755B9A378012B07D1234601220DF107017F20FFF737FD054645B92046FFF7ACFC04E04FF0FF3501E04FF0FF35284603B030BD00BF10B582B00446FFF761
:400E000087FC034648B9A278012A06D123460DF107017F20FFF718FD0346C3B9234601220DF106010020FFF70FFD58B99DF80630D12B0AD12370FF23E3702046FFF7AEFF74
:400E4000034604E06FF0020301E06FF00203184602B010BD60B1426A6AB110B50446FFF741FF034658B92046FFF76AFF034606E04FF0FF3301E04FF0FF331846704718461E
:400E800010BD00BFB0B1426ABAB110B50446FFF79DFE0346A8B92046FFF7C2FE034680B92046FFF7D7FF034658B92046FFF728FD034606E04FF0FF3301E04FF0FF331846E9
:400EC0007047184610BD00BF38B500F0030510F0040F01D1002000E00320B3B11446022D08D0032D0CD0012D12D1A1B11A46FFF72DFD38BD92B11A462146FFF767FD38BD62
:400F00007AB189B1FFF7C4FD38BD4FF0FF3038BD6FF0040038BD4FF0FF3038BD4FF0FF3038BD4FF0FF3038BD4FF0FF3038BD00BF10B504462146034800F04CFC0028F9D0B0
:400F400010BD00BF00006640054BD3F80833C3F30803002BF8D0024BD3F84003704700BF0000664008B50249024801F003FD08BD007502080000644010B5144B1B788BB998
:400F8000134C144A1449204601F0A4F8134A1449204601F0ADF91349134802F09DF801220A4B1A70104BB3F90030002B08DB590903F01F03012202FA03F30C4A42F821307B
:400FC000034A136843F00043136010BD104B02080000644000750208E853081084D71700A0860100650F0810E053081000E100E01F4B98422DD00CD840282ED003D8E8B168
:40100000102828D02FE0802829D0B0F5807F28D029E0184B984228D006D8B0F1204F0DD0154B984212D01EE0144B98420AD00133984209D0023B984215D101E00020704762
:401040000F4870470F4870470F4870474FF4A0007047074870470D4870470D4870470D487047034870470C4870474FF4A400704706005200010000F0090000A0040000F0F1
:40108000010052000200520003005200010050000200500005005200FF00520038B5124B1B6893F83130012B04D840F2C3110F4802F058F80C4B1D682A6AB5F8B030134435
:4010C0002C46D5F8B420D358002B0BDB084B1868FFF78EFF6B6801229A6063689B68002BFBD138BD034838BD4C750208FC530810144B0208020050001A4B186128B1022398
:401100000370FF23437000234380174B1B6893F850202AB300B583B0B3F93830ADF80030002301931149684601F0D6FFBDF90030002B08DB590903F01F03012202FA03F3EE
:401140000B4A42F82130084B1B6893F8513023B102220849012000F077FA03B05DF804FB704700BF144B02084C7502088D43020800E100E04544020808B50248FFF7BCFF4B
:4011800008BD00BF284B020838B50B4B1B68D3F8B4301B58002B0DDA0D4604460B0C1B0423B140F2D521054801F0DCFFA9B26160002038BD024838BD4C7502083C54081069
:4011C00001008A0038B50368002B01DA002300E0094B73B90D460446C2600B0C1B0423B140F2BB21054801F0BDFFA9B2A160002038BD014838BD00BF01008A003C54081011
:4012000038B504460D4619B99921084801F0AAFF074B1B68D3F8B4301B59002B03DAE3682B60002038BD034838BD00BF7C5408104C75020801008A00254B1B6893F83130A7
:4012400083423AD900293AD00B6813F01F0F38D170B50D4604461E4B1B6893F83130984204D340F2C3111B4801F07CFF184B1B68186AB3F8B03004FB0304174E34602A6812
:40128000D2080021686803F0BAFB00212046FFF77BFF346825B940F293310E4801F062FF2A4600212046FFF78DFF60B900210A4B1868FFF769FF40B970BD0848704707484A
:4012C000704706487047064870BD054870BD00BF4C7502083C5408102C4B020803018A0001018A0010B504461346B2B9A9B9124B1B6893F83130984204D340F2C3110F4861
:4013000001F030FF0C4B1B681A6AB3F8B03004FB03240B4B1C60002010BD43B149B1084A51609360111D2046FFF786FF10BD054810BD044810BD00BF4C7502083C5408109A
:401340002C4B020803018A002DE9F0411B4B1B68DC68236883422CD90D464609A0EB4610012303FA00F819B901F067FF074600E00027124B18680368002B01DA002300E02B
:401380000F4B83B9626852F8263018EA030F05D023EA080342F82630002400E0094C0021FFF7F2FE00E0084C25B9384601F049FF00E0064C2046BDE8F08100BF2C4B020885
:4013C00001008A00020188000301880004018A000B4B1B68DB681A6882420CD94109A0EB4110012202FA00F05B6853F82130184203D004487047044870470448704700BFEC
:401400002C4B02080101880004018A0000018800024B1B680BB9014B18607047384B02082DE9F8430446884691461D46089F2C4B1B681BB9B5212B4801F094FE284B1B6813
:401440002C2000FB04F01C18EEB21E50C5F3072363602D0CA560244B1B6893F831309E4204D340F2C311214801F07CFE1E4B1B68196AB3F8B02006FB02162661666893F8BA
:4014800032309E4204D340F2DF11184801F06AFE154B1B681D6A803605EB46156561A668330C1B0423B14FF4FF71104801F05AFE330C1B0423B140F2FF110C4801F052FE6A
:4014C000B3B243EA0646AE60C4F81C90C4F820800023A36117B1B7F90030A381BDE8F883384B0208BC5408104C7502083C540810F0B58FB0044618B95221274801F032FEFF
:40150000A369072B03D95621234801F02BFEE36A1BB95821204801F025FE236B1BB959211D4801F01FFE07AD04F114060FCE0FC537682F6002AD26460FCE0FC533682B609C
:40154000164B1B68B3F93620079B1344ADF83030089B0D93A26AE16A0CAD00953B460A98FFF75EFF00210091069B0A460598FFF757FF216B284601F0AFFDBDF93030002BC5
:4015800008DB590903F01F03012202FA03F3044A42F821300FB0F0BDBC5408104C75020800E100E0F8B506460F461D4614461AB9FD211F4801F0D6FD1E4B1B681BB9FE21BD
:4015C0001B4801F0CFFD1B4B1B682C2101FB063001FB07314B68012202FA03F31B04466802FA06F60269EAB18F69EFB91268002A01DA002200E0104AC2B922881343236023
:401600000369DC6001238B614D620469330C1B0423B140F2BB21094801F0A4FDB2B2A2600020F8BD0648F8BD0648F8BD0548F8BDBC540810384B020801008A003C54081088
:4016400004028A0007028A00F8B505460F4616460E4B1B6823B94FF4AF710D4801F082FD0A4B1B682C2404FB0534236A23B94FF4B171074801F076FDE369B34204D9236A32
:4016800043F826700020F8BD0248F8BD384B0208BC5408100A028A0070B582B000230193044620B940F2D111284801F05BFD236923B94FF4E971254801F054FD636923B9E0
:4016C00040F2D311214801F04DFD236A23B94FF4EA711E4801F046FD6369DD682A0C20D012041A601B682069194B1B68D3F8B430C358002B15DA01A9FFF782FD60B9019820
:4017000003681E0CDBB2E269934206D2226A52F8233013B1984700E0002631462069FFF733FDADB275B16369ADB21D601B68636A1BB198470023636202E0A36A03B1984705
:401740000023A36163691B6802B070BDBC5408104C75020810B50446074B1B6823B940F2B111064801F0FEFC034B1B682C2000FB0430FFF791FF10BD384B0208BC540810E0
:4017800010B4D0F8003303F00F03072B06D900230DE0D0F84043CC54013300E000239342F7D306E0D0F8404321F8134001339342F8D35DF8044B704710B51446D0F8083315
:4017C000C3F308039A4200D31C462246FFF7D8FF204610BD036813F4006F01D0802200E04022D0F80832C3F30803934203D0C0F84012012070470020704700BF10B4D0F8AA
:40180000003203F00F03072B06D900230DE0CC5CC0F84042013300E000239342F7D306E031F81340C0F8404201339342F8D35DF8044B704710B51446036813F4006F01D07C
:40184000802200E04022D0F80832C3F30803D31AA34200D81C462246FFF7D0FF204610BD02E0C0F84012013A002AFAD1704700BF10B51446036813F4006F01D0802200E070
:401880004022D0F80832C3F30803D31AA34200D81C462246FFF7E4FF204610BD10B54A6841F201039A4231D1D0F80833C3F30803B3B10B6A43F040030B620B7873B1D0F808
:4018C000043343F48033C0F80433D0F8043323F48033C0F80433D0F8043301E0D0F840330B6A43F020030B620B6A23F010030B62036E23F4204303660023C0F8C83F01236B
:40190000C0F8C03FD0F8C03F202221E0D0F80832C3F30802D0F80832C3F3C03313440A6BD21A4A630A6A12F0080F05D1CA6A1A44CA628A6AD31A8B620B6A43F004030B6209
:401940000B6A23F001030B620023C0F8883F1022D0F84C4F40F201131C420DD0036823F00043036000238366C366036843F000430360036842F040024FF080534B604B6CC6
:401980000BB11046984710BDD0F80C3F13F0020F1DD00222C0F8002FD0F8002FD0F8002F12F0040F02D04FF4001001E04FF480108A6802438A604A68B2F5B81F07D00A7BC1
:4019C00012B14FF4C01201E04FF4B0124A6013F4807F03D08A6842F400028A6013F0010F03D08A6842F480028A6040F21112134202D04FF4C0134B60704700BF0023C0F88A
:401A0000C83FC0F8883F836E23B140F21713C0F8083F704740F21313C0F8083F182383664FF4B8134B60704738B5D0F80C4F036E23F4807303660023C0F8C83FC0F8883F09
:401A4000C0F8083F40F21713C0F8003FD0F8003F8B6823F480338B604B7B13B18B69CB610BE08D69D0F80822C2F30802D0F80832C3F3C0331344EB1ACB6140F201131C4252
:401A80001BD0036E9B0F032B05D114F4827F14BF0123002300E001235BB1036823F00043036000238366C366036843F00043036003684FF080534B601BE00B7893B1D0F89A
:401AC000043343F48033C0F80433D0F8043323F48033C0F80433D0F804330123C0F8C03FD0F8C03F0B7B0BB10B4B01E04FF080534B604A6C72B14B7B13B14FF4802001E020
:401B00004FF400308B6813F0F87301D04FF400231843904738BD00BF000010100346002940DB11F0C00F06D0002181664FF0805050602F4844E011F4807F36D111F0010FE3
:401B40000ED050682B49884232D1196E11F0804F0CBF012100214FF08050506026482FE011F0020F06D050682249884223D10021224825E011F0100F05D04FF080515160DE
:401B8000002108461CE050681A49884216D1517B11B14FF4881101E04FF4A0115160002108460DE0012116480AE00121154807E00121114804E00021134801E000210846A7
:401BC00079B1196821F00041196000219966D966196841F0004119601B684FF080535360704740F21712C3F8002FD3F8003F70470820AA00000013100620AA000420AA000C
:401C00000320AA000720AA000520AA00036853B110B50446012001F099FA2368013B23601BB1002010BD002070474FF0004010BD70B505460C4691F8243013F0FF0F0ED15F
:401C4000CB6A63B94B6C0BB108209847E36AB3FA83F35B0984F824300123C5F8883F94F8243013F0FF0F16D063783BB12B6813F4006F01D0802202E0402200E00122FF21CC
:401C80002846FFF7F5FD236B18442063236A43F00803236270BDE26A012A11D963780BB1013A00E00122A16A2846FFF7C3FD236B03442363E36A1B1AE362A36A1844A062F2
:401CC000D5F80832C3F30803802B23D0E36A012B20D101F0B2FAA36A1B78C5F840324026C5F8806FD5F8803F01F0ABFA236B013323630023E362A36A0133A362C5F8886FCA
:401D000063783BB1236A43F002032362636C0BB10420984770BD00BF38B54B68B3F5A81F03D14FF4C0134B6038BD4B68B3F5A01F4DD10C4605464A69012A11D94B780BB163
:401D4000013A00E0012221692846FFF773FDA3690344A36163691B1A6361236903442361D5F80832C3F30803802B14D06369012B11D101F062FA23691B78C5F84032402325
:401D8000C5F8803FD5F8803F01F05BFAA3690133A361002363616369CBB9237B33B14023C5F8883F4FF4A813636005E00023C5F8883F4FF4B0136360637843B1A36843F4CA
:401DC0000033A360636C13B14FF48030984738BD70B504460D468A6C82B3036813F4803F06D0D0F84C3F13F0400F03D0022002E0002000E00020236E13F4006F06D1D4F819
:401E00004C3F13F0800300D001231843C0B190470123C4F8C03FD4F8C03F024648B91023C4F8403FD4F8403F40F2D113C4F8483F07E040F2C113C4F8483F02E0002200E0E1
:401E40000022D4F8043243F48033C4F80432D4F8043223F48033C4F80432D4F804320AB9012300E00223E366002A59D1666E06F010066B6C23B10EB1012000E002209847CD
:401E80007EB141F202036B602B6A43F001032B626B6B2B63002385F824300123C4F8883F70BD41F201036B602B6A43F010032B620123C4F8C83F2B78BBB1EB6BBBB1236EB8
:401EC00043F400532366ED6B802D05D9A5F18003802B0ED8813D0DE0013D236E43F4004323660023C4F8C83F04E0002502E0002500E03F25236813F4006F01D0802300E036
:401F000040239D4204D34FF42071064801F02AF9D4F8043323F0FF03EDB21D43C4F8045370BD00BFFC54081038B54B68B3F5881F03D0B3F5901F1AD038BD0B69D0F840233D
:401F40001A708B6901338B614B69013B4B612BB10B6901330B610423836638BD0B7B13B14FF4C01301E04FF4B0134B6038BD0C4605464A690969FFF71FFCA3690344A36121
:401F800063691B1A6361226910442061012B24D82B6E23F480732B666369012B16D12B6813F4006F01D0802300E0402323B94FF42071184801F0D6F8D5F8043323F0FF0319
:401FC000C5F804334FF48813636038BD0023C5F8C83F4FF4B013636038BD402B01D89C1E00E03F242B6813F4006F01D0802300E040239C4204D34FF42071064801F0B2F83F
:40200000D5F8043323F0FF02E3B21343C5F8043338BD00BFFC54081038B5CB6B002B50D00B78002B3FD00C460546D0F80423D2B20132896BFFF7C0FB236C03442364E36BCF
:402040001B1AE363A26B1044A063802B06D9A3F18002802A0FD8A3F181040DE02B6E43F400432B66E36B0BB15C1E00E000240023C5F8C83F00E03F242B6813F4006F01D01A
:40208000802300E040239C4204D34FF42071104801F068F8D5F8043323F0FF02E3B21343C5F8043338BD0123C3668A6B0B6CD0F84003D0540B6C01330B64CB6B013BCB637A
:4020C00038BD0223C3660023C0F8C83F38BD00BFFC540810F8B50B78012B03D00C7A1CB9002702E0002700E00127002800F0A780002900F0A680002A00F0A58016460C4672
:402100000546013BDBB2022B03D94F214F4801F029F8637803B163791BB150214B4801F021F894F90330002B03DA5121474801F019F8237913F0010F03D05221434801F0E8
:4021400011F82369102B03D95321404801F00AF8E368102B03D954213C4801F003F8637913B14FF4803100E00021E27912B14FF4807300E000230B4343F400632B60A37902
:4021800013B94FF4006300E000232269013A02F00F021A43E368013B1B01DBB21343227843EA82732B6617B140F2073301E040F20713C5F800330FB1254B00E0254B2B674E
:4021C00063780BB17F2300E00023C5F80433E3785B00DBB2227943EA0243C5F810331E4BC5F80032A3780BB1402300E00123C5F804320023C5F8C83EC5F8883EC5F8C83FA9
:40220000C5F8883FC5F8083F2378022B02D040F2D11300E00023C5F8483F63783370A37873704FF0805373600020B060B06130623064F0633063F0627064B064F8BD074833
:40224000F8BD0648F8BD0548F8BD00BF4055081003002A0013102A00070101000120AA0038B505460C4621B940F2C321194800F079FF2B6E9B0F012B17D1174B2344174A26
:4022800093421ED9A4F5BD13A3F5D66302F5611202F56162934216D9A4F57104A4F533440F4B9C4211D80F4838BD84B1286EC0F303102B6E03F00F0318440230B4FBF0F059
:4022C00038BD094838BD094838BD002038BD002038BD00BF4055081020AD88FF405B730040555C0440420F00801A0600A08601002DE9F84307468846914622B940F2122195
:40230000624800F02FFF08F1FF34614B9C4204D940F213215D4800F025FF3B6E9B0F012B0DD149463846FFF79BFF0546D7F8003323F40073C7F80033564B3B67A2E0544BFC
:402340009C421FD8544B984509D8A9F5BD13A3F5D663524A934218D90021012328E0504B984507D84F4B4B444F4A934213D9002101231DE04D4B4B444D4A934212D9002182
:40238000012315E00021012312E0002141F288352E460B460CE000214FF461754FF4C8660B4605E001214FF4BE754FF41B760023002B66D13F4BB3FBF9F3B6FBF3F404FB7E
:4023C00003F2964200D90134102C00D910240F2C8CBF00220122B5FBF3F606FB03F39D4200D90136102E00D91026A519B9FBF5F50FE022B10F2C09D80134002206E00F2E6E
:4024000004D801360F2C8CBF00220122A519B9FBF5F5454502D9A3191F2BEAD941B1D7F8003343F40073C7F80033234B3B6707E0D7F8003323F40073C7F80033154B3B672D
:40244000E31F092B04D940F283511C4800F08AFE3B6E23F0F003013C2401E4B223433B66731F0B2B04D94FF4B461144800F07AFE3B6E23F00F03013E06F00F061E433E66DB
:4024800000E000252846BDE8F88300BF405508103F420F0013102A00A0860100502D1900801A060020AD88FFA0432100807E25FFC02BAF0000CA9A3B03002A008055081016
:4024C0002DE9F04182B005460C4617469846089E11F0800F04D04FF4D961314800F042FE304B984504D940F2C9612D4800F03AFE012F04D940F2CA61294800F033FE00230E
:40250000C5F8483F7368B3F1805F41D14FF47A7303FB08F30193244B7360012F14BF00230123737340F21713C5F8003FD5F8003F0423C5F8C03FD5F8C03FD5F8043243F46B
:402540008033C5F80432D5F8043223F48033C5F80432D5F804326400E4B23C43C5F840420223AB66D5F8004F24F0F804E405E40DD5F8403F03F0C0031C4301A8FFF746FBBD
:4025800054EA0001EED032462846FFF7C7FA00E0064840F2D113C5F8483F02B0BDE8F0814055081037894100000013100220AA002DE9F04182B005460F4614469846089E9D
:4025C00011F0800F04D040F229712A4800F0CAFD294B984504D940F22A71264800F0C2FD012C04D940F22B71224800F0BBFD736813F4801F39D04FF47A7303FB08F3019339
:402600001E4B7360012C14BF0023012373736B6E13F0200F01D0092300E00123AB666B6E13F0200F05D0002009E001A8FFF7EEFA00E0002018B9AB6E13F0010FF5D170B9B8
:402640007F00FFB23C43C5F84042D5F8000F40F20714044001A8FFF7D9FA2043F5D0324601462846FFF75AFA00E0054802B0BDE8F08100BF40550810378941000000131069
:402680000220AA0070B582B005460C461646134B994204D940F28C71114800F063FD736813F4801F17D04FF47A7303FB04F401941823AB66D5F8004F24F0EE04E405E40DA5
:4026C00001A8FFF7A3FA54EA0001F3D032462846FFF724FA00E0034802B070BD37894100405508100220AA002DE9F04383B0074688461C460A9D914622B94FF4FB612448C1
:4027000000F030FD234B9C4204D940F2D971204800F028FDB8F1010F04D940F2DA711C4800F020FD6B68B3F5881F2BD14FF47A7303FB04F40194D7F8C06F06F00406D7F830
:40274000001F40F201140C4001A8FFF75FFA44EA00010EB90029EED046B1D7F8403389F800300523C7F8C03FD7F8C03F2A463846FFF7D4F9034630B9B8F1000F03D104229F
:40278000BA6600E0044B184603B0BDE8F08300BF40550810378941000220AA00F0B583B005460F4614461E46134B9A4204D940F63201124800F0D6FC7368B3F5A01F17D16C
:4027C0004FF47A7303FB04F40194C5F84072D5F8004F24F0F804E405E40D01A8FFF716FA54EA0001F3D032462846FFF797F900E0034803B0F0BD00BF378941004055081094
:402800000220AA0070B504460E46D0F88C3E13F0010F07D04FF480534B600123C0F8803ED0F8803ED4F84C5F40F201131D420FD0336A15F4807F02D04FF4807200E0802283
:40284000134333620023C4F8C83F45F010050EE015F0100F0BD0D4F80833C3F3080333B1F36B23B10123C4F8C43FC4F8C83FD4F8CC3F13F0010F08D031462046FFF7CCFB70
:402880000123C4F8C03FD4F8C03F15F0100F0AD031462046FFF702F81023C4F8403FD4F8403FD4F84C5F15F0C00F0DD031462046FFF78EFA0123C4F8803ED4F8803EC0235C
:4028C000C4F8403FD4F8403FD4F88C3F13F0410F08D031462046FFF7ABF90123C4F8803FD4F8803F70BD00BF70B506460D46D0F8004E14F0020F0AD0836E2BB10023836661
:402900008B6843F080738B604FF4C0136B6014F0010F05D029463046FFF736F824F0040414F0080F08D029463046FFF7FDFA0123C6F8C03FD6F8C03F14F0040F08D02946D3
:402940003046FFF7E9F90123C6F8803FD6F8803F6B68B3F5C01F03D129463046FFF764F86B68B3F5B01F03D129463046FFF746F870BD00BF08B54B6813F4801F02D0FFF775
:40298000B3FF08BDFFF73EFF08BD00BF2DE9F84305460C46036813F4006F02D04FF0800801E04FF04008D5F8007207F00F07A26A012A19D9D4F82490E262561EB9F1000FB3
:4029C00000D026B940F27351254800F0CBFB324649462846FEF72EFFA36A1B1AA362072F00D9400048446062D5F80832C3F30803984533D0A36A012B30D10023A362072F54
:402A000002D8636A1E7801E0636A1E8800F015FCC5F840624FF40073C5F8803FD5F8803F00F00FFCD5F8883F23F4007222F0010242F4007623F4EE6323F0030323B140F287
:402A40002A41084800F08EFBC5F8886F236843F002032360236B0BB101209847BDE8F883C0550810FC5408102DE9F04105460C46036813F4006F01D0802600E04026760829
:402A8000A769D4F81C8017B1B8F1000F04D14FF49961314800F066FB424639462846FEF78BFE236A03442362E3691B1AE36173BBA368FBB1E3689E4201D8013E00E05E1EAD
:402AC0002B6813F4006F01D0802300E040239E4204D34FF42071214800F044FBD5F8043323F0FF03F6B21E43C5F804630123C5F8C83F02E00023C5F8C83F636823F001031A
:402B00006360236B33B304209847BDE8F081A169D5F8002302F00F02072A00D940000844A0619E4216D95C1E2B6813F4006F01D0802300E040239C4204D34FF420710748D0
:402B400000F010FBD5F8043323F0FF02E3B21343C5F80433BDE8F081C0550810FC540810002800F0A48170B50546002900F0A18116460C460B78022B03D93F21A24800F05C
:402B8000F1FA637B023BDBB2062B03D940219E4800F0E8FAA37B3BB1022B05D0032B03D04121994800F0DEFA94F82130012B03D94221954800F0D6FA94F82830012B03D973
:402BC0004321914800F0CEFA2378012B06D86368083B082B94BF0023012307E0A37F2BB16368013B062B94BF002301231BB14521854800F0B7FAA368053B042B03D946214C
:402C0000814800F0AFFA6369FF2B03D947217E4800F0A8FAA369FF2B03D948217A4800F0A1FAA37C6BB1237833B9A368092B05D1A37B2BB1012304E0012302E0012300E0F5
:402C400000231BB14A21704800F08CFA636B23F4366323F00D031BB14C216B4800F082FAE36B23F4EE6323F003031BB14D21664800F078FA2378022B01D1A37F13B1626870
:402C8000013A00E00022237F13B14FF4803100E00021A368082B02D84FF4006300E000230B4302F00F02134343F000732B60226B2B6813F4006F01D0802300E040239A42BA
:402CC00003D36221504800F04DFAA26B2B6813F4006F01D0802300E040239A4203D36321494800F03FFA626A2B6813F4006F01D0802300E040239A4203D36421424800F0B2
:402D000031FA23781B0603F040732B64637F0BB1402200E00022A37C13B14FF4806300E000231343227C12B14FF4807200E000221343627C12B14FF4007200E000221A4370
:402D4000E36A013B1B0403F470231343627B013A02F007021343A27B120102F030021343AB64237B13B14FF4807200E00022E37B23B92378022B03D1012302E0012300E030
:402D8000002313B14FF4007300E000231A43A368013B03F00F031343C5F80033227DA3691B0403F47F031343C5F81033E26AD5F8003303F00F0303339A4201D3102A03D99E
:402DC0007A21114800F0CEF9E37F23B12378012B03D0002302E0002300E0012313B14FF4807200E00022637B013B03F007031A43A37B1B0103F0300313436B64237B2BB1BE
:402E00004FF4807203E000BF005608100022A368013B03F00F0313432278012A02D14FF4803200E000221343C5F8003294F83030C5F8043394F8203013B14FF0007200E0A4
:402E4000002294F82130012B02D14FF0807300E00023134394F82820012A02D14FF4803200E00022134394F8242013432B6594F83830C5F80432636B23F4926323F002031B
:402E80001B051B0DC5F8C83FE36B23F08C035B055B0DC5F8883F76B1002070603060B060F0603062F0623063044B736370BD04487047034870BD002070BD00BFEFCDAB000C
:402EC0000160AA000B694A69934202D34869181A7047CA694869101A184470472DE9F04107460D46036813F4006F02D04FF0800801E04FF040084FEA5808D7F80863C6F3E6
:402F000008062C6926E00134EB689C4200D100246B699C420FD12B6B0BB1082098476B699C4208D10023C7F8C83F0CB1013C13E0EC68013C10E0D7F84023D7F8003303F099
:402F40000F03072B02D8AB681A5502E0AB6823F81420013E002ED6D12C61EC6829463846FFF7B0FF201A804519D908B1441E00E000243B6813F4006F01D0802300E0402306
:402F80009C4204D34FF42071064800F0EBF8D7F8040320F0FF03E0B21843C7F80403BDE8F08100BFFC54081038B504460D46D0F8003E13F0080F35D0D0F8CC3F13F448734B
:402FC0000AD04A681A434A60C0F8C03FD0F8C03F0B6B0BB110209847D4F8CC3F13F4006F09D06B6843F400636B604FF40063C4F8C03FD4F8C03FD4F8CC3F13F0010F11D02A
:40300000EB6923B129462046FFF72EFD05E0AB681BB129462046FFF761FF0123C4F8C03FD4F8C03FD4F8003E13F0040F2ED0D4F88C3F13F4A0630AD02A681A432A60C4F80B
:40304000803FD4F8803F2B6B0BB120209847D4F88C3F13F0010F08D029462046FFF796FC0123C4F8803FD4F8803FD4F88C3F13F4007F0BD00022C4F8882F2B6823F0010355
:403080002B60EA622B6B0BB10220984738BD00BF38B50D4B9A680D4B9A420FD10D46044621B940F237110A4800F05CF804F11003064A52F8230042F8235038BD1030054B59
:4030C00053F8200038BD00BF00ED00E000400208405608100000081048B338B504460D464368072B03D93221134800F03BF8B4F900306268002B08DB5201D2B203F16043A2
:4031000003F5614383F8002305E003F00F035201D2B20A49CA540A4B9A680A4B9A4208D12946B4F90000FFF7B3FF002038BD06487047002038BD00BF4056081014ED00E081
:4031400000ED00E0004002080100560008B5034B1B7800FB03F000F067F808BDA042020801BEFEE738B50D46044C18220146204601F0B0FCA5610020FFF7F2FFB848020886
:40318000FEE700BF08B50268254BDA6142681A6282685A62C2689A620269DA6242691A6382695A63C2699A631E4A916AD963D16A1964516A5964516B9964926BDA64F1EE66
:4031C000103A13F0900F27D0026A154B1A65426A5A65826A9A65C26ADA65026B1A66426B5A66826B9A66C26BDA66026C1A67426C5A67826C9A67C26CDA67026DC3F88020A6
:40320000426DC3F88420826DC3F88820C26DC3F88C20026EC3F89020FFF7B2FF08BD00BFB848020800ED00E00230800803D001300238FCD100BF00BF7047EFF3108072B627
:40324000704780F310887047014B1860704700BF4C75020800F1080343604FF0FF328260C360036100230360704700BF00230361704700BF43684B609A688A609A6851606A
:4032800099600861036801330360704730B40D68B5F1FF3F01D1026907E000F1080200E01A4653681C68A542FAD253684B6099608A605160086103680133036030BC70475D
:4032C00003694268816891608268416851605A68904201D182685A60002202611A68013A1A601868704700BF10B5044601F09AF9A26BE36B9A4201D1012400E0002401F028
:40330000B3F9204610BD00BF10B5044601F08AF9A36B0BB9012400E0002401F0A5F9204610BD00BF70B504461646856B026CFAB166B9806801F058FBA268236C1344A360DE
:403340006268934214D32368A36011E0C06801F04BFB236C5B42E2681A44E26021688A4202D262681344E360022E01D105B1013D0135A563002070BD026C72B110B5034626
:40338000C4681444C4604068844201D31868D8600846D96801F028FB10BD704738B5054601F040F995F8454064B20AE06B6A53B105F1240000F050FE08B100F0DBFE013CE0
:4033C00064B2002CF2DCFF2385F8453001F04CF901F028F995F8444064B20AE02B6953B105F1100000F038FE08B100F0C3FE013C64B2002CF2DCFF2385F8443001F034F9A4
:4034000038BD00BF38B540B94FF03F0383F31188BFF36F8FBFF34F8FFEE704460D4601F001F92168E26B236C03FB021060600020A063A160013A02FB0313E360FF2384F82D
:40344000443084F845307DB92369ABB104F1100000F002FE80B14FF08052094B1A60BFF34F8FBFF36F8F07E004F11000FFF7F2FE04F12400FFF7EEFE01F0F6F8012038BDC2
:4034800004ED00E010B5029B0C4609B91B6000E01A60D8631C6401211846FFF7B3FF10BD40B94FF03F0383F31188BFF36F8FBFF34F8FFEE7F0B583B0034611B101FB00F0C3
:4034C00000E000201D4617460C46483001F0ECF9064638B100903B4600F1480221462846FFF7D0FF304603B0F0BD00BFF0B585B0019240B94FF03F0383F31188BFF36F8F16
:40350000BFF34F8FFEE7044619B9026C1AB9012202E0012200E0002242B94FF03F0383F31188BFF36F8FBFF34F8FFEE7022B03D1E26B012A02D102E0012200E0002242B991
:403540004FF03F0383F31188BFF36F8FBFF34F8FFEE71D460E4600F015FE18B9019B1BB9012302E0012300E0002343B94FF03F0383F31188BFF36F8FBFF34F8FFEE7002796
:4035800001F050F8A26BE36B9A4201D3022D21D12A4631462046FFF7C5FE636A6BB104F1240000F059FD88B14FF08052324B1A60BFF34F8FBFF36F8F08E038B14FF08052F5
:4035C0002D4B1A60BFF34F8FBFF36F8F01F04CF801204EE0019B1BB901F046F8002048E01FB902A800F07CFD012701F03DF800F069FB01F017F894F844305BB2B3F1FF3FB2
:4036000002D1002384F8443094F845305BB2B3F1FF3F02D1002384F8453001F025F801A902A800F067FDF0B92046FFF75DFEA0B1019904F1100000F0D7FC2046FFF7AEFEFC
:4036400000F0CEFB00289BD14FF080520A4B1A60BFF34F8FBFF36F8F92E72046FFF79EFE00F0BEFB8CE72046FFF798FE00F0B8FB002005B0F0BD00BF04ED00E02DE9F84358
:4036800040B94FF03F0383F31188BFF36F8FBFF34F8FFEE7044619B9006C18B9012002E0012000E0002040B94FF03F0383F31188BFF36F8FBFF34F8FFEE7022B03D1E06BE5
:4036C000012802D102E0012000E0002040B94FF03F0383F31188BFF36F8FBFF34F8FFEE71F469046894601F0A1F8EFF311864FF03F0383F31188BFF36F8FBFF34F8FA26B33
:40370000E36B9A4201D3022F1ED194F845506DB23A4649462046FFF705FEB5F1FF3F0DD1636A9BB104F1240000F096FC80B1B8F1000F0FD00120C8F800000CE06B1C5BB21E
:4037400084F84530012006E0002004E0012002E0012000E0012086F31188BDE8F88300BFF0B585B0019240B94FF03F0383F31188BFF36F8FBFF34F8FFEE7044619B9036C91
:403780001BB9012302E0012300E0002343B94FF03F0383F31188BFF36F8FBFF34F8FFEE70E4600F0EFFC18B9019B1BB9012302E0012300E0002343B94FF03F0383F311882E
:4037C000BFF36F8FBFF34F8FFEE7002700F02AFFA56BC5B131462046FFF7CEFD013DA563236963B104F1100000F036FC38B14FF08052304B1A60BFF34F8FBFF36F8F00F014
:4038000033FF012053E0019B1BB900F02DFF00204DE01FB902A800F063FC012700F024FF00F050FA00F0FEFE94F844305BB2B3F1FF3F02D1002384F8443094F845305BB214
:40384000B3F1FF3F02D1002384F8453000F00CFF01A902A800F04EFCF0B92046FFF754FDA0B1019904F1240000F0BEFB2046FFF795FD00F0B5FA0028A8D14FF080520D4B5C
:403880001A60BFF34F8FBFF36F8F9FE72046FFF785FD00F0A5FA99E72046FFF77FFD00F09FFA2046FFF730FD00288FD0002005B0F0BD00BF04ED00E000230BE0074A52F8AF
:4038C000332032B9054A42F8331002EBC303586070470133092BF1D9704700BF5075020870B504460D46164600F09CFE94F844305BB2B3F1FF3F02D1002384F8443094F81C
:4039000045305BB2B3F1FF3F02D1002384F8453000F0AAFEA36B2BB93246294604F1240000F07CFB2046FFF739FD70BD094B9B6A1B680BB9012300E0002323B14FF0FF3281
:40394000044BDA627047034B9A6AD268D2685268DA627047784B020810B50446006B00F0D3FF204600F0D0FF10BD00BF2DE9F0478246894615469846089F099E0A9C920035
:40398000A521206B01F03BF8236B05F18042013A03EB820525F00705002308E019F80310E21882F8341019F8032012B101330F2BF4D9002384F84330062F00D90627E762CC
:4039C000201DFFF753FC04F11800FFF74FFC2461C7F10703A3616462002306E003F1100204EB8202002151600133042BF6D90023A36584F85C3042465146284600F0E4FDCF
:403A0000206006B13460BDE8F08700BF70B5002407E004EB8402930010481844FFF71AFC0134062CF5D90E4C04F1BC063046FFF711FC04F1D0052846FFF70CFC04F11400EA
:403A4000FFF708FC04F1E400FFF704FC2046FFF701FCA662C4F8F85070BD00BFA84B0208784B020838B5044600F0DCFD264BD3F8FC200132C3F8FC20D3F800314BB9224B93
:403A8000C3F80041D3F8FC30012B10D1FFF7BEFF0DE01D4BD3F804314BB91B4BD3F80031DA6AE36A9A4202D8174BC3F80041164AD2F808310133C2F80831E36AD2F80C2125
:403AC000934202D9104AC2F80C310F4D05F1300003EB83039A00211D1044FFF7CBFB00F0C3FDD5F804316BB1D5F80031DA6AE36A9A4207D24FF08052044B1A60BFF34F8F6B
:403B0000BFF36F8F38BD00BF784B020804ED00E038B517E000F086FD0D4CD4F8F030DD68281DFFF7CDFBD4F8FC30013BC4F8FC30D4F81031013BC4F8103100F095FD28464D
:403B4000FFF70AFF024BD3F81031002BE2D138BD784B020808B5FFF7DBFF064B1B6B012BF9D94FF08052044B1A60BFF34F8FBFF36F8FF0E7784B020804ED00E070B50446ED
:403B80000E46174BD3F81451D3F800010430FFF797FBB4F1FF3F07D136B11148D0F800110431FFF767FB70BD2C440D4BD3F800315C60A54208D90A4BD3F8F800D3F80011CD
:403BC0000431FFF763FB70BD054DA86AD5F800110431FFF75BFBEB6A9C4200D2EC6270BD784B02082DE9F04385B006460F4615469846900000F058FE60B18146602000F089
:403C000053FE044610B1C0F8309004E0484600F07BFE00E000248CB10023039302940D9B01930C9B009343462A4639463046FFF79DFE2046FFF716FF012001E04FF0FF306F
:403C400005B0BDE8F08300BF00B583B0194B019300230093802218491848FFF7C3FF012801D100F0F5FA012814D14FF03F0383F31188BFF36F8FBFF34F8F114B4FF0FF3283
:403C8000DA620122C3F804210022C3F8142100F06BFD0BE0B0F1FF3F08D14FF03F0383F31188BFF36F8FBFF34F8FFEE703B05DF804FB00BF944C0208F4570810553B081048
:403CC000784B0208034AD2F818310133C2F81831704700BF784B0208014BD3F814017047784B02082DE9F0413C4BD3F81831002B65D13A4BD3F814410134C3F81441CCB9BB
:403D00009B6A1B6843B14FF03F0383F31188BFF36F8FBFF34F8FFEE7304B9A6AD3F8F8109962C3F8F820D3F820210132C3F82021FFF7FCFD294BDB6A9C4203D2002645E051
:403D4000012600E00026254B9B6A1B680BB9012300E0002323B14FF0FF32204BDA6235E01E4B9B6ADB68DD686B689C4202D21B4AD3622BE005F104084046FFF7A1FAAB6AE5
:403D80001BB105F11800FFF79BFAEB6A134AD2F80C21934202D9114AC2F80C310F4F07F1300003EB83039A0041461044FFF762FAEA6AD7F80031DB6A9A42C1D2C3E7074A2F
:403DC000D2F824310133C2F824310026034BD3F8283103B101263046BDE8F081784B0208394BD3F8183143B94FF03F0383F31188BFF36F8FBFF34F8FFEE770B500F012FC29
:403E0000314BD3F81821013AC3F81821D3F81831002B52D12C4BD3F8FC303BBB00244FE0294D2B6ADC6804F11800FFF749FA261D3046FFF745FAE36AD5F80C21934201D941
:403E4000C5F80C31204D05F1300003EB83039A0031461044FFF70EFAE26AD5F80031DB6A9A4204D30122C5F8282100E00024164B5B69002BD4D10CB1FFF758FD124BD3F84A
:403E8000244164B1FFF72EFF18B101220E4BC3F82821013CF6D100220B4BC3F824210A4BD3F828315BB14FF08052084B1A60BFF34F8FBFF36F8F012402E0002400E00024CE
:403EC00000F0D2FB204670BD784B020804ED00E010B5B0B10446104BD3F8183143B14FF03F0383F31188BFF36F8FBFF34F8FFEE7FFF7E8FE00212046FFF740FEFFF770FF50
:403F000000E0002038B94FF08052044B1A60BFF34F8FBFF36F8F10BD784B020804ED00E0304BD3F8183123B101222E4BC3F82821704710B52B4B0022C3F82821D3F80031F4
:403F40001B6B1A68B2F1A53F0BD15A68B2F1A53F07D19A68B2F1A53F03D1DB68B3F1A53F07D0204BD3F80001D3F80011343100F089FC1C4BD3F80C310AE043B94FF03F03F3
:403F800083F31188BFF36F8FBFF34F8FFEE7013B03EB83018A0013490A44126B002AECD008469900CC18A2000244546B64685463303019448A0008320244944206D1606857
:403FC00003EB83018A0007490A445063054903EB830082000A44526BD268C1F80021C1F80C3110BD784B020840B94FF03F0383F31188BFF36F8FBFF34F8FFEE710B50C46BF
:40400000054BD3F800111831FFF740F901212046FFF7B4FD10BD00BF784B020838B540B94FF03F0383F31188BFF36F8FBFF34F8FFEE70C461546074AD2F800111831FFF7A1
:4040400019F90DB14FF0FF3429462046FFF796FD38BD00BF784B020838B5C368DC6844B94FF03F0383F31188BFF36F8FBFF34F8FFEE704F118052846FFF722F9154BD3F855
:404080001831ABB9251D2846FFF71AF9E36A114AD2F80C21934202D90E4AC2F80C3103EB83039A0029460C481044FFF7E3F803E029460A48FFF7DEF8E26A064BD3F80031FD
:4040C000DB6A9A4204D90120024BC3F8280138BD002038BD784B0208A84B02088C4B0208034BD3F820210260D3F8143143607047784B0208F8B540B94FF03F0383F3118892
:40410000BFF36F8FBFF34F8FFEE7054641B94FF03F0383F31188BFF36F8FBFF34F8FFEE70C4600F07FFA124BD3F814016968421A2368B3F1FF3F14D02F680D4ED6F82061A9
:40414000B74201D088420ED29A4206D29B1A23602846FFF7C5FF002406E000232360012402E0002400E0012400F07EFA2046F8BD784B02080122024BC3F82821704700BF9D
:40418000784B0208064BD3F804312BB1044BD3F818311BB9022070470120704700207047784B0208064B1A681368B3FA83F35B09036013B9D368186870470020704700BF6D
:4041C000A44C020808B54160006191420AD8D21A83699A4211D2011D0A4B5868FFF756F8002008BD9A4201D2994208D2011D054B1868FFF74BF8002008BD012008BD0120E7
:4042000008BD00BFA44C020870B500F00BFA0E4B9B68B3B90C4C04F10C063046FFF71AF804F120052846FFF715F82660656000220C210A20FFF734F9A06010B10349FFF7CC
:404240003BFB00F011FA70BDA44C0208FC57081000B583B0FFF7D8FF0D4B9B6853B10D4B019303230093002380220B490B48FFF7B9FC00E0002040B94FF03F0383F3118822
:40428000BFF36F8FBFF34F8FFEE703B05DF804FBA44C0208D84C0208045808103545081040B94FF03F0383F31188BFF36F8FBFF34F8FFEE730B585B015460446124A9068E3
:4042C000F0B11A46019102950394052913DCFFF759FF022807D10023089A01A90A488068FFF704F90DE000231A4601A906488068FFF7FCF805E0002301A9FFF7BFF900E07A
:40430000002005B030BD00BFA44C020870B582B029E0DB681E68DC68251D2846FEF7D0FF636A20469847E369012B1CD1A36933449E4207D2636024612946104B1868FEF7E7
:40434000A5FF10E0002100910B4632462046FFF7A7FF40B94FF03F0383F31188BFF36F8FBFF34F8FFEE7054B1B681A68002AD0D1024A51681160536002B070BDA44C02085C
:4043800038B50546FFF7A8FC0446074B9B6B984204D2FFF7BBFF01232B6001E000232B60014B9C63204638BDA44C020870B582B005460E46134B1B68DB68DC68201DFEF7BB
:4043C0007FFFE369012B18D1A1692B46324629442046FFF7F7FE80B1002100910B462A462046FFF75DFF40B94FF03F0383F31188BFF36F8FBFF34F8FFEE7636A2046984711
:4044000002B070BDA44C020870B582B006460C46FFF758FC01A8FFF7B3FF019B1BBB054644B9B04206D3FFF7DBFC29463046FFF7BDFF1AE02CB10E4B5B681C68B4FA84F48D
:4044400064092246711B0A4B9868FFF749FAFFF7C7FC50B94FF08052064B1A60BFF34F8FBFF36F8F01E0FFF7BBFC02B070BD00BFA44C020804ED00E030B587B04DE0039B91
:40448000002B4ADB059C636913B1201DFEF718FF02A8FFF775FF039B092B3ED8DFE803F00505053D273A05053D270499A5690B46024629442046FFF785FE70B3636A20467B
:4044C0009847E369012B28D1A269002100910B46049802442046FFF7E3FEF0B94FF03F0383F31188BFF36F8FBFF34F8FFEE70499A16141B94FF03F0383F31188BFF36F8F08
:40450000BFF34F8FFEE70346024601442046FFF759FE02E0204600F0F7F9002203A9044B9868FFF71DF90028A9D107B030BD00BFA44C020800B583B001A8FFF733FE0199DB
:40454000FFF762FFFFF798FFF6E700BF82B0002301930D4B1B68B3F1FF3F08D04FF03F0383F31188BFF36F8FBFF34F8FFEE74FF03F0383F31188BFF36F8FBFF34F8F019B1C
:40458000002BFCD002B07047AC42020808480068006880F308884FF0000080F3148862B661B6BFF34F8FBFF36F8F00DF00BF000008ED00E0DFF80C00016841F470010160FD
:4045C0007047000088ED00E04FF0807340F8043C21F0010140F8081C054B40F80C3C40F8202C6FF0020340F8243C4438704700BF4D450810000000000000000000000000AA
:40460000074B19680868B0E8F04F80F30988BFF36F8F4FF0000080F311887047AFF30080784C02084FF03F0383F31188BFF36F8FBFF34F8F0A4A136801331360012B0DD16A
:40464000084B1B6813F0FF0F08D04FF03F0383F31188BFF36F8FBFF34F8FFEE7704700BFAC42020804ED00E0094B1B6843B94FF03F0383F31188BFF36F8FBFF34F8FFEE7FF
:40468000013B034A13600BB983F31188704700BFAC420208000000000000000000000000EFF30980BFF36F8F154B1A681EF0100F08BF20ED108A20E9F04F10602DE909004E
:4046C0004FF03F0080F31188BFF34F8FBFF36F8FFFF726FC4FF0000080F3118809BC19680868B0E8F04F1EF0100F08BFB0EC108A80F30988BFF36F8F704700BFAFF300808A
:40470000784C020808B54FF03F0383F31188BFF36F8FBFF34F8FFFF7E5FA18B14FF08052024B1A60002383F3118808BD04ED00E0084A0023136008490B60084B1B68084915
:40474000A1FB03139B09013B06490B6007231360704700BF10E000E018E000E098420208D34D621014E000E010B582B02A4B1A78D2B20192FF221A701B78DBB28DF8033050
:404780009DF80330254A03F03F0313700723536009E0224A5368013B53609DF803305B00DBB28DF803309DF8033013F0800FF0D11A4B5B68042B08D04FF03F0383F31188EC
:4047C000BFF36F8FBFF34F8FFEE71B0203F4E063124A5360019BDBB20F4A1370104B1A6842F47F021A601A6842F07F421A60FFF79FFF00240B4B1C60FFF7DCFE0A4A136803
:4048000043F040431360FFF7C1FEFFF789FBFFF79DFE204602B010BD00E400E0E04C020820ED00E0AC42020834EF00E0EFF305830F2B0FD9104A9B5CDBB2104A12789342A5
:4048400008D24FF03F0383F31188BFF36F8FBFF34F8FFEE70A4B1B6803F4E063074A5268934208D94FF03F0383F31188BFF36F8FBFF34F8FFEE77047F0E300E0E04C020881
:404880000CED00E008B54FF03F0383F31188BFF36F8FBFF34F8F4FF441710248FEF762FCFEE700BF0C58081038B5044610F0070F02D020F007040834FFF704FA104B1B6898
:4048C0002BB90F4A02F10C0323F0070313600D4BD3F814361C4442F2F772944208D8A34208D2074A15681D44064BC3F8144602E0002500E00025FFF773FA284638BD00BFE4
:40490000E84C0208D86E020840B14FF03F0383F31188BFF36F8FBFF34F8FFEE7704700BF70B539B900240AE015F8010BFCF700FB013402E016460D460024B442F4DB20468C
:4049400070BD00BF70B561B900240FE0FCF7FCFAC0B2287001340A2808D00D2806D0013502E016460D460024B442EFDB204670BD08B502490248FEF717FB08BDA075020841
:404980000000664008B5114B1B785BB9104A11491148FEF7E5F811491148FEF79DFB01220A4B1A700E4BB3F90030002B08DB590903F01F03012202FA03F30A4A42F82130C2
:4049C000054A136843F00043136008BDF0740208A07502085C5808100000664071490810D853081000E100E010B5431E0A44914204D011F8014B03F8014FF8E710BD0244BD
:404A00000346934202D003F8011BFAE77047000070B50E46054618B183690BB900F022FAAB69AC6813B9284600F01CFA224B9C4201D16C6808E0214B9C4201D1AC6803E03A
:404A40001F4B9C4208BFEC68A3891B0701D523693BB92146284600F0A5F810B14FF0FF3070BD013EA36816F8011F013BA36091B1002B04DAA269934206DB0A2904D023681C
:404A80005A1C22601970EDE72246284600F036F80130E7D1E2E7002B08DA22460A21284600F02CF80130D9D00A2070BD23680A205A1C2260187070BDA4580810C4580810FE
:404AC000E4580810024B01461868FFF7A1BF00BF1043020810B5034642B111F8014B03F8014B013A002CF7D11A4400E010BD934202D003F8014BFAE710BD0000F8B50F4667
:404B00001446064618B183690BB900F0ABF9224B9C4201D1746808E0204B9C4201D1B46803E01F4B9C4208BFF468A369A360A3891A0709D523693BB123682069181A636998
:404B40009842FDB20FDB08E02146304600F02AF80028F1D04FF0FF30F8BD2146304600F017F90028F6D1A368013BA36023685A1C22601F706269431C934204D0A389DB07D6
:404B800007D50A2D05D12146304600F001F90028E0D12846F8BD00BFA4580810C4580810E4580810324B70B51D6806460C4625B1AB6913B9284600F055F92E4B9C4201D19E
:404BC0006C6808E02C4B9C4201D1AC6803E02B4B9C4208BFEC68B4F90C309AB215071DD4D00602D4092232603AE0510712D5616B41B104F14403994202D0304600F01CFA45
:404C000000236363A38923F02403A3810023636023692360A38943F00803A38123694BB9A38903F42073B3F5007F03D02146304600F0C6F9A28912F0010305D00023A36086
:404C400063695B42A36103E0920758BF6369A36023695BB9B4F90C3003F0800080B230B143F04003A3814FF0FF3070BD002070BD10430208A4580810C4580810E4580810DB
:404C80008A892DE9F041054610070C4659D44B68002B02DC0B6C002B17DDE66AAEB102F48052002392B22F682B600AB1606D15E0216A01232846B047411C0FD12B686BB1EA
:404CC0001D2B01D0162B03D12F600020BDE8F081A38943F04003A381BDE8F081A3895A0705D56368C01A636B0BB1236CC01A00230246E66A216A2846B047431CA38906D1D9
:404D000029681D293AD8214ACA40D60736D500226260D9042269226004D5421C01D12B6803B96065616B2F600029CED004F14403994202D0284600F07FF900206063BDE8D9
:404D4000F0810F69002FC0D093070E6808BF4B690F6018BF0023C7EB06088B6002E00744C0EB0808B8F1000FAFDD43463A46216AA66A2846B0470028F1DCA38943F0400320
:404D8000A3814FF0FF30BDE8F08100BF0100402038B50B6905460C46DBB118B183690BB900F060F80C4B9C4201D16C6808E00B4B9C4201D1AC6803E0094B9C4208BFEC68D3
:404DC000B4F90C302BB121462846BDE83840FFF757BF002038BD00BFA4580810C4580810E4580810014900F0A9B800BF914D0810002310B50446036043608360818143666A
:404E0000C281036143618361194608225C30FFF7F6FD054B6362054BA362054BE362054B2462236310BD00BFB1510810D35108100B5208102F52081070B568234D1E5D433F
:404E40000E4605F1740100F045F9044640B1002180E842000C30A06005F16802FFF7CFFD204670BD836910B5044633BB8364C3640365124B124A1B688262984204BF01230E
:404E8000836100F01FF86060204600F01BF8A060204600F017F80022E06004216068FFF7A7FF01220921A068FFF7A2FF02221221E068FFF79DFF0123A36110BDA05808106C
:404EC000E54D0810F8B51C4B1E68B369074613B93046FFF7C7FF4836B4687368013B04D4B4F90C507DB16834F8E733680BB13668F2E704213846FFF79FFF30600028F6D1A8
:404F00000C233B60F8BD4FF6FF73E3810123A38165662560A560656025616561A5610822294604F15C00FFF76AFD6563A563A564E5642046F8BD00BFA05808102DE9F8437F
:404F40008046894600F14804002694B1A5686768013F0CD4AB89012B07D9B5F90E30013303D029464046C84706436835F0E72468EBE73046BDE8F88370B50E46B1F90E10CF
:404F8000002990B014461D4606DA00232B60B3891A060ED540230EE001AA00F06FF90028F3DB029A02F47042A2F500535A425A412A604FF480630020236010B070BD00000F
:404FC0008B8973B59E0705460C4610D401AB6A46FFF7D2FF00990646284600F07BF868B9B4F90C309A0522D443F00203A38104F14703236023610123636118E00D4BAB62F0
:40500000A389206043F08003A381009B6361019B20614BB1B4F90E10284600F041F918B1A38943F00103A381A0893043A08102B070BD00BFE54D081038B50546002946D0A3
:4050400051F8043C0C1F002BB8BFE41800F04AF91F4A1368114613B96360146032E0A3420ED92268A018834204BF18685B68636004BF121822600C6024E0A24203D81346C8
:405080005A68002AF9D118681918A1420BD12168014458188242196014D1106852685A60014419600EE002D90C232B600AE021686018824204BF10685268626004BF0918F3
:4050C00021605C602846BDE8384000F00CB938BDF874020870B5CD1C25F0030508350C2D38BF0C25002D064601DBA94202D90C23336046E000F0F6F8234B1C681A46214665
:40510000A1B10B685B1B0ED40B2B03D90B60CC18CD501EE08C420DBF63684B686360136018BF0C4615E00C464968E9E7174C23681BB9304600F02CF820602946304600F0F6
:4051400027F8431C18D0C41C24F00304A0420DD12560304600F0C7F804F10B00231D20F00700C31A0ED05A42E25070BD211A304600F00EF80130EBD10C233360304600F09B
:40518000B2F8002070BD00BFF8740208F474020838B5064C002305460846236000F0D6F8431C02D1236803B12B6038BDD875020810B50C46B1F90E1000F096F80028ABBFDE
:4051C000636DA3891B1823F48053ACBF6365A38110BD2DE9F0411F468B89DB0505460C46164605D502230022B1F90E1000F068F8A389B4F90E1023F48053A38132463B46A2
:405200002846BDE8F04100F017B810B50C46B1F90E1000F055F8431CA38915BF606523F4805343F48053A38118BFA38110BDB1F90E1000F013B8000038B5074C05460846EF
:405240001146002222601A46FFF76AFB431C02D1236803B12B6038BDD875020838B5064C002305460846236000F050F8431C02D1236803B12B6038BDD875020838B5074CF2
:405280000023054608461146236000F047F8431C02D1236803B12B6038BD00BFD875020838B5064C002305460846236000F03EF8431C02D1236803B12B6038BDD875020836
:4052C00038B5074C054608461146002222601A4600F034F8431C02D1236803B12B6038BDD87502087047704738B5074C054608461146002222601A46FFF724FB431C02D12D
:40530000236803B12B6038BDD8750208024B58221A604FF0FF307047D8750208024B58221A604FF0FF307047D8750208024B58221A600020704700BFD8750208024B5822E8
:405340001A604FF0FF307047D8750208044A05491368002B08BF0B461844106018467047FC740208E0750208F8B500BFF8BC08BC9E467047F8B500BFF8BC08BC9E46704725
:40538000416363656C65726174696F6E20647520424D493136300D006D6F74696F6E207461736B0003000000010000000100000000000000050360000400000001000000B3
:4053C00000000000010000000604600008000000F04A0208010508102E000000070000002C00000007000000020000000000000000000000000000000000000047656E65EF
:4054000072617465645F536F757263655C50536F43365C70646C5C647269766572732F7065726970686572616C2F6970632F63795F6970635F6472762E68000047656E6582
:4054400072617465645F536F757263655C50536F43365C70646C5C647269766572735C7065726970686572616C5C6970635C63795F6970635F6472762E68000047656E65BB
:4054800072617465645F536F757263655C50536F43365C70646C5C647269766572735C7065726970686572616C5C6970635C63795F6970635F6472762E63000047656E6580
:4054C00072617465645F536F757263655C50536F43365C70646C5C647269766572735C7065726970686572616C5C6970635C63795F6970635F706970652E630047656E65DE
:4055000072617465645F536F757263655C50536F43365C70646C5C647269766572735C7065726970686572616C5C7363625C63795F7363625F636F6D6D6F6E2E6800000044
:4055400047656E6572617465645F536F757263655C50536F43365C70646C5C647269766572735C7065726970686572616C5C7363625C63795F7363625F6932632E63000015
:4055800047656E6572617465645F536F757263655C50536F43365C70646C5C647269766572735C7065726970686572616C5C7363625C63795F7363625F6932632E680000D0
:4055C00047656E6572617465645F536F757263655C50536F43365C70646C5C647269766572735C7065726970686572616C5C7363625C63795F7363625F756172742E6800D2
:4056000047656E6572617465645F536F757263655C50536F43365C70646C5C647269766572735C7065726970686572616C5C7363625C63795F7363625F756172742E630096
:4056400047656E6572617465645F536F757263655C50536F43365C70646C5C647269766572735C7065726970686572616C5C737973696E745C63795F737973696E742E638D
:40568000000000000000204000002440000000400000000000002340000030400000314000009F40000022400000104002020202020202020210101D800017007500FF03B4
:4056C0000602063604102000000000007FC0000000040000000000000019324B647D00804000080B100000000000FF012002001F00800004FF081018001000140018001C49
:405700004044484C50000000081000000800000004000000041000000012000004210000002100000016000040114002C41300138013A013200000001C00000000002140FB
:4057400000002540000001400000344000002440000031400000324000001F410000234000001140010101010101010101101010800019005500F0000501053B04101C0126
:40578000010000000FC000000004000001010101011D3A57789600082000101208000000001F00000010000F002000023F06080E00080009000A000B24282C303400000045
:4057C000100000009000000088000000080000008000000004F0000000F00000400200002005A000D00100018001A001200000001000000049444C4500000000546D725148
:4058000000000000546D72205376630047656E6572617465645F536F757263655C50536F43365C70646C5C72746F735C4672656552544F535C31302E302E315C536F75723E
:4058400063655C706F727461626C655C4743435C434D34465C706F72742E6300000000000C0000000800000000020000000000000000000000000000000000000000000054
:4058800000000000000000000B0000000000000000000000000000000000000043000000B0420208000000000000000000000000000000000000000000000000000000009E
:4058C00000000000000000000000000000000000000000000000000000000000000000000000000000000000000000000000000000000000000000000000000000000000A8
:40590000000000000000000000000810004002088C020000285908108C4202082C0600004C490208902C00000048E80100127A0000093D0000127A0000127A000800000056
:40594000401F00000000A00FAAAAAAAA00000000A4580810C4580810E4580810000000000000000000000000000000009C58081000000000000000000000000000000000C9
:405980000000000000000000000000000000000000000000000000000000000000000000000000000000000000000000B0420208B10208108D0208100000000080B2C10086
:4059C00050B3164B1B681A6AB3F8B030C3EBC303D358002BF5DA3E22114B1A6041F61E7204331A60A3F584730622C3F8182521F07F41C3F81C15D3F81C35084B1A68116A92
:405A0000B2F8B030C3EBC3030B4400225A60054BD3F81C35002BFADA704700BF4C7502080401264000002640F8B5274B1B6893F83130052B04D840F2C311244800F07AFA50
:405A4000214F3A68166AB2F8B03003EB83031E4452684FF26003D458A4B200F043FA05463B681968D3F890208A58013C032C27D8032A0CD1164A127812F0FF0F07D10822EA
:405A8000B2601968D3F890208A58032AF9D01968D3F884208B588858C0F307221B0E581C02FB00000B4B03FB00F00B4B1B680B4AA2FB03239B09B0FBF3F08230FFF77EFF4B
:405AC000284600F01FFAF8BD4C750208FC5308100B00001640420F0090420208D34D62104378FF2B23D110B500F0FCF90446104B1B6893F83130042B04D840F2C3110D482B
:405B000000F018FA0A4B1A68136AB2F8B02003EB8203DB685A68136843F001031360136813F0010FFBD1204600F0ECF910BD70474C750208FC5308102DE9F0470746884645
:405B4000554B1B6893F83130012B04D840F2C311524800F0EFF9504B1B681C6AB3F8B0201444D3F8B420161993F85030002B79D04B4B1B7813F0FF0F02D04FF0000901E09D
:405B80004FF00109B9F1000F38D0434B1B6893F83130052B04D840F2C311404800F0CAF93D4B1A68116AB2F8B03003EB83030B44D2F8B420D358002B22DB002000F08AF93B
:405BC000384B98421ED00023374A12690121184600F090F918B1354D17E0013500E00025002000F077F92F4B984202D0304B9D42F3D92F4B9D4207D92C4D06E0002504E058
:405C00002A4D02E0294D00E00025002D41D100F069F98246274BD3F81C35002B10DA224A0121204600F076F960B94046FFF7C6FE57B13368002BFCDB00F084F9054604E0A7
:405C40001A4D02E0194D00E01B4DB9F1000F05D00121002000F066F90028F9D1504600F051F916E000F03EF980460F4A0121204600F050F938B947B13368002BFCDB00F0D9
:405C800061F9054602E0094D00E00B4D404600F039F92846BDE8F0874C750208FC5308100B00001601018800144B020805005200EF4902000000264001005000F0B47F4BA1
:405CC0001A6855684FF0B0535B7813F0FF0F04D04FF0B0535B78DBB200E02123212B55D1116AB2F8B030C3EBC303CC18CB58002BF6DAE36843F00103E360146AB2F8B030EB
:405D0000C3EBC3031C44E36813F0020F2DD0E3689EB21368D2F884105958090A090401F47F01D2F88870DB591B0A41EA03633343E3601168D2F884208B5823F47F4343F43A
:405D400010638B505D4A13681C68D3F88810635823F47F4343F41063635013681A68D3F884105158D3F88830D358544B1A68116AB2F8B030C3EBC3030B4400215960116AEA
:405D8000B2F8B030C3EBC3030B445B684B4B19680C68D1F894301C44494A136943F004031361012801D030BF07E020BF454B1B7803B120BF0122434B1A70236803F003037A
:405DC000022BE9D00A6AB1F8B030C3EBC303D018D358002BF6DA4FF0B0535B7813F0FF0F04D04FF0B0535B78DBB200E02123212B30D1C36813F0020F1FD00C68D1F8841032
:405E0000635823F47F42C3681B0C1B0203F47F4313436350294B19680C68D1F88800235823F47F420D6AB1F8B030C3EBC3032B44DB681B0E42EA03232350204B1A68136A13
:405E4000B2F8B020C2EBC2021344DA6822F00102DA6026E0D5F80C311BBB1B490E681B4BD3F818451A4A106841F61E770F600621C3F818153E2111604422C3F81C25134B4B
:405E8000D3F81C35002BFADA4FF0AA33C5F80C310D4B1E60A3F58473C3F8184503F582731860064B1A68116AB2F8B030C3EBC3030B4400225A60F0BC704700BF4C7502086B
:405EC00000ED00E03C4B020808012640000026400401264001B40248844601BC604700BFD113081001B40248844601BC604700BF3B32081001B40248844601BC604700BFBF
:405F0000A515081001B40248844601BC604700BF4332081001B40248844601BC604700BFC511081001B40248844601BC604700BF4913081001B40248844601BC604700BFF0
:405F40006531081001B40248844601BC604700BF9D1008100000000000000000000000000000000000000000000000000000000000000000000000000000000000000000C2
:405F800000000000000000000000000000000000000000000000000000000000000000000000000000000000000000000000000000000000000000000000000000000000E1
:405FC00000000000000000000000000000000000000000000000000000000000000000000000000000000000000000000000000000000000000000000000000000000000A1
:0200000490303A
:020000006ED9B7
:0200000490501A
:0C0000000005E20721002101E22B8FD94E
:00000001FF