:020000041000EA
:4000000000400208230100100D00000085010010000000000000000000000000000000000000000000000000000000008101001000000000000000008101001081010010E9
:400040008101001081010010810100108101001081010010810100108101001081010010810100108101001081010010810100108101001081010010810100108101001060
:400080008101001081010010810100108101001081010010810100108101001081010010810100108101001081010010810100108101001081010010810100108101001020
:4000C00010B5064C2378002B07D1054B002B02D0044800E000BF0123237010BD3C06000800000000E4210010084B10B5002B03D00749084800E000BF07480368002B00D125
:4001000010BD064B002BFBD09847F9E70000000040060008E4210010E8000008000000007047FFF7FDFF72B60F4C104DAC4209DA21686268A368043B02DBC858D050FAE7A4
:400140000C34F3E70A490B4A0020521A02DD043A8850FCDC084809490860BFF34F8F00F005F900F01DF8FEE7E8210010002200103C060008140800080000000808ED00E05C
:40018000FEE7FEE700B504207146084202D0EFF3098001E0EFF30880043001F0F5F9FEE710B562B6014800F067F9FEE70000081010B5002000F064FF10BDC04670B56249CD
:4001C000E0239B00CB580F2213401A00D0329200525807210A40032A05D0042A06D0002A12D15A4814E05A4A106811E01A00C0329200554952581F210A40112A06D0132A7C
:4002000004D0FA20C00103E0524801E080200002002B36D14C4BB222D2009A5801211140B125ED005A59120F032422405B591B0F1C4207D0444C63591B0F03242340012BDC
:4002400002D102E0012300E00023002B01D0002901D1032A4BD13C4BB022D2009D58AD03AD0B3D495958C904C90C9C58240E01231C40013401F090FC6843210001F08CFC64
:4002800035E0012B33D1304BC822D2009A5801251540C024E4001A59120F03210A401B591B0F194207D028490B591B0F03210B40012B02D102E0012300E00023002B01D049
:4002C000002D01D1032A12D11F4DC022D200AB587F210B40A958090A1F263140AC58240C3440584301F058FC210001F055FCE0239B00154AD3581B0903221340D840144CF0
:400300006060164B1D692D0AFC32154001351969090E013101F040FCA060290001F03CFC0500E06020610E4BC0180E4901F034FC20750D4BE818FA21890001F02DFCA061C1
:40034000C003E06170BDC0460000264000127A00C000000800366E0184050000000021403F420F0040420F00E703000010B5284801F00CFC274CB022D200A3585B005B08F4
:40038000A350E0218900635830208343635080235B04A350204A214BE250A02292010433E250FF221E4BE25001F0DEFBC0225200A35801218B43A35000F0BEF9FFF7FEFE50
:4003C000B0235B055B78002B04D0B0235B055B78DBB200E02123212B03D1124B0022DA605A60114C22008021042000F0EFFB2000103000F083FC0D4B1A685123D35C002B19
:4004000002D00B4800F0F0FC00F0B8FA10BDC0462C2100100000264001000200840500008C050000E00023405806000810080008001D00108023024AD35803201840704724
:400440000000214010B501F030F9084980228C58074B2340074C23438B508823034AD358DB06FAD501F025F910BDC04600002140FCFF00000100FA0570B50500830504D085
:40048000E821FF310F4801F051F801F00EF90400FFF7D0FF032801D1FFF7D4FF0A4AB0239B00D55080215058084B03400848034353508823044AD358DB06FAD5200001F007
:4004C000F8F870BD341D001000002140FCFF00000300FA05FEE7C04630B587B08649A022D2008B58032083438B50844A116808688823CB58C318186881490840186013682A
:40050000186884241B59C01803681B021B0A80256D042B430360106805680359EB1818680140196013683E229A5C002A06D07248E02189004258753CA24342503E229A5C08
:40054000002A06D06C48E021890042583024A24342503E229B5C002B07D06749E02292008B588020000603438B500021012000F0B9FD0021022000F0B5FD0021032000F090
:40058000B1FD0021042000F0ADFD0021002000F0A9FD01A85B4903000A0032CA32C312CA12C300F0CDFD002802D00420FFF792FF5149554A8B588020000603438B505348FE
:4005C00000F07AFE002802D00420FFF783FF4A4C4F4BE1584F4A0A40E250E1584E4A0A40E250E25880252D062A43E250043BE1584A4A0A40E250E158494A0A4080218901B8
:400600000A43E250E258802109020A43E250454A1168454B0B40802149000B431360002001F084FA414BE2581543E550E158012291430A43E2506421002000F0BDFF2F4BEC
:400640001B683F229A5C032A03D90021384A986881509A6874215B5AD2181168284B0B40F82149010B431360244B1B687322995C703A8A40110070229A5C7220185C824041
:400680000A43802109060A438021C900986842509A6852583F229A5C052A06D970229A5C01210A402349986842509A6874215B5AD2185168124B0B408C2189010B43536022
:4006C0000E4B1A687323D35C032199407023D35C7220105C1C0084402143012003400B43802109060B438021C9009068435093685B5807B030BDC0460000264010080008D6
:40070000FF00FFFF4C1D0010087F0000400D030004050000FEFCFFFFFFFF00FFFFF0FFFFFF8FFFFF00002740FFFCFFFF0C0500000C0C0000140C000070B58AB09621002016
:4007400000F03AFF00F010FF002814D100F0FCFEC0235B00274AD358DB0705D41100264A8B585B005B088B502249234A8B588020000603438B50012001F070F91F4A516CA5
:400780001F4B0B40E82189010B435364536C1B0AFF2213403A2B07D1184A516C194B0B40E82189010B435364FFF796FE0F22164B1A60164A164B1A6001AD164C2A002300C3
:4007C000143343CB43C243CB43C243CB43C22900114800F0DBF82A002300383313CB13C213CB13C213CB13C229000C4800F0CEF80AB070BD000026400C050000000027406B
:40080000FF00FFFFFFC5FFDF0000644007010100000264404C1D00108002324000033240214B984230D00ED8402831D004D800281FD010282AD031E080282BD080235B0078
:40084000984229D02AE0194B984229D007D8A0231B0698420DD0164B984212D01EE0154B98420AD0144B984209D0144B984215D101E0002016E0124814E0124812E012489F
:4008800010E0A020C0030DE007480BE00F4809E00F4807E00F4805E0034803E00E4801E0A420C0037047C04606005200010000F0090000A0040000F0050000F0030000F06D
:4008C000010052000200520003005200010050000200500005005200FF00520070B5124B1A683123D35C002B04D1C421FF310F4800F01CFE0C4B1D682C00B423EB582A6AFE
:40090000944663441B68002B0BDB094B1868FFF787FF6B6801229A6063689B68002BFBD100E0044870BDC04610080008A81D0010E80700080200500010B50D4B1861002842
:4009400005D002230370FD33437000234380094B1B6850229A5C002A08D051229B5C002B04D04F3A0449002000F0F8FA10BDC046E8070008100800086101000810B502485C
:400980001430FFF7D9FF10BDE807000870B505000C0000285DD000295DD0FF230A689A4303D099212D4800F0C1FDFF2322699A4303D09A21294800F0B9FDA3685B0D03D0EA
:4009C0009B21264800F0B2FD63685B0A03D09C21224800F0ABFDE3695B0F03D09D211F4800F0A4FD236A5B0F03D09E211B4800F09DFD1B4A11688B69EB1ADB0949691B012E
:400A0000CB18216829607D211068415C6918E06808607E211068415C6918206908607F211068415C6918606908607C211068415C6918A06808606168A961116880228A5CD9
:400A4000AD18A2692A60E2691A60226A5A60002002E0044800E0034870BDC046E81D00101008000801005A0070B504000D000A4B1A68B423D3581B181B68002B0ADA0B0CEA
:400A800003D00649064800F051FD2D042D0C6560002000E0034870BD10080008D5020000681E001001008A0070B505000C000368002B01DA002300E0084B002B0BD1EA607B
:400AC000230C03D00649074800F030FD2404240CAC60002000E0014870BDC04601008A00BB020000681E001070B505000C1E03D19921084800F01AFD074B1A68B423D3586C
:400B00005B191B68002B03DAEB682360002000E0024870BDA81E00101008000801008A0070B504000D00234B1A683123D35C834236D9002936D00B68DB0635D13123D35C5F
:400B4000984204D3C421FF311B4800F0EFFC194B1B681A6AB0215B5A5C431419174E34602B68DA080021686801F0A2F800212000FFF77AFF3468002D03D111490E4800F0DD
:400B8000D5FC2A0000212000FFF78EFF00280DD10A4B18680021FFF767FF002808D108E0084806E0074804E0064802E0064800E0054870BD10080008681E0010000800082E
:400BC0009303000003018A0001018A0010B50400002A17D1002915D1124B1A683123D35C984204D3C421FF310F4800F09FFC0D4B1B681A6AB0215B5A5C4314190B4B1C60CE
:400C000000200EE0002A09D0002909D0074B59609A60191D2000FFF783FF02E0044800E0034810BD10080008681E00100008000803018A00F0B583B00D001C4B1B68DC6841
:400C4000236883422DD947097B01C01A012383401E00002903D100F028FD019001E000230193124B18680368002B01DA002300E00F4B002B0ED16368BF00DF193B683342E9
:400C800003D0B3433B60002400E00A4C0021FFF7EBFE00E0084C002D04D1019800F009FD00E0064C200003B0F0BDC0460008000801008A00020188000301880004018A00B8
:400CC0000A4B1B68DA68136883420BD943095901401A0121814052689B009B580B4203D0034802E0034800E003487047000800080101880004018A0000018800034B1B688E
:400D0000002B01D1014B18607047C0460C080008F0B5474680B404000F0090461E002D4B1B68002B03D1B5212B4800F0FFFB294B1B682C2060431C18FF2215003540256035
:400D4000330A13406360360CA660244B1A683123D35C9D4204D3C421FF31214800F0E6FB1E4B1A68B023D35A6B43116A8C466344236166683223D35C9E4204D3E021FF3114
:400D8000174800F0D3FB154B1B681D6A80367601AD196561A668330C04D0FF214900104800F0C4FB330C03D00E490D4800F0BEFB3604330C1E43AE604346E361276200239A
:400DC000A361069B002B02D000229B5EA38104BC9046F0BD0C080008E81E001010080008681E0010FF010000F0B58FB0041E03D15221294800F09AFB6368032B03D954215A
:400E0000254800F093FBE36A002B03D15821224800F08CFB236B002B03D159211E4800F085FB07AA1300210061C961C321C921C302AD290023001433C1CBC1C141CB41C1E5
:400E40000821535E0CAE3380144B1B6836215B5E07998C466344B370089B0D930B9B0A980096A26AE16AFFF753FF2B69E868002200920021FFF74CFF216B300000F0E8FAB5
:400E80000023F25E002A05DB1F231A401E3B9340034A13600FB0F0BDE81E00101008000800E100E0F8B505000F0016001C00002A03D1FD21224800F039FB224B1B68002B12
:400EC00003D1FE211E4800F031FB1E4B1B682C2128004843181879435918012213004D68AB401B044568AA4015000269002A20D08F69002F1FD11268002A01DA002200E076
:400F0000114A002A19D132681204120C134333600369DE6001238B614C6204692B0C03D00A490B4800F002FB2A04120CA260002004E0084802E0084800E00748F8BDC0465B
:400F4000E81E00100C08000801008A00BB020000681E001004028A0007028A0070B504000D0016000F4B1B68002B04D1AF2149000D4800F0DBFA0B4B1B682C2060431C18E6
:400F8000236A002B04D1B1214900074800F0CEFAE369B34204D9236AB6009D51002000E0024870BD0C080008E81E00100A028A0070B582B0040000230193002804D1D221F2
:400FC000FF312D4800F0B2FA2369002B04D1E9214900294800F0AAFA6369002B04D1D421FF31254800F0A2FA236A002B04D1EA214900214800F09AFA6269D5682B0C24D0E1
:401000001B041360136820691C4B1A68B423D358C3181B68002B18DA01A9FFF765FD00280ED1019803681E0CFF221340E269934207D29B00226AD358002B02D0984700E002
:40104000002631002069FFF70FFD2D042D0C0FD063691D601B68636A002B03D098470023636203E0A36A002B00D098470023A36163691B6802B070BDE81E00101008000892
:4010800010B50400084B1B68002B04D1B221FF31064800F04BFA044B1B682C2060431818FFF786FF10BDC0460C080008E81E001010B50400094B1B689B6CC340DB0703D437
:4010C000BE21074800F032FA044B1B681B691034A402E3580F20184010BDC04610080008281F0010134B1A683C23D35C83421DD9042904D94B1EFF3B9BB2132B18D8FF29E1
:401100000CD91F2319400C4A0300C0339B009950D03080000423835000200AE007231940D0308000044BC150002002E0034800E002487047100800080000264001004A0079
:4011400070B5041E03D14A494A4800F0EFF9B023DB00494AD358002B00DA87E0474B22689A4203D94649434800F0E0F923689B039B0BE279002A02D08022520400E00022A8
:401180001343B022D2003C498B50A2883D4B9A4204D98C218900374800F0C8F922893A4B9A4203D93949334800F0C0F9A388DB04D90C23891B04364A13400B43354A2E49A5
:4011C0008B50A37A0F2B04D98E218900294800F0ADF9E37A0F2B03D92F49264800F0A6F9A289284B9A4203D92C49224800F09EF9A37A0F211940E27A1201FF2313400B4325
:40120000A289120226490A401343A27B1207C02189050A401343B122D20017498B50A379042B03D91F49134800F080F9228A164B9A4204D9912189000E4800F077F90E48DB
:4012400019494558194B1D40A3791B02E022D20013402B4343504558154B1D40238A1B040B4A13402B434350002000E0114870BD1F020000681F001000002640FFFF0300D9
:4012800029020000FF1F0000FF010000310200000000FF0184050000390200003A02000000FF1F00430200008C050000FFF8FFFFFFFF00FE03004A0070B505003149324A60
:4012C0008B588020000603438B502C0003E0012000F020F9013CB223DB002A4AD3585B0701D4002CF3D12749B122D2008858274B03408020800503438B50002D01D0002C3E
:401300000CD02049B022D2008B588020000603438B5003E0012000F0FDF8013CB223DB00184AD358DB0701D4002CF3D1002D01D0002C08D01349B122D2008B58C0208005C5
:4013400003438B5013E00F4BB121C90058580F4A02408020800502435A5008395A58520052085A5008495A58520052085A50002D03D0002C03D0002002E0002000E0044816
:4013800070BDC046000026408C050000FFFFFFCF02004A0070B505000C001A4B1B6828229A5C012A15D1820807211000884327D19200AD1AED00FF20A8401B6820339A1822
:4013C0001168AC4023004B40184004004C40146016E03A229B5EDBB2994203D176210A4800F0A4F8074B1B681B68072215408022120615438022920194466444A400E5500A
:4014000070BDC04610080008F01F001070B504000D000B4B9A680B4B9A420CD1002904D13821FF31084800F081F81034054BA400E058E55003E01034A400044BE05870BD39
:4014400000ED00E000000008F01F001000000010F0B5474680B482B0061E01914AD04368032B03D93221264800F060F80023F05E002804DBB178FFF78DFF002400E0214CAE
:401480000023F15E7368002912DB88081E4FC0308000C55903221140C900FC3290468A4095439A01434613408B402B43C35116E089B20F220A40083A9208063292001348E8
:4014C0001018476803221140C900FF252A008A4097439A012B0013408B403B4343600B4B9A680B4B9A4206D10023F05E0199FFF78DFF00E0034C200002B004BC9046F0BDAD
:40150000F01F00100100560000E100E000ED00E00000000810B5034B1B78584300F0BCF810BDC046D400000801BEFEE770B50D00044C18220100200000F0C2FBA5610020B7
:40154000FFF7F2FF00060008054B802212069A649B6C002B01DB002000E002487047C0460000274003004600054B8022120198585B68FF221A4202D08023DB021843704710
:4015800000002640FEE7C04610B50A4B0268DA6142681A6282685A62C2689A620269DA6242691A6382695A63C2699A63FFF7EAFF10BDC04600060008F0B5474680B400283C
:4015C00001D0192300E064238B429B415B42304D2C682268A826A45BA41822680327BA433B401A4322602C682268A45BA2181668284CA046264016602C682668AA229446AF
:40160000A25A96193268BA43134333602A6813686546525BD3181A68444614401C60002805D010291BD921291BD8012024E0184B1B6855229A5C914215D956229A5C914272
:4016400013D957229A5C914211D958229A5C91420FD959229B5C99420DD804200CE000200AE0022008E0002006E0012004E0022002E0032000E00520054A1268526813689C
:401680000F218B430343136004BC9046F0BDC04610080008FFFCFFFF0230800803D001300238FCD1C046C0467047EFF3108072B6704780F31088704710B5B0235B059B895A
:4016C0009BB2002B04D0B0235B059B899BB201E080235B0080225200934215D1184C23681968683A9B58C9180B680F208343963A13430B6021680C689C23CB58E318196832
:4017000081430A431A6019E00D4C2368196898229B58C918B02040050A4BC2580A4B13400A681343C022920013430B60226811689C23D358CB18054A82581A6010BDC046C3
:401740001008000848180000FFFCFFFF4418000030B5B0235B059B899BB2002B04D0B0235B059B899BB201E080235B0080225200934215D1184C23681968683A9B58C918F4
:401780000B680F208343953A13430B6021680C689C23CB58E318196881430A431A6019E00D4D2B68196898229B58C918B0246405C12040012258094B13400A681343C0222C
:4017C000920013430B602A6811689C23D358CB1822581A6030BDC04610080008FFFCFFFFB0235B059B899BB2002B04D0B0235B059B899BB201E080235B00802252009342CF
:401800000DD1104B1B681A6898215B58D21811680D4B0B40C021C9010B43136011E0094B1B68196898229B58C918084BB0225205D258074B13400A681343C02292001343D8
:401840000B60704710080008FF8FFFFF18180000FFFCFFFF30B5B0235B059B899BB2002B04D0B0235B059B899BB201E080235B008022520093420DD1134B1B681A689821A3
:401880005B58D2181168114B0B408021C9010B43136018E00C4D2B68196898229B58C918B02464050A4822580A4B13400A681343C022920013430B602A6811689C23D358A9
:4018C000CB1822581A6030BD10080008FF8FFFFF4C180000FFFCFFFF10B5B0235B059B899BB2002B04D0B0235B059B899BB201E080235B0080225200934217D10020FFF769
:40190000D7FBB0235B055B78002B04D0B0235B055B78DBB200E02123222B03D8002803D1013004E0012002E0002000E0012010BDF8B50700012803D93D493E48FFF7F6FD41
:40194000B0235B055B78002B04D0B0235B055B78DBB200E021239DB2B0235B059B899BB2002B04D0B0235B059E89B6B201E0802676000020FFF79CFB002814D180235B0042
:401980009E4212D1222D12D82B4B1B685C682B4821582B4B19403B068022520413400B432350002404E0274C02E0264C00E0254C80235B009E4201D1222D03D880235B006E
:4019C0009E4232D01C4B1A683123D35C002B04D1C421FF311C48FFF7A9FD174B1B681D6A80235B009E4203D1002F05D0174A06E0002F03D0164A02E0164A00E0164A012115
:401A00002800FFF751F800280FD10B4B1A68B423D3585B191B68002BF7DBEB681B0E1B06A0221206934200D100242000F8BDC0464C0A0000342000101008000818F000006B
:401A4000FFFFFFFE04004200A81D0010010100300300000C010000300100000CF8B50500012804D9822109012948FFF75FFDFFF733FF002849D0FFF718FE0700002D11D11E
:401A80000021244B244AD150E823DB00B0225205D65CF6B20120FFF74BFF041E19D1FFF70BFE16E0B02252051C4BD0581A4B194958501B49565CF6B21A481A581F218A43F6
:401AC00014390A431A500320FFF724FDFFF7C2FE0024002C15D11049124A8B581F20834306401E438E50002D02D1FFF779FE08E00720FFF70FFDFFF72BFE0020FFF718FFD0
:401B000004003800FFF7D5FD00E0074C2000F8BD34200010307F00000000264010180000410700001CFF000003004200042805D10B4A116804230B4313600FE0094B1A68D3
:401B40001168A023D358CB180006C022920410401860034A136804218B4313607047C04610E000E0100800080749C02252008B589B009B088020C00503438B508B5880204C
:401B8000000603438B50704700002640014B18607047C04610080008002243088B4274D303098B425FD3030A8B4244D3030B8B4228D3030C8B420DD3FF22090212BA030C2A
:401BC0008B4202D31212090265D0030B8B4219D300E0090AC30B8B4201D3CB03C01A5241830B8B4201D38B03C01A5241430B8B4201D34B03C01A5241030B8B4201D30B03EA
:401C0000C01A5241C30A8B4201D3CB02C01A5241830A8B4201D38B02C01A5241430A8B4201D34B02C01A5241030A8B4201D30B02C01A5241CDD2C3098B4201D3CB01C01AE5
:401C4000524183098B4201D38B01C01A524143098B4201D34B01C01A524103098B4201D30B01C01A5241C3088B4201D3CB00C01A524183088B4201D38B00C01A52414308CC
:401C80008B4201D34B00C01A5241411A00D20146524110467047FFE701B5002000F006F802BDC0460029F7D076E770477047C04603008218934202D019700133FAE77047EE
:401CC000030030B5002A0DD00C7801335D1E013A2C700131002CF5D19A189A4202D01C700133FAE730BD0000F8B5C046F8BC08BC9E467047F8B5C046F8BC08BC9E4670474D
:401D00000300000001000000010000000000000005036000040000000100000000000000010000000604600008000000C8070008B101001073797374656D5F70736F633636
:401D40005F636D30706C75732E630000F4010000140004010A000905080000006301000003000000000000000000000068000000000000000000000000000000121200008E
:401D800000000000030000000000000000000000CC0000BA0000000000000000000000001313000000001D1D47656E6572617465645F536F757263655C50536F43365C7028
:401DC000646C5C647269766572732F7065726970686572616C2F6970632F63795F6970635F6472762E68000047656E6572617465645F536F757263655C50536F43365C70F9
:401E0000646C5C647269766572735C7065726970686572616C5C6770696F5C63795F6770696F2E630000000047656E6572617465645F536F757263655C50536F43365C70FB
:401E4000646C5C647269766572735C7065726970686572616C5C6770696F5C63795F6770696F2E680000000047656E6572617465645F536F757263655C50536F43365C70B6
:401E8000646C5C647269766572735C7065726970686572616C5C6970635C63795F6970635F6472762E68000047656E6572617465645F536F757263655C50536F43365C70B1
:401EC000646C5C647269766572735C7065726970686572616C5C6970635C63795F6970635F6472762E63000047656E6572617465645F536F757263655C50536F43365C7076
:401F0000646C5C647269766572735C7065726970686572616C5C6970635C63795F6970635F706970652E630047656E6572617465645F536F757263655C50536F43365C70D3
:401F4000646C5C647269766572735C7065726970686572616C5C70726F745C63795F70726F742E630000000047656E6572617465645F536F757263655C50536F43365C708E
:401F8000646C5C647269766572735C7065726970686572616C5C737973636C6B5C63795F737973636C6B2E630000000047656E6572617465645F536F757263655C50536FEB
:401FC00043365C70646C5C647269766572735C7065726970686572616C5C737973636C6B5C63795F737973636C6B2E680000000047656E6572617465645F536F75726365CF
:402000005C50536F43365C70646C5C647269766572735C7065726970686572616C5C737973696E745C63795F737973696E742E630000000047656E6572617465645F536FB2
:40204000757263655C50536F43365C70646C5C647269766572735C7065726970686572616C5C737973706D5C63795F737973706D2E6300000000204000002440000000404B
:402080000000000000002340000030400000314000009F40000022400000104002020202020202020210101D800017007500FF030602063604102000000000007FC0000037
:4020C00000040000000000000019324B647D00804000080B100000000000FF012002001F00800004FF081018001000140018001C4044484C500000000810000008000000AE
:4021000004000000041000000012000004210000002100000016000040114002C41300138013A013200000001C00000000002140000025400000014000003440000024403B
:40214000000031400000324000001F410000234000001140010101010101010101101010800019005500F0000501053B04101C01010000000FC00000000400000101010102
:40218000011D3A57789600082000101208000000001F00000010000F002000023F06080E00080009000A000B24282C30340000001000000090000000880000000800000023
:4021C0008000000004F0000000F00000400200002005A000D00100018001A0012000000010000000000000000000001000000008C000000008220010C00000084005000031
:402200003C060008D80100000048E80100127A0000093D0000093D0000093D0004000000A00F00000000D007E9000010C10000100000000010B50004400B27D0144B1A68AC
:40224000146AB023D15ACA00531AE3181B68002BF4DA3E220F4B1A600F4A104B1A60104B0621A322D20099500E4A98509B58084B1A68106AB023D15ACA00531AC31800221C
:402280005A60084B064AD358002BFADA10BDC04610080008040126401E1F000008012640000026401C05000010B54378FF2B20D100F01AFA04000F4B1A683123D35C042BD5
:4022C00004D8C421FF310C4800F026FA094B1A68116AB023D35A9B00CB18DB685A68116801230B4313601368DB07FCD4200000F003FA10BD10080008A81D0010F0B585B081
:4023000001900291544B1A683123D35C002B04D1C421FF31514800F0FFF94F4B1B681E6AB4229A58971950229B5C002B77D000F0D3F9050003283CD1474B1A683123D35CB7
:40234000062B04D8C421FF31444800F0E5F9424B1968B023CB5A5A00D21853000A6A94466344B4228A58D3181B68002B23DB002000F0A2F93A4B98421FD03A4B1A690023DC
:402380000021012000F0A0F9002803D0364C17E0013400E00024002000F08EF9304B984202D0324B9C42F3D9304B9C4207D92E4C06E0002404E02C4C02E02B4C00E000244A
:4023C000002C46D100F090F90390294B294AD358002B13DA234A0121300000F0A5F900280ED10298FFF726FF019B002B0AD03B68002BFCDB00F0A0F9040004E01A4C02E05C
:40240000194C00E01C4C032D05D10121002000F07BF90028F9D1039800F06EF919E000F063F905000F4A0121300000F07DF9002809D1019B002B08D03B68002BFCDB00F0CE
:402440007BF9040002E0084C00E00B4C280000F053F9200005B0F0BD10080008A81D001001018800E807000805005200EF4902001C0500000000264001005000F0B54F4678
:402480004646C0B4824B1A685468B0235B055B78002B04D0B0235B055B78DBB200E02123212B67D1B023D15ACB005B1A116A8C46634419680029F5DADD6802212943D96019
:4024C000B023D15ACB005B1A116A8C466344D968C9073ED5D9680904090C8C4684271168D559A84641440968090A0904FF26360431400D0088261168894691598846C1446B
:4025000049460968090A0906294365462943D9601168D359C9180A685E4B98461A4090252D012A430A605A4B99461A6813689C46925962441368414619400B002B431360EF
:402540004B461A681568D15969180B689359EB181B684F4B1A68B021555AEB005B1B156AAC46634400255D60156A515ACA00531AEB185B68484A116904230B4313610128FF
:4025800001D030BF00E020BF414B1A68B023D15ACB005B1A116A8C46634419680029F3DAB02149054978002904D0B02149054978C9B200E02121212932D1D968C90722D536
:4025C00010688421525880180468324A1440DB681B0C1B02FF2109020B40234303602C4B19688823C8580B689C46604403681A400D6AB023CC5AE1000B1BEB18DB681B0E13
:402600001B021A430260224B1A68106AB023D15ACA00531AC318DA6802218A43DA6028E086235B00E358002B23D11C4807681C4BA321C9005E581B4A904615681A4A026078
:40264000062058503E21424611600631174A9950164B134AD358002BFADA154A86235B00E2500E4B1F60A323DB000D4AD6500D4B1D60074B1A68106AB023D15ACA00531AE8
:40268000C31800225A600CBC90469946F0BDC04610080008FF00FFFF00ED00E00801264000002640040126401E1F00001C050000AAAAAAAA0000000001B40248844601BC7D
:4026C000604700BFC10C001001B40248844601BC604700BFA50E001001B40248844601BC604700BF3504001001B40248844601BC604700BFAB16001001B40248844601BC70
:40270000604700BFB316001001B40248844601BC604700BF350C001001B40248844601BC604700BF2D15001001B40248844601BC604700BFA90A001001B40248844601BCAA
:40274000604700BFDD0800100000000000000000000000000000000000000000000000000000000000000000000000000000000000000000000000000000000000000000FE
:402780000000000000000000000000000000000000000000000000000000000000000000000000000000000000000000000000000000000000000000000000000000000019
:4027C00000000000000000000000000000000000000000000000000000000000000000000000000000000000000000000000000000000000000000000000000000000000D9
:020000041008E2
:4000000000780408EB0208100D0000005103081051030810510308105103081000000000000000000000000000000000014608104D03081000000000A14608100547081050
:400040004D0308104D0308104D0308104D0308104D0308104D0308104D0308104D0308104D0308104D0308104D0308104D0308104D0308104D0308104D0308104D03081000
:400080004D0308104D0308104D0308104D0308104D0308104D0308104D0308104D0308104D0308104D0308104D0308104D0308104D0308104D0308104D0308104D030810C0
:4000C0004D0308104D0308104D0308104D0308104D0308104D0308104D0308104D0308104D0308104D0308104D0308104D0308104D0308104D0308104D0308104D03081080
:400100004D0308104D0308104D0308104D0308104D0308104D0308104D0308104D0308104D0308104D0308104D0308104D0308104D0308104D0308104D0308104D0308103F
:400140004D0308104D0308104D0308104D0308104D0308104D0308104D0308104D0308104D0308104D0308104D0308104D0308104D0308104D0308104D0308104D030810FF
:400180004D0308104D0308104D0308104D0308104D0308104D0308104D0308104D0308104D0308104D0308104D0308104D0308104D0308104D0308104D0308104D030810BF
:4001C0004D0308104D0308104D0308104D0308104D0308104D0308104D0308104D0308104D0308104D0308104D0308104D0308104D0308104D0308104D0308104D0308107F
:400200004D0308104D0308104D0308104D0308104D0308104D0308104D0308104D0308104D0308104D0308104D0308104D0308104D0308104D0308104D0308104D0308103E
:400240004D0308104D0308104D0308104D0308104D0308104D0308104D0308104D0308104D0308104D0308104D0308104D0308104D0308104D0308104D0308104D030810FE
:400280004D0308104D0308104D03081010B5054C237833B9044B13B10448AFF300800123237010BD4C4902080000000004590810084B10B51BB108490848AFF30080084859
:4002C000036803B910BD074B002BFBD0BDE81040184700BF0000000050490208045908101C430208000000007047FFF7FDFF72B6104C114DAC4209DA21686268A368043B35
:40030000A2BFC858D050FAE70C34F3E70B490C4A00209142BCBF41F8040BFAE709480A490860BFF34F8F00F0DFF900F0B9F900F0CBF8FEE708590810205908104C49020899
:40034000DC7502080040020808ED00E0FEE7FEE700B504207146084202D0EFF3098001E0EFF30880043002F00DFFFEE710B5642003F0AEFD104C114BE361114B2362114BA0
:40038000636268236370204600F036FD0C2262710323A3710023E3711121217162730422A273E37315232373204600F06BFD636A3220984710BD00BF684902084504081083
:4003C000E9030810D13E081000B585B000F0D4FDFFF7CCFF034B002201A9012000F074FDF8E700BF684902082DE9F04182B0884616461D46114C124F009700231A4601464C
:40040000204602F05DF83B4600224146204602F0C5F9002406E00A4B0022315D074802F0BDF90134AC42F6DB054A0021034802F029F9002002B0BDE8F08100BF00006440BB
:40044000007502082DE9F04383B08046894616461D461B4C1B4F009700231A460146204602F02EF83B4600224946204602F096F90097002301224146204602F099F80024F3
:4004800008E0104B00930023321919460C4802F02BF901346B1E9C42F3DB1A46084C094D0095002332440121204602F01DF92A460021204602F0E6F8002003B0BDE8F0834B
:4004C000000064400075020800B583B062B604F059FA084804F0F6FA00230193012200924FF4C8720449054803F07CFB03F0ACFBFEE700BF8053081098530810C903081061
:4005000008B5012001F026F908BD00BF704700BF5C4AD2F8803303F00F0303F1D00152F8212002F00702032A04D0042A05D092B9554914E0554A116811E003F1C002514926
:4005400051F8222002F01F02112A06D0132A04D04FF4FA4103E04E4901E04FF400418BBB484BD3F8902502F00100D3F88825C2F30172D3F8883513F0405F07D0414BD3F81A
:400580008835C3F30173012B02D102E0012300E0002303B108B9032A46D13A48D0F88025C2F31103D0F88425C2F30C02D0F88005C0F300600130B1FBF2F202FB03F2B2FBE7
:4005C000F0F131E0012B2FD12E4BD3F8402602F00100D3F80026C2F30172D3F8003613F0405F07D0274BD3F80036C3F30173012B02D102E0012300E0002303B108B9032A66
:4006000012D12048D0F8002602F07F02D0F80036C3F30423D0F80006C0F3044002FB01F2B2FBF3F2B2FBF0F1164BD3F88033C3F3011321FA03F215494A601648D0F89030B7
:40064000C3F3072301330069000E0130B2FBF0F08860B2FBF3F3CB600B6103F5742202F23F220D48A0FB0202C2F387420A7503F2E7330A4AA2FB03239B098B61DB03CB618B
:40068000704700BF0000264000127A008C42020800366E010000214083DE1B43D34D621008B50D4802F0D0FDFFF730FFFFF730FF00221146042000F015FE084800F0A8FE02
:4006C000074B1B6893F8513013B1064800F010FF00F052FD08BD00BF3C570810904902084C750208A453081008B502F0A6FD074AD2F8883043F47003C2F88830BFF34F8F0C
:40070000BFF36F8F02F09DFD08BD00BF00ED00E040B1C2694AB1026A52B1436A5BB94FF0FF3070474FF0FF3070474FF0FF3070474FF0FF3070470020704700BF0222C27164
:40074000082343711021017103218171C2734373142303730023837343688360C3680361704700BF4B790F2B0BD84A7A93420BD0027802F0F00203F00F03134303700020FC
:4007800070476FF00300704700207047CB79022B08D8CA7A934208D0037803F08F030370002070476FF0030070470020704700BF8B790C2B0BD88A7A93420BD0027802F019
:4007C000F00203F00F0313430370002070476FF003007047002070474B7B0D2B0BD84A7C93420BD0027802F0F00203F00F0313430370002070476FF0030070470020704728
:40080000CB7B022B09D8027802F0CF021B0103F0300313430370002070476FF0030070478B7B042B0BD88A7C93420BD0027802F0F80203F0070313430370002070476FF0FC
:40084000030070470020704738B593B11C46DD6995B19B78012B01D140F0800013460A4601466078A8470546636A0120984745B105E04FF0FF3504E04FF0FF3501E06FF053
:400880000105284638BD00BF38B504460D460B46022201464020FFF7D7FF034680B929462046FFF75FFF034650B929462046FFF76DFF034620B92946601CFFF779FF0346A6
:4008C000184638BD38B504460D460B46022201464220FFF7B9FF034680B929462046FFF77BFF034650B929462046FFF789FF034620B92946601CFFF793FF0346184638BDB2
:4009000000B583B002A9002301F8013D034601220220FFF799FF9DF80730C3F34303012B06D0022B07D0032B08D0072B0BD108E06FF0050007E06FF0060004E06FF00700EA
:4009400001E06FF0080003B05DF804FB30B585B005460C460023019302938DF80C301346821D01A91220FFF76FFF48BB02469DF805301B021BB29DF804100B4323809DF8FE
:4009800007301B021BB29DF806100B4363809DF809301B021BB29DF808100B43A380032D0BD19DF80A009DF80B309DF80C10090441EA03230343A36004E00023A36001E0A6
:4009C0006FF00102104605B030BD00BF10B584B00C4613460021009101910291CDF80B1010BB062269460C20FFF72EFF0146002846D19DF801301B021BB29DF80020134351
:400A000023809DF803301B021BB29DF80220134363809DF805301B021BB29DF804201343A3800023A36030E002460C3269460C20FFF70AFF014630BB9DF801301B021BB213
:400A40009DF80020134323809DF803301B021BB29DF80220134363809DF805301B021BB29DF804201343A3809DF80C009DF80D309DF80E20120442EA03230343A36004E075
:400A80006FF0010101E06FF00101084604B010BD70B584B006460D4614460022009201920292CDF80B2000F10C0269460C20FFF7CBFE002843D102469DF801301B021BB2DA
:400AC0009DF800100B4323809DF803301B021BB29DF802100B4363809DF805301B021BB29DF804100B43A3809DF807301B021BB29DF806100B432B809DF809301B021BB2F6
:400B00009DF808100B436B809DF80B301B021BB29DF80A100B43AB80032E0CD19DF80C009DF80D309DF80E10090441EA03230343AB60A36005E00023AB60A36001E06FF0B1
:400B40000102104604B070BD2DE9F843002B31D00546894690461E461C6A74B39B78012B01D100F07F05337A112B02D0337C152B19D143464A4629467078A0470746736A23
:400B80000120984714E0376A012309EB040229467078B84707460135EDB2736A012098470134E4B201E000242746A3B24345EAD347B105E04FF0FF3704E04FF0FF3701E0CA
:400BC0006FF001073846BDE8F88300BF10B582B0044602A8002320F8043D2146FFF754FE0346C8B92346012201A94020FFF7ACFF034688B963796372E379E372636A012040
:400C00009847234601220DF105014120FFF79CFF034608B9A279A272184602B010BD00BF10B582B0044602A8002320F8043D2146FFF748FE0346C8B92346012201A9422012
:400C4000FFF782FF034688B9637B6374E37BE374636A01209847234601220DF105014320FFF772FF034608B9A27BA274184602B010BD00BF30B583B004460D4600238DF8AC
:400C800007300B46012201464020FFF7DDFD034628BB2A79122A14D1237863F07F0323702B46012221464020FFF74EFF0346B0B92B4602220DF107015820FFF745FF034639
:400CC0000DE0227812F0800F09D002F07F0222702B46012221464020FFF736FF0346184603B030BD30B583B000238DF807300279A2F11003DBB2022B1AD8037A9A421AD02A
:400D0000044601460DF10700FFF7B4FF054698B923460122211D7E20FFF716FF0546237A102B02D1636A052098472379237203E06FF0030500E00025284603B030BD00BF51
:400D400038B5027BA2F11403DBB2012B01D9172A1DD1037C9A421DD004460346012200F10C017E20FFF7F0FE0546237C142B03D1636A5120984707E0172B05D1237B152B28
:400D800002D1636A0A209847237B237403E06FF0030500E00025284638BD00BF30B583B0B6238DF80730F0B10446436AF3B1034601220DF107017E20FFF7C6FE0546636A19
:400DC0000F20984755B9A378012B07D1234601220DF107017F20FFF737FD054645B92046FFF7ACFC04E04FF0FF3501E04FF0FF35284603B030BD00BF10B582B00446FFF761
:400E000087FC034648B9A278012A06D123460DF107017F20FFF718FD0346C3B9234601220DF106010020FFF70FFD58B99DF80630D12B0AD12370FF23E3702046FFF7AEFF74
:400E4000034604E06FF0020301E06FF00203184602B010BD60B1426A6AB110B50446FFF741FF034658B92046FFF76AFF034606E04FF0FF3301E04FF0FF331846704718461E
:400E800010BD00BFB0B1426ABAB110B50446FFF79DFE0346A8B92046FFF7C2FE034680B92046FFF7D7FF034658B92046FFF728FD034606E04FF0FF3301E04FF0FF331846E9
:400EC0007047184610BD00BF38B500F0030510F0040F01D1002000E00320B3B11446022D08D0032D0CD0012D12D1A1B11A46FFF72DFD38BD92B11A462146FFF767FD38BD62
:400F00007AB189B1FFF7C4FD38BD4FF0FF3038BD6FF0040038BD4FF0FF3038BD4FF0FF3038BD4FF0FF3038BD4FF0FF3038BD00BF10B504462146034800F04CFC0028F9D0B0
:400F400010BD00BF00006640054BD3F80833C3F30803002BF8D0024BD3F84003704700BF0000664008B50249024801F003FD08BD007502080000644010B5144B1B788BB998
:400F8000134C144A1449204601F0A4F8134A1449204601F0ADF91349134802F09DF801220A4B1A70104BB3F90030002B08DB590903F01F03012202FA03F30C4A42F821307B
:400FC000034A136843F00043136010BD104B02080000644000750208E853081084D71700A0860100650F0810E053081000E100E01F4B98422DD00CD840282ED003D8E8B168
:40100000102828D02FE0802829D0B0F5807F28D029E0184B984228D006D8B0F1204F0DD0154B984212D01EE0144B98420AD00133984209D0023B984215D101E00020704762
:401040000F4870470F4870470F4870474FF4A0007047074870470D4870470D4870470D487047034870470C4870474FF4A400704706005200010000F0090000A0040000F0F1
:40108000010052000200520003005200010050000200500005005200FF00520038B5124B1B6893F83130012B04D840F2C3110F4802F058F80C4B1D682A6AB5F8B030134435
:4010C0002C46D5F8B420D358002B0BDB084B1868FFF78EFF6B6801229A6063689B68002BFBD138BD034838BD4C750208FC530810144B0208020050001A4B186128B1022398
:401100000370FF23437000234380174B1B6893F850202AB300B583B0B3F93830ADF80030002301931149684601F0D6FFBDF90030002B08DB590903F01F03012202FA03F3EE
:401140000B4A42F82130084B1B6893F8513023B102220849012000F077FA03B05DF804FB704700BF144B02084C7502088D43020800E100E04544020808B50248FFF7BCFF4B
:4011800008BD00BF284B020838B50B4B1B68D3F8B4301B58002B0DDA0D4604460B0C1B0423B140F2D521054801F0DCFFA9B26160002038BD024838BD4C7502083C54081069
:4011C00001008A0038B50368002B01DA002300E0094B73B90D460446C2600B0C1B0423B140F2BB21054801F0BDFFA9B2A160002038BD014838BD00BF01008A003C54081011
:4012000038B504460D4619B99921084801F0AAFF074B1B68D3F8B4301B59002B03DAE3682B60002038BD034838BD00BF7C5408104C75020801008A00254B1B6893F83130A7
:4012400083423AD900293AD00B6813F01F0F38D170B50D4604461E4B1B6893F83130984204D340F2C3111B4801F07CFF184B1B68186AB3F8B03004FB0304174E34602A6812
:40128000D2080021686803F0BAFB00212046FFF77BFF346825B940F293310E4801F062FF2A4600212046FFF78DFF60B900210A4B1868FFF769FF40B970BD0848704707484A
:4012C000704706487047064870BD054870BD00BF4C7502083C5408102C4B020803018A0001018A0010B504461346B2B9A9B9124B1B6893F83130984204D340F2C3110F4861
:4013000001F030FF0C4B1B681A6AB3F8B03004FB03240B4B1C60002010BD43B149B1084A51609360111D2046FFF786FF10BD054810BD044810BD00BF4C7502083C5408109A
:401340002C4B020803018A002DE9F0411B4B1B68DC68236883422CD90D464609A0EB4610012303FA00F819B901F067FF074600E00027124B18680368002B01DA002300E02B
:401380000F4B83B9626852F8263018EA030F05D023EA080342F82630002400E0094C0021FFF7F2FE00E0084C25B9384601F049FF00E0064C2046BDE8F08100BF2C4B020885
:4013C00001008A00020188000301880004018A000B4B1B68DB681A6882420CD94109A0EB4110012202FA00F05B6853F82130184203D004487047044870470448704700BFEC
:401400002C4B02080101880004018A0000018800024B1B680BB9014B18607047384B02082DE9F8430446884691461D46089F2C4B1B681BB9B5212B4801F094FE284B1B6813
:401440002C2000FB04F01C18EEB21E50C5F3072363602D0CA560244B1B6893F831309E4204D340F2C311214801F07CFE1E4B1B68196AB3F8B02006FB02162661666893F8BA
:4014800032309E4204D340F2DF11184801F06AFE154B1B681D6A803605EB46156561A668330C1B0423B14FF4FF71104801F05AFE330C1B0423B140F2FF110C4801F052FE6A
:4014C000B3B243EA0646AE60C4F81C90C4F820800023A36117B1B7F90030A381BDE8F883384B0208BC5408104C7502083C540810F0B58FB0044618B95221274801F032FEFF
:40150000A369072B03D95621234801F02BFEE36A1BB95821204801F025FE236B1BB959211D4801F01FFE07AD04F114060FCE0FC537682F6002AD26460FCE0FC533682B609C
:40154000164B1B68B3F93620079B1344ADF83030089B0D93A26AE16A0CAD00953B460A98FFF75EFF00210091069B0A460598FFF757FF216B284601F0AFFDBDF93030002BC5
:4015800008DB590903F01F03012202FA03F3044A42F821300FB0F0BDBC5408104C75020800E100E0F8B506460F461D4614461AB9FD211F4801F0D6FD1E4B1B681BB9FE21BD
:4015C0001B4801F0CFFD1B4B1B682C2101FB063001FB07314B68012202FA03F31B04466802FA06F60269EAB18F69EFB91268002A01DA002200E0104AC2B922881343236023
:401600000369DC6001238B614D620469330C1B0423B140F2BB21094801F0A4FDB2B2A2600020F8BD0648F8BD0648F8BD0548F8BDBC540810384B020801008A003C54081088
:4016400004028A0007028A00F8B505460F4616460E4B1B6823B94FF4AF710D4801F082FD0A4B1B682C2404FB0534236A23B94FF4B171074801F076FDE369B34204D9236A32
:4016800043F826700020F8BD0248F8BD384B0208BC5408100A028A0070B582B000230193044620B940F2D111284801F05BFD236923B94FF4E971254801F054FD636923B9E0
:4016C00040F2D311214801F04DFD236A23B94FF4EA711E4801F046FD6369DD682A0C20D012041A601B682069194B1B68D3F8B430C358002B15DA01A9FFF782FD60B9019820
:4017000003681E0CDBB2E269934206D2226A52F8233013B1984700E0002631462069FFF733FDADB275B16369ADB21D601B68636A1BB198470023636202E0A36A03B1984705
:401740000023A36163691B6802B070BDBC5408104C75020810B50446074B1B6823B940F2B111064801F0FEFC034B1B682C2000FB0430FFF791FF10BD384B0208BC540810E0
:4017800010B4D0F8003303F00F03072B06D900230DE0D0F84043CC54013300E000239342F7D306E0D0F8404321F8134001339342F8D35DF8044B704710B51446D0F8083315
:4017C000C3F308039A4200D31C462246FFF7D8FF204610BD036813F4006F01D0802200E04022D0F80832C3F30803934203D0C0F84012012070470020704700BF10B4D0F8AA
:40180000003203F00F03072B06D900230DE0CC5CC0F84042013300E000239342F7D306E031F81340C0F8404201339342F8D35DF8044B704710B51446036813F4006F01D07C
:40184000802200E04022D0F80832C3F30803D31AA34200D81C462246FFF7D0FF204610BD02E0C0F84012013A002AFAD1704700BF10B51446036813F4006F01D0802200E070
:401880004022D0F80832C3F30803D31AA34200D81C462246FFF7E4FF204610BD10B54A6841F201039A4231D1D0F80833C3F30803B3B10B6A43F040030B620B7873B1D0F808
:4018C000043343F48033C0F80433D0F8043323F48033C0F80433D0F8043301E0D0F840330B6A43F020030B620B6A23F010030B62036E23F4204303660023C0F8C83F01236B
:40190000C0F8C03FD0F8C03F202221E0D0F80832C3F30802D0F80832C3F3C03313440A6BD21A4A630A6A12F0080F05D1CA6A1A44CA628A6AD31A8B620B6A43F004030B6209
:401940000B6A23F001030B620023C0F8883F1022D0F84C4F40F201131C420DD0036823F00043036000238366C366036843F000430360036842F040024FF080534B604B6CC6
:401980000BB11046984710BDD0F80C3F13F0020F1DD00222C0F8002FD0F8002FD0F8002F12F0040F02D04FF4001001E04FF480108A6802438A604A68B2F5B81F07D00A7BC1
:4019C00012B14FF4C01201E04FF4B0124A6013F4807F03D08A6842F400028A6013F0010F03D08A6842F480028A6040F21112134202D04FF4C0134B60704700BF0023C0F88A
:401A0000C83FC0F8883F836E23B140F21713C0F8083F704740F21313C0F8083F182383664FF4B8134B60704738B5D0F80C4F036E23F4807303660023C0F8C83FC0F8883F09
:401A4000C0F8083F40F21713C0F8003FD0F8003F8B6823F480338B604B7B13B18B69CB610BE08D69D0F80822C2F30802D0F80832C3F3C0331344EB1ACB6140F201131C4252
:401A80001BD0036E9B0F032B05D114F4827F14BF0123002300E001235BB1036823F00043036000238366C366036843F00043036003684FF080534B601BE00B7893B1D0F89A
:401AC000043343F48033C0F80433D0F8043323F48033C0F80433D0F804330123C0F8C03FD0F8C03F0B7B0BB10B4B01E04FF080534B604A6C72B14B7B13B14FF4802001E020
:401B00004FF400308B6813F0F87301D04FF400231843904738BD00BF000010100346002940DB11F0C00F06D0002181664FF0805050602F4844E011F4807F36D111F0010FE3
:401B40000ED050682B49884232D1196E11F0804F0CBF012100214FF08050506026482FE011F0020F06D050682249884223D10021224825E011F0100F05D04FF080515160DE
:401B8000002108461CE050681A49884216D1517B11B14FF4881101E04FF4A0115160002108460DE0012116480AE00121154807E00121114804E00021134801E000210846A7
:401BC00079B1196821F00041196000219966D966196841F0004119601B684FF080535360704740F21712C3F8002FD3F8003F70470820AA00000013100620AA000420AA000C
:401C00000320AA000720AA000520AA00036853B110B50446012001F099FA2368013B23601BB1002010BD002070474FF0004010BD70B505460C4691F8243013F0FF0F0ED15F
:401C4000CB6A63B94B6C0BB108209847E36AB3FA83F35B0984F824300123C5F8883F94F8243013F0FF0F16D063783BB12B6813F4006F01D0802202E0402200E00122FF21CC
:401C80002846FFF7F5FD236B18442063236A43F00803236270BDE26A012A11D963780BB1013A00E00122A16A2846FFF7C3FD236B03442363E36A1B1AE362A36A1844A062F2
:401CC000D5F80832C3F30803802B23D0E36A012B20D101F0B2FAA36A1B78C5F840324026C5F8806FD5F8803F01F0ABFA236B013323630023E362A36A0133A362C5F8886FCA
:401D000063783BB1236A43F002032362636C0BB10420984770BD00BF38B54B68B3F5A81F03D14FF4C0134B6038BD4B68B3F5A01F4DD10C4605464A69012A11D94B780BB163
:401D4000013A00E0012221692846FFF773FDA3690344A36163691B1A6361236903442361D5F80832C3F30803802B14D06369012B11D101F062FA23691B78C5F84032402325
:401D8000C5F8803FD5F8803F01F05BFAA3690133A361002363616369CBB9237B33B14023C5F8883F4FF4A813636005E00023C5F8883F4FF4B0136360637843B1A36843F4CA
:401DC0000033A360636C13B14FF48030984738BD70B504460D468A6C82B3036813F4803F06D0D0F84C3F13F0400F03D0022002E0002000E00020236E13F4006F06D1D4F819
:401E00004C3F13F0800300D001231843C0B190470123C4F8C03FD4F8C03F024648B91023C4F8403FD4F8403F40F2D113C4F8483F07E040F2C113C4F8483F02E0002200E0E1
:401E40000022D4F8043243F48033C4F80432D4F8043223F48033C4F80432D4F804320AB9012300E00223E366002A59D1666E06F010066B6C23B10EB1012000E002209847CD
:401E80007EB141F202036B602B6A43F001032B626B6B2B63002385F824300123C4F8883F70BD41F201036B602B6A43F010032B620123C4F8C83F2B78BBB1EB6BBBB1236EB8
:401EC00043F400532366ED6B802D05D9A5F18003802B0ED8813D0DE0013D236E43F4004323660023C4F8C83F04E0002502E0002500E03F25236813F4006F01D0802300E036
:401F000040239D4204D34FF42071064801F02AF9D4F8043323F0FF03EDB21D43C4F8045370BD00BFFC54081038B54B68B3F5881F03D0B3F5901F1AD038BD0B69D0F840233D
:401F40001A708B6901338B614B69013B4B612BB10B6901330B610423836638BD0B7B13B14FF4C01301E04FF4B0134B6038BD0C4605464A690969FFF71FFCA3690344A36121
:401F800063691B1A6361226910442061012B24D82B6E23F480732B666369012B16D12B6813F4006F01D0802300E0402323B94FF42071184801F0D6F8D5F8043323F0FF0319
:401FC000C5F804334FF48813636038BD0023C5F8C83F4FF4B013636038BD402B01D89C1E00E03F242B6813F4006F01D0802300E040239C4204D34FF42071064801F0B2F83F
:40200000D5F8043323F0FF02E3B21343C5F8043338BD00BFFC54081038B5CB6B002B50D00B78002B3FD00C460546D0F80423D2B20132896BFFF7C0FB236C03442364E36BCF
:402040001B1AE363A26B1044A063802B06D9A3F18002802A0FD8A3F181040DE02B6E43F400432B66E36B0BB15C1E00E000240023C5F8C83F00E03F242B6813F4006F01D01A
:40208000802300E040239C4204D34FF42071104801F068F8D5F8043323F0FF02E3B21343C5F8043338BD0123C3668A6B0B6CD0F84003D0540B6C01330B64CB6B013BCB637A
:4020C00038BD0223C3660023C0F8C83F38BD00BFFC540810F8B50B78012B03D00C7A1CB9002702E0002700E00127002800F0A780002900F0A680002A00F0A58016460C4672
:402100000546013BDBB2022B03D94F214F4801F029F8637803B163791BB150214B4801F021F894F90330002B03DA5121474801F019F8237913F0010F03D05221434801F0E8
:4021400011F82369102B03D95321404801F00AF8E368102B03D954213C4801F003F8637913B14FF4803100E00021E27912B14FF4807300E000230B4343F400632B60A37902
:4021800013B94FF4006300E000232269013A02F00F021A43E368013B1B01DBB21343227843EA82732B6617B140F2073301E040F20713C5F800330FB1254B00E0254B2B674E
:4021C00063780BB17F2300E00023C5F80433E3785B00DBB2227943EA0243C5F810331E4BC5F80032A3780BB1402300E00123C5F804320023C5F8C83EC5F8883EC5F8C83FA9
:40220000C5F8883FC5F8083F2378022B02D040F2D11300E00023C5F8483F63783370A37873704FF0805373600020B060B06130623064F0633063F0627064B064F8BD074833
:40224000F8BD0648F8BD0548F8BD00BF4055081003002A0013102A00070101000120AA0038B505460C4621B940F2C321194800F079FF2B6E9B0F012B17D1174B2344174A26
:4022800093421ED9A4F5BD13A3F5D66302F5611202F56162934216D9A4F57104A4F533440F4B9C4211D80F4838BD84B1286EC0F303102B6E03F00F0318440230B4FBF0F059
:4022C00038BD094838BD094838BD002038BD002038BD00BF4055081020AD88FF405B730040555C0440420F00801A0600A08601002DE9F84307468846914622B940F2122195
:40230000624800F02FFF08F1FF34614B9C4204D940F213215D4800F025FF3B6E9B0F012B0DD149463846FFF79BFF0546D7F8003323F40073C7F80033564B3B67A2E0544BFC
:402340009C421FD8544B984509D8A9F5BD13A3F5D663524A934218D90021012328E0504B984507D84F4B4B444F4A934213D9002101231DE04D4B4B444D4A934212D9002182
:40238000012315E00021012312E0002141F288352E460B460CE000214FF461754FF4C8660B4605E001214FF4BE754FF41B760023002B66D13F4BB3FBF9F3B6FBF3F404FB7E
:4023C00003F2964200D90134102C00D910240F2C8CBF00220122B5FBF3F606FB03F39D4200D90136102E00D91026A519B9FBF5F50FE022B10F2C09D80134002206E00F2E6E
:4024000004D801360F2C8CBF00220122A519B9FBF5F5454502D9A3191F2BEAD941B1D7F8003343F40073C7F80033234B3B6707E0D7F8003323F40073C7F80033154B3B672D
:40244000E31F092B04D940F283511C4800F08AFE3B6E23F0F003013C2401E4B223433B66731F0B2B04D94FF4B461144800F07AFE3B6E23F00F03013E06F00F061E433E66DB
:4024800000E000252846BDE8F88300BF405508103F420F0013102A00A0860100502D1900801A060020AD88FFA0432100807E25FFC02BAF0000CA9A3B03002A008055081016
:4024C0002DE9F04182B005460C4617469846089E11F0800F04D04FF4D961314800F042FE304B984504D940F2C9612D4800F03AFE012F04D940F2CA61294800F033FE00230E
:40250000C5F8483F7368B3F1805F41D14FF47A7303FB08F30193244B7360012F14BF00230123737340F21713C5F8003FD5F8003F0423C5F8C03FD5F8C03FD5F8043243F46B
:402540008033C5F80432D5F8043223F48033C5F80432D5F804326400E4B23C43C5F840420223AB66D5F8004F24F0F804E405E40DD5F8403F03F0C0031C4301A8FFF746FBBD
:4025800054EA0001EED032462846FFF7C7FA00E0064840F2D113C5F8483F02B0BDE8F0814055081037894100000013100220AA002DE9F04182B005460F4614469846089E9D
:4025C00011F0800F04D040F229712A4800F0CAFD294B984504D940F22A71264800F0C2FD012C04D940F22B71224800F0BBFD736813F4801F39D04FF47A7303FB08F3019339
:402600001E4B7360012C14BF0023012373736B6E13F0200F01D0092300E00123AB666B6E13F0200F05D0002009E001A8FFF7EEFA00E0002018B9AB6E13F0010FF5D170B9B8
:402640007F00FFB23C43C5F84042D5F8000F40F20714044001A8FFF7D9FA2043F5D0324601462846FFF75AFA00E0054802B0BDE8F08100BF40550810378941000000131069
:402680000220AA0070B582B005460C461646134B994204D940F28C71114800F063FD736813F4801F17D04FF47A7303FB04F401941823AB66D5F8004F24F0EE04E405E40DA5
:4026C00001A8FFF7A3FA54EA0001F3D032462846FFF724FA00E0034802B070BD37894100405508100220AA002DE9F04383B0074688461C460A9D914622B94FF4FB612448C1
:4027000000F030FD234B9C4204D940F2D971204800F028FDB8F1010F04D940F2DA711C4800F020FD6B68B3F5881F2BD14FF47A7303FB04F40194D7F8C06F06F00406D7F830
:40274000001F40F201140C4001A8FFF75FFA44EA00010EB90029EED046B1D7F8403389F800300523C7F8C03FD7F8C03F2A463846FFF7D4F9034630B9B8F1000F03D104229F
:40278000BA6600E0044B184603B0BDE8F08300BF40550810378941000220AA00F0B583B005460F4614461E46134B9A4204D940F63201124800F0D6FC7368B3F5A01F17D16C
:4027C0004FF47A7303FB04F40194C5F84072D5F8004F24F0F804E405E40D01A8FFF716FA54EA0001F3D032462846FFF797F900E0034803B0F0BD00BF378941004055081094
:402800000220AA0070B504460E46D0F88C3E13F0010F07D04FF480534B600123C0F8803ED0F8803ED4F84C5F40F201131D420FD0336A15F4807F02D04FF4807200E0802283
:40284000134333620023C4F8C83F45F010050EE015F0100F0BD0D4F80833C3F3080333B1F36B23B10123C4F8C43FC4F8C83FD4F8CC3F13F0010F08D031462046FFF7CCFB70
:402880000123C4F8C03FD4F8C03F15F0100F0AD031462046FFF702F81023C4F8403FD4F8403FD4F84C5F15F0C00F0DD031462046FFF78EFA0123C4F8803ED4F8803EC0235C
:4028C000C4F8403FD4F8403FD4F88C3F13F0410F08D031462046FFF7ABF90123C4F8803FD4F8803F70BD00BF70B506460D46D0F8004E14F0020F0AD0836E2BB10023836661
:402900008B6843F080738B604FF4C0136B6014F0010F05D029463046FFF736F824F0040414F0080F08D029463046FFF7FDFA0123C6F8C03FD6F8C03F14F0040F08D02946D3
:402940003046FFF7E9F90123C6F8803FD6F8803F6B68B3F5C01F03D129463046FFF764F86B68B3F5B01F03D129463046FFF746F870BD00BF08B54B6813F4801F02D0FFF775
:40298000B3FF08BDFFF73EFF08BD00BF2DE9F84305460C46036813F4006F02D04FF0800801E04FF04008D5F8007207F00F07A26A012A19D9D4F82490E262561EB9F1000FB3
:4029C00000D026B940F27351254800F0CBFB324649462846FEF72EFFA36A1B1AA362072F00D9400048446062D5F80832C3F30803984533D0A36A012B30D10023A362072F54
:402A000002D8636A1E7801E0636A1E8800F015FCC5F840624FF40073C5F8803FD5F8803F00F00FFCD5F8883F23F4007222F0010242F4007623F4EE6323F0030323B140F287
:402A40002A41084800F08EFBC5F8886F236843F002032360236B0BB101209847BDE8F883C0550810FC5408102DE9F04105460C46036813F4006F01D0802600E04026760829
:402A8000A769D4F81C8017B1B8F1000F04D14FF49961314800F066FB424639462846FEF78BFE236A03442362E3691B1AE36173BBA368FBB1E3689E4201D8013E00E05E1EAD
:402AC0002B6813F4006F01D0802300E040239E4204D34FF42071214800F044FBD5F8043323F0FF03F6B21E43C5F804630123C5F8C83F02E00023C5F8C83F636823F001031A
:402B00006360236B33B304209847BDE8F081A169D5F8002302F00F02072A00D940000844A0619E4216D95C1E2B6813F4006F01D0802300E040239C4204D34FF420710748D0
:402B400000F010FBD5F8043323F0FF02E3B21343C5F80433BDE8F081C0550810FC540810002800F0A48170B50546002900F0A18116460C460B78022B03D93F21A24800F05C
:402B8000F1FA637B023BDBB2062B03D940219E4800F0E8FAA37B3BB1022B05D0032B03D04121994800F0DEFA94F82130012B03D94221954800F0D6FA94F82830012B03D973
:402BC0004321914800F0CEFA2378012B06D86368083B082B94BF0023012307E0A37F2BB16368013B062B94BF002301231BB14521854800F0B7FAA368053B042B03D946214C
:402C0000814800F0AFFA6369FF2B03D947217E4800F0A8FAA369FF2B03D948217A4800F0A1FAA37C6BB1237833B9A368092B05D1A37B2BB1012304E0012302E0012300E0F5
:402C400000231BB14A21704800F08CFA636B23F4366323F00D031BB14C216B4800F082FAE36B23F4EE6323F003031BB14D21664800F078FA2378022B01D1A37F13B1626870
:402C8000013A00E00022237F13B14FF4803100E00021A368082B02D84FF4006300E000230B4302F00F02134343F000732B60226B2B6813F4006F01D0802300E040239A42BA
:402CC00003D36221504800F04DFAA26B2B6813F4006F01D0802300E040239A4203D36321494800F03FFA626A2B6813F4006F01D0802300E040239A4203D36421424800F0B2
:402D000031FA23781B0603F040732B64637F0BB1402200E00022A37C13B14FF4806300E000231343227C12B14FF4807200E000221343627C12B14FF4007200E000221A4370
:402D4000E36A013B1B0403F470231343627B013A02F007021343A27B120102F030021343AB64237B13B14FF4807200E00022E37B23B92378022B03D1012302E0012300E030
:402D8000002313B14FF4007300E000231A43A368013B03F00F031343C5F80033227DA3691B0403F47F031343C5F81033E26AD5F8003303F00F0303339A4201D3102A03D99E
:402DC0007A21114800F0CEF9E37F23B12378012B03D0002302E0002300E0012313B14FF4807200E00022637B013B03F007031A43A37B1B0103F0300313436B64237B2BB1BE
:402E00004FF4807203E000BF005608100022A368013B03F00F0313432278012A02D14FF4803200E000221343C5F8003294F83030C5F8043394F8203013B14FF0007200E0A4
:402E4000002294F82130012B02D14FF0807300E00023134394F82820012A02D14FF4803200E00022134394F8242013432B6594F83830C5F80432636B23F4926323F002031B
:402E80001B051B0DC5F8C83FE36B23F08C035B055B0DC5F8883F76B1002070603060B060F0603062F0623063044B736370BD04487047034870BD002070BD00BFEFCDAB000C
:402EC0000160AA000B694A69934202D34869181A7047CA694869101A184470472DE9F04107460D46036813F4006F02D04FF0800801E04FF040084FEA5808D7F80863C6F3E6
:402F000008062C6926E00134EB689C4200D100246B699C420FD12B6B0BB1082098476B699C4208D10023C7F8C83F0CB1013C13E0EC68013C10E0D7F84023D7F8003303F099
:402F40000F03072B02D8AB681A5502E0AB6823F81420013E002ED6D12C61EC6829463846FFF7B0FF201A804519D908B1441E00E000243B6813F4006F01D0802300E0402306
:402F80009C4204D34FF42071064800F0EBF8D7F8040320F0FF03E0B21843C7F80403BDE8F08100BFFC54081038B504460D46D0F8003E13F0080F35D0D0F8CC3F13F448734B
:402FC0000AD04A681A434A60C0F8C03FD0F8C03F0B6B0BB110209847D4F8CC3F13F4006F09D06B6843F400636B604FF40063C4F8C03FD4F8C03FD4F8CC3F13F0010F11D02A
:40300000EB6923B129462046FFF72EFD05E0AB681BB129462046FFF761FF0123C4F8C03FD4F8C03FD4F8003E13F0040F2ED0D4F88C3F13F4A0630AD02A681A432A60C4F80B
:40304000803FD4F8803F2B6B0BB120209847D4F88C3F13F0010F08D029462046FFF796FC0123C4F8803FD4F8803FD4F88C3F13F4007F0BD00022C4F8882F2B6823F0010355
:403080002B60EA622B6B0BB10220984738BD00BF38B50D4B9A680D4B9A420FD10D46044621B940F237110A4800F05CF804F11003064A52F8230042F8235038BD1030054B59
:4030C00053F8200038BD00BF00ED00E000400208405608100000081048B338B504460D464368072B03D93221134800F03BF8B4F900306268002B08DB5201D2B203F16043A2
:4031000003F5614383F8002305E003F00F035201D2B20A49CA540A4B9A680A4B9A4208D12946B4F90000FFF7B3FF002038BD06487047002038BD00BF4056081014ED00E081
:4031400000ED00E0004002080100560008B5034B1B7800FB03F000F067F808BDA042020801BEFEE738B50D46044C18220146204601F0B0FCA5610020FFF7F2FFB848020886
:40318000FEE700BF08B50268254BDA6142681A6282685A62C2689A620269DA6242691A6382695A63C2699A631E4A916AD963D16A1964516A5964516B9964926BDA64F1EE66
:4031C000103A13F0900F27D0026A154B1A65426A5A65826A9A65C26ADA65026B1A66426B5A66826B9A66C26BDA66026C1A67426C5A67826C9A67C26CDA67026DC3F88020A6
:40320000426DC3F88420826DC3F88820C26DC3F88C20026EC3F89020FFF7B2FF08BD00BFB848020800ED00E00230800803D001300238FCD100BF00BF7047EFF3108072B627
:40324000704780F310887047014B1860704700BF4C75020800F1080343604FF0FF328260C360036100230360704700BF00230361704700BF43684B609A688A609A6851606A
:4032800099600861036801330360704730B40D68B5F1FF3F01D1026907E000F1080200E01A4653681C68A542FAD253684B6099608A605160086103680133036030BC70475D
:4032C00003694268816891608268416851605A68904201D182685A60002202611A68013A1A601868704700BF10B5044601F09AF9A26BE36B9A4201D1012400E0002401F028
:40330000B3F9204610BD00BF10B5044601F08AF9A36B0BB9012400E0002401F0A5F9204610BD00BF70B504461646856B026CFAB166B9806801F058FBA268236C1344A360DE
:403340006268934214D32368A36011E0C06801F04BFB236C5B42E2681A44E26021688A4202D262681344E360022E01D105B1013D0135A563002070BD026C72B110B5034626
:40338000C4681444C4604068844201D31868D8600846D96801F028FB10BD704738B5054601F040F995F8454064B20AE06B6A53B105F1240000F050FE08B100F0DBFE013CE0
:4033C00064B2002CF2DCFF2385F8453001F04CF901F028F995F8444064B20AE02B6953B105F1100000F038FE08B100F0C3FE013C64B2002CF2DCFF2385F8443001F034F9A4
:4034000038BD00BF38B540B94FF03F0383F31188BFF36F8FBFF34F8FFEE704460D4601F001F92168E26B236C03FB021060600020A063A160013A02FB0313E360FF2384F82D
:40344000443084F845307DB92369ABB104F1100000F002FE80B14FF08052094B1A60BFF34F8FBFF36F8F07E004F11000FFF7F2FE04F12400FFF7EEFE01F0F6F8012038BDC2
:4034800004ED00E010B5029B0C4609B91B6000E01A60D8631C6401211846FFF7B3FF10BD40B94FF03F0383F31188BFF36F8FBFF34F8FFEE7F0B583B0034611B101FB00F0C3
:4034C00000E000201D4617460C46483001F0ECF9064638B100903B4600F1480221462846FFF7D0FF304603B0F0BD00BFF0B585B0019240B94FF03F0383F31188BFF36F8F16
:40350000BFF34F8FFEE7044619B9026C1AB9012202E0012200E0002242B94FF03F0383F31188BFF36F8FBFF34F8FFEE7022B03D1E26B012A02D102E0012200E0002242B991
:403540004FF03F0383F31188BFF36F8FBFF34F8FFEE71D460E4600F015FE18B9019B1BB9012302E0012300E0002343B94FF03F0383F31188BFF36F8FBFF34F8FFEE7002796
:4035800001F050F8A26BE36B9A4201D3022D21D12A4631462046FFF7C5FE636A6BB104F1240000F059FD88B14FF08052324B1A60BFF34F8FBFF36F8F08E038B14FF08052F5
:4035C0002D4B1A60BFF34F8FBFF36F8F01F04CF801204EE0019B1BB901F046F8002048E01FB902A800F07CFD012701F03DF800F069FB01F017F894F844305BB2B3F1FF3FB2
:4036000002D1002384F8443094F845305BB2B3F1FF3F02D1002384F8453001F025F801A902A800F067FDF0B92046FFF75DFEA0B1019904F1100000F0D7FC2046FFF7AEFEFC
:4036400000F0CEFB00289BD14FF080520A4B1A60BFF34F8FBFF36F8F92E72046FFF79EFE00F0BEFB8CE72046FFF798FE00F0B8FB002005B0F0BD00BF04ED00E02DE9F84358
:4036800040B94FF03F0383F31188BFF36F8FBFF34F8FFEE7044619B9006C18B9012002E0012000E0002040B94FF03F0383F31188BFF36F8FBFF34F8FFEE7022B03D1E06BE5
:4036C000012802D102E0012000E0002040B94FF03F0383F31188BFF36F8FBFF34F8FFEE71F469046894601F0A1F8EFF311864FF03F0383F31188BFF36F8FBFF34F8FA26B33
:40370000E36B9A4201D3022F1ED194F845506DB23A4649462046FFF705FEB5F1FF3F0DD1636A9BB104F1240000F096FC80B1B8F1000F0FD00120C8F800000CE06B1C5BB21E
:4037400084F84530012006E0002004E0012002E0012000E0012086F31188BDE8F88300BFF0B585B0019240B94FF03F0383F31188BFF36F8FBFF34F8FFEE7044619B9036C91
:403780001BB9012302E0012300E0002343B94FF03F0383F31188BFF36F8FBFF34F8FFEE70E4600F0EFFC18B9019B1BB9012302E0012300E0002343B94FF03F0383F311882E
:4037C000BFF36F8FBFF34F8FFEE7002700F02AFFA56BC5B131462046FFF7CEFD013DA563236963B104F1100000F036FC38B14FF08052304B1A60BFF34F8FBFF36F8F00F014
:4038000033FF012053E0019B1BB900F02DFF00204DE01FB902A800F063FC012700F024FF00F050FA00F0FEFE94F844305BB2B3F1FF3F02D1002384F8443094F845305BB214
:40384000B3F1FF3F02D1002384F8453000F00CFF01A902A800F04EFCF0B92046FFF754FDA0B1019904F1240000F0BEFB2046FFF795FD00F0B5FA0028A8D14FF080520D4B5C
:403880001A60BFF34F8FBFF36F8F9FE72046FFF785FD00F0A5FA99E72046FFF77FFD00F09FFA2046FFF730FD00288FD0002005B0F0BD00BF04ED00E000230BE0074A52F8AF
:4038C000332032B9054A42F8331002EBC303586070470133092BF1D9704700BF5075020870B504460D46164600F09CFE94F844305BB2B3F1FF3F02D1002384F8443094F81C
:4039000045305BB2B3F1FF3F02D1002384F8453000F0AAFEA36B2BB93246294604F1240000F07CFB2046FFF739FD70BD094B9B6A1B680BB9012300E0002323B14FF0FF3281
:40394000044BDA627047034B9A6AD268D2685268DA627047784B020810B50446006B00F0D3FF204600F0D0FF10BD00BF2DE9F0478246894615469846089F099E0A9C920035
:40398000A521206B01F03BF8236B05F18042013A03EB820525F00705002308E019F80310E21882F8341019F8032012B101330F2BF4D9002384F84330062F00D90627E762CC
:4039C000201DFFF753FC04F11800FFF74FFC2461C7F10703A3616462002306E003F1100204EB8202002151600133042BF6D90023A36584F85C3042465146284600F0E4FDCF
:403A0000206006B13460BDE8F08700BF70B5002407E004EB8402930010481844FFF71AFC0134062CF5D90E4C04F1BC063046FFF711FC04F1D0052846FFF70CFC04F11400EA
:403A4000FFF708FC04F1E400FFF704FC2046FFF701FCA662C4F8F85070BD00BFA84B0208784B020838B5044600F0DCFD264BD3F8FC200132C3F8FC20D3F800314BB9224B93
:403A8000C3F80041D3F8FC30012B10D1FFF7BEFF0DE01D4BD3F804314BB91B4BD3F80031DA6AE36A9A4202D8174BC3F80041164AD2F808310133C2F80831E36AD2F80C2125
:403AC000934202D9104AC2F80C310F4D05F1300003EB83039A00211D1044FFF7CBFB00F0C3FDD5F804316BB1D5F80031DA6AE36A9A4207D24FF08052044B1A60BFF34F8F6B
:403B0000BFF36F8F38BD00BF784B020804ED00E038B517E000F086FD0D4CD4F8F030DD68281DFFF7CDFBD4F8FC30013BC4F8FC30D4F81031013BC4F8103100F095FD28464D
:403B4000FFF70AFF024BD3F81031002BE2D138BD784B020808B5FFF7DBFF064B1B6B012BF9D94FF08052044B1A60BFF34F8FBFF36F8FF0E7784B020804ED00E070B50446ED
:403B80000E46174BD3F81451D3F800010430FFF797FBB4F1FF3F07D136B11148D0F800110431FFF767FB70BD2C440D4BD3F800315C60A54208D90A4BD3F8F800D3F80011CD
:403BC0000431FFF763FB70BD054DA86AD5F800110431FFF75BFBEB6A9C4200D2EC6270BD784B02082DE9F04385B006460F4615469846900000F058FE60B18146602000F089
:403C000053FE044610B1C0F8309004E0484600F07BFE00E000248CB10023039302940D9B01930C9B009343462A4639463046FFF79DFE2046FFF716FF012001E04FF0FF306F
:403C400005B0BDE8F08300BF00B583B0194B019300230093802218491848FFF7C3FF012801D100F0F5FA012814D14FF03F0383F31188BFF36F8FBFF34F8F114B4FF0FF3283
:403C8000DA620122C3F804210022C3F8142100F06BFD0BE0B0F1FF3F08D14FF03F0383F31188BFF36F8FBFF34F8FFEE703B05DF804FB00BF944C0208F4570810553B081048
:403CC000784B0208034AD2F818310133C2F81831704700BF784B0208014BD3F814017047784B02082DE9F0413C4BD3F81831002B65D13A4BD3F814410134C3F81441CCB9BB
:403D00009B6A1B6843B14FF03F0383F31188BFF36F8FBFF34F8FFEE7304B9A6AD3F8F8109962C3F8F820D3F820210132C3F82021FFF7FCFD294BDB6A9C4203D2002645E051
:403D4000012600E00026254B9B6A1B680BB9012300E0002323B14FF0FF32204BDA6235E01E4B9B6ADB68DD686B689C4202D21B4AD3622BE005F104084046FFF7A1FAAB6AE5
:403D80001BB105F11800FFF79BFAEB6A134AD2F80C21934202D9114AC2F80C310F4F07F1300003EB83039A0041461044FFF762FAEA6AD7F80031DB6A9A42C1D2C3E7074A2F
:403DC000D2F824310133C2F824310026034BD3F8283103B101263046BDE8F081784B0208394BD3F8183143B94FF03F0383F31188BFF36F8FBFF34F8FFEE770B500F012FC29
:403E0000314BD3F81821013AC3F81821D3F81831002B52D12C4BD3F8FC303BBB00244FE0294D2B6ADC6804F11800FFF749FA261D3046FFF745FAE36AD5F80C21934201D941
:403E4000C5F80C31204D05F1300003EB83039A0031461044FFF70EFAE26AD5F80031DB6A9A4204D30122C5F8282100E00024164B5B69002BD4D10CB1FFF758FD124BD3F84A
:403E8000244164B1FFF72EFF18B101220E4BC3F82821013CF6D100220B4BC3F824210A4BD3F828315BB14FF08052084B1A60BFF34F8FBFF36F8F012402E0002400E00024CE
:403EC00000F0D2FB204670BD784B020804ED00E010B5B0B10446104BD3F8183143B14FF03F0383F31188BFF36F8FBFF34F8FFEE7FFF7E8FE00212046FFF740FEFFF770FF50
:403F000000E0002038B94FF08052044B1A60BFF34F8FBFF36F8F10BD784B020804ED00E0304BD3F8183123B101222E4BC3F82821704710B52B4B0022C3F82821D3F80031F4
:403F40001B6B1A68B2F1A53F0BD15A68B2F1A53F07D19A68B2F1A53F03D1DB68B3F1A53F07D0204BD3F80001D3F80011343100F089FC1C4BD3F80C310AE043B94FF03F03F3
:403F800083F31188BFF36F8FBFF34F8FFEE7013B03EB83018A0013490A44126B002AECD008469900CC18A2000244546B64685463303019448A0008320244944206D1606857
:403FC00003EB83018A0007490A445063054903EB830082000A44526BD268C1F80021C1F80C3110BD784B020840B94FF03F0383F31188BFF36F8FBFF34F8FFEE710B50C46BF
:40400000054BD3F800111831FFF740F901212046FFF7B4FD10BD00BF784B020838B540B94FF03F0383F31188BFF36F8FBFF34F8FFEE70C461546074AD2F800111831FFF7A1
:4040400019F90DB14FF0FF3429462046FFF796FD38BD00BF784B020838B5C368DC6844B94FF03F0383F31188BFF36F8FBFF34F8FFEE704F118052846FFF722F9154BD3F855
:404080001831ABB9251D2846FFF71AF9E36A114AD2F80C21934202D90E4AC2F80C3103EB83039A0029460C481044FFF7E3F803E029460A48FFF7DEF8E26A064BD3F80031FD
:4040C000DB6A9A4204D90120024BC3F8280138BD002038BD784B0208A84B02088C4B0208034BD3F820210260D3F8143143607047784B0208F8B540B94FF03F0383F3118892
:40410000BFF36F8FBFF34F8FFEE7054641B94FF03F0383F31188BFF36F8FBFF34F8FFEE70C4600F07FFA124BD3F814016968421A2368B3F1FF3F14D02F680D4ED6F82061A9
:40414000B74201D088420ED29A4206D29B1A23602846FFF7C5FF002406E000232360012402E0002400E0012400F07EFA2046F8BD784B02080122024BC3F82821704700BF9D
:40418000784B0208064BD3F804312BB1044BD3F818311BB9022070470120704700207047784B0208064B1A681368B3FA83F35B09036013B9D368186870470020704700BF6D
:4041C000A44C020808B54160006191420AD8D21A83699A4211D2011D0A4B5868FFF756F8002008BD9A4201D2994208D2011D054B1868FFF74BF8002008BD012008BD0120E7
:4042000008BD00BFA44C020870B500F00BFA0E4B9B68B3B90C4C04F10C063046FFF71AF804F120052846FFF715F82660656000220C210A20FFF734F9A06010B10349FFF7CC
:404240003BFB00F011FA70BDA44C0208FC57081000B583B0FFF7D8FF0D4B9B6853B10D4B019303230093002380220B490B48FFF7B9FC00E0002040B94FF03F0383F3118822
:40428000BFF36F8FBFF34F8FFEE703B05DF804FBA44C0208D84C0208045808103545081040B94FF03F0383F31188BFF36F8FBFF34F8FFEE730B585B015460446124A9068E3
:4042C000F0B11A46019102950394052913DCFFF759FF022807D10023089A01A90A488068FFF704F90DE000231A4601A906488068FFF7FCF805E0002301A9FFF7BFF900E07A
:40430000002005B030BD00BFA44C020870B582B029E0DB681E68DC68251D2846FEF7D0FF636A20469847E369012B1CD1A36933449E4207D2636024612946104B1868FEF7E7
:40434000A5FF10E0002100910B4632462046FFF7A7FF40B94FF03F0383F31188BFF36F8FBFF34F8FFEE7054B1B681A68002AD0D1024A51681160536002B070BDA44C02085C
:4043800038B50546FFF7A8FC0446074B9B6B984204D2FFF7BBFF01232B6001E000232B60014B9C63204638BDA44C020870B582B005460E46134B1B68DB68DC68201DFEF7BB
:4043C0007FFFE369012B18D1A1692B46324629442046FFF7F7FE80B1002100910B462A462046FFF75DFF40B94FF03F0383F31188BFF36F8FBFF34F8FFEE7636A2046984711
:4044000002B070BDA44C020870B582B006460C46FFF758FC01A8FFF7B3FF019B1BBB054644B9B04206D3FFF7DBFC29463046FFF7BDFF1AE02CB10E4B5B681C68B4FA84F48D
:4044400064092246711B0A4B9868FFF749FAFFF7C7FC50B94FF08052064B1A60BFF34F8FBFF36F8F01E0FFF7BBFC02B070BD00BFA44C020804ED00E030B587B04DE0039B91
:40448000002B4ADB059C636913B1201DFEF718FF02A8FFF775FF039B092B3ED8DFE803F00505053D273A05053D270499A5690B46024629442046FFF785FE70B3636A20467B
:4044C0009847E369012B28D1A269002100910B46049802442046FFF7E3FEF0B94FF03F0383F31188BFF36F8FBFF34F8FFEE70499A16141B94FF03F0383F31188BFF36F8F08
:40450000BFF34F8FFEE70346024601442046FFF759FE02E0204600F0F7F9002203A9044B9868FFF71DF90028A9D107B030BD00BFA44C020800B583B001A8FFF733FE0199DB
:40454000FFF762FFFFF798FFF6E700BF82B0002301930D4B1B68B3F1FF3F08D04FF03F0383F31188BFF36F8FBFF34F8FFEE74FF03F0383F31188BFF36F8FBFF34F8F019B1C
:40458000002BFCD002B07047AC42020808480068006880F308884FF0000080F3148862B661B6BFF34F8FBFF36F8F00DF00BF000008ED00E0DFF80C00016841F470010160FD
:4045C0007047000088ED00E04FF0807340F8043C21F0010140F8081C054B40F80C3C40F8202C6FF0020340F8243C4438704700BF4D450810000000000000000000000000AA
:40460000074B19680868B0E8F04F80F30988BFF36F8F4FF0000080F311887047AFF30080784C02084FF03F0383F31188BFF36F8FBFF34F8F0A4A136801331360012B0DD16A
:40464000084B1B6813F0FF0F08D04FF03F0383F31188BFF36F8FBFF34F8FFEE7704700BFAC42020804ED00E0094B1B6843B94FF03F0383F31188BFF36F8FBFF34F8FFEE7FF
:40468000013B034A13600BB983F31188704700BFAC420208000000000000000000000000EFF30980BFF36F8F154B1A681EF0100F08BF20ED108A20E9F04F10602DE909004E
:4046C0004FF03F0080F31188BFF34F8FBFF36F8FFFF726FC4FF0000080F3118809BC19680868B0E8F04F1EF0100F08BFB0EC108A80F30988BFF36F8F704700BFAFF300808A
:40470000784C020808B54FF03F0383F31188BFF36F8FBFF34F8FFFF7E5FA18B14FF08052024B1A60002383F3118808BD04ED00E0084A0023136008490B60084B1B68084915
:40474000A1FB03139B09013B06490B6007231360704700BF10E000E018E000E098420208D34D621014E000E010B582B02A4B1A78D2B20192FF221A701B78DBB28DF8033050
:404780009DF80330254A03F03F0313700723536009E0224A5368013B53609DF803305B00DBB28DF803309DF8033013F0800FF0D11A4B5B68042B08D04FF03F0383F31188EC
:4047C000BFF36F8FBFF34F8FFEE71B0203F4E063124A5360019BDBB20F4A1370104B1A6842F47F021A601A6842F07F421A60FFF79FFF00240B4B1C60FFF7DCFE0A4A136803
:4048000043F040431360FFF7C1FEFFF789FBFFF79DFE204602B010BD00E400E0E04C020820ED00E0AC42020834EF00E0EFF305830F2B0FD9104A9B5CDBB2104A12789342A5
:4048400008D24FF03F0383F31188BFF36F8FBFF34F8FFEE70A4B1B6803F4E063074A5268934208D94FF03F0383F31188BFF36F8FBFF34F8FFEE77047F0E300E0E04C020881
:404880000CED00E008B54FF03F0383F31188BFF36F8FBFF34F8F4FF441710248FEF762FCFEE700BF0C58081038B5044610F0070F02D020F007040834FFF704FA104B1B6898
:4048C0002BB90F4A02F10C0323F0070313600D4BD3F814361C4442F2F772944208D8A34208D2074A15681D44064BC3F8144602E0002500E00025FFF773FA284638BD00BFE4
:40490000E84C0208D86E020840B14FF03F0383F31188BFF36F8FBFF34F8FFEE7704700BF70B539B900240AE015F8010BFCF700FB013402E016460D460024B442F4DB20468C
:4049400070BD00BF70B561B900240FE0FCF7FCFAC0B2287001340A2808D00D2806D0013502E016460D460024B442EFDB204670BD08B502490248FEF717FB08BDA075020841
:404980000000664008B5114B1B785BB9104A11491148FEF7E5F811491148FEF79DFB01220A4B1A700E4BB3F90030002B08DB590903F01F03012202FA03F30A4A42F82130C2
:4049C000054A136843F00043136008BDF0740208A07502085C5808100000664071490810D853081000E100E010B5431E0A44914204D011F8014B03F8014FF8E710BD0244BD
