:020000041000EA
:4000000000400208230100100D00000085010010000000000000000000000000000000000000000000000000000000008101001000000000000000008101001081010010E9
:400040008101001081010010810100108101001081010010810100108101001081010010810100108101001081010010810100108101001081010010810100108101001060
:400080008101001081010010810100108101001081010010810100108101001081010010810100108101001081010010810100108101001081010010810100108101001020
:4000C00010B5064C2378002B07D1054B002B02D0044800E000BF0123237010BD3C0600080000000094320010084B10B5002B03D00749084800E000BF07480368002B00D164
:4001000010BD064B002BFBD09847F9E7000000004006000894320010E8000008000000007047FFF7FDFF72B60F4C104DAC4209DA21686268A368043B02DBC858D050FAE7E3
:400140000C34F3E70A490B4A0020521A02DD043A8850FCDC084809490860BFF34F8F00F005F900F01DF8FEE798320010B03200103C060008140800080000000808ED00E0DB
:40018000FEE7FEE700B504207146084202D0EFF3098001E0EFF30880043001F02DFCFEE710B562B6014800F067F9FEE70000081010B5002001F09CF910BDC04670B562495F
:4001C000E0239B00CB580F2213401A00D0329200525807210A40032A05D0042A06D0002A12D15A4814E05A4A106811E01A00C0329200554952581F210A40112A06D0132A7C
:4002000004D0FA20C00103E0524801E080200002002B36D14C4BB222D2009A5801211140B125ED005A59120F032422405B591B0F1C4207D0444C63591B0F03242340012BDC
:4002400002D102E0012300E00023002B01D0002901D1032A4BD13C4BB022D2009D58AD03AD0B3D495958C904C90C9C58240E01231C40013401F0A6FF6843210001F0A2FF32
:4002800035E0012B33D1304BC822D2009A5801251540C024E4001A59120F03210A401B591B0F194207D028490B591B0F03210B40012B02D102E0012300E00023002B01D049
:4002C000002D01D1032A12D11F4DC022D200AB587F210B40A958090A1F263140AC58240C3440584301F06EFF210001F06BFFE0239B00154AD3581B0903221340D840144CBE
:400300006060164B1D692D0AFC32154001351969090E013101F056FFA060290001F052FF0500E06020610E4BC0180E4901F04AFF20750D4BE818FA21890001F043FFA0615D
:40034000C003E06170BDC0460000264000127A00C000000800366E0184050000000021403F420F0040420F00E703000010B5284801F022FF274CB022D200A3585B005B08DB
:40038000A350E0218900635830208343635080235B04A350204A214BE250A02292010433E250FF221E4BE25001F0F4FEC0225200A35801218B43A35000F0EEF9FFF7FEFE07
:4003C000B0235B055B78002B04D0B0235B055B78DBB200E02123212B03D1124B0022DA605A60114C22008021042000F027FE2000103000F0BBFE0D4B1A685123D35C002BA4
:4004000002D00B4800F028FF00F056FB10BDC046DC3100100000264001000200840500008C050000E000234058060008100800083C2300108023024AD35803201840704748
:400440000000214010B501F068FB084980228C58074B2340074C23438B508823034AD358DB06FAD501F05DFB10BDC04600002140FCFF00000100FA0570B50500830504D011
:40048000E821FF310F4801F089FA01F046FB0400FFF7D0FF032801D1FFF7D4FF0A4AB0239B00D55080215058084B03400848034353508823044AD358DB06FAD5200001F093
:4004C00030FB70BD7023001000002140FCFF00000300FA05FEE7C046014A024B1A60704701001180000E1F4110B50A00002101F0FEFE10BD10B501F0F1FE10BD30B587B0B7
:40050000934A116808230B431360924C03E0012001F038FA013C8E4B1B695B0701D4002CF5D1002C01D18C4B00E00023002B02D00520FFF7CFFF8948A021C90043580322D8
:400540009343023A13434350854A116808688823CB58C31818688349084018601368186884241B59C01803681B021B0A80256D042B430360106805680359EB18186801408B
:40058000196013683E229A5C002A06D07348E02189004258753CA24342503E229A5C002A06D06E48E021890042583024A24342503E229B5C002B07D06849E02292008B586E
:4005C0008020000603438B500021012000F0C2FF0021022000F0BEFF0021032000F0BAFF0021042000F0B6FF0021002000F0B2FF01A85D4903000A0032CA32C312CA12C39A
:4006000000F0D6FF002802D00420FFF763FF5349564A8B588020000603438B50544801F083F8002802D00420FFF754FF4B4C514BE158514A0A40E250E158504A0A40E25058
:40064000E258802109060A43E250043BE1584C4A0A40E250E1584B4A0A40802149010A43E250E258802109020A43E250384A1168454B0B401360002001F06EFDC0235B009D
:40068000E358DB0704D4414AA3585B005B08A3503021012001F0C8F9314B1B683F229A5C032A03D900213A4A986881509A6874215B5AD21811682B4B0B40802189000B432D
:4006C0001360274B1B687322995C703A8A40110070229A5C7220185C82400A43802109060A438021C900986842509A6852583F229A5C052A06D970229A5C01210A4025497A
:40070000986842509A6874215B5AD2185168154B0B40C82149010B435360114B1A687323D35C032199407023D35C7220105C1C0084402143012003400B43802109060B4305
:400740008021C9009068435093685B5807B030BD0000274020A1070002004A000000264010080008FF00FFFF88230010087F0000400D030004050000FEFCFFFFFFFF00FFA4
:40078000FFF0FFFFFF8FFFFFFFFCFFFF0C0500000C0C0000140C000070B58EB03221012001F042F901F018F9002814D101F004F9C0235B00564AD358DB0705D41100554A0A
:4007C0008B585B005B088B505149524A8B588020000603438B50002001F0C8FB022001F02DFC4D4A516C4D4B0B40E82189010B435364536C1B0AFF2213403A2B07D1464A99
:40080000516C474B0B40E82189010B4353643422002101A801F06BFD424C01AA0021200000F052F93422002101A801F060FD01AA0121200000F048F9FFF760FE3A4A3B4B6E
:400840001A6000240CE0620012195300384AD318198B9A8AD88A00041043FFF745FE01340B2CF0D900240AE0620012199300304AD3185A6E196ED86DFFF73CFE0134112CE9
:40088000F2D90F222B4B1A602B4A2C4B1A6001232B4A13602B4A13602B4A116801330B43136001AC24220021200001F020FD21001C4800F0A3FA254D22002B00343343CB87
:4008C00043C243CB43C243CB43C22100204800F095FA22002B00583343CB43C243CB43C243CB43C221001B4800F088FA22002B007C3323CB23C223CB23C223CB23C2210028
:40090000154800F07BFAFFF7E7FD0EB070BDC046000026400C05000000002740FF00FFFFFFC5FFDF000032400300FA05F001214088230010000064400701010000026440D9
:4009400004793440087934400079344088240010800232400003324080063240214B984230D00ED8402831D004D800281FD010282AD031E080282BD080235B00984229D048
:400980002AE0194B984229D007D8A0231B0698420DD0164B984212D01EE0154B98420AD0144B984209D0144B984215D101E0002016E0124814E0124812E0124810E0A02081
:4009C000C0030DE007480BE00F4809E00F4807E00F4805E0034803E00E4801E0A420C0037047C04606005200010000F0090000A0040000F0050000F0030000F00100520089
:400A00000200520003005200010050000200500005005200FF00520070B5124B1A683123D35C002B04D1C421FF310F4800F0B6FF0C4B1D682C00B423EB582A6A94466344F3
:400A40001B68002B0BDB094B1868FFF787FF6B6801229A6063689B68002BFBD100E0044870BDC04610080008582E0010E80700080200500010B50D4B1861002805D00223C7
:400A80000370FD33437000234380094B1B6850229A5C002A08D051229B5C002B04D04F3A0449002000F092FC10BDC046E8070008100800086101000810B502481430FFF73F
:400AC000D9FF10BDE8070008F8B54F464646C0B406000D001400002800D16FE1002A00D16EE1072903D94521B84800F057FF2368012B03D94621B54800F050FF0F23626874
:400B00009A4303D04721B14800F048FF237A1F22934303D04821AD4800F040FFE368032B03D94921A94800F039FF2369012B03D94A21A64800F032FF6369012B03D94B2133
:400B4000A24800F02BFFA369012B03D94C219F4800F024FFE369032B03D94D219B4800F01DFF236A012B03D94E21984800F016FF636A012B03D94F21944800F00FFFA36A2E
:400B8000012B03D95021914800F008FFE36A032B03D951218D4800F001FF236B072B03D952218A4800F0FAFE2768072D03D98849884800F0F3FE012F04D9CA218900854826
:400BC00000F0ECFE002F03D10123AB40736002E00123AB40B3606768072D04D9F12189007C4800F0DBFE0F233A009A4303D07A49784800F0D3FEA900784B1A687D23D35C0D
:400C00009B191A6890460F2291468A40404690430200484607408F4017431F60277A072D04D9A22189006B4800F0B8FE1F233A009A4303D06A49674800F0B0FE674B1A6847
:400C40009369F31ADB0952691B01D318032D0AD81968E8001F22824091431F22174087400F431F600AE02A1F5968D2001F20904081431F20074097400F435F60E768082DB8
:400C800004D9DD21C900534800F088FE032F03D95449504800F082FE6900504B1A687C23D35C9B191A689046032291468A40404690430200484607408F4017431F6027693E
:400CC000082D03D94849434800F068FE012F03D94649404800F062FEB36901221100A9408B431740AF401F43B76163699846072D03D93F49374800F051FE4346012B03D9A6
:400D00003C49344800F04AFE34487E230268D35C9B191A6801273900A9408C468A43110042463A40AA400A431A606B0010229046984403210B00424693406246134399462B
:400D40007F2203689A5C9446B44463461A684B469A43A3693B40AB401A43E3691940434699400A4363461A6002688023D35CF6183368FF22944693431800236A1F40636A39
:400D80005A00022313403B43A26A9100042739400B431F00E36AD900182319403B000B43226B520161460A401343AD00FE2292001540AB4003433360002002E00E4800E01B
:400DC0000D480CBC90469946F8BDC046982E001027030000D82E0010C50300001008000889020000E9060000690600006A060000030400000404000001005A0070B505007B
:400E00000C0000285DD000295DD0FF230A689A4303D099212D4800F0C1FDFF2322699A4303D09A21294800F0B9FDA3685B0D03D09B21264800F0B2FD63685B0A03D09C21DC
:400E4000224800F0ABFDE3695B0F03D09D211F4800F0A4FD236A5B0F03D09E211B4800F09DFD1B4A11688B69EB1ADB0949691B01CB18216829607D211068415C6918E068C1
:400E800008607E211068415C6918206908607F211068415C6918606908607C211068415C6918A06808606168A961116880228A5CAD18A2692A60E2691A60226A5A60002041
:400EC00002E0044800E0034870BDC046982E00101008000801005A0070B504000D000A4B1A68B423D3581B181B68002B0ADA0B0C03D00649064800F051FD2D042D0C65604D
:400F0000002000E0034870BD10080008D5020000182F001001008A0070B505000C000368002B01DA002300E0084B002B0BD1EA60230C03D00649074800F030FD2404240CFD
:400F4000AC60002000E0014870BDC04601008A00BB020000182F001070B505000C1E03D19921084800F01AFD074B1A68B423D3585B191B68002B03DAEB682360002000E066
:400F8000024870BD582F00101008000801008A0070B504000D00234B1A683123D35C834236D9002936D00B68DB0635D13123D35C984204D3C421FF311B4800F0EFFC194B87
:400FC0001B681A6AB0215B5A5C431419174E34602B68DA080021686801F089F900212000FFF77AFF3468002D03D111490E4800F0D5FC2A0000212000FFF78EFF00280DD114
:401000000A4B18680021FFF767FF002808D108E0084806E0074804E0064802E0064800E0054870BD10080008182F0010000800089303000003018A0001018A0010B5040034
:40104000002A17D1002915D1124B1A683123D35C984204D3C421FF310F4800F09FFC0D4B1B681A6AB0215B5A5C4314190B4B1C6000200EE0002A09D0002909D0074B5960A4
:401080009A60191D2000FFF783FF02E0044800E0034810BD10080008182F00100008000803018A00F0B583B00D001C4B1B68DC68236883422DD947097B01C01A0123834037
:4010C0001E00002903D100F028FD019001E000230193124B18680368002B01DA002300E00F4B002B0ED16368BF00DF193B68334203D0B3433B60002400E00A4C0021FFF773
:40110000EBFE00E0084C002D04D1019800F009FD00E0064C200003B0F0BDC0460008000801008A00020188000301880004018A000A4B1B68DA68136883420BD94309590124
:40114000401A0121814052689B009B580B4203D0034802E0034800E003487047000800080101880004018A0000018800034B1B68002B01D1014B18607047C0460C08000853
:40118000F0B5474680B404000F0090461E002D4B1B68002B03D1B5212B4800F0FFFB294B1B682C2060431C18FF22150035402560330A13406360360CA660244B1A6831236B
:4011C000D35C9D4204D3C421FF31214800F0E6FB1E4B1A68B023D35A6B43116A8C466344236166683223D35C9E4204D3E021FF31174800F0D3FB154B1B681D6A80367601BC
:40120000AD196561A668330C04D0FF214900104800F0C4FB330C03D00E490D4800F0BEFB3604330C1E43AE604346E36127620023A361069B002B02D000229B5EA38104BC28
:401240009046F0BD0C080008982F001010080008182F0010FF010000F0B58FB0041E03D15221294800F09AFB6368032B03D95421254800F093FBE36A002B03D158212248DA
:4012800000F08CFB236B002B03D159211E4800F085FB07AA1300210061C961C321C921C302AD290023001433C1CBC1C141CB41C10821535E0CAE3380144B1B6836215B5E42
:4012C00007998C466344B370089B0D930B9B0A980096A26AE16AFFF753FF2B69E868002200920021FFF74CFF216B300000F0E8FA0023F25E002A05DB1F231A401E3B934025
:40130000034A13600FB0F0BD982F00101008000800E100E0F8B505000F0016001C00002A03D1FD21224800F039FB224B1B68002B03D1FE211E4800F031FB1E4B1B682C2163
:4013400028004843181879435918012213004D68AB401B044568AA4015000269002A20D08F69002F1FD11268002A01DA002200E0114A002A19D132681204120C1343336079
:401380000369DE6001238B614C6204692B0C03D00A490B4800F002FB2A04120CA260002004E0084802E0084800E00748F8BDC046982F00100C08000801008A00BB020000C2
:4013C000182F001004028A0007028A0070B504000D0016000F4B1B68002B04D1AF2149000D4800F0DBFA0B4B1B682C2060431C18236A002B04D1B1214900074800F0CEFA6C
:40140000E369B34204D9236AB6009D51002000E0024870BD0C080008982F00100A028A0070B582B0040000230193002804D1D221FF312D4800F0B2FA2369002B04D1E92184
:401440004900294800F0AAFA6369002B04D1D421FF31254800F0A2FA236A002B04D1EA214900214800F09AFA6269D5682B0C24D01B041360136820691C4B1A68B423D358B2
:40148000C3181B68002B18DA01A9FFF765FD00280ED1019803681E0CFF221340E269934207D29B00226AD358002B02D0984700E0002631002069FFF70FFD2D042D0C0FD0D4
:4014C00063691D601B68636A002B03D098470023636203E0A36A002B00D098470023A36163691B6802B070BD982F00101008000810B50400084B1B68002B04D1B221FF31D6
:40150000064800F04BFA044B1B682C2060431818FFF786FF10BDC0460C080008982F001010B50400094B1B689B6CC340DB0703D4BE21074800F032FA044B1B681B691034AF
:40154000A402E3580F20184010BDC04610080008D82F0010134B1A683C23D35C83421DD9042904D94B1EFF3B9BB2132B18D8FF290CD91F2319400C4A0300C0339B00995030
:40158000D03080000423835000200AE007231940D0308000044BC150002002E0034800E002487047100800080000264001004A0070B5041E03D14A494A4800F0EFF9B0235A
:4015C000DB00494AD358002B00DA87E0474B22689A4203D94649434800F0E0F923689B039B0BE279002A02D08022520400E000221343B022D2003C498B50A2883D4B9A4227
:4016000004D98C218900374800F0C8F922893A4B9A4203D93949334800F0C0F9A388DB04D90C23891B04364A13400B43354A2E498B50A37A0F2B04D98E218900294800F060
:40164000ADF9E37A0F2B03D92F49264800F0A6F9A289284B9A4203D92C49224800F09EF9A37A0F211940E27A1201FF2313400B43A289120226490A401343A27B1207C021E3
:4016800089050A401343B122D20017498B50A379042B03D91F49134800F080F9228A164B9A4204D9912189000E4800F077F90E4819494558194B1D40A3791B02E022D200EF
:4016C00013402B4343504558154B1D40238A1B040B4A13402B434350002000E0114870BD1F0200001830001000002640FFFF030029020000FF1F0000FF01000031020000E5
:401700000000FF0184050000390200003A02000000FF1F00430200008C050000FFF8FFFFFFFF00FE03004A0070B505003149324A8B588020000603438B502C0003E001207D
:4017400000F020F9013CB223DB002A4AD3585B0701D4002CF3D12749B122D2008858274B03408020800503438B50002D01D0002C0CD02049B022D2008B58802000060343DB
:401780008B5003E0012000F0FDF8013CB223DB00184AD358DB0701D4002CF3D1002D01D0002C08D01349B122D2008B58C020800503438B5013E00F4BB121C90058580F4AE7
:4017C00002408020800502435A5008395A58520052085A5008495A58520052085A50002D03D0002C03D0002002E0002000E0044870BDC046000026408C050000FFFFFFCFAE
:4018000002004A0070B505000C001A4B1B6828229A5C012A15D1820807211000884327D19200AD1AED00FF20A8401B6820339A181168AC4023004B40184004004C40146024
:4018400016E03A229B5EDBB2994203D176210A4800F0A4F8074B1B681B68072215408022120615438022920194466444A400E55070BDC04610080008A030001070B5040098
:401880000D000B4B9A680B4B9A420CD1002904D13821FF31084800F081F81034054BA400E058E55003E01034A400044BE05870BD00ED00E000000008A0300010000000108B
:4018C000F0B5474680B482B0061E01914AD04368032B03D93221264800F060F80023F05E002804DBB178FFF78DFF002400E0214C0023F15E7368002912DB88081E4FC030DE
:401900008000C55903221140C900FC3290468A4095439A01434613408B402B43C35116E089B20F220A40083A92080632920013481018476803221140C900FF252A008A4085
:4019400097439A012B0013408B403B4343600B4B9A680B4B9A4206D10023F05E0199FFF78DFF00E0034C200002B004BC9046F0BDA03000100100560000E100E000ED00E091
:401980000000000810B5034B1B78584300F0BCF810BDC046D400000801BEFEE770B50D00044C18220100200000F0A9FCA5610020FFF7F2FF00060008054B802212069A6452
:4019C0009B6C002B01DB002000E002487047C0460000274003004600054B8022120198585B68FF221A4202D08023DB021843704700002640FEE7C04610B50A4B0268DA6179
:401A000042681A6282685A62C2689A620269DA6242691A6382695A63C2699A63FFF7EAFF10BDC04600060008F0B5474680B4002801D0192300E064238B429B415B42304D90
:401A40002C682268A826A45BA41822680327BA433B401A4322602C682268A45BA2181668284CA046264016602C682668AA229446A25A96193268BA43134333602A68136829
:401A80006546525BD3181A68444614401C60002805D010291BD921291BD8012024E0184B1B6855229A5C914215D956229A5C914213D957229A5C914211D958229A5C9142CB
:401AC0000FD959229B5C99420DD804200CE000200AE0022008E0002006E0012004E0022002E0032000E00520054A1268526813680F218B430343136004BC9046F0BDC04673
:401B000010080008FFFCFFFF0230800803D001300238FCD1C046C0467047EFF3108072B6704780F31088704710B5B0235B059B899BB2002B04D0B0235B059B899BB201E004
:401B400080235B0080225200934215D1184C23681968683A9B58C9180B680F208343963A13430B6021680C689C23CB58E318196881430A431A6019E00D4C236819689822DB
:401B80009B58C918B02040050A4BC2580A4B13400A681343C022920013430B60226811689C23D358CB18054A82581A6010BDC0461008000848180000FFFCFFFF441800000D
:401BC00030B5B0235B059B899BB2002B04D0B0235B059B899BB201E080235B0080225200934215D1184C23681968683A9B58C9180B680F208343953A13430B6021680C6850
:401C00009C23CB58E318196881430A431A6019E00D4D2B68196898229B58C918B0246405C12040012258094B13400A681343C022920013430B602A6811689C23D358CB1871
:401C400022581A6030BDC04610080008FFFCFFFFB0235B059B899BB2002B04D0B0235B059B899BB201E080235B008022520093420DD1104B1B681A6898215B58D218116868
:401C80000D4B0B40C021C9010B43136011E0094B1B68196898229B58C918084BB0225205D258074B13400A681343C022920013430B60704710080008FF8FFFFF1818000063
:401CC000FFFCFFFF30B5B0235B059B899BB2002B04D0B0235B059B899BB201E080235B008022520093420DD1134B1B681A6898215B58D2181168114B0B408021C9010B43A7
:401D0000136018E00C4D2B68196898229B58C918B02464050A4822580A4B13400A681343C022920013430B602A6811689C23D358CB1822581A6030BD10080008FF8FFFFF2A
:401D40004C180000FFFCFFFF10B5B0235B059B899BB2002B04D0B0235B059B899BB201E080235B0080225200934217D10020FFF7D7FBB0235B055B78002B04D0B0235B054A
:401D80005B78DBB200E02123222B03D8002803D1013004E0012002E0002000E0012010BDF8B50700012803D93D493E48FFF7F6FDB0235B055B78002B04D0B0235B055B78BC
:401DC000DBB200E021239DB2B0235B059B899BB2002B04D0B0235B059E89B6B201E0802676000020FFF79CFB002814D180235B009E4212D1222D12D82B4B1B685C682B489D
:401E000021582B4B19403B068022520413400B432350002404E0274C02E0264C00E0254C80235B009E4201D1222D03D880235B009E4232D01C4B1A683123D35C002B04D1C7
:401E4000C421FF311C48FFF7A9FD174B1B681D6A80235B009E4203D1002F05D0174A06E0002F03D0164A02E0164A00E0164A01212800FFF751F800280FD10B4B1A68B423C0
:401E8000D3585B191B68002BF7DBEB681B0E1B06A0221206934200D100242000F8BDC0464C0A0000E43000101008000818F00000FFFFFFFE04004200582E0010010100303C
:401EC0000300000C010000300100000C70B50400022805D0052803D020492148FFF75EFDFFF732FF002836D0FFF717FE0600022C07D10120FFF754FF051E0FD1FFF714FE69
:401F00000CE018494B6907229343043A13434B613420FFF737FDFFF7D5FE0025002D16D110494B69072293431A000723234013434B61022C02D1FFF78BFE08E09120FFF71D
:401F400021FDFFF73DFE0020FFF72AFF05003000FFF7E7FD00E0044D280070BD02070000E43000100000264003004200F8B50500012804D9822109012948FFF70FFDFFF798
:401F8000E3FE002849D0FFF7C8FD0700002D11D10021244B244AD150E823DB00B0225205D65CF6B20120FFF7FBFE041E19D1FFF7BBFD16E0B02252051C4BD0581A4B1949E7
:401FC00058501B49565CF6B21A481A581F218A4314390A431A500320FFF7D4FCFFF772FE0024002C15D11049124A8B581F20834306401E438E50002D02D1FFF729FE08E0EA
:402000000720FFF7BFFCFFF7DBFD0020FFF7C8FE04003800FFF785FD00E0074C2000F8BDE4300010307F00000000264010180000410700001CFF000003004200F8B50400A8
:40204000022806D0052804D0CC21C9003E48FFF7A5FC3E4B1B681B0268D4FFF75EFD0700022C1CD13A4B394AD3581F221340E822D200B02149058A5C9A4204D00020FFF746
:4020800075FF050000E00025002D09D12F48304943581F229343143A1343435000E02D4D052C1BD12A4B294AD3581F221340E822D200B02149058A5C9A4204D10120FFF7FB
:4020C00055FF050000E00025002D07D11F48204943581F229343043A13434350002D21D10920FFF74FFC194E3368E022D20313433360726907239A431C4014437461736943
:402100008022D2051343736173698022120613437361E1208000FFF735FC336880221204134333603800FFF7FCFC0BE0074B5B69072213409C4204D02000FFF7C7FE050023
:4021400000E000252800F8BDE4300010000026401CFF000003004200042805D10B4A116804230B4313600FE0094B1A681168A023D358CB180006C022920410401860034A39
:40218000136804218B4313607047C04610E000E0100800080749C02252008B589B009B088020C00503438B508B588020000603438B50704700002640014B18607047C0461E
:4021C00010080008002243088B4274D303098B425FD3030A8B4244D3030B8B4228D3030C8B420DD3FF22090212BA030C8B4202D31212090265D0030B8B4219D300E0090AE9
:40220000C30B8B4201D3CB03C01A5241830B8B4201D38B03C01A5241430B8B4201D34B03C01A5241030B8B4201D30B03C01A5241C30A8B4201D3CB02C01A5241830A8B42F4
:4022400001D38B02C01A5241430A8B4201D34B02C01A5241030A8B4201D30B02C01A5241CDD2C3098B4201D3CB01C01A524183098B4201D38B01C01A524143098B4201D368
:402280004B01C01A524103098B4201D30B01C01A5241C3088B4201D3CB00C01A524183088B4201D38B00C01A524143088B4201D34B00C01A5241411A00D201465241104676
:4022C0007047FFE701B5002000F006F802BDC0460029F7D076E770477047C046002310B59A4203D0CC5CC4540133F9E710BD03008218934202D019700133FAE770470300A3
:4023000030B5002A0DD00C7801335D1E013A2C700131002CF5D19A189A4202D01C700133FAE730BDF8B5C046F8BC08BC9E467047F8B5C046F8BC08BC9E4670470300000006
:4023400001000000010000000000000005036000040000000100000000000000010000000604600008000000C8070008B101001073797374656D5F70736F63365F636D3094
:40238000706C75732E630000F80100002A0002010A00080708000000C6000000002034407400802034407400002234407400802234407400002434407400802434407400FF
:4023C000002634407400802634407400002834407400802834407400002A34407400802A3440740000213440282500109000000000233440B82500109000000000253440CE
:40240000482600109000000000273440D826001090000000002934406827001090000000002B3440F82700109000000000603440882800107C00000080603440042900108A
:402440007C00000000613440802900107C00000080613440FC2900107C00000000623440782A00107C00000080623440F42A00107C00000000633440702B00107C000000CE
:4024800080633440EC2B00107C00000000643440682C00107C00000080643440E42C00107C00000000653440602D00107C00000080653440DC2D00107C0000000300000053
:4024C0000000000000000000680000000000000000000000000000001212000000000000030000000000000000000000CC0000BA00000000000000000000000013130000A1
:4025000000001D1D0000000001000000010000000B0000000000000000000000000000000000000000000000000000000000000000000000FFFFFFFFFFFFFFFFFFFFFFFF60
:40254000FFFFFFFFFFFFFFFFFF000000FFFFFFFFFFFFFFFFFFFFFFFFFFFFFFFFFFFFFFFFFF000000000000000000000000000000000000000000000000000000FFFFFFFF7D
:40258000FFFFFFFFFFFFFFFF1111111111111111111111111111111111111111111111111111111111111111111111111111111111111111111111110000400000000000B3
:4025C00000000000FFFFFF6FFFFFFFFFFFFFF2FFFFFFFFF7FFFFFFFFFF000000FFFFFFFFFFFFFFFFFFFFFFFFFFFFFFFFFFFFFFFFFF0000000000000000001F00000000008B
:40260000050000000000000000000000FFFFFFFFFFFFFFFFFFFFFFFF1111111111111111111111111111111111111111118E1111111111111111111111611111101111112D
:402640001111111111111110000081900000000000000040FFFFFFFFFFFFFFFFFFFFFFFFFFFFFFFFFFFFFFFFF6000000FFFFFFFFFFFFFFFFFFFFFFFFFFFFFFFFFFFFFFFFB4
:40268000FF0000001F001F0000000E1F000000001F1F1F1F0000000000000000FFFFFFFFFFFFFFFFFFFEFFBF111111C11111111111111111111111111111111111F1111159
:4026C000111111111111111111111111111111111111111011111111040010810000000000000000FFFFFFFFFFFFFFFFFFFFFFFFFFFFFFFFFFFFFFFFFF000000FFFFFFFFC7
:40270000FFFFFFFFFFFFFFFFFFFFFFFFFFFFFFFFF70000001F0000001F00070B1F00001F0807001F000F0F00F00F00F5FFFFFFFFFFFFFFFFFFFFBF7F1111111C111111111D
:4027400011111111111111111111111111111111111111111111011111111111111111111111011101111111008028880000000000000080FFFFFFFFFFFFFFFFFFFFFFFF3D
:40278000FFFFF3FFFFFFFFFFFF000000FFFFFFF0FFFFFFFFFFFFFFFFFFFFFFFFFFFFFFFFFF0000000000081F001F001F1F071F1F001F001F000076000F0000F0FFFFFFFFDA
:4027C000FFFFFFFFFFFFDF7D111111111111D1111111111111111111111111111111111E1111111111110111111111111111111111011111111711118020104000000000B0
:4028000000000000FFFFF5FFF7FFFFFFFF1FFFF155FFF7F65FFFFF6FF7000000FFFFFFFFFFFFFFFFFFFFFFFFFFFFFFFFFFFFFFFFFF000000000000001F00001F0000000077
:4028400000001F1FF60000F00000F000FFFFFFFFFFFFFFDFFFFFFFFF111151C1E11111111111111111111111111111111111111111411E111115111111116111131118116E
:402880001FB111117171111100000000000000001F1F1F1F1F1F1F1F1F1F1F1F1F1F1F1F1F1F1F1F1F1F1F1F1F1F1F1F1F1F1F1F0000000000000000000000000000000042
:4028C0000000000000000000FFFFFFFFFFFFFFFFFFFFFFFF1111111111111111111111111111111111111111111111111111111111111111111111111111111111111111F8
:402900001111111100000000000000001F1F1F1F1F1F1F1F1F1F1F1F1F1F1F1F1F1F1F1F1F1F1F1F1F1F1F1F1F1F1F1F0000000000000000000000001F0000000000000054
:4029400000000000FFFFFFFFFFFFFFFFFFFFFFDF11111111111111111111111111111111111111111111111111111111111111111111111111111111111111111111111153
:4029800000000000000000001F1F1F1F1F1F1F1F1F1F1F1F1F1F1F1F1F1F1F1F1F1F1F1F1F1F1F1F1F1F1F1F000006040000001F000000001F080F00007000000000000068
:4029C000FFFFFFFEFFFFFFFFFFFFFB7F1111111111111111111111111111111111111111111111111D111111111111111111111111111111111111111111011100004000FC
:402A0000000000001F1F1F1F1F1F1F1F1F1F1F1F1F1F1F1F1F1F1F1F1F1F1F17171F1F1F1F1F1F1F0D000602000000001F0000081F00001F000F07007007005FFFFFFFFF64
:402A4000FFFFFFFFFBDFFDFF1111111D111111111111111110111111111111111111111111111111111111111111111D11111111111111711EF1E10F000000000000000022
:402A80001F1F1F1F1F1F1F1F1F1F1F1F1F1F071F1F1F1F1F071F1F1F1F1F1F1F1F1F1F1F0000001F001F000E0E1F021F0005001F00000F00060500F0FFFFFBFFFFFFFFFBAE
:402AC000FFFFFFFF11111111D1111111111111111111111D11111111111111111111111111111D117110111111171111011E111111E1111E00000040000000201F1F1F1FB7
:402B00001F1F1F1F1F1F1F1F1F1F1F1F101F1F1F1F071F1F1F1F1F1F1F1F1F1F000000000000010700000000000000067F0000F00040F000FFFFFFFFFFFFFFFFFFFFFFFDB9
:402B400011111111D1111111111011111111111111111111111111111111111111101111111111111B1D1111611D11111111111D00000000000000001F1F1F1F1F1F1F1FF1
:402B80001F1F1F1F1F1F1F1F1F1F1F1F1F1F1F1F1F1F1F1F1F1F1F1F000000000000000000000000000000000000000000000000FFFFFFFFFFFFFFFFFFFFFFFF11111111F5
:402BC000111111111111111111111111111111111111111111111111111111111111111111111111111111111111111100000000000000001F061F1F1F1F1F1F1F1F1F1F8E
:402C00001F1F1F1F1F1F1F1F1F1F171F1F1F1F1F1F1F1F1F000000000000070600000000000000000000005000000000FFFFFFFFFFFFFFFFFFFFFFFD111111111111111159
:402C4000111111111111111F1111111111111111111111A11111111111111161111D1111111111111101101100000000000000C81F1F1F1F1F1F1F1F1F1F1F1F1F1F1F1F0B
:402C80001F1F1F1F1F1F1F1F1F1F1F1F1F161F1F0C001F0000001F0700000A06061F1F070000000000000000FFFFFFFFFFFFFFFFFFDFF727111111111111111111111111C1
:402CC000111111111111111111111111111111111111111111C1111111011111111111111111111100000000000000401F1F1F1F1F1F1F1F1F1F1F1F1F1F1F1F1F1F1F1F24
:402D00001F1F1F1F1F1F1F1F1F1F1F1F1F00000D07001F000700001F001F000700040F00F00F00F0FFFFFFFFFFFFFFFFFFF7FFFF11111111E11111111111111111111111B3
:402D400011111111111111111111111111E111111111111111111111111E11D11DD111DE00000000000000081F1F1F1F1F1F1F1F1F1F1F1F1F1F1F1F1F1F071F1F1F1F1F25
:402D80001F1F1F1F1F1F1F1F0000000E000F000000001F060000000F000000000F000050FFFFFFFFFFFFFFFFFFFFF7FF11111111F11111111111111111111111111111114B
:402DC00011111111111111111111181111111111111D0111111111111111111100000004000000001F1F1F1F1F1F1F1F1F1F1F1F1F1F1F1F1F1F0F1F1F1F1F0F1F1F1F1FAC
:402E00001F1F1F1F0000000707000000000006080000071FF000006000006F00FFFFFFFFFFFFFFFFFFCFFFFE111111111111111111111111111111111111111111111111BA
:402E4000111111111111111111111111111F1111111D1BE11191111D47656E6572617465645F536F757263655C50536F43365C70646C5C647269766572732F7065726970AE
:402E8000686572616C2F6970632F63795F6970635F6472762E68000047656E6572617465645F536F757263655C50536F43365C70646C5C647269766572735C7065726970FB
:402EC000686572616C5C6770696F5C63795F6770696F2E630000000047656E6572617465645F536F757263655C50536F43365C70646C5C647269766572735C70657269702B
:402F0000686572616C5C6770696F5C63795F6770696F2E680000000047656E6572617465645F536F757263655C50536F43365C70646C5C647269766572735C7065726970E5
:402F4000686572616C5C6970635C63795F6970635F6472762E68000047656E6572617465645F536F757263655C50536F43365C70646C5C647269766572735C7065726970E0
:402F8000686572616C5C6970635C63795F6970635F6472762E63000047656E6572617465645F536F757263655C50536F43365C70646C5C647269766572735C7065726970A5
:402FC000686572616C5C6970635C63795F6970635F706970652E630047656E6572617465645F536F757263655C50536F43365C70646C5C647269766572735C706572697003
:40300000686572616C5C70726F745C63795F70726F742E630000000047656E6572617465645F536F757263655C50536F43365C70646C5C647269766572735C7065726970BD
:40304000686572616C5C737973636C6B5C63795F737973636C6B2E630000000047656E6572617465645F536F757263655C50536F43365C70646C5C647269766572735C7085
:4030800065726970686572616C5C737973636C6B5C63795F737973636C6B2E680000000047656E6572617465645F536F757263655C50536F43365C70646C5C647269766541
:4030C00072735C7065726970686572616C5C737973696E745C63795F737973696E742E630000000047656E6572617465645F536F757263655C50536F43365C70646C5C64E9
:403100007269766572735C7065726970686572616C5C737973706D5C63795F737973706D2E6300000000204000002440000000400000000000002340000030400000314028
:4031400000009F40000022400000104002020202020202020210101D800017007500FF030602063604102000000000007FC0000000040000000000000019324B647D0080AF
:403180004000080B100000000000FF012002001F00800004FF081018001000140018001C4044484C5000000008100000080000000400000004100000001200000421000089
:4031C000002100000016000040114002C41300138013A013200000001C0000000000214000002540000001400000344000002440000031400000324000001F410000234014
:4032000000001140010101010101010101101010800019005500F0000501053B04101C01010000000FC000000004000001010101011D3A57789600082000101208000000C8
:40324000001F00000010000F002000023F06080E00080009000A000B24282C3034000000100000009000000088000000080000008000000004F0000000F0000040020000BB
:403280002005A000D00100018001A0012000000010000000000000000000001000000008C0000000B8320010C0000008400500003C060008D80100000048E80100127A0066
:4032C00000093D0000093D0000093D0004000000A00F00000000D007E9000010C10000100000000010B50004400B27D0144B1A68146AB023D15ACA00531AE3181B68002B60
:40330000F4DA3E220F4B1A600F4A104B1A60104B0621A322D20099500E4A98509B58084B1A68106AB023D15ACA00531AC31800225A60084B064AD358002BFADA10BDC0464D
:4033400010080008040126401E1F000008012640000026401C05000010B54378FF2B20D100F00AFA04000F4B1A683123D35C042B04D8C421FF310C4800F026FA094B1A6843
:40338000116AB023D35A9B00CB18DB685A68116801230B4313601368DB07FCD4200000F0FBF910BD10080008582E0010F0B585B001900291544B1A683123D35C002B04D15B
:4033C000C421FF31514800F0FFF94F4B1B681E6AB4229A58971950229B5C002B77D000F003FA050003283CD1474B1A683123D35C062B04D8C421FF31444800F0E5F9424B75
:403400001968B023CB5A5A00D21853000A6A94466344B4228A58D3181B68002B23DB002000F0A2F93A4B98421FD03A4B1A6900230021012000F0D0F9002803D0364C17E0A5
:40344000013400E00024002000F08EF9304B984202D0324B9C42F3D9304B9C4207D92E4C06E0002404E02C4C02E02B4C00E00024002C46D100F080F90390294B294AD35867
:40348000002B13DA234A0121300000F095F900280ED10298FFF726FF019B002B0AD03B68002BFCDB00F080F9040004E01A4C02E0194C00E01C4C032D05D10121002000F037
:4034C00063F90028F9D1039800F066F919E000F053F905000F4A0121300000F06DF9002809D1019B002B08D03B68002BFCDB00F05BF9040002E0084C00E00B4C280000F046
:403500004BF9200005B0F0BD10080008582E001001018800E807000805005200EF4902001C0500000000264001005000F0B54F464646C0B4824B1A685468B0235B055B78DA
:40354000002B04D0B0235B055B78DBB200E02123212B67D1B023D15ACB005B1A116A8C46634419680029F5DADD6802212943D960B023D15ACB005B1A116A8C466344D968E6
:40358000C9073ED5D9680904090C8C4684271168D559A84641440968090A0904FF26360431400D0088261168894691598846C14449460968090A0906294365462943D9602F
:4035C0001168D359C9180A685E4B98461A4090252D012A430A605A4B99461A6813689C46925962441368414619400B002B4313604B461A681568D15969180B689359EB1860
:403600001B684F4B1A68B021555AEB005B1B156AAC46634400255D60156A515ACA00531AEB185B68484A116904230B431361012801D030BF00E020BF414B1A68B023D15A40
:40364000CB005B1A116A8C46634419680029F3DAB02149054978002904D0B02149054978C9B200E02121212932D1D968C90722D510688421525880180468324A1440DB6812
:403680001B0C1B02FF2109020B40234303602C4B19688823C8580B689C46604403681A400D6AB023CC5AE1000B1BEB18DB681B0E1B021A430260224B1A68106AB023D15ADD
:4036C000CA00531AC318DA6802218A43DA6028E086235B00E358002B23D11C4807681C4BA321C9005E581B4A904615681A4A0260062058503E21424611600631174A995044
:40370000164B134AD358002BFADA154A86235B00E2500E4B1F60A323DB000D4AD6500D4B1D60074B1A68106AB023D15ACA00531AC31800225A600CBC90469946F0BDC046D7
:4037400010080008FF00FFFF00ED00E00801264000002640040126401E1F00001C050000AAAAAAAA0000000001B40248844601BC604700BF3111001001B40248844601BC55
:40378000604700BF1B1B001001B40248844601BC604700BFA510001001B40248844601BC604700BF231B001001B40248844601BC604700BF190A001001B40248844601BCCD
:4037C000604700BF190F001001B40248844601BC604700BF9D19001001B40248844601BC604700BF1513001001B40248844601BC604700BF35040010000000000000000020
:020000041008E2
:40000000007804085F0608100D000000C5060810C5060810C5060810C506081000000000000000000000000000000000E15E0810C106081000000000815F0810E55F08109C
:40004000C1060810C1060810C1060810C1060810C1060810C1060810C1060810C1060810C1060810C1060810C1060810C1060810C1060810C1060810C1060810C106081090
:40008000C1060810C1060810C1060810C1060810C1060810C1060810C1060810C1060810C1060810C1060810C1060810C1060810C1060810C1060810C1060810C106081050
:4000C000C1060810C1060810C1060810C1060810C1060810C1060810C1060810C1060810C1060810C1060810C1060810C1060810C1060810C1060810C1060810C106081010
:40010000C1060810C1060810C1060810C1060810C1060810C1060810C1060810C1060810C1060810C1060810C1060810C1060810C1060810C1060810C1060810C1060810CF
:40014000C1060810C1060810C1060810C1060810C1060810C1060810C1060810C1060810C1060810C1060810C1060810C1060810C1060810C1060810C1060810C10608108F
:40018000C1060810C1060810C1060810C1060810C1060810C1060810C1060810C1060810C1060810C1060810C1060810C1060810C1060810C1060810C1060810C10608104F
:4001C000C1060810C1060810C1060810C1060810C1060810C1060810C1060810C1060810C1060810C1060810C1060810C1060810C1060810C1060810C1060810C10608100F
:40020000C1060810C1060810C1060810C1060810C1060810C1060810C1060810C1060810C1060810C1060810C1060810C1060810C1060810C1060810C1060810C1060810CE
:40024000C1060810C1060810C1060810C1060810C1060810C1060810C1060810C1060810C1060810C1060810C1060810C1060810C1060810C1060810C1060810C10608108E
:40028000C1060810C1060810C106081010B5054C237833B9044B13B10448AFF300800123237010BD8449020800000000FC9C0810084B10B51BB108490848AFF30080084881
:4002C000036803B910BD074B002BFBD0BDE81040184700BF0000000088490208FC9C0810544302080000000008B502F00FF9134A134B5A6413486823437000238370124B47
:40030000C361124B0362124B436201F03BFFC0B288B90C480C23437183710223C371112202710D22427300228273C3731523037301F06EFFC0B240B208BD00BFF923081074
:4003400090760208247602087D23081025230810FD56081030B585B002218DF8041005238DF805309DF8063043F0010303F0FD0343F00C036FF304138DF80630BDF8063038
:40038000042262F34813ADF806309DF809309DF8082002F0F30261F307126FF301028DF8082063F07F039DF80A2042F001028DF80A2003F0C00343F040038DF809300D49E3
:4003C00001A801F07BFF05460B4C0C49204604F07DF8B4F90030002B08DB590903F01F03012202FA03F3064A42F82130284605B030BD00BF24760208789608100504081017
:4004000000E100E008B5114B5A6901225A615B690F4BB3F90030002B09DB5A0903F01F03012101FA03F360320A4941F822300A4B186804F0CDFF38B14FF08052074B1A60E2
:40044000BFF34F8FBFF36F8F08BD00BF800632407896081000E100E04C76020804ED00E0F0B585B005461E4B002201A9012001F0F1FEBDF9044084EAE472A2EBE47292B2FC
:40048000BDF9067087EAE771A1EBE77189B2BDF9086086EAE673A3EBE6739BB29A4209D2994207D2002E02DA05232B7015E004232B7012E08A4209D2994207D9002F02DDBC
:4004C00001232B7009E000232B7006E0002C02DA03232B7001E002232B7005B0F0BD00BF2476020800B583B003220021012004F075FA3F4B186048B93E4B009300220192FB
:40050000134669463C48006804F08EFAFFF7ECFE60B13A4A0092019000231A4669463648006804F081FA002005F074F9FFF712FF60B1334A0092019000231A4669462E484A
:40054000006804F071FA002005F064F92D4C2046FFF786FF2378052B45D8DFE803F0030E19242F3A284B009300220192134669462148006804F058FA35E0244B009300227C
:400580000192134669461C48006804F04DFA2AE01F4B009300220192134669461648006804F042FA1FE01B4B009300220192134669461148006804F037FA14E0164B00935C
:4005C00000220192134669460B48006804F02CFA09E0124B009300220192134669460648006804F021FA002005F014F9AEE700BF547602087893081050760208B093081076
:40060000F4930810A0490208449408106494081084940810A4940810C4940810E494081000B583B04FF0FF326946094B186804F093FB0128F6D1019A22B10099054806F011
:4006400045FEEFE70099044806F040FEEAE700BF5076020804950810C09508107047FFF7FDFF72B6104C114DAC4209DA21686268A368043BA2BFC858D050FAE70C34F3E735
:400680000B490C4A00209142BCBF41F8040BFAE709480A490860BFF34F8F00F079F900F053F900F01DF8FEE7009D0810189D081084490208347702080040020808ED00E0A8
:4006C000FEE7FEE700B504207146084202D0EFF3098001E0EFF30880043003F043FFFEE700B583B001F0D6FE144806F0EFFD144806F05EFE134B0193132300930023802267
:400700001149124804F032FE00220821102004F065F90F4B1860002301930122009280220C490D4804F022FE04F0A4FE0B4806F03FFE62210A4803F005FFFEE710950810EC
:400740001C9508104C76020850950810E5040810507602085C95081021060810689508109095081008B5002003F0C2FF08BD00BF08B5044806F0AAFD9721034803F0E2FEEB
:4007800008BD00BF9C9508109095081008B5044806F00EFEAF21034803F0D4FE08BD00BFC89508109095081008B5012002F09CFA08BD00BF704700BF5C4AD2F8803303F098
:4007C0000F0303F1D00152F8212002F00702032A04D0042A05D092B9554914E0554A116811E003F1C002514951F8222002F01F02112A06D0132A04D04FF4FA4103E04E49AA
:4008000001E04FF400418BBB484BD3F8902502F00100D3F88825C2F30172D3F8883513F0405F07D0414BD3F88835C3F30173012B02D102E0012300E0002303B108B9032A7E
:4008400046D13A48D0F88025C2F31103D0F88425C2F30C02D0F88005C0F300600130B1FBF2F202FB03F2B2FBF0F131E0012B2FD12E4BD3F8402602F00100D3F80026C2F354
:400880000172D3F8003613F0405F07D0274BD3F80036C3F30173012B02D102E0012300E0002303B108B9032A12D12048D0F8002602F07F02D0F80036C3F30423D0F80006AF
:4008C000C0F3044002FB01F2B2FBF3F2B2FBF0F1164BD3F88033C3F3011321FA03F215494A601648D0F89030C3F3072301330069000E0130B2FBF0F08860B2FBF3F3CB605B
:400900000B6103F5742202F23F220D48A0FB0202C2F387420A7503F2E7330A4AA2FB03239B098B61DB03CB61704700BF0000264000127A008C42020800366E010000214071
:4009400083DE1B43D34D621008B50D4803F01AFFFFF730FFFFF730FF00221146042001F08BFF084802F01EF8074B1B6893F8513013B1064802F086F801F0C8FE08BD00BFB0
:40098000649A0810A4490208DC760208F895081008B503F042FE074AD2F8883043F47003C2F88830BFF34F8FBFF36F8F03F039FE08BD00BF00ED00E040B1C2694AB1026A0C
:4009C00052B1436A5BB94FF0FF3070474FF0FF3070474FF0FF3070474FF0FF3070470020704700BF0222C271082343711021017103218171C2734373142303730023837369
:400A000043688360C3680361704700BF4B790F2B0BD84A7A93420BD0027802F0F00203F00F0313430370002070476FF00300704700207047CB79022B08D8CA7A934208D099
:400A4000037803F08F030370002070476FF0030070470020704700BF8B790C2B0BD88A7A93420BD0027802F0F00203F00F0313430370002070476FF00300704700207047B8
:400A80004B7B0D2B0BD84A7C93420BD0027802F0F00203F00F0313430370002070476FF00300704700207047CB7B022B09D8027802F0CF021B0103F0300313430370002030
:400AC00070476FF0030070478B7B042B0BD88A7C93420BD0027802F0F80203F0070313430370002070476FF0030070470020704738B593B11C46DD6995B19B78012B01D135
:400B000040F0800013460A4601466078A8470546636A0120984745B105E04FF0FF3504E04FF0FF3501E06FF00105284638BD00BF38B504460D460B46022201464020FFF78D
:400B4000D7FF034680B929462046FFF75FFF034650B929462046FFF76DFF034620B92946601CFFF779FF0346184638BD38B504460D460B46022201464220FFF7B9FF0346B5
:400B800080B929462046FFF77BFF034650B929462046FFF789FF034620B92946601CFFF793FF0346184638BD00B583B002A9002301F8013D034601220220FFF799FF9DF843
:400BC0000730C3F34303012B06D0022B07D0032B08D0072B0BD108E06FF0050007E06FF0060004E06FF0070001E06FF0080003B05DF804FB30B585B005460C460023019309
:400C000002938DF80C301346821D01A91220FFF76FFF48BB02469DF805301B021BB29DF804100B4323809DF807301B021BB29DF806100B4363809DF809301B021BB29DF8AE
:400C400008100B43A380032D0BD19DF80A009DF80B309DF80C10090441EA03230343A36004E00023A36001E06FF00102104605B030BD00BF10B584B00C46134600210091BE
:400C800001910291CDF80B1010BB062269460C20FFF72EFF0146002846D19DF801301B021BB29DF80020134323809DF803301B021BB29DF80220134363809DF805301B02D1
:400CC0001BB29DF804201343A3800023A36030E002460C3269460C20FFF70AFF014630BB9DF801301B021BB29DF80020134323809DF803301B021BB29DF80220134363802D
:400D00009DF805301B021BB29DF804201343A3809DF80C009DF80D309DF80E20120442EA03230343A36004E06FF0010101E06FF00101084604B010BD70B584B006460D4698
:400D400014460022009201920292CDF80B2000F10C0269460C20FFF7CBFE002843D102469DF801301B021BB29DF800100B4323809DF803301B021BB29DF802100B43638061
:400D80009DF805301B021BB29DF804100B43A3809DF807301B021BB29DF806100B432B809DF809301B021BB29DF808100B436B809DF80B301B021BB29DF80A100B43AB808B
:400DC000032E0CD19DF80C009DF80D309DF80E10090441EA03230343AB60A36005E00023AB60A36001E06FF00102104604B070BD2DE9F843002B31D00546894690461E46AC
:400E00001C6A74B39B78012B01D100F07F05337A112B02D0337C152B19D143464A4629467078A0470746736A0120984714E0376A012309EB040229467078B84707460135DF
:400E4000EDB2736A012098470134E4B201E000242746A3B24345EAD347B105E04FF0FF3704E04FF0FF3701E06FF001073846BDE8F88300BF10B582B0044602A8002320F8A9
:400E8000043D2146FFF754FE0346C8B92346012201A94020FFF7ACFF034688B963796372E379E372636A01209847234601220DF105014120FFF79CFF034608B9A279A272CD
:400EC000184602B010BD00BF10B582B0044602A8002320F8043D2146FFF748FE0346C8B92346012201A94220FFF782FF034688B9637B6374E37BE374636A01209847234649
:400F000001220DF105014320FFF772FF034608B9A27BA274184602B010BD00BF30B583B004460D4600238DF807300B46012201464020FFF7DDFD034628BB2A79122A14D178
:400F4000237863F07F0323702B46012221464020FFF74EFF0346B0B92B4602220DF107015820FFF745FF03460DE0227812F0800F09D002F07F0222702B4601222146402037
:400F8000FFF736FF0346184603B030BD30B583B000238DF807300279A2F11003DBB2022B1AD8037A9A421AD0044601460DF10700FFF7B4FF054698B923460122211D7E2075
:400FC000FFF716FF0546237A102B02D1636A052098472379237203E06FF0030500E00025284603B030BD00BF38B5027BA2F11403DBB2012B01D9172A1DD1037C9A421DD0B4
:4010000004460346012200F10C017E20FFF7F0FE0546237C142B03D1636A5120984707E0172B05D1237B152B02D1636A0A209847237B237403E06FF0030500E000252846E8
:4010400038BD00BF30B583B005460C4602A9002301F8013D234601225020FFF749FD034660BB2B7813F0010F18D09DF8072002F0FE032978C1F340021A4302F0FD02C1F380
:40108000800342EA430202F0FB02C1F3C00342EA83038DF807300023E37007E09DF8073023F007038DF80730FF23E370234601220DF107015020FFF79BFE0346184603B006
:4010C00030BD00BF30B583B005460C4602A9002301F8013D234601225320FFF709FD0346002844D12B78012B1CD19DF8072002F0F702A97801F0010342EAC30202F0FB02B0
:40110000C1F3400342EA830303F0FD02C1F3800342EA430303F0FE03C1F3C0010B438DF807301CE09DF8072002F07F02A97801F0010342EAC31202F0BF02C1F3400342EAE0
:40114000831202F0DF02C1F3800342EA431202F0EF02C1F3C00342EA03138DF80730234601220DF107015320FFF742FE0346184603B030BD30B583B004460D4602A90023F2
:4011800001F8013D2B4601225420FFF7B1FC034650BB2378012B0BD19DF8073003F0EF02A378C3F3001342EA03138DF807300AE09DF8073003F0DF02A378C3F3001342EA2A
:4011C00043138DF807309DF8073003F0F0026388C3F34313134302A901F8013D2B4601225420FFF705FE0346184603B030BD00BF38B504460D46FFF765FF034620B9294681
:401200002046FFF7B7FF0346184638BD10B582B0044602A9002301F8013D034601226220FFF766FC034678B99DF8072012F0020F0AD002F0FD0202A901F8012D2346012202
:401240006220FFF7D5FD0346184602B010BD00BF70B582B005460C4600238DF804308DF805308DF806300B46032201A95520FFF73FFC024698BB9DF804006B781949CE5C91
:40128000F3435BB218409DF806100B402D78032D1BD8DFE805F002070D138DF804008DF8063014E030438DF804008DF806300EE033438DF806308DF8040008E030438DF879
:4012C000040033438DF8063001E06FF0030232B92346032201A95520FFF78AFD0246104602B070BD2C96081030B583B005460C4602A9002301F8013D234601225920FFF753
:40130000F7FB034688B99DF8073003F07F022B78C3F3801342EAC31302A901F8013D234601225920FFF764FD0346184603B030BD30B583B005460C4600238DF80730ADF845
:4013400004300B4601220DF107015F20FFF7D0FB034688B99DF8073003F0FC038DF807308DF804306B788DF805302346022201A95F20FFF73DFD0346184603B030BD00BF39
:4013800070B505460E4614461146FFF731FF0346A8B92046FFF73AFF034680B921462846FFF756FF034650B921463046FFF79CFF034620B921463046FFF7BAFF034618469C
:4013C00070BD00BF70B505460C460846FFF7F4FA70B985B12E1D21463046FFF733FE034658B9224631462846FFF7CAFF034604E04FF0FF3301E04FF0FF33184670BD00BFBF
:4014000030B583B005460C4602A9002301F8013D234601225020FFF76BFB0346F0B92B7813F0200F0AD09DF8073003F0F80343F007038DF807300123E37007E09DF807301C
:4014400023F007038DF80730FF23E370234601220DF107015020FFF7CBFC0346184603B030BD00BF30B583B005460C4602A9002301F8013D234601225920FFF739FB034627
:4014800088B99DF8073003F07F022B78C3F3001342EAC31302A901F8013D234601225920FFF7A6FC0346184603B030BD30B583B005460C46437802A901F8013D2346012299
:4014C0006020FFF795FC034630BB234601220DF107016220FFF70CFB0346E8B99DF8072002F0F302297801F0030342EA830202F0CF02C1F3810342EA031303F0FD02C1F3E7
:40150000401342EA430302A901F8013D234601226220FFF76DFC0346184603B030BD00BF70B505460E4614461146FFF761FE034680B921462846FFF78BFE034650B9214638
:401540003046FFF78FFF034620B921463046FFF7ADFF0346184670BD70B505460C460846FFF72AFA70B985B12E1D21463046FFF747FF034658B9224631462846FFF7D0FFA3
:40158000034604E04FF0FF3301E04FF0FF33184670BD00BF30B583B004460D4602A9002301F8013D2B4601225220FFF7A1FA034658BB237813F0010F07D09DF8073003F000
:4015C000FE0343F001038DF80730237813F0020F07D09DF8073003F0FD0343F002038DF80730237813F0040F07D09DF8073003F0FB0343F004038DF807302B4601220DF1F1
:4016000007015220FFF7F4FB0346184603B030BD30B583B005460C4602A9002301F8013D234601225920FFF763FA034688B99DF8073003F07F026B78C3F3800342EAC3130A
:4016400002A901F8013D234601225920FFF7D0FB0346184603B030BD30B583B005460C4600238DF80730ADF804300B4601220DF107015F20FFF73CFA034688BB9DF8073091
:4016800003F003022B88C3F3C50342EA830302A901F8013D234601225F20FFF7A9FB0346F0B9234601220DF107016220FFF720FA0346A8B99DF8073003F0FE026B78C3F3B0
:4016C000400313438DF807308DF80530AB7802A901F8043D234602226120FFF789FB0346184603B030BD00BF70B505460E4614461146FFF77DFD034680B921462846FFF713
:40170000A7FD034650B921463046FFF781FF034620B921463046FFF79FFF0346184670BD70B505460C460846FFF746F970B985B12E1D21463046FFF72DFF034658B9224649
:4017400031462846FFF7D0FF034604E04FF0FF3301E04FF0FF33184670BD00BF70B582B005460E46144602A9002301F8013D134601225020FFF7BCF9034608BB6B78042B7B
:401780000BD19DF8073003F0DF027378C3F3C00342EA43138DF807300AE09DF8073003F0EF027378C3F3C00342EA03138DF80730234601220DF107015020FFF719FB0346BA
:4017C000184602B070BD00BF30B583B005460C4602A9002301F8013D234601225820FFF787F9034688B99DF8073003F0F7026B78C3F3800342EAC30302A901F8013D23461E
:4018000001225820FFF7F4FA0346184603B030BD70B582B006460D46144602A9002321F8043D134602226320FFF762F9034650BB9DF804307278032A06D12A88C2F3C212D3
:4018400003F0F8031343DBB22A78C2F3401103F0BF0343EA8113C2F3801103F07F0343EAC1138DF804309DF80530C2F3040203F0E0031A438DF805202346022201A96320E8
:40188000FFF7B6FA0346184602B070BD70B505460E4614461146FFF7ABFC034688B921462846FFF7D5FC034658B921463046FFF78BFF034628B9224631462846FFF7A8FFF9
:4018C0000346184670BD00BF70B504460D460846FFF772F8A8B9BCB1261D2A4631462046FFF73CFF034688B929462046FFF780FC034658B92A4631462046FFF7C7FF0346D9
:4019000004E04FF0FF3301E04FF0FF33184670BD30B583B005460C4602A9002301F8013D234601225220FFF7E3F8034688B99DF8073003F0F7022B7803F0010342EAC3031E
:4019400002A901F8013D234601225220FFF750FA0346184603B030BD30B583B00D460023ADF80430037813F0C00306D115238DF8043003238DF8053032E00446402B03D115
:401980002D238DF804302BE0802B06D11D238DF8043007238DF8053022E0C02B20D10B46022201A97A20FFF7A3F8C8B99DF8043003F0E7032278C2F3410143EAC10303F0F0
:4019C000F803C2F3C20213438DF804309DF8053003F0F8026378C3F3020313438DF805302B46022201A97A20FFF702FA03B030BD70B505460C460846FEF7DEFFC8B9DDB1AB
:401A00002E1D21463046FFF783FF0346B0B921462846FFF7EDFB034680B921462846FFF717FC034650B921463046FFF795FF034604E04FF0FF3301E04FF0FF33184670BD0D
:401A400030B583B005460C4602A9002301F8013D234601225020FFF74BF8034688B99DF8073003F0BF02AB7803F0010342EA831302A901F8013D234601225020FFF7B8F90C
:401A80000346184603B030BD30B583B005460C4600238DF804308DF805300B46022201A96520FFF725F8034678BB9DF8042002F0FC032978C1F301021A4302F0F30201F02A
:401AC0000C031A4302F00F0201F0F00313438DF804309DF8052002F0C0036978C1F305021A4302F0BF02C1F3801342EA831202F07F0201F0800313438DF8053023460222DD
:401B000001A96520FFF774F90346184603B030BD70B505460C460846FEF74EFFC8B9DDB12E1D21463046FFF78BFF0346B0B921462846FFF75DFB034680B921462846FFF7A1
:401B400087FB034650B921463046FFF79DFF034604E04FF0FF3301E04FF0FF33184670BD30B583B005460C4602A9002301F8013D234601225020FEF7BBFF034688B99DF823
:401B8000073003F07F026B78C3F3C00342EAC31302A901F8013D234601225020FFF728F90346184603B030BD30B583B005460C4600238DF804308DF805300B46022201A976
:401BC0006720FEF795FF034608BB9DF8043003F0C0022B78C3F3050313438DF804309DF8053003F0CF026B78C3F3410342EA031303F0F8032A88C2F3821213438DF8053035
:401C00002346022201A96720FFF7F2F80346184603B030BD70B505460C460846FEF7CCFEC8B9DDB12E1D21463046FFF799FF0346B0B921462846FFF7DBFA034680B92146F0
:401C40002846FFF705FB034650B921463046FFF7ABFF034604E04FF0FF3301E04FF0FF33184670BD30B583B005460C4602A9002301F8013D234601225120FEF739FF034689
:401C800088B99DF8073003F0F702AB78C3F3001342EAC30302A901F8013D234601225120FFF7A6F80346184603B030BD30B583B005460C4602A9002301F8013D234601224D
:401CC0005820FEF715FF034688B99DF8073003F07F02AB78C3F3C00342EAC31302A901F8013D234601225820FFF782F80346184603B030BD30B583B005460C4600238DF801
:401D000004308DF8053002A901F8023D234601225C20FEF7EDFE0346E0B99DF8062002F0FC03A978C1F301021A4302F0FB02C1F3800342EA83038DF806306B788DF80530F7
:401D40002B7802A901F8043D234603225A20FFF74FF80346184603B030BD00BF70B505460C460846FEF728FEF8B90DB32E1D21463046FFF777FF0346E0B921462846FFF7B3
:401D800037FA0346B0B921462846FFF761FA034680B921463046FFF789FF034650B921463046FFF7A7FF034604E04FF0FF3301E04FF0FF33184670BD30B583B005460C4642
:401DC00002A9002301F8013D234601225120FEF78FFE0346E0B99DF8072002F0FE032978C1F300021A4302F0FD02C1F3400342EA430202F0FB02C1F3800342EA830302A93E
:401E000001F8013D234601225120FEF7F1FF0346184603B030BD00BF30B583B005460C4602A9002301F8013D234601225820FEF75FFE034688B99DF8073003F07F022B7806
:401E4000C3F3401342EAC31302A901F8013D234601225820FEF7CCFF0346184603B030BD30B583B005460C4600238DF804308DF805308DF806300B46012201A95C20FEF7D5
:401E800037FE0346B8B99DF8043003F03F022B78C3F3C10342EA83138DF80430AB788DF805306B788DF806302346032201A95C20FEF79EFF0346184603B030BD70B5054626
:401EC0000C460846FEF778FDF8B90DB32E1D21463046FFF771FF0346E0B921462846FFF787F90346B0B921462846FFF7B1F9034680B921463046FFF78FFF034650B92146E9
:401F00003046FFF7ADFF034604E04FF0FF3301E04FF0FF33184670BD10B582B0044602A9002301F8013D034601225120FEF7E0FD034670B99DF8073003F0EF0343F01003B0
:401F400002A901F8013D234601225120FEF750FF0346184602B010BD30B583B005460C4602A9002301F8013D234601225620FEF7BFFD024670BB6B781849C85C9DF8073004
:401F800023EA00035BB20101C9B223EA0103DBB22D78032D13D8DFE805F00205090D8DF807300EE00B438DF807300AE003438DF8073006E003430B438DF8073001E06FF03A
:401FC00003023AB9234601220DF107015620FEF70FFF0246104603B030BD00BF2C96081038B505460C460846FEF7E6FC88B99DB12046FFF791FF034680B921462846FFF790
:40200000F7F8034650B921462846FFF7A5FF034604E04FF0FF3301E04FF0FF33184638BD30B583B005460C4602A9002301F8013D234601225120FEF75BFD034688B92B7A7A
:4020400003F001029DF8073023F0200343EA421302A901F8013D234601225120FEF7C8FE0346184603B030BD38B599B14A6AA2B10C460546FFF7D4FF034680B9214628460A
:40208000FFF7B6F8034650B921462846FFF764FF034604E04FF0FF3301E04FF0FF33184638BD00BF30B583B005460C4602A9002301F8013D234601225120FEF719FD0346EF
:4020C00088B92B7AC3F340029DF8073023F0400343EA821302A901F8013D234601225120FEF786FE0346184603B030BD38B599B14A6AA2B10C460546FFF7D4FF034680B959
:4021000021462846FFF774F8034650B921462846FFF722FF034604E04FF0FF3301E04FF0FF33184638BD00BF30B583B0B6238DF80730F0B10446436AF3B1034601220DF1D5
:4021400007017E20FEF754FE0546636A0F20984755B9A378012B07D1234601220DF107017F20FEF7C5FC054645B92046FEF73AFC04E04FF0FF3501E04FF0FF35284603B092
:4021800030BD00BF10B582B00446FEF715FC034648B9A278012A06D123460DF107017F20FEF7A6FC0346C3B9234601220DF106010020FEF79DFC58B99DF80630D12B0AD16A
:4021C0002370FF23E3702046FFF7AEFF034604E06FF0020301E06FF00203184602B010BD60B1426A6AB110B50446FEF7CFFE034658B92046FEF7F8FE034606E04FF0FF3327
:4022000001E04FF0FF3318467047184610BD00BFB0B1426ABAB110B50446FEF72BFE0346A8B92046FEF750FE034680B92046FFF7D7FF034658B92046FEF7B6FC034606E00B
:402240004FF0FF3301E04FF0FF3318467047184610BD00BF38B500F0030510F0040F01D1002000E00320B3B11446022D08D0032D0CD0012D12D1A1B11A46FEF7BBFC38BD7A
:4022800092B11A462146FEF7F5FC38BD7AB189B1FEF752FD38BD4FF0FF3038BD6FF0040038BD4FF0FF3038BD4FF0FF3038BD4FF0FF3038BD4FF0FF3038BD00BF08B543781D
:4022C0000C2B2CD8DFE803F0070A13101016191F1C0D22252800FFF775F808BDFFF73CF908BDFFF71DFA08BDFFF7EEFA08BDFFF77FFB08BDFFF70CFC08BDFFF78BFC08BDF8
:40230000FFF72CFD08BDFFF7D9FD08BDFFF768FE08BDFFF7A9FE08BDFFF7E8FE08BD002008BD00BFF0B585B0064617461C460F4D284600F8011B1A46394604F043FB8DF807
:40234000006001950134029400238DF80C30084A6946084801F0ACFB04464FF0FF31064B186802F0A5FD204605B0F0BD244B0208907602080000644054760208F0B587B00C
:40238000054617461E468DF807108DF808000DF107030393012304938DF81430124A02A9124801F085FB124CE0604FF0FF31114B186802F07DFDE3688BB98DF80850039799
:4023C00004968DF81430084A02A9084801F0B8FAE0604FF0FF31074B186802F069FD044BD86807B0F0BD00BF9076020800006440244B02085476020800B583B010F4002FE3
:4024000007D00E4804F0D4FFA9210D4802F09AF811E010F4C02F0ED001A90A4B186802F03DFC019B3BB14FF08052074B1A60BFF34F8FBFF36F8F03B05DF804FB3C96081003
:40244000689608105476020804ED00E010B504462146034800F088FC0028F9D010BD00BF00006640054BD3F80833C3F30803002BF8D0024BD3F84003704700BF00006640C8
:4024800008B50249024801F089FF08BD587602080000664008B5114B1B785BB9104A1149114801F057FD1149114802F00FF801220A4B1A700E4BB3F90030002B08DB5909A9
:4024C00003F01F03012202FA03F30A4A42F82130054A136843F00043136008BD344B0208587602089096081000006640812408108096081000E100E008B50249024801F027
:4025000033FC08BD907602080000644010B5144B1B788BB9134C144A1449204601F01AF8134A1449204601F023F91349134801F0CDFF01220A4B1A70104BB3F90030002B70
:4025400008DB590903F01F03012202FA03F30C4A42F82130034A136843F00043136010BD354B02080000644090760208D096081000127A00801A0600F9240810889608103A
:4025800000E100E01F4B98422DD00CD840282ED003D8E8B1102828D02FE0802829D0B0F5807F28D029E0184B984228D006D8B0F1204F0DD0154B984212D01EE0144B984283
:4025C0000AD00133984209D0023B984215D101E0002070470F4870470F4870470F4870474FF4A0007047074870470D4870470D4870470D487047034870470C4870474FF427
:40260000A400704706005200010000F0090000A0040000F0010052000200520003005200010050000200500005005200FF00520038B5124B1B6893F83130012B04D840F21F
:40264000C3110F4801F07EFF0C4B1D682A6AB5F8B03013442C46D5F8B420D358002B0BDB084B1868FFF78EFF6B6801229A6063689B68002BFBD138BD034838BDDC76020882
:40268000E4960810384B0208020050001A4B186128B102230370FF23437000234380174B1B6893F850202AB300B583B0B3F93830ADF80030002301931149684601F006FF5C
:4026C000BDF90030002B08DB590903F01F03012202FA03F30B4A42F82130084B1B6893F8513023B102220849012000F077FA03B05DF804FB704700BF384B0208DC76020867
:40270000C543020800E100E07D44020808B50248FFF7BCFF08BD00BF4C4B020838B50B4B1B68D3F8B4301B58002B0DDA0D4604460B0C1B0423B140F2D521054801F002FF16
:40274000A9B26160002038BD024838BDDC7602082497081001008A0038B50368002B01DA002300E0094B73B90D460446C2600B0C1B0423B140F2BB21054801F0E3FEA9B2FD
:40278000A160002038BD014838BD00BF01008A002497081038B504460D4619B99921084801F0D0FE074B1B68D3F8B4301B59002B03DAE3682B60002038BD034838BD00BF99
:4027C00064970810DC76020801008A00254B1B6893F8313083423AD900293AD00B6813F01F0F38D170B50D4604461E4B1B6893F83130984204D340F2C3111B4801F0A2FE03
:40280000184B1B68186AB3F8B03004FB0304174E34602A68D2080021686804F0DEF800212046FFF77BFF346825B940F293310E4801F088FE2A4600212046FFF78DFF60B9B9
:4028400000210A4B1868FFF769FF40B970BD084870470748704706487047064870BD054870BD00BFDC76020824970810504B020803018A0001018A0010B504461346B2B957
:40288000A9B9124B1B6893F83130984204D340F2C3110F4801F056FE0C4B1B681A6AB3F8B03004FB03240B4B1C60002010BD43B149B1084A51609360111D2046FFF786FFD6
:4028C00010BD054810BD044810BD00BFDC76020824970810504B020803018A002DE9F0411B4B1B68DC68236883422CD90D464609A0EB4610012303FA00F819B901F08DFE04
:40290000074600E00027124B18680368002B01DA002300E00F4B83B9626852F8263018EA030F05D023EA080342F82630002400E0094C0021FFF7F2FE00E0084C25B9384671
:4029400001F06FFE00E0064C2046BDE8F08100BF504B020801008A00020188000301880004018A000B4B1B68DB681A6882420CD94109A0EB4110012202FA00F05B6853F82C
:402980002130184203D004487047044870470448704700BF504B02080101880004018A0000018800024B1B680BB9014B186070475C4B02082DE9F8430446884691461D4627
:4029C000089F2C4B1B681BB9B5212B4801F0BAFD284B1B682C2000FB04F01C18EEB21E50C5F3072363602D0CA560244B1B6893F831309E4204D340F2C311214801F0A2FD87
:402A00001E4B1B68196AB3F8B02006FB02162661666893F832309E4204D340F2DF11184801F090FD154B1B681D6A803605EB46156561A668330C1B0423B14FF4FF7110481E
:402A400001F080FD330C1B0423B140F2FF110C4801F078FDB3B243EA0646AE60C4F81C90C4F820800023A36117B1B7F90030A381BDE8F8835C4B0208A4970810DC76020897
:402A800024970810F0B58FB0044618B95221274801F058FDA369072B03D95621234801F051FDE36A1BB95821204801F04BFD236B1BB959211D4801F045FD07AD04F114066F
:402AC0000FCE0FC537682F6002AD26460FCE0FC533682B60164B1B68B3F93620079B1344ADF83030089B0D93A26AE16A0CAD00953B460A98FFF75EFF00210091069B0A4620
:402B00000598FFF757FF216B284601F0DFFCBDF93030002B08DB590903F01F03012202FA03F3044A42F821300FB0F0BDA4970810DC76020800E100E0F8B506460F461D46D0
:402B400014461AB9FD211F4801F0FCFC1E4B1B681BB9FE211B4801F0F5FC1B4B1B682C2101FB063001FB07314B68012202FA03F31B04466802FA06F60269EAB18F69EFB9C7
:402B80001268002A01DA002200E0104AC2B92288134323600369DC6001238B614D620469330C1B0423B140F2BB21094801F0CAFCB2B2A2600020F8BD0648F8BD0648F8BDDF
:402BC0000548F8BDA49708105C4B020801008A002497081004028A0007028A00F8B505460F4616460E4B1B6823B94FF4AF710D4801F0A8FC0A4B1B682C2404FB0534236AB3
:402C000023B94FF4B171074801F09CFCE369B34204D9236A43F826700020F8BD0248F8BD5C4B0208A49708100A028A0070B582B000230193044620B940F2D111284801F0EB
:402C400081FC236923B94FF4E971254801F07AFC636923B940F2D311214801F073FC236A23B94FF4EA711E4801F06CFC6369DD682A0C20D012041A601B682069194B1B68F7
:402C8000D3F8B430C358002B15DA01A9FFF782FD60B9019803681E0CDBB2E269934206D2226A52F8233013B1984700E0002631462069FFF733FDADB275B16369ADB21D6020
:402CC0001B68636A1BB198470023636202E0A36A03B198470023A36163691B6802B070BDA4970810DC76020810B50446074B1B6823B940F2B111064801F024FC034B1B6887
:402D00002C2000FB0430FFF791FF10BD5C4B0208A497081010B4D0F8003303F00F03072B06D900230DE0D0F84043CC54013300E000239342F7D306E0D0F8404321F81340FE
:402D400001339342F8D35DF8044B704710B51446D0F80833C3F308039A4200D31C462246FFF7D8FF204610BD036813F4006F01D0802200E04022D0F80832C3F3080393429A
:402D800003D0C0F84012012070470020704700BF10B4D0F8003203F00F03072B06D900230DE0CC5CC0F84042013300E000239342F7D306E031F81340C0F840420133934207
:402DC000F8D35DF8044B704710B51446036813F4006F01D0802200E04022D0F80832C3F30803D31AA34200D81C462246FFF7D0FF204610BD02E0C0F84012013A002AFAD1AD
:402E0000704700BF10B51446036813F4006F01D0802200E04022D0F80832C3F30803D31AA34200D81C462246FFF7E4FF204610BD10B54A6841F201039A4231D1D0F8083395
:402E4000C3F30803B3B10B6A43F040030B620B7873B1D0F8043343F48033C0F80433D0F8043323F48033C0F80433D0F8043301E0D0F840330B6A43F020030B620B6A23F0C3
:402E800010030B62036E23F4204303660023C0F8C83F0123C0F8C03FD0F8C03F202221E0D0F80832C3F30802D0F80832C3F3C03313440A6BD21A4A630A6A12F0080F05D142
:402EC000CA6A1A44CA628A6AD31A8B620B6A43F004030B620B6A23F001030B620023C0F8883F1022D0F84C4F40F201131C420DD0036823F00043036000238366C3660368B5
:402F000043F000430360036842F040024FF080534B604B6C0BB11046984710BDD0F80C3F13F0020F1DD00222C0F8002FD0F8002FD0F8002F12F0040F02D04FF4001001E07F
:402F40004FF480108A6802438A604A68B2F5B81F07D00A7B12B14FF4C01201E04FF4B0124A6013F4807F03D08A6842F400028A6013F0010F03D08A6842F480028A6040F2D0
:402F80001112134202D04FF4C0134B60704700BF0023C0F8C83FC0F8883F836E23B140F21713C0F8083F704740F21313C0F8083F182383664FF4B8134B60704738B5D0F8B8
:402FC0000C4F036E23F4807303660023C0F8C83FC0F8883FC0F8083F40F21713C0F8003FD0F8003F8B6823F480338B604B7B13B18B69CB610BE08D69D0F80822C2F30802F4
:40300000D0F80832C3F3C0331344EB1ACB6140F201131C421BD0036E9B0F032B05D114F4827F14BF0123002300E001235BB1036823F00043036000238366C366036843F085
:403040000043036003684FF080534B601BE00B7893B1D0F8043343F48033C0F80433D0F8043323F48033C0F80433D0F804330123C0F8C03FD0F8C03F0B7B0BB10B4B01E016
:403080004FF080534B604A6C72B14B7B13B14FF4802001E04FF400308B6813F0F87301D04FF400231843904738BD00BF0000101070B505460C4691F8243013F0FF0F0ED18C
:4030C000CB6A63B94B6C0BB108209847E36AB3FA83F35B0984F824300123C5F8883F94F8243013F0FF0F16D063783BB12B6813F4006F01D0802202E0402200E00122FF2138
:403100002846FFF77FFE236B18442063236A43F00803236270BDE26A012A11D963780BB1013A00E00122A16A2846FFF74DFE236B03442363E36A1B1AE362A36A1844A06247
:40314000D5F80832C3F30803802B23D0E36A012B20D101F062FAA36A1B78C5F840324026C5F8806FD5F8803F01F05BFA236B013323630023E362A36A0133A362C5F8886FD5
:4031800063783BB1236A43F002032362636C0BB10420984770BD00BF38B54B68B3F5A81F03D14FF4C0134B6038BD4B68B3F5A01F4DD10C4605464A69012A11D94B780BB1CF
:4031C000013A00E0012221692846FFF7FDFDA3690344A36163691B1A6361236903442361D5F80832C3F30803802B14D06369012B11D101F012FA23691B78C5F84032402357
:40320000C5F8803FD5F8803F01F00BFAA3690133A361002363616369CBB9237B33B14023C5F8883F4FF4A813636005E00023C5F8883F4FF4B0136360637843B1A36843F485
:403240000033A360636C13B14FF48030984738BD70B504460D468A6C82B3036813F4803F06D0D0F84C3F13F0400F03D0022002E0002000E00020236E13F4006F06D1D4F884
:403280004C3F13F0800300D001231843C0B190470123C4F8C03FD4F8C03F024648B91023C4F8403FD4F8403F40F2D113C4F8483F07E040F2C113C4F8483F02E0002200E04D
:4032C0000022D4F8043243F48033C4F80432D4F8043223F48033C4F80432D4F804320AB9012300E00223E366002A59D1666E06F010066B6C23B10EB1012000E00220984739
:403300007EB141F202036B602B6A43F001032B626B6B2B63002385F824300123C4F8883F70BD41F201036B602B6A43F010032B620123C4F8C83F2B78BBB1EB6BBBB1236E23
:4033400043F400532366ED6B802D05D9A5F18003802B0ED8813D0DE0013D236E43F4004323660023C4F8C83F04E0002502E0002500E03F25236813F4006F01D0802300E0A1
:4033800040239D4204D34FF42071064801F0DAF8D4F8043323F0FF03EDB21D43C4F8045370BD00BFE497081038B54B68B3F5881F03D0B3F5901F1AD038BD0B69D0F84023CF
:4033C0001A708B6901338B614B69013B4B612BB10B6901330B610423836638BD0B7B13B14FF4C01301E04FF4B0134B6038BD0C4605464A690969FFF7A9FCA3690344A36103
:4034000063691B1A6361226910442061012B24D82B6E23F480732B666369012B16D12B6813F4006F01D0802300E0402323B94FF42071184801F086F8D5F8043323F0FF03D4
:40344000C5F804334FF48813636038BD0023C5F8C83F4FF4B013636038BD402B01D89C1E00E03F242B6813F4006F01D0802300E040239C4204D34FF42071064801F062F8FA
:40348000D5F8043323F0FF02E3B21343C5F8043338BD00BFE497081038B5CB6B002B50D00B78002B3FD00C460546D0F80423D2B20132896BFFF74AFC236C03442364E36B85
:4034C0001B1AE363A26B1044A063802B06D9A3F18002802A0FD8A3F181040DE02B6E43F400432B66E36B0BB15C1E00E000240023C5F8C83F00E03F242B6813F4006F01D086
:40350000802300E040239C4204D34FF42071104801F018F8D5F8043323F0FF02E3B21343C5F8043338BD0123C3668A6B0B6CD0F84003D0540B6C01330B64CB6B013BCB6335
:4035400038BD0223C3660023C0F8C83F38BD00BFE4970810F8B50B78012B03D00C7A1CB9002702E0002700E00127002800F0A780002900F0A680002A00F0A58016460C46B2
:403580000546013BDBB2022B03D94F214F4800F0D9FF637803B163791BB150214B4800F0D1FF94F90330002B03DA5121474800F0C9FF237913F0010F03D05221434800F033
:4035C000C1FF2369102B03D95321404800F0BAFFE368102B03D954213C4800F0B3FF637913B14FF4803100E00021E27912B14FF4807300E000230B4343F400632B60A3794B
:4036000013B94FF4006300E000232269013A02F00F021A43E368013B1B01DBB21343227843EA82732B6617B140F2073301E040F20713C5F800330FB1254B00E0254B2B67B9
:4036400063780BB17F2300E00023C5F80433E3785B00DBB2227943EA0243C5F810331E4BC5F80032A3780BB1402300E00123C5F804320023C5F8C83EC5F8883EC5F8C83F14
:40368000C5F8883FC5F8083F2378022B02D040F2D11300E00023C5F8483F63783370A37873704FF0805373600020B060B06130623064F0633063F0627064B064F8BD07489F
:4036C000F8BD0648F8BD0548F8BD00BF2898081003002A0013102A00070101000120AA0038B505460C4621B940F2C321194800F029FF2B6E9B0F012B17D1174B2344174AB7
:4037000093421ED9A4F5BD13A3F5D66302F5611202F56162934216D9A4F57104A4F533440F4B9C4211D80F4838BD84B1286EC0F303102B6E03F00F0318440230B4FBF0F0C4
:4037400038BD094838BD094838BD002038BD002038BD00BF2898081020AD88FF405B730040555C0440420F00801A0600A08601002DE9F84307468846914622B940F21221D5
:40378000624800F0DFFE08F1FF34614B9C4204D940F213215D4800F0D5FE3B6E9B0F012B0DD149463846FFF79BFF0546D7F8003323F40073C7F80033564B3B67A2E0544B0A
:4037C0009C421FD8544B984509D8A9F5BD13A3F5D663524A934218D90021012328E0504B984507D84F4B4B444F4A934213D9002101231DE04D4B4B444D4A934212D90021EE
:40380000012315E00021012312E0002141F288352E460B460CE000214FF461754FF4C8660B4605E001214FF4BE754FF41B760023002B66D13F4BB3FBF9F3B6FBF3F404FBE9
:4038400003F2964200D90134102C00D910240F2C8CBF00220122B5FBF3F606FB03F39D4200D90136102E00D91026A519B9FBF5F50FE022B10F2C09D80134002206E00F2ED9
:4038800004D801360F2C8CBF00220122A519B9FBF5F5454502D9A3191F2BEAD941B1D7F8003343F40073C7F80033234B3B6707E0D7F8003323F40073C7F80033154B3B6799
:4038C000E31F092B04D940F283511C4800F03AFE3B6E23F0F003013C2401E4B223433B66731F0B2B04D94FF4B461144800F02AFE3B6E23F00F03013E06F00F061E433E66E7
:4039000000E000252846BDE8F88300BF289808103F420F0013102A00A0860100502D1900801A060020AD88FFA0432100807E25FFC02BAF0000CA9A3B03002A00689808102B
:4039400070B5044615460E4621B940F2D341554800F0F8FD73680BB1B36823B940F2D441504800F0EFFD96F90030002B04DA40F2D5414C4800F0E6FD0023C4F8483F6B688E
:4039800013F0805F00F0888033785B00DBB243F001034FF48032AA6072682A61B2686A610022AA61EA61327B2A7301226A7340F21712C4F8002FD4F8002FD4F8042242F4EF
:4039C0008032C4F80422D4F8042222F48032C4F80422D4F804226A68B2F1805F04D1C4F840320223A36609E0626E12F0200F01D0092200E00122A266C4F840322B7843B368
